{
	"contracts/MyContract.sol": {
		"MyContract": {
			"abi": [
				{
					"inputs": [],
					"stateMutability": "nonpayable",
					"type": "constructor"
				},
				{
					"inputs": [
						{
							"internalType": "uint256",
							"name": "_id",
							"type": "uint256"
						},
						{
							"internalType": "string",
							"name": "_title",
							"type": "string"
						},
						{
							"internalType": "string",
							"name": "_author",
							"type": "string"
						}
					],
					"name": "addBook",
					"outputs": [],
					"stateMutability": "nonpayable",
					"type": "function"
				},
				{
					"inputs": [
						{
							"internalType": "uint256",
							"name": "_id",
							"type": "uint256"
						},
						{
							"internalType": "string",
							"name": "_title",
							"type": "string"
						},
						{
							"internalType": "string",
							"name": "_author",
							"type": "string"
						}
					],
					"name": "addMyBook",
					"outputs": [],
					"stateMutability": "nonpayable",
					"type": "function"
				},
				{
					"inputs": [
						{
							"internalType": "string",
							"name": "_value",
							"type": "string"
						}
					],
					"name": "addValue",
					"outputs": [],
					"stateMutability": "nonpayable",
					"type": "function"
				},
				{
					"inputs": [
						{
							"internalType": "uint256",
							"name": "",
							"type": "uint256"
						},
						{
							"internalType": "uint256",
							"name": "",
							"type": "uint256"
						}
					],
					"name": "array2D",
					"outputs": [
						{
							"internalType": "uint256",
							"name": "",
							"type": "uint256"
						}
					],
					"stateMutability": "view",
					"type": "function"
				},
				{
					"inputs": [
						{
							"internalType": "uint256",
							"name": "",
							"type": "uint256"
						}
					],
					"name": "books",
					"outputs": [
						{
							"internalType": "string",
							"name": "title",
							"type": "string"
						},
						{
							"internalType": "string",
							"name": "author",
							"type": "string"
						}
					],
					"stateMutability": "view",
					"type": "function"
				},
				{
					"inputs": [],
					"name": "getValue",
					"outputs": [
						{
							"internalType": "uint256",
							"name": "",
							"type": "uint256"
						}
					],
					"stateMutability": "pure",
					"type": "function"
				},
				{
					"inputs": [],
					"name": "myAddress",
					"outputs": [
						{
							"internalType": "address",
							"name": "",
							"type": "address"
						}
					],
					"stateMutability": "view",
					"type": "function"
				},
				{
					"inputs": [
						{
							"internalType": "address",
							"name": "",
							"type": "address"
						},
						{
							"internalType": "uint256",
							"name": "",
							"type": "uint256"
						}
					],
					"name": "myBooks",
					"outputs": [
						{
							"internalType": "string",
							"name": "title",
							"type": "string"
						},
						{
							"internalType": "string",
							"name": "author",
							"type": "string"
						}
					],
					"stateMutability": "view",
					"type": "function"
				},
				{
					"inputs": [],
					"name": "myBytes32",
					"outputs": [
						{
							"internalType": "bytes32",
							"name": "",
							"type": "bytes32"
						}
					],
					"stateMutability": "view",
					"type": "function"
				},
				{
					"inputs": [],
					"name": "myInt",
					"outputs": [
						{
							"internalType": "int256",
							"name": "",
							"type": "int256"
						}
					],
					"stateMutability": "view",
					"type": "function"
				},
				{
					"inputs": [],
					"name": "myString",
					"outputs": [
						{
							"internalType": "string",
							"name": "",
							"type": "string"
						}
					],
					"stateMutability": "view",
					"type": "function"
				},
				{
					"inputs": [],
					"name": "myStruct",
					"outputs": [
						{
							"internalType": "uint256",
							"name": "myUint256",
							"type": "uint256"
						},
						{
							"internalType": "string",
							"name": "myString",
							"type": "string"
						}
					],
					"stateMutability": "view",
					"type": "function"
				},
				{
					"inputs": [],
					"name": "myUint",
					"outputs": [
						{
							"internalType": "uint256",
							"name": "",
							"type": "uint256"
						}
					],
					"stateMutability": "view",
					"type": "function"
				},
				{
					"inputs": [],
					"name": "myUint256",
					"outputs": [
						{
							"internalType": "uint256",
							"name": "",
							"type": "uint256"
						}
					],
					"stateMutability": "view",
					"type": "function"
				},
				{
					"inputs": [
						{
							"internalType": "uint256",
							"name": "",
							"type": "uint256"
						}
					],
					"name": "stringArray",
					"outputs": [
						{
							"internalType": "string",
							"name": "",
							"type": "string"
						}
					],
					"stateMutability": "view",
					"type": "function"
				},
				{
					"inputs": [
						{
							"internalType": "uint256",
							"name": "",
							"type": "uint256"
						}
					],
					"name": "uintArray",
					"outputs": [
						{
							"internalType": "uint256",
							"name": "",
							"type": "uint256"
						}
					],
					"stateMutability": "view",
					"type": "function"
				},
				{
					"inputs": [],
					"name": "valueCount",
					"outputs": [
						{
							"internalType": "uint256",
							"name": "",
							"type": "uint256"
						}
					],
					"stateMutability": "view",
					"type": "function"
				},
				{
					"inputs": [
						{
							"internalType": "uint256",
							"name": "",
							"type": "uint256"
						}
					],
					"name": "values",
					"outputs": [
						{
							"internalType": "string",
							"name": "",
							"type": "string"
						}
					],
					"stateMutability": "view",
					"type": "function"
				}
			],
			"devdoc": {
				"kind": "dev",
				"methods": {},
				"version": 1
			},
			"evm": {
				"assembly": "    /* \"contracts/MyContract.sol\":60:1764  contract MyContract {\r... */\n  mstore(0x40, 0x80)\n    /* \"contracts/MyContract.sol\":101:134  uint[] public uintArray = [1,2,3] */\n  mload(0x40)\n  dup1\n  0x60\n  add\n  0x40\n  mstore\n  dup1\n    /* \"contracts/MyContract.sol\":128:129  1 */\n  0x01\n    /* \"contracts/MyContract.sol\":101:134  uint[] public uintArray = [1,2,3] */\n  0xff\n  and\n  dup2\n  mstore\n  0x20\n  add\n    /* \"contracts/MyContract.sol\":130:131  2 */\n  0x02\n    /* \"contracts/MyContract.sol\":101:134  uint[] public uintArray = [1,2,3] */\n  0xff\n  and\n  dup2\n  mstore\n  0x20\n  add\n    /* \"contracts/MyContract.sol\":132:133  3 */\n  0x03\n    /* \"contracts/MyContract.sol\":101:134  uint[] public uintArray = [1,2,3] */\n  0xff\n  and\n  dup2\n  mstore\n  pop\n  0x00\n  swap1\n  0x03\n  tag_1\n  swap3\n  swap2\n  swap1\n  tag_2\n  jump\t// in\ntag_1:\n  pop\n    /* \"contracts/MyContract.sol\":141:200  string[] public stringArray = [\"apple\", \"banana\", \"carrot\"] */\n  mload(0x40)\n  dup1\n  0x60\n  add\n  0x40\n  mstore\n  dup1\n  mload(0x40)\n  dup1\n  0x40\n  add\n  0x40\n  mstore\n  dup1\n  0x05\n  dup2\n  mstore\n  0x20\n  add\n  0x6170706c65000000000000000000000000000000000000000000000000000000\n  dup2\n  mstore\n  pop\n  dup2\n  mstore\n  0x20\n  add\n  mload(0x40)\n  dup1\n  0x40\n  add\n  0x40\n  mstore\n  dup1\n  0x06\n  dup2\n  mstore\n  0x20\n  add\n  0x62616e616e610000000000000000000000000000000000000000000000000000\n  dup2\n  mstore\n  pop\n  dup2\n  mstore\n  0x20\n  add\n  mload(0x40)\n  dup1\n  0x40\n  add\n  0x40\n  mstore\n  dup1\n  0x06\n  dup2\n  mstore\n  0x20\n  add\n  0x636172726f740000000000000000000000000000000000000000000000000000\n  dup2\n  mstore\n  pop\n  dup2\n  mstore\n  pop\n  0x01\n  swap1\n  0x03\n  tag_3\n  swap3\n  swap2\n  swap1\n  tag_4\n  jump\t// in\ntag_3:\n  pop\n    /* \"contracts/MyContract.sol\":236:287  uint256[][] public array2D = [[1, 2, 3], [4, 5, 6]] */\n  mload(0x40)\n  dup1\n  0x40\n  add\n  0x40\n  mstore\n  dup1\n  mload(0x40)\n  dup1\n  0x60\n  add\n  0x40\n  mstore\n  dup1\n    /* \"contracts/MyContract.sol\":267:268  1 */\n  0x01\n    /* \"contracts/MyContract.sol\":236:287  uint256[][] public array2D = [[1, 2, 3], [4, 5, 6]] */\n  0xff\n  and\n  dup2\n  mstore\n  0x20\n  add\n    /* \"contracts/MyContract.sol\":270:271  2 */\n  0x02\n    /* \"contracts/MyContract.sol\":236:287  uint256[][] public array2D = [[1, 2, 3], [4, 5, 6]] */\n  0xff\n  and\n  dup2\n  mstore\n  0x20\n  add\n    /* \"contracts/MyContract.sol\":273:274  3 */\n  0x03\n    /* \"contracts/MyContract.sol\":236:287  uint256[][] public array2D = [[1, 2, 3], [4, 5, 6]] */\n  0xff\n  and\n  dup2\n  mstore\n  pop\n  dup2\n  mstore\n  0x20\n  add\n  mload(0x40)\n  dup1\n  0x60\n  add\n  0x40\n  mstore\n  dup1\n    /* \"contracts/MyContract.sol\":278:279  4 */\n  0x04\n    /* \"contracts/MyContract.sol\":236:287  uint256[][] public array2D = [[1, 2, 3], [4, 5, 6]] */\n  0xff\n  and\n  dup2\n  mstore\n  0x20\n  add\n    /* \"contracts/MyContract.sol\":281:282  5 */\n  0x05\n    /* \"contracts/MyContract.sol\":236:287  uint256[][] public array2D = [[1, 2, 3], [4, 5, 6]] */\n  0xff\n  and\n  dup2\n  mstore\n  0x20\n  add\n    /* \"contracts/MyContract.sol\":284:285  6 */\n  0x06\n    /* \"contracts/MyContract.sol\":236:287  uint256[][] public array2D = [[1, 2, 3], [4, 5, 6]] */\n  0xff\n  and\n  dup2\n  mstore\n  pop\n  dup2\n  mstore\n  pop\n  0x03\n  swap1\n  0x02\n  tag_5\n  swap3\n  swap2\n  swap1\n  tag_6\n  jump\t// in\ntag_5:\n  pop\n    /* \"contracts/MyContract.sol\":351:352  1 */\n  0x01\n    /* \"contracts/MyContract.sol\":329:352  uint public myUint  = 1 */\n  0x04\n  sstore\n    /* \"contracts/MyContract.sol\":387:388  1 */\n  0x01\n    /* \"contracts/MyContract.sol\":359:388  uint256 public myUint256  = 1 */\n  0x05\n  sstore\n    /* \"contracts/MyContract.sol\":414:416  -1 */\n  0xffffffffffffffffffffffffffffffffffffffffffffffffffffffffffffffff\n    /* \"contracts/MyContract.sol\":395:416  int public myInt = -1 */\n  0x06\n  sstore\n    /* \"contracts/MyContract.sol\":423:461  string public myString = \"Hello World\" */\n  mload(0x40)\n  dup1\n  0x40\n  add\n  0x40\n  mstore\n  dup1\n  0x0b\n  dup2\n  mstore\n  0x20\n  add\n  0x48656c6c6f20576f726c64000000000000000000000000000000000000000000\n  dup2\n  mstore\n  pop\n  0x07\n  swap1\n  dup1\n  mload\n  swap1\n  0x20\n  add\n  swap1\n  tag_7\n  swap3\n  swap2\n  swap1\n  tag_8\n  jump\t// in\ntag_7:\n  pop\n    /* \"contracts/MyContract.sol\":468:505  bytes32 public myBytes32 = \"Hi World\" */\n  sstore(0x08, 0x486920576f726c64000000000000000000000000000000000000000000000000)\n    /* \"contracts/MyContract.sol\":539:549  msg.sender */\n  caller\n    /* \"contracts/MyContract.sol\":512:549  address public myAddress = msg.sender */\n  0x09\n  exp(0x0100, 0x00)\n  dup2\n  sload\n  dup2\n  0xffffffffffffffffffffffffffffffffffffffff\n  mul\n  not\n  and\n  swap1\n  dup4\n  0xffffffffffffffffffffffffffffffffffffffff\n  and\n  mul\n  or\n  swap1\n  sstore\n  pop\n    /* \"contracts/MyContract.sol\":669:694  MyStruct(1, \"Ola Mundo!\") */\n  mload(0x40)\n  dup1\n  0x40\n  add\n  0x40\n  mstore\n  dup1\n    /* \"contracts/MyContract.sol\":678:679  1 */\n  0x01\n    /* \"contracts/MyContract.sol\":669:694  MyStruct(1, \"Ola Mundo!\") */\n  dup2\n  mstore\n  0x20\n  add\n  mload(0x40)\n  dup1\n  0x40\n  add\n  0x40\n  mstore\n  dup1\n  0x0a\n  dup2\n  mstore\n  0x20\n  add\n  0x4f6c61204d756e646f2100000000000000000000000000000000000000000000\n  dup2\n  mstore\n  pop\n  dup2\n  mstore\n  pop\n    /* \"contracts/MyContract.sol\":642:694  MyStruct public myStruct = MyStruct(1, \"Ola Mundo!\") */\n  0x0a\n  0x00\n  dup3\n  add\n  mload\n  dup2\n  0x00\n  add\n  sstore\n  0x20\n  dup3\n  add\n  mload\n  dup2\n  0x01\n  add\n  swap1\n  dup1\n  mload\n  swap1\n  0x20\n  add\n  swap1\n  tag_9\n  swap3\n  swap2\n  swap1\n  tag_8\n  jump\t// in\ntag_9:\n  pop\n  pop\n  pop\n    /* \"contracts/MyContract.sol\":969:1076  constructor() {\r... */\n  callvalue\n  dup1\n  iszero\n  tag_10\n  jumpi\n  0x00\n  dup1\n  revert\ntag_10:\n  pop\n    /* \"contracts/MyContract.sol\":994:1011  names[1] = \"Adam\" */\n  mload(0x40)\n  dup1\n  0x40\n  add\n  0x40\n  mstore\n  dup1\n  0x04\n  dup2\n  mstore\n  0x20\n  add\n  0x4164616d00000000000000000000000000000000000000000000000000000000\n  dup2\n  mstore\n  pop\n    /* \"contracts/MyContract.sol\":994:999  names */\n  0x0c\n    /* \"contracts/MyContract.sol\":994:1002  names[1] */\n  0x00\n    /* \"contracts/MyContract.sol\":1000:1001  1 */\n  0x01\n    /* \"contracts/MyContract.sol\":994:1002  names[1] */\n  dup2\n  mstore\n  0x20\n  add\n  swap1\n  dup2\n  mstore\n  0x20\n  add\n  0x00\n  keccak256\n    /* \"contracts/MyContract.sol\":994:1011  names[1] = \"Adam\" */\n  swap1\n  dup1\n  mload\n  swap1\n  0x20\n  add\n  swap1\n  tag_13\n  swap3\n  swap2\n  swap1\n  tag_8\n  jump\t// in\ntag_13:\n  pop\n    /* \"contracts/MyContract.sol\":1022:1040  names[2] = \"Bruce\" */\n  mload(0x40)\n  dup1\n  0x40\n  add\n  0x40\n  mstore\n  dup1\n  0x05\n  dup2\n  mstore\n  0x20\n  add\n  0x4272756365000000000000000000000000000000000000000000000000000000\n  dup2\n  mstore\n  pop\n    /* \"contracts/MyContract.sol\":1022:1027  names */\n  0x0c\n    /* \"contracts/MyContract.sol\":1022:1030  names[2] */\n  0x00\n    /* \"contracts/MyContract.sol\":1028:1029  2 */\n  0x02\n    /* \"contracts/MyContract.sol\":1022:1030  names[2] */\n  dup2\n  mstore\n  0x20\n  add\n  swap1\n  dup2\n  mstore\n  0x20\n  add\n  0x00\n  keccak256\n    /* \"contracts/MyContract.sol\":1022:1040  names[2] = \"Bruce\" */\n  swap1\n  dup1\n  mload\n  swap1\n  0x20\n  add\n  swap1\n  tag_14\n  swap3\n  swap2\n  swap1\n  tag_8\n  jump\t// in\ntag_14:\n  pop\n    /* \"contracts/MyContract.sol\":1051:1068  names[3] = \"Carl\" */\n  mload(0x40)\n  dup1\n  0x40\n  add\n  0x40\n  mstore\n  dup1\n  0x04\n  dup2\n  mstore\n  0x20\n  add\n  0x4361726c00000000000000000000000000000000000000000000000000000000\n  dup2\n  mstore\n  pop\n    /* \"contracts/MyContract.sol\":1051:1056  names */\n  0x0c\n    /* \"contracts/MyContract.sol\":1051:1059  names[3] */\n  0x00\n    /* \"contracts/MyContract.sol\":1057:1058  3 */\n  0x03\n    /* \"contracts/MyContract.sol\":1051:1059  names[3] */\n  dup2\n  mstore\n  0x20\n  add\n  swap1\n  dup2\n  mstore\n  0x20\n  add\n  0x00\n  keccak256\n    /* \"contracts/MyContract.sol\":1051:1068  names[3] = \"Carl\" */\n  swap1\n  dup1\n  mload\n  swap1\n  0x20\n  add\n  swap1\n  tag_15\n  swap3\n  swap2\n  swap1\n  tag_8\n  jump\t// in\ntag_15:\n  pop\n    /* \"contracts/MyContract.sol\":60:1764  contract MyContract {\r... */\n  jump(tag_16)\ntag_2:\n  dup3\n  dup1\n  sload\n  dup3\n  dup3\n  sstore\n  swap1\n  0x00\n  mstore\n  keccak256(0x00, 0x20)\n  swap1\n  dup2\n  add\n  swap3\n  dup3\n  iszero\n  tag_17\n  jumpi\n  swap2\n  0x20\n  mul\n  dup3\n  add\ntag_18:\n  dup3\n  dup2\n  gt\n  iszero\n  tag_19\n  jumpi\n  dup3\n  mload\n  dup3\n  swap1\n  0xff\n  and\n  swap1\n  sstore\n  swap2\n  0x20\n  add\n  swap2\n  swap1\n  0x01\n  add\n  swap1\n  jump(tag_18)\ntag_19:\ntag_17:\n  pop\n  swap1\n  pop\n  tag_20\n  swap2\n  swap1\n  tag_21\n  jump\t// in\ntag_20:\n  pop\n  swap1\n  jump\t// out\ntag_4:\n  dup3\n  dup1\n  sload\n  dup3\n  dup3\n  sstore\n  swap1\n  0x00\n  mstore\n  keccak256(0x00, 0x20)\n  swap1\n  dup2\n  add\n  swap3\n  dup3\n  iszero\n  tag_22\n  jumpi\n  swap2\n  0x20\n  mul\n  dup3\n  add\ntag_23:\n  dup3\n  dup2\n  gt\n  iszero\n  tag_24\n  jumpi\n  dup3\n  mload\n  dup3\n  swap1\n  dup1\n  mload\n  swap1\n  0x20\n  add\n  swap1\n  tag_25\n  swap3\n  swap2\n  swap1\n  tag_8\n  jump\t// in\ntag_25:\n  pop\n  swap2\n  0x20\n  add\n  swap2\n  swap1\n  0x01\n  add\n  swap1\n  jump(tag_23)\ntag_24:\ntag_22:\n  pop\n  swap1\n  pop\n  tag_26\n  swap2\n  swap1\n  tag_27\n  jump\t// in\ntag_26:\n  pop\n  swap1\n  jump\t// out\ntag_6:\n  dup3\n  dup1\n  sload\n  dup3\n  dup3\n  sstore\n  swap1\n  0x00\n  mstore\n  keccak256(0x00, 0x20)\n  swap1\n  dup2\n  add\n  swap3\n  dup3\n  iszero\n  tag_28\n  jumpi\n  swap2\n  0x20\n  mul\n  dup3\n  add\ntag_29:\n  dup3\n  dup2\n  gt\n  iszero\n  tag_30\n  jumpi\n  dup3\n  mload\n  dup3\n  swap1\n  0x03\n  tag_31\n  swap3\n  swap2\n  swap1\n  tag_2\n  jump\t// in\ntag_31:\n  pop\n  swap2\n  0x20\n  add\n  swap2\n  swap1\n  0x01\n  add\n  swap1\n  jump(tag_29)\ntag_30:\ntag_28:\n  pop\n  swap1\n  pop\n  tag_32\n  swap2\n  swap1\n  tag_33\n  jump\t// in\ntag_32:\n  pop\n  swap1\n  jump\t// out\ntag_8:\n  dup3\n  dup1\n  sload\n  tag_34\n  swap1\n  tag_35\n  jump\t// in\ntag_34:\n  swap1\n  0x00\n  mstore\n  keccak256(0x00, 0x20)\n  swap1\n  0x1f\n  add\n  0x20\n  swap1\n  div\n  dup2\n  add\n  swap3\n  dup3\n  tag_37\n  jumpi\n  0x00\n  dup6\n  sstore\n  jump(tag_36)\ntag_37:\n  dup3\n  0x1f\n  lt\n  tag_38\n  jumpi\n  dup1\n  mload\n  not(0xff)\n  and\n  dup4\n  dup1\n  add\n  or\n  dup6\n  sstore\n  jump(tag_36)\ntag_38:\n  dup3\n  dup1\n  add\n  0x01\n  add\n  dup6\n  sstore\n  dup3\n  iszero\n  tag_36\n  jumpi\n  swap2\n  dup3\n  add\ntag_39:\n  dup3\n  dup2\n  gt\n  iszero\n  tag_40\n  jumpi\n  dup3\n  mload\n  dup3\n  sstore\n  swap2\n  0x20\n  add\n  swap2\n  swap1\n  0x01\n  add\n  swap1\n  jump(tag_39)\ntag_40:\ntag_36:\n  pop\n  swap1\n  pop\n  tag_41\n  swap2\n  swap1\n  tag_21\n  jump\t// in\ntag_41:\n  pop\n  swap1\n  jump\t// out\ntag_21:\ntag_42:\n  dup1\n  dup3\n  gt\n  iszero\n  tag_43\n  jumpi\n  0x00\n  dup2\n  0x00\n  swap1\n  sstore\n  pop\n  0x01\n  add\n  jump(tag_42)\ntag_43:\n  pop\n  swap1\n  jump\t// out\ntag_27:\ntag_44:\n  dup1\n  dup3\n  gt\n  iszero\n  tag_45\n  jumpi\n  0x00\n  dup2\n  dup2\n  tag_46\n  swap2\n  swap1\n  tag_47\n  jump\t// in\ntag_46:\n  pop\n  0x01\n  add\n  jump(tag_44)\ntag_45:\n  pop\n  swap1\n  jump\t// out\ntag_33:\ntag_48:\n  dup1\n  dup3\n  gt\n  iszero\n  tag_49\n  jumpi\n  0x00\n  dup2\n  dup2\n  tag_50\n  swap2\n  swap1\n  tag_51\n  jump\t// in\ntag_50:\n  pop\n  0x01\n  add\n  jump(tag_48)\ntag_49:\n  pop\n  swap1\n  jump\t// out\ntag_47:\n  pop\n  dup1\n  sload\n  tag_52\n  swap1\n  tag_35\n  jump\t// in\ntag_52:\n  0x00\n  dup3\n  sstore\n  dup1\n  0x1f\n  lt\n  tag_54\n  jumpi\n  pop\n  jump(tag_53)\ntag_54:\n  0x1f\n  add\n  0x20\n  swap1\n  div\n  swap1\n  0x00\n  mstore\n  keccak256(0x00, 0x20)\n  swap1\n  dup2\n  add\n  swap1\n  tag_55\n  swap2\n  swap1\n  tag_21\n  jump\t// in\ntag_55:\ntag_53:\n  pop\n  jump\t// out\ntag_51:\n  pop\n  dup1\n  sload\n  0x00\n  dup3\n  sstore\n  swap1\n  0x00\n  mstore\n  keccak256(0x00, 0x20)\n  swap1\n  dup2\n  add\n  swap1\n  tag_57\n  swap2\n  swap1\n  tag_21\n  jump\t// in\ntag_57:\n  pop\n  jump\t// out\n    /* \"#utility.yul\":7:327   */\ntag_35:\n    /* \"#utility.yul\":51:57   */\n  0x00\n    /* \"#utility.yul\":88:89   */\n  0x02\n    /* \"#utility.yul\":82:86   */\n  dup3\n    /* \"#utility.yul\":78:90   */\n  div\n    /* \"#utility.yul\":68:90   */\n  swap1\n  pop\n    /* \"#utility.yul\":135:136   */\n  0x01\n    /* \"#utility.yul\":129:133   */\n  dup3\n    /* \"#utility.yul\":125:137   */\n  and\n    /* \"#utility.yul\":156:174   */\n  dup1\n    /* \"#utility.yul\":146:227   */\n  tag_60\n  jumpi\n    /* \"#utility.yul\":212:216   */\n  0x7f\n    /* \"#utility.yul\":204:210   */\n  dup3\n    /* \"#utility.yul\":200:217   */\n  and\n    /* \"#utility.yul\":190:217   */\n  swap2\n  pop\n    /* \"#utility.yul\":146:227   */\ntag_60:\n    /* \"#utility.yul\":274:276   */\n  0x20\n    /* \"#utility.yul\":266:272   */\n  dup3\n    /* \"#utility.yul\":263:277   */\n  lt\n    /* \"#utility.yul\":243:261   */\n  dup2\n    /* \"#utility.yul\":240:278   */\n  eq\n    /* \"#utility.yul\":237:321   */\n  iszero\n  tag_61\n  jumpi\n    /* \"#utility.yul\":293:311   */\n  tag_62\n  tag_63\n  jump\t// in\ntag_62:\n    /* \"#utility.yul\":237:321   */\ntag_61:\n    /* \"#utility.yul\":58:327   */\n  pop\n    /* \"#utility.yul\":7:327   */\n  swap2\n  swap1\n  pop\n  jump\t// out\n    /* \"#utility.yul\":333:513   */\ntag_63:\n    /* \"#utility.yul\":381:458   */\n  0x4e487b7100000000000000000000000000000000000000000000000000000000\n    /* \"#utility.yul\":378:379   */\n  0x00\n    /* \"#utility.yul\":371:459   */\n  mstore\n    /* \"#utility.yul\":478:482   */\n  0x22\n    /* \"#utility.yul\":475:476   */\n  0x04\n    /* \"#utility.yul\":468:483   */\n  mstore\n    /* \"#utility.yul\":502:506   */\n  0x24\n    /* \"#utility.yul\":499:500   */\n  0x00\n    /* \"#utility.yul\":492:507   */\n  revert\n    /* \"contracts/MyContract.sol\":60:1764  contract MyContract {\r... */\ntag_16:\n  dataSize(sub_0)\n  dup1\n  dataOffset(sub_0)\n  0x00\n  codecopy\n  0x00\n  return\nstop\n\nsub_0: assembly {\n        /* \"contracts/MyContract.sol\":60:1764  contract MyContract {\r... */\n      mstore(0x40, 0x80)\n      callvalue\n      dup1\n      iszero\n      tag_1\n      jumpi\n      0x00\n      dup1\n      revert\n    tag_1:\n      pop\n      jumpi(tag_2, lt(calldatasize, 0x04))\n      shr(0xe0, calldataload(0x00))\n      dup1\n      0x493ec707\n      gt\n      tag_21\n      jumpi\n      dup1\n      0x68744046\n      gt\n      tag_22\n      jumpi\n      dup1\n      0x68744046\n      eq\n      tag_16\n      jumpi\n      dup1\n      0x8bc9fe6c\n      eq\n      tag_17\n      jumpi\n      dup1\n      0x9ae918c7\n      eq\n      tag_18\n      jumpi\n      dup1\n      0xa7dbce1c\n      eq\n      tag_19\n      jumpi\n      dup1\n      0xd3268fc1\n      eq\n      tag_20\n      jumpi\n      jump(tag_2)\n    tag_22:\n      dup1\n      0x493ec707\n      eq\n      tag_12\n      jumpi\n      dup1\n      0x4b3e7e0c\n      eq\n      tag_13\n      jumpi\n      dup1\n      0x5e383d21\n      eq\n      tag_14\n      jumpi\n      dup1\n      0x6422c4c8\n      eq\n      tag_15\n      jumpi\n      jump(tag_2)\n    tag_21:\n      dup1\n      0x26eb4dbb\n      gt\n      tag_23\n      jumpi\n      dup1\n      0x26eb4dbb\n      eq\n      tag_7\n      jumpi\n      dup1\n      0x27d3553f\n      eq\n      tag_8\n      jumpi\n      dup1\n      0x2cb777a6\n      eq\n      tag_9\n      jumpi\n      dup1\n      0x3a5fbaaa\n      eq\n      tag_10\n      jumpi\n      dup1\n      0x492bfa18\n      eq\n      tag_11\n      jumpi\n      jump(tag_2)\n    tag_23:\n      dup1\n      0x028414f2\n      eq\n      tag_3\n      jumpi\n      dup1\n      0x06540f7e\n      eq\n      tag_4\n      jumpi\n      dup1\n      0x20965255\n      eq\n      tag_5\n      jumpi\n      dup1\n      0x26b85ee1\n      eq\n      tag_6\n      jumpi\n    tag_2:\n      0x00\n      dup1\n      revert\n        /* \"contracts/MyContract.sol\":1084:1250  function addBook(\r... */\n    tag_3:\n      tag_24\n      0x04\n      dup1\n      calldatasize\n      sub\n      dup2\n      add\n      swap1\n      tag_25\n      swap2\n      swap1\n      tag_26\n      jump\t// in\n    tag_25:\n      tag_27\n      jump\t// in\n    tag_24:\n      stop\n        /* \"contracts/MyContract.sol\":329:352  uint public myUint  = 1 */\n    tag_4:\n      tag_28\n      tag_29\n      jump\t// in\n    tag_28:\n      mload(0x40)\n      tag_30\n      swap2\n      swap1\n      tag_31\n      jump\t// in\n    tag_30:\n      mload(0x40)\n      dup1\n      swap2\n      sub\n      swap1\n      return\n        /* \"contracts/MyContract.sol\":1659:1761  function getValue() public pure returns(uint) {\r... */\n    tag_5:\n      tag_32\n      tag_33\n      jump\t// in\n    tag_32:\n      mload(0x40)\n      tag_34\n      swap2\n      swap1\n      tag_31\n      jump\t// in\n    tag_34:\n      mload(0x40)\n      dup1\n      swap2\n      sub\n      swap1\n      return\n        /* \"contracts/MyContract.sol\":512:549  address public myAddress = msg.sender */\n    tag_6:\n      tag_35\n      tag_36\n      jump\t// in\n    tag_35:\n      mload(0x40)\n      tag_37\n      swap2\n      swap1\n      tag_38\n      jump\t// in\n    tag_37:\n      mload(0x40)\n      dup1\n      swap2\n      sub\n      swap1\n      return\n        /* \"contracts/MyContract.sol\":1541:1628  function valueCount() public view returns(uint) {\r... */\n    tag_7:\n      tag_39\n      tag_40\n      jump\t// in\n    tag_39:\n      mload(0x40)\n      tag_41\n      swap2\n      swap1\n      tag_31\n      jump\t// in\n    tag_41:\n      mload(0x40)\n      dup1\n      swap2\n      sub\n      swap1\n      return\n        /* \"contracts/MyContract.sol\":902:958  mapping(address => mapping(uint => Book)) public myBooks */\n    tag_8:\n      tag_42\n      0x04\n      dup1\n      calldatasize\n      sub\n      dup2\n      add\n      swap1\n      tag_43\n      swap2\n      swap1\n      tag_44\n      jump\t// in\n    tag_43:\n      tag_45\n      jump\t// in\n    tag_42:\n      mload(0x40)\n      tag_46\n      swap3\n      swap2\n      swap1\n      tag_47\n      jump\t// in\n    tag_46:\n      mload(0x40)\n      dup1\n      swap2\n      sub\n      swap1\n      return\n        /* \"contracts/MyContract.sol\":395:416  int public myInt = -1 */\n    tag_9:\n      tag_48\n      tag_49\n      jump\t// in\n    tag_48:\n      mload(0x40)\n      tag_50\n      swap2\n      swap1\n      tag_51\n      jump\t// in\n    tag_50:\n      mload(0x40)\n      dup1\n      swap2\n      sub\n      swap1\n      return\n        /* \"contracts/MyContract.sol\":1448:1533  function addValue(string memory _value) public {\r... */\n    tag_10:\n      tag_52\n      0x04\n      dup1\n      calldatasize\n      sub\n      dup2\n      add\n      swap1\n      tag_53\n      swap2\n      swap1\n      tag_54\n      jump\t// in\n    tag_53:\n      tag_55\n      jump\t// in\n    tag_52:\n      stop\n        /* \"contracts/MyContract.sol\":423:461  string public myString = \"Hello World\" */\n    tag_11:\n      tag_56\n      tag_57\n      jump\t// in\n    tag_56:\n      mload(0x40)\n      tag_58\n      swap2\n      swap1\n      tag_59\n      jump\t// in\n    tag_58:\n      mload(0x40)\n      dup1\n      swap2\n      sub\n      swap1\n      return\n        /* \"contracts/MyContract.sol\":1258:1440  function addMyBook(\r... */\n    tag_12:\n      tag_60\n      0x04\n      dup1\n      calldatasize\n      sub\n      dup2\n      add\n      swap1\n      tag_61\n      swap2\n      swap1\n      tag_26\n      jump\t// in\n    tag_61:\n      tag_62\n      jump\t// in\n    tag_60:\n      stop\n        /* \"contracts/MyContract.sol\":468:505  bytes32 public myBytes32 = \"Hi World\" */\n    tag_13:\n      tag_63\n      tag_64\n      jump\t// in\n    tag_63:\n      mload(0x40)\n      tag_65\n      swap2\n      swap1\n      tag_66\n      jump\t// in\n    tag_65:\n      mload(0x40)\n      dup1\n      swap2\n      sub\n      swap1\n      return\n        /* \"contracts/MyContract.sol\":207:229  string[] public values */\n    tag_14:\n      tag_67\n      0x04\n      dup1\n      calldatasize\n      sub\n      dup2\n      add\n      swap1\n      tag_68\n      swap2\n      swap1\n      tag_69\n      jump\t// in\n    tag_68:\n      tag_70\n      jump\t// in\n    tag_67:\n      mload(0x40)\n      tag_71\n      swap2\n      swap1\n      tag_59\n      jump\t// in\n    tag_71:\n      mload(0x40)\n      dup1\n      swap2\n      sub\n      swap1\n      return\n        /* \"contracts/MyContract.sol\":141:200  string[] public stringArray = [\"apple\", \"banana\", \"carrot\"] */\n    tag_15:\n      tag_72\n      0x04\n      dup1\n      calldatasize\n      sub\n      dup2\n      add\n      swap1\n      tag_73\n      swap2\n      swap1\n      tag_69\n      jump\t// in\n    tag_73:\n      tag_74\n      jump\t// in\n    tag_72:\n      mload(0x40)\n      tag_75\n      swap2\n      swap1\n      tag_59\n      jump\t// in\n    tag_75:\n      mload(0x40)\n      dup1\n      swap2\n      sub\n      swap1\n      return\n        /* \"contracts/MyContract.sol\":833:867  mapping(uint => Book) public books */\n    tag_16:\n      tag_76\n      0x04\n      dup1\n      calldatasize\n      sub\n      dup2\n      add\n      swap1\n      tag_77\n      swap2\n      swap1\n      tag_69\n      jump\t// in\n    tag_77:\n      tag_78\n      jump\t// in\n    tag_76:\n      mload(0x40)\n      tag_79\n      swap3\n      swap2\n      swap1\n      tag_47\n      jump\t// in\n    tag_79:\n      mload(0x40)\n      dup1\n      swap2\n      sub\n      swap1\n      return\n        /* \"contracts/MyContract.sol\":642:694  MyStruct public myStruct = MyStruct(1, \"Ola Mundo!\") */\n    tag_17:\n      tag_80\n      tag_81\n      jump\t// in\n    tag_80:\n      mload(0x40)\n      tag_82\n      swap3\n      swap2\n      swap1\n      tag_83\n      jump\t// in\n    tag_82:\n      mload(0x40)\n      dup1\n      swap2\n      sub\n      swap1\n      return\n        /* \"contracts/MyContract.sol\":101:134  uint[] public uintArray = [1,2,3] */\n    tag_18:\n      tag_84\n      0x04\n      dup1\n      calldatasize\n      sub\n      dup2\n      add\n      swap1\n      tag_85\n      swap2\n      swap1\n      tag_69\n      jump\t// in\n    tag_85:\n      tag_86\n      jump\t// in\n    tag_84:\n      mload(0x40)\n      tag_87\n      swap2\n      swap1\n      tag_31\n      jump\t// in\n    tag_87:\n      mload(0x40)\n      dup1\n      swap2\n      sub\n      swap1\n      return\n        /* \"contracts/MyContract.sol\":359:388  uint256 public myUint256  = 1 */\n    tag_19:\n      tag_88\n      tag_89\n      jump\t// in\n    tag_88:\n      mload(0x40)\n      tag_90\n      swap2\n      swap1\n      tag_31\n      jump\t// in\n    tag_90:\n      mload(0x40)\n      dup1\n      swap2\n      sub\n      swap1\n      return\n        /* \"contracts/MyContract.sol\":236:287  uint256[][] public array2D = [[1, 2, 3], [4, 5, 6]] */\n    tag_20:\n      tag_91\n      0x04\n      dup1\n      calldatasize\n      sub\n      dup2\n      add\n      swap1\n      tag_92\n      swap2\n      swap1\n      tag_93\n      jump\t// in\n    tag_92:\n      tag_94\n      jump\t// in\n    tag_91:\n      mload(0x40)\n      tag_95\n      swap2\n      swap1\n      tag_31\n      jump\t// in\n    tag_95:\n      mload(0x40)\n      dup1\n      swap2\n      sub\n      swap1\n      return\n        /* \"contracts/MyContract.sol\":1084:1250  function addBook(\r... */\n    tag_27:\n        /* \"contracts/MyContract.sol\":1221:1242  Book(_title, _author) */\n      mload(0x40)\n      dup1\n      0x40\n      add\n      0x40\n      mstore\n      dup1\n        /* \"contracts/MyContract.sol\":1226:1232  _title */\n      dup4\n        /* \"contracts/MyContract.sol\":1221:1242  Book(_title, _author) */\n      dup2\n      mstore\n      0x20\n      add\n        /* \"contracts/MyContract.sol\":1234:1241  _author */\n      dup3\n        /* \"contracts/MyContract.sol\":1221:1242  Book(_title, _author) */\n      dup2\n      mstore\n      pop\n        /* \"contracts/MyContract.sol\":1208:1213  books */\n      0x0d\n        /* \"contracts/MyContract.sol\":1208:1218  books[_id] */\n      0x00\n        /* \"contracts/MyContract.sol\":1214:1217  _id */\n      dup6\n        /* \"contracts/MyContract.sol\":1208:1218  books[_id] */\n      dup2\n      mstore\n      0x20\n      add\n      swap1\n      dup2\n      mstore\n      0x20\n      add\n      0x00\n      keccak256\n        /* \"contracts/MyContract.sol\":1208:1242  books[_id] = Book(_title, _author) */\n      0x00\n      dup3\n      add\n      mload\n      dup2\n      0x00\n      add\n      swap1\n      dup1\n      mload\n      swap1\n      0x20\n      add\n      swap1\n      tag_97\n      swap3\n      swap2\n      swap1\n      tag_98\n      jump\t// in\n    tag_97:\n      pop\n      0x20\n      dup3\n      add\n      mload\n      dup2\n      0x01\n      add\n      swap1\n      dup1\n      mload\n      swap1\n      0x20\n      add\n      swap1\n      tag_99\n      swap3\n      swap2\n      swap1\n      tag_98\n      jump\t// in\n    tag_99:\n      pop\n      swap1\n      pop\n      pop\n        /* \"contracts/MyContract.sol\":1084:1250  function addBook(\r... */\n      pop\n      pop\n      pop\n      jump\t// out\n        /* \"contracts/MyContract.sol\":329:352  uint public myUint  = 1 */\n    tag_29:\n      sload(0x04)\n      dup2\n      jump\t// out\n        /* \"contracts/MyContract.sol\":1659:1761  function getValue() public pure returns(uint) {\r... */\n    tag_33:\n        /* \"contracts/MyContract.sol\":1699:1703  uint */\n      0x00\n        /* \"contracts/MyContract.sol\":1716:1726  uint value */\n      dup1\n        /* \"contracts/MyContract.sol\":1729:1730  1 */\n      0x01\n        /* \"contracts/MyContract.sol\":1716:1730  uint value = 1 */\n      swap1\n      pop\n        /* \"contracts/MyContract.sol\":1748:1753  value */\n      dup1\n        /* \"contracts/MyContract.sol\":1741:1753  return value */\n      swap2\n      pop\n      pop\n        /* \"contracts/MyContract.sol\":1659:1761  function getValue() public pure returns(uint) {\r... */\n      swap1\n      jump\t// out\n        /* \"contracts/MyContract.sol\":512:549  address public myAddress = msg.sender */\n    tag_36:\n      0x09\n      0x00\n      swap1\n      sload\n      swap1\n      0x0100\n      exp\n      swap1\n      div\n      0xffffffffffffffffffffffffffffffffffffffff\n      and\n      dup2\n      jump\t// out\n        /* \"contracts/MyContract.sol\":1541:1628  function valueCount() public view returns(uint) {\r... */\n    tag_40:\n        /* \"contracts/MyContract.sol\":1583:1587  uint */\n      0x00\n        /* \"contracts/MyContract.sol\":1607:1613  values */\n      0x02\n        /* \"contracts/MyContract.sol\":1607:1620  values.length */\n      dup1\n      sload\n      swap1\n      pop\n        /* \"contracts/MyContract.sol\":1600:1620  return values.length */\n      swap1\n      pop\n        /* \"contracts/MyContract.sol\":1541:1628  function valueCount() public view returns(uint) {\r... */\n      swap1\n      jump\t// out\n        /* \"contracts/MyContract.sol\":902:958  mapping(address => mapping(uint => Book)) public myBooks */\n    tag_45:\n      mstore(0x20, 0x0e)\n      dup2\n      0x00\n      mstore\n      mstore(0x20, keccak256(0x00, 0x40))\n      dup1\n      0x00\n      mstore\n      keccak256(0x00, 0x40)\n      0x00\n      swap2\n      pop\n      swap2\n      pop\n      pop\n      dup1\n      0x00\n      add\n      dup1\n      sload\n      tag_102\n      swap1\n      tag_103\n      jump\t// in\n    tag_102:\n      dup1\n      0x1f\n      add\n      0x20\n      dup1\n      swap2\n      div\n      mul\n      0x20\n      add\n      mload(0x40)\n      swap1\n      dup2\n      add\n      0x40\n      mstore\n      dup1\n      swap3\n      swap2\n      swap1\n      dup2\n      dup2\n      mstore\n      0x20\n      add\n      dup3\n      dup1\n      sload\n      tag_104\n      swap1\n      tag_103\n      jump\t// in\n    tag_104:\n      dup1\n      iszero\n      tag_105\n      jumpi\n      dup1\n      0x1f\n      lt\n      tag_106\n      jumpi\n      0x0100\n      dup1\n      dup4\n      sload\n      div\n      mul\n      dup4\n      mstore\n      swap2\n      0x20\n      add\n      swap2\n      jump(tag_105)\n    tag_106:\n      dup3\n      add\n      swap2\n      swap1\n      0x00\n      mstore\n      keccak256(0x00, 0x20)\n      swap1\n    tag_107:\n      dup2\n      sload\n      dup2\n      mstore\n      swap1\n      0x01\n      add\n      swap1\n      0x20\n      add\n      dup1\n      dup4\n      gt\n      tag_107\n      jumpi\n      dup3\n      swap1\n      sub\n      0x1f\n      and\n      dup3\n      add\n      swap2\n    tag_105:\n      pop\n      pop\n      pop\n      pop\n      pop\n      swap1\n      dup1\n      0x01\n      add\n      dup1\n      sload\n      tag_108\n      swap1\n      tag_103\n      jump\t// in\n    tag_108:\n      dup1\n      0x1f\n      add\n      0x20\n      dup1\n      swap2\n      div\n      mul\n      0x20\n      add\n      mload(0x40)\n      swap1\n      dup2\n      add\n      0x40\n      mstore\n      dup1\n      swap3\n      swap2\n      swap1\n      dup2\n      dup2\n      mstore\n      0x20\n      add\n      dup3\n      dup1\n      sload\n      tag_109\n      swap1\n      tag_103\n      jump\t// in\n    tag_109:\n      dup1\n      iszero\n      tag_110\n      jumpi\n      dup1\n      0x1f\n      lt\n      tag_111\n      jumpi\n      0x0100\n      dup1\n      dup4\n      sload\n      div\n      mul\n      dup4\n      mstore\n      swap2\n      0x20\n      add\n      swap2\n      jump(tag_110)\n    tag_111:\n      dup3\n      add\n      swap2\n      swap1\n      0x00\n      mstore\n      keccak256(0x00, 0x20)\n      swap1\n    tag_112:\n      dup2\n      sload\n      dup2\n      mstore\n      swap1\n      0x01\n      add\n      swap1\n      0x20\n      add\n      dup1\n      dup4\n      gt\n      tag_112\n      jumpi\n      dup3\n      swap1\n      sub\n      0x1f\n      and\n      dup3\n      add\n      swap2\n    tag_110:\n      pop\n      pop\n      pop\n      pop\n      pop\n      swap1\n      pop\n      dup3\n      jump\t// out\n        /* \"contracts/MyContract.sol\":395:416  int public myInt = -1 */\n    tag_49:\n      sload(0x06)\n      dup2\n      jump\t// out\n        /* \"contracts/MyContract.sol\":1448:1533  function addValue(string memory _value) public {\r... */\n    tag_55:\n        /* \"contracts/MyContract.sol\":1506:1512  values */\n      0x02\n        /* \"contracts/MyContract.sol\":1518:1524  _value */\n      dup2\n        /* \"contracts/MyContract.sol\":1506:1525  values.push(_value) */\n      swap1\n      dup1\n      0x01\n      dup2\n      sload\n      add\n      dup1\n      dup3\n      sstore\n      dup1\n      swap2\n      pop\n      pop\n      0x01\n      swap1\n      sub\n      swap1\n      0x00\n      mstore\n      keccak256(0x00, 0x20)\n      add\n      0x00\n      swap1\n      swap2\n      swap1\n      swap2\n      swap1\n      swap2\n      pop\n      swap1\n      dup1\n      mload\n      swap1\n      0x20\n      add\n      swap1\n      tag_115\n      swap3\n      swap2\n      swap1\n      tag_98\n      jump\t// in\n    tag_115:\n      pop\n        /* \"contracts/MyContract.sol\":1448:1533  function addValue(string memory _value) public {\r... */\n      pop\n      jump\t// out\n        /* \"contracts/MyContract.sol\":423:461  string public myString = \"Hello World\" */\n    tag_57:\n      0x07\n      dup1\n      sload\n      tag_116\n      swap1\n      tag_103\n      jump\t// in\n    tag_116:\n      dup1\n      0x1f\n      add\n      0x20\n      dup1\n      swap2\n      div\n      mul\n      0x20\n      add\n      mload(0x40)\n      swap1\n      dup2\n      add\n      0x40\n      mstore\n      dup1\n      swap3\n      swap2\n      swap1\n      dup2\n      dup2\n      mstore\n      0x20\n      add\n      dup3\n      dup1\n      sload\n      tag_117\n      swap1\n      tag_103\n      jump\t// in\n    tag_117:\n      dup1\n      iszero\n      tag_118\n      jumpi\n      dup1\n      0x1f\n      lt\n      tag_119\n      jumpi\n      0x0100\n      dup1\n      dup4\n      sload\n      div\n      mul\n      dup4\n      mstore\n      swap2\n      0x20\n      add\n      swap2\n      jump(tag_118)\n    tag_119:\n      dup3\n      add\n      swap2\n      swap1\n      0x00\n      mstore\n      keccak256(0x00, 0x20)\n      swap1\n    tag_120:\n      dup2\n      sload\n      dup2\n      mstore\n      swap1\n      0x01\n      add\n      swap1\n      0x20\n      add\n      dup1\n      dup4\n      gt\n      tag_120\n      jumpi\n      dup3\n      swap1\n      sub\n      0x1f\n      and\n      dup3\n      add\n      swap2\n    tag_118:\n      pop\n      pop\n      pop\n      pop\n      pop\n      dup2\n      jump\t// out\n        /* \"contracts/MyContract.sol\":1258:1440  function addMyBook(\r... */\n    tag_62:\n        /* \"contracts/MyContract.sol\":1411:1432  Book(_title, _author) */\n      mload(0x40)\n      dup1\n      0x40\n      add\n      0x40\n      mstore\n      dup1\n        /* \"contracts/MyContract.sol\":1416:1422  _title */\n      dup4\n        /* \"contracts/MyContract.sol\":1411:1432  Book(_title, _author) */\n      dup2\n      mstore\n      0x20\n      add\n        /* \"contracts/MyContract.sol\":1424:1431  _author */\n      dup3\n        /* \"contracts/MyContract.sol\":1411:1432  Book(_title, _author) */\n      dup2\n      mstore\n      pop\n        /* \"contracts/MyContract.sol\":1384:1391  myBooks */\n      0x0e\n        /* \"contracts/MyContract.sol\":1384:1403  myBooks[msg.sender] */\n      0x00\n        /* \"contracts/MyContract.sol\":1392:1402  msg.sender */\n      caller\n        /* \"contracts/MyContract.sol\":1384:1403  myBooks[msg.sender] */\n      0xffffffffffffffffffffffffffffffffffffffff\n      and\n      0xffffffffffffffffffffffffffffffffffffffff\n      and\n      dup2\n      mstore\n      0x20\n      add\n      swap1\n      dup2\n      mstore\n      0x20\n      add\n      0x00\n      keccak256\n        /* \"contracts/MyContract.sol\":1384:1408  myBooks[msg.sender][_id] */\n      0x00\n        /* \"contracts/MyContract.sol\":1404:1407  _id */\n      dup6\n        /* \"contracts/MyContract.sol\":1384:1408  myBooks[msg.sender][_id] */\n      dup2\n      mstore\n      0x20\n      add\n      swap1\n      dup2\n      mstore\n      0x20\n      add\n      0x00\n      keccak256\n        /* \"contracts/MyContract.sol\":1384:1432  myBooks[msg.sender][_id] = Book(_title, _author) */\n      0x00\n      dup3\n      add\n      mload\n      dup2\n      0x00\n      add\n      swap1\n      dup1\n      mload\n      swap1\n      0x20\n      add\n      swap1\n      tag_122\n      swap3\n      swap2\n      swap1\n      tag_98\n      jump\t// in\n    tag_122:\n      pop\n      0x20\n      dup3\n      add\n      mload\n      dup2\n      0x01\n      add\n      swap1\n      dup1\n      mload\n      swap1\n      0x20\n      add\n      swap1\n      tag_123\n      swap3\n      swap2\n      swap1\n      tag_98\n      jump\t// in\n    tag_123:\n      pop\n      swap1\n      pop\n      pop\n        /* \"contracts/MyContract.sol\":1258:1440  function addMyBook(\r... */\n      pop\n      pop\n      pop\n      jump\t// out\n        /* \"contracts/MyContract.sol\":468:505  bytes32 public myBytes32 = \"Hi World\" */\n    tag_64:\n      sload(0x08)\n      dup2\n      jump\t// out\n        /* \"contracts/MyContract.sol\":207:229  string[] public values */\n    tag_70:\n      0x02\n      dup2\n      dup2\n      sload\n      dup2\n      lt\n      tag_124\n      jumpi\n      0x00\n      dup1\n      revert\n    tag_124:\n      swap1\n      0x00\n      mstore\n      keccak256(0x00, 0x20)\n      add\n      0x00\n      swap2\n      pop\n      swap1\n      pop\n      dup1\n      sload\n      tag_126\n      swap1\n      tag_103\n      jump\t// in\n    tag_126:\n      dup1\n      0x1f\n      add\n      0x20\n      dup1\n      swap2\n      div\n      mul\n      0x20\n      add\n      mload(0x40)\n      swap1\n      dup2\n      add\n      0x40\n      mstore\n      dup1\n      swap3\n      swap2\n      swap1\n      dup2\n      dup2\n      mstore\n      0x20\n      add\n      dup3\n      dup1\n      sload\n      tag_127\n      swap1\n      tag_103\n      jump\t// in\n    tag_127:\n      dup1\n      iszero\n      tag_128\n      jumpi\n      dup1\n      0x1f\n      lt\n      tag_129\n      jumpi\n      0x0100\n      dup1\n      dup4\n      sload\n      div\n      mul\n      dup4\n      mstore\n      swap2\n      0x20\n      add\n      swap2\n      jump(tag_128)\n    tag_129:\n      dup3\n      add\n      swap2\n      swap1\n      0x00\n      mstore\n      keccak256(0x00, 0x20)\n      swap1\n    tag_130:\n      dup2\n      sload\n      dup2\n      mstore\n      swap1\n      0x01\n      add\n      swap1\n      0x20\n      add\n      dup1\n      dup4\n      gt\n      tag_130\n      jumpi\n      dup3\n      swap1\n      sub\n      0x1f\n      and\n      dup3\n      add\n      swap2\n    tag_128:\n      pop\n      pop\n      pop\n      pop\n      pop\n      dup2\n      jump\t// out\n        /* \"contracts/MyContract.sol\":141:200  string[] public stringArray = [\"apple\", \"banana\", \"carrot\"] */\n    tag_74:\n      0x01\n      dup2\n      dup2\n      sload\n      dup2\n      lt\n      tag_131\n      jumpi\n      0x00\n      dup1\n      revert\n    tag_131:\n      swap1\n      0x00\n      mstore\n      keccak256(0x00, 0x20)\n      add\n      0x00\n      swap2\n      pop\n      swap1\n      pop\n      dup1\n      sload\n      tag_133\n      swap1\n      tag_103\n      jump\t// in\n    tag_133:\n      dup1\n      0x1f\n      add\n      0x20\n      dup1\n      swap2\n      div\n      mul\n      0x20\n      add\n      mload(0x40)\n      swap1\n      dup2\n      add\n      0x40\n      mstore\n      dup1\n      swap3\n      swap2\n      swap1\n      dup2\n      dup2\n      mstore\n      0x20\n      add\n      dup3\n      dup1\n      sload\n      tag_134\n      swap1\n      tag_103\n      jump\t// in\n    tag_134:\n      dup1\n      iszero\n      tag_135\n      jumpi\n      dup1\n      0x1f\n      lt\n      tag_136\n      jumpi\n      0x0100\n      dup1\n      dup4\n      sload\n      div\n      mul\n      dup4\n      mstore\n      swap2\n      0x20\n      add\n      swap2\n      jump(tag_135)\n    tag_136:\n      dup3\n      add\n      swap2\n      swap1\n      0x00\n      mstore\n      keccak256(0x00, 0x20)\n      swap1\n    tag_137:\n      dup2\n      sload\n      dup2\n      mstore\n      swap1\n      0x01\n      add\n      swap1\n      0x20\n      add\n      dup1\n      dup4\n      gt\n      tag_137\n      jumpi\n      dup3\n      swap1\n      sub\n      0x1f\n      and\n      dup3\n      add\n      swap2\n    tag_135:\n      pop\n      pop\n      pop\n      pop\n      pop\n      dup2\n      jump\t// out\n        /* \"contracts/MyContract.sol\":833:867  mapping(uint => Book) public books */\n    tag_78:\n      mstore(0x20, 0x0d)\n      dup1\n      0x00\n      mstore\n      keccak256(0x00, 0x40)\n      0x00\n      swap2\n      pop\n      swap1\n      pop\n      dup1\n      0x00\n      add\n      dup1\n      sload\n      tag_138\n      swap1\n      tag_103\n      jump\t// in\n    tag_138:\n      dup1\n      0x1f\n      add\n      0x20\n      dup1\n      swap2\n      div\n      mul\n      0x20\n      add\n      mload(0x40)\n      swap1\n      dup2\n      add\n      0x40\n      mstore\n      dup1\n      swap3\n      swap2\n      swap1\n      dup2\n      dup2\n      mstore\n      0x20\n      add\n      dup3\n      dup1\n      sload\n      tag_139\n      swap1\n      tag_103\n      jump\t// in\n    tag_139:\n      dup1\n      iszero\n      tag_140\n      jumpi\n      dup1\n      0x1f\n      lt\n      tag_141\n      jumpi\n      0x0100\n      dup1\n      dup4\n      sload\n      div\n      mul\n      dup4\n      mstore\n      swap2\n      0x20\n      add\n      swap2\n      jump(tag_140)\n    tag_141:\n      dup3\n      add\n      swap2\n      swap1\n      0x00\n      mstore\n      keccak256(0x00, 0x20)\n      swap1\n    tag_142:\n      dup2\n      sload\n      dup2\n      mstore\n      swap1\n      0x01\n      add\n      swap1\n      0x20\n      add\n      dup1\n      dup4\n      gt\n      tag_142\n      jumpi\n      dup3\n      swap1\n      sub\n      0x1f\n      and\n      dup3\n      add\n      swap2\n    tag_140:\n      pop\n      pop\n      pop\n      pop\n      pop\n      swap1\n      dup1\n      0x01\n      add\n      dup1\n      sload\n      tag_143\n      swap1\n      tag_103\n      jump\t// in\n    tag_143:\n      dup1\n      0x1f\n      add\n      0x20\n      dup1\n      swap2\n      div\n      mul\n      0x20\n      add\n      mload(0x40)\n      swap1\n      dup2\n      add\n      0x40\n      mstore\n      dup1\n      swap3\n      swap2\n      swap1\n      dup2\n      dup2\n      mstore\n      0x20\n      add\n      dup3\n      dup1\n      sload\n      tag_144\n      swap1\n      tag_103\n      jump\t// in\n    tag_144:\n      dup1\n      iszero\n      tag_145\n      jumpi\n      dup1\n      0x1f\n      lt\n      tag_146\n      jumpi\n      0x0100\n      dup1\n      dup4\n      sload\n      div\n      mul\n      dup4\n      mstore\n      swap2\n      0x20\n      add\n      swap2\n      jump(tag_145)\n    tag_146:\n      dup3\n      add\n      swap2\n      swap1\n      0x00\n      mstore\n      keccak256(0x00, 0x20)\n      swap1\n    tag_147:\n      dup2\n      sload\n      dup2\n      mstore\n      swap1\n      0x01\n      add\n      swap1\n      0x20\n      add\n      dup1\n      dup4\n      gt\n      tag_147\n      jumpi\n      dup3\n      swap1\n      sub\n      0x1f\n      and\n      dup3\n      add\n      swap2\n    tag_145:\n      pop\n      pop\n      pop\n      pop\n      pop\n      swap1\n      pop\n      dup3\n      jump\t// out\n        /* \"contracts/MyContract.sol\":642:694  MyStruct public myStruct = MyStruct(1, \"Ola Mundo!\") */\n    tag_81:\n      0x0a\n      dup1\n      0x00\n      add\n      sload\n      swap1\n      dup1\n      0x01\n      add\n      dup1\n      sload\n      tag_148\n      swap1\n      tag_103\n      jump\t// in\n    tag_148:\n      dup1\n      0x1f\n      add\n      0x20\n      dup1\n      swap2\n      div\n      mul\n      0x20\n      add\n      mload(0x40)\n      swap1\n      dup2\n      add\n      0x40\n      mstore\n      dup1\n      swap3\n      swap2\n      swap1\n      dup2\n      dup2\n      mstore\n      0x20\n      add\n      dup3\n      dup1\n      sload\n      tag_149\n      swap1\n      tag_103\n      jump\t// in\n    tag_149:\n      dup1\n      iszero\n      tag_150\n      jumpi\n      dup1\n      0x1f\n      lt\n      tag_151\n      jumpi\n      0x0100\n      dup1\n      dup4\n      sload\n      div\n      mul\n      dup4\n      mstore\n      swap2\n      0x20\n      add\n      swap2\n      jump(tag_150)\n    tag_151:\n      dup3\n      add\n      swap2\n      swap1\n      0x00\n      mstore\n      keccak256(0x00, 0x20)\n      swap1\n    tag_152:\n      dup2\n      sload\n      dup2\n      mstore\n      swap1\n      0x01\n      add\n      swap1\n      0x20\n      add\n      dup1\n      dup4\n      gt\n      tag_152\n      jumpi\n      dup3\n      swap1\n      sub\n      0x1f\n      and\n      dup3\n      add\n      swap2\n    tag_150:\n      pop\n      pop\n      pop\n      pop\n      pop\n      swap1\n      pop\n      dup3\n      jump\t// out\n        /* \"contracts/MyContract.sol\":101:134  uint[] public uintArray = [1,2,3] */\n    tag_86:\n      0x00\n      dup2\n      dup2\n      sload\n      dup2\n      lt\n      tag_153\n      jumpi\n      0x00\n      dup1\n      revert\n    tag_153:\n      swap1\n      0x00\n      mstore\n      keccak256(0x00, 0x20)\n      add\n      0x00\n      swap2\n      pop\n      swap1\n      pop\n      sload\n      dup2\n      jump\t// out\n        /* \"contracts/MyContract.sol\":359:388  uint256 public myUint256  = 1 */\n    tag_89:\n      sload(0x05)\n      dup2\n      jump\t// out\n        /* \"contracts/MyContract.sol\":236:287  uint256[][] public array2D = [[1, 2, 3], [4, 5, 6]] */\n    tag_94:\n      0x03\n      dup3\n      dup2\n      sload\n      dup2\n      lt\n      tag_155\n      jumpi\n      0x00\n      dup1\n      revert\n    tag_155:\n      swap1\n      0x00\n      mstore\n      keccak256(0x00, 0x20)\n      add\n      dup2\n      dup2\n      sload\n      dup2\n      lt\n      tag_157\n      jumpi\n      0x00\n      dup1\n      revert\n    tag_157:\n      swap1\n      0x00\n      mstore\n      keccak256(0x00, 0x20)\n      add\n      0x00\n      swap2\n      pop\n      swap2\n      pop\n      pop\n      sload\n      dup2\n      jump\t// out\n    tag_98:\n      dup3\n      dup1\n      sload\n      tag_159\n      swap1\n      tag_103\n      jump\t// in\n    tag_159:\n      swap1\n      0x00\n      mstore\n      keccak256(0x00, 0x20)\n      swap1\n      0x1f\n      add\n      0x20\n      swap1\n      div\n      dup2\n      add\n      swap3\n      dup3\n      tag_161\n      jumpi\n      0x00\n      dup6\n      sstore\n      jump(tag_160)\n    tag_161:\n      dup3\n      0x1f\n      lt\n      tag_162\n      jumpi\n      dup1\n      mload\n      not(0xff)\n      and\n      dup4\n      dup1\n      add\n      or\n      dup6\n      sstore\n      jump(tag_160)\n    tag_162:\n      dup3\n      dup1\n      add\n      0x01\n      add\n      dup6\n      sstore\n      dup3\n      iszero\n      tag_160\n      jumpi\n      swap2\n      dup3\n      add\n    tag_163:\n      dup3\n      dup2\n      gt\n      iszero\n      tag_164\n      jumpi\n      dup3\n      mload\n      dup3\n      sstore\n      swap2\n      0x20\n      add\n      swap2\n      swap1\n      0x01\n      add\n      swap1\n      jump(tag_163)\n    tag_164:\n    tag_160:\n      pop\n      swap1\n      pop\n      tag_165\n      swap2\n      swap1\n      tag_166\n      jump\t// in\n    tag_165:\n      pop\n      swap1\n      jump\t// out\n    tag_166:\n    tag_167:\n      dup1\n      dup3\n      gt\n      iszero\n      tag_168\n      jumpi\n      0x00\n      dup2\n      0x00\n      swap1\n      sstore\n      pop\n      0x01\n      add\n      jump(tag_167)\n    tag_168:\n      pop\n      swap1\n      jump\t// out\n        /* \"#utility.yul\":7:419   */\n    tag_170:\n        /* \"#utility.yul\":85:90   */\n      0x00\n        /* \"#utility.yul\":110:176   */\n      tag_172\n        /* \"#utility.yul\":126:175   */\n      tag_173\n        /* \"#utility.yul\":168:174   */\n      dup5\n        /* \"#utility.yul\":126:175   */\n      tag_174\n      jump\t// in\n    tag_173:\n        /* \"#utility.yul\":110:176   */\n      tag_175\n      jump\t// in\n    tag_172:\n        /* \"#utility.yul\":101:176   */\n      swap1\n      pop\n        /* \"#utility.yul\":199:205   */\n      dup3\n        /* \"#utility.yul\":192:197   */\n      dup2\n        /* \"#utility.yul\":185:206   */\n      mstore\n        /* \"#utility.yul\":237:241   */\n      0x20\n        /* \"#utility.yul\":230:235   */\n      dup2\n        /* \"#utility.yul\":226:242   */\n      add\n        /* \"#utility.yul\":275:278   */\n      dup5\n        /* \"#utility.yul\":266:272   */\n      dup5\n        /* \"#utility.yul\":261:264   */\n      dup5\n        /* \"#utility.yul\":257:273   */\n      add\n        /* \"#utility.yul\":254:279   */\n      gt\n        /* \"#utility.yul\":251:363   */\n      iszero\n      tag_176\n      jumpi\n        /* \"#utility.yul\":282:361   */\n      tag_177\n      tag_178\n      jump\t// in\n    tag_177:\n        /* \"#utility.yul\":251:363   */\n    tag_176:\n        /* \"#utility.yul\":372:413   */\n      tag_179\n        /* \"#utility.yul\":406:412   */\n      dup5\n        /* \"#utility.yul\":401:404   */\n      dup3\n        /* \"#utility.yul\":396:399   */\n      dup6\n        /* \"#utility.yul\":372:413   */\n      tag_180\n      jump\t// in\n    tag_179:\n        /* \"#utility.yul\":91:419   */\n      pop\n        /* \"#utility.yul\":7:419   */\n      swap4\n      swap3\n      pop\n      pop\n      pop\n      jump\t// out\n        /* \"#utility.yul\":425:564   */\n    tag_181:\n        /* \"#utility.yul\":471:476   */\n      0x00\n        /* \"#utility.yul\":509:515   */\n      dup2\n        /* \"#utility.yul\":496:516   */\n      calldataload\n        /* \"#utility.yul\":487:516   */\n      swap1\n      pop\n        /* \"#utility.yul\":525:558   */\n      tag_183\n        /* \"#utility.yul\":552:557   */\n      dup2\n        /* \"#utility.yul\":525:558   */\n      tag_184\n      jump\t// in\n    tag_183:\n        /* \"#utility.yul\":425:564   */\n      swap3\n      swap2\n      pop\n      pop\n      jump\t// out\n        /* \"#utility.yul\":584:924   */\n    tag_185:\n        /* \"#utility.yul\":640:645   */\n      0x00\n        /* \"#utility.yul\":689:692   */\n      dup3\n        /* \"#utility.yul\":682:686   */\n      0x1f\n        /* \"#utility.yul\":674:680   */\n      dup4\n        /* \"#utility.yul\":670:687   */\n      add\n        /* \"#utility.yul\":666:693   */\n      slt\n        /* \"#utility.yul\":656:778   */\n      tag_187\n      jumpi\n        /* \"#utility.yul\":697:776   */\n      tag_188\n      tag_189\n      jump\t// in\n    tag_188:\n        /* \"#utility.yul\":656:778   */\n    tag_187:\n        /* \"#utility.yul\":814:820   */\n      dup2\n        /* \"#utility.yul\":801:821   */\n      calldataload\n        /* \"#utility.yul\":839:918   */\n      tag_190\n        /* \"#utility.yul\":914:917   */\n      dup5\n        /* \"#utility.yul\":906:912   */\n      dup3\n        /* \"#utility.yul\":899:903   */\n      0x20\n        /* \"#utility.yul\":891:897   */\n      dup7\n        /* \"#utility.yul\":887:904   */\n      add\n        /* \"#utility.yul\":839:918   */\n      tag_170\n      jump\t// in\n    tag_190:\n        /* \"#utility.yul\":830:918   */\n      swap2\n      pop\n        /* \"#utility.yul\":646:924   */\n      pop\n        /* \"#utility.yul\":584:924   */\n      swap3\n      swap2\n      pop\n      pop\n      jump\t// out\n        /* \"#utility.yul\":930:1069   */\n    tag_191:\n        /* \"#utility.yul\":976:981   */\n      0x00\n        /* \"#utility.yul\":1014:1020   */\n      dup2\n        /* \"#utility.yul\":1001:1021   */\n      calldataload\n        /* \"#utility.yul\":992:1021   */\n      swap1\n      pop\n        /* \"#utility.yul\":1030:1063   */\n      tag_193\n        /* \"#utility.yul\":1057:1062   */\n      dup2\n        /* \"#utility.yul\":1030:1063   */\n      tag_194\n      jump\t// in\n    tag_193:\n        /* \"#utility.yul\":930:1069   */\n      swap3\n      swap2\n      pop\n      pop\n      jump\t// out\n        /* \"#utility.yul\":1075:1549   */\n    tag_44:\n        /* \"#utility.yul\":1143:1149   */\n      0x00\n        /* \"#utility.yul\":1151:1157   */\n      dup1\n        /* \"#utility.yul\":1200:1202   */\n      0x40\n        /* \"#utility.yul\":1188:1197   */\n      dup4\n        /* \"#utility.yul\":1179:1186   */\n      dup6\n        /* \"#utility.yul\":1175:1198   */\n      sub\n        /* \"#utility.yul\":1171:1203   */\n      slt\n        /* \"#utility.yul\":1168:1287   */\n      iszero\n      tag_196\n      jumpi\n        /* \"#utility.yul\":1206:1285   */\n      tag_197\n      tag_198\n      jump\t// in\n    tag_197:\n        /* \"#utility.yul\":1168:1287   */\n    tag_196:\n        /* \"#utility.yul\":1326:1327   */\n      0x00\n        /* \"#utility.yul\":1351:1404   */\n      tag_199\n        /* \"#utility.yul\":1396:1403   */\n      dup6\n        /* \"#utility.yul\":1387:1393   */\n      dup3\n        /* \"#utility.yul\":1376:1385   */\n      dup7\n        /* \"#utility.yul\":1372:1394   */\n      add\n        /* \"#utility.yul\":1351:1404   */\n      tag_181\n      jump\t// in\n    tag_199:\n        /* \"#utility.yul\":1341:1404   */\n      swap3\n      pop\n        /* \"#utility.yul\":1297:1414   */\n      pop\n        /* \"#utility.yul\":1453:1455   */\n      0x20\n        /* \"#utility.yul\":1479:1532   */\n      tag_200\n        /* \"#utility.yul\":1524:1531   */\n      dup6\n        /* \"#utility.yul\":1515:1521   */\n      dup3\n        /* \"#utility.yul\":1504:1513   */\n      dup7\n        /* \"#utility.yul\":1500:1522   */\n      add\n        /* \"#utility.yul\":1479:1532   */\n      tag_191\n      jump\t// in\n    tag_200:\n        /* \"#utility.yul\":1469:1532   */\n      swap2\n      pop\n        /* \"#utility.yul\":1424:1542   */\n      pop\n        /* \"#utility.yul\":1075:1549   */\n      swap3\n      pop\n      swap3\n      swap1\n      pop\n      jump\t// out\n        /* \"#utility.yul\":1555:2064   */\n    tag_54:\n        /* \"#utility.yul\":1624:1630   */\n      0x00\n        /* \"#utility.yul\":1673:1675   */\n      0x20\n        /* \"#utility.yul\":1661:1670   */\n      dup3\n        /* \"#utility.yul\":1652:1659   */\n      dup5\n        /* \"#utility.yul\":1648:1671   */\n      sub\n        /* \"#utility.yul\":1644:1676   */\n      slt\n        /* \"#utility.yul\":1641:1760   */\n      iszero\n      tag_202\n      jumpi\n        /* \"#utility.yul\":1679:1758   */\n      tag_203\n      tag_198\n      jump\t// in\n    tag_203:\n        /* \"#utility.yul\":1641:1760   */\n    tag_202:\n        /* \"#utility.yul\":1827:1828   */\n      0x00\n        /* \"#utility.yul\":1816:1825   */\n      dup3\n        /* \"#utility.yul\":1812:1829   */\n      add\n        /* \"#utility.yul\":1799:1830   */\n      calldataload\n        /* \"#utility.yul\":1857:1875   */\n      0xffffffffffffffff\n        /* \"#utility.yul\":1849:1855   */\n      dup2\n        /* \"#utility.yul\":1846:1876   */\n      gt\n        /* \"#utility.yul\":1843:1960   */\n      iszero\n      tag_204\n      jumpi\n        /* \"#utility.yul\":1879:1958   */\n      tag_205\n      tag_206\n      jump\t// in\n    tag_205:\n        /* \"#utility.yul\":1843:1960   */\n    tag_204:\n        /* \"#utility.yul\":1984:2047   */\n      tag_207\n        /* \"#utility.yul\":2039:2046   */\n      dup5\n        /* \"#utility.yul\":2030:2036   */\n      dup3\n        /* \"#utility.yul\":2019:2028   */\n      dup6\n        /* \"#utility.yul\":2015:2037   */\n      add\n        /* \"#utility.yul\":1984:2047   */\n      tag_185\n      jump\t// in\n    tag_207:\n        /* \"#utility.yul\":1974:2047   */\n      swap2\n      pop\n        /* \"#utility.yul\":1770:2057   */\n      pop\n        /* \"#utility.yul\":1555:2064   */\n      swap3\n      swap2\n      pop\n      pop\n      jump\t// out\n        /* \"#utility.yul\":2070:2399   */\n    tag_69:\n        /* \"#utility.yul\":2129:2135   */\n      0x00\n        /* \"#utility.yul\":2178:2180   */\n      0x20\n        /* \"#utility.yul\":2166:2175   */\n      dup3\n        /* \"#utility.yul\":2157:2164   */\n      dup5\n        /* \"#utility.yul\":2153:2176   */\n      sub\n        /* \"#utility.yul\":2149:2181   */\n      slt\n        /* \"#utility.yul\":2146:2265   */\n      iszero\n      tag_209\n      jumpi\n        /* \"#utility.yul\":2184:2263   */\n      tag_210\n      tag_198\n      jump\t// in\n    tag_210:\n        /* \"#utility.yul\":2146:2265   */\n    tag_209:\n        /* \"#utility.yul\":2304:2305   */\n      0x00\n        /* \"#utility.yul\":2329:2382   */\n      tag_211\n        /* \"#utility.yul\":2374:2381   */\n      dup5\n        /* \"#utility.yul\":2365:2371   */\n      dup3\n        /* \"#utility.yul\":2354:2363   */\n      dup6\n        /* \"#utility.yul\":2350:2372   */\n      add\n        /* \"#utility.yul\":2329:2382   */\n      tag_191\n      jump\t// in\n    tag_211:\n        /* \"#utility.yul\":2319:2382   */\n      swap2\n      pop\n        /* \"#utility.yul\":2275:2392   */\n      pop\n        /* \"#utility.yul\":2070:2399   */\n      swap3\n      swap2\n      pop\n      pop\n      jump\t// out\n        /* \"#utility.yul\":2405:3384   */\n    tag_26:\n        /* \"#utility.yul\":2502:2508   */\n      0x00\n        /* \"#utility.yul\":2510:2516   */\n      dup1\n        /* \"#utility.yul\":2518:2524   */\n      0x00\n        /* \"#utility.yul\":2567:2569   */\n      0x60\n        /* \"#utility.yul\":2555:2564   */\n      dup5\n        /* \"#utility.yul\":2546:2553   */\n      dup7\n        /* \"#utility.yul\":2542:2565   */\n      sub\n        /* \"#utility.yul\":2538:2570   */\n      slt\n        /* \"#utility.yul\":2535:2654   */\n      iszero\n      tag_213\n      jumpi\n        /* \"#utility.yul\":2573:2652   */\n      tag_214\n      tag_198\n      jump\t// in\n    tag_214:\n        /* \"#utility.yul\":2535:2654   */\n    tag_213:\n        /* \"#utility.yul\":2693:2694   */\n      0x00\n        /* \"#utility.yul\":2718:2771   */\n      tag_215\n        /* \"#utility.yul\":2763:2770   */\n      dup7\n        /* \"#utility.yul\":2754:2760   */\n      dup3\n        /* \"#utility.yul\":2743:2752   */\n      dup8\n        /* \"#utility.yul\":2739:2761   */\n      add\n        /* \"#utility.yul\":2718:2771   */\n      tag_191\n      jump\t// in\n    tag_215:\n        /* \"#utility.yul\":2708:2771   */\n      swap4\n      pop\n        /* \"#utility.yul\":2664:2781   */\n      pop\n        /* \"#utility.yul\":2848:2850   */\n      0x20\n        /* \"#utility.yul\":2837:2846   */\n      dup5\n        /* \"#utility.yul\":2833:2851   */\n      add\n        /* \"#utility.yul\":2820:2852   */\n      calldataload\n        /* \"#utility.yul\":2879:2897   */\n      0xffffffffffffffff\n        /* \"#utility.yul\":2871:2877   */\n      dup2\n        /* \"#utility.yul\":2868:2898   */\n      gt\n        /* \"#utility.yul\":2865:2982   */\n      iszero\n      tag_216\n      jumpi\n        /* \"#utility.yul\":2901:2980   */\n      tag_217\n      tag_206\n      jump\t// in\n    tag_217:\n        /* \"#utility.yul\":2865:2982   */\n    tag_216:\n        /* \"#utility.yul\":3006:3069   */\n      tag_218\n        /* \"#utility.yul\":3061:3068   */\n      dup7\n        /* \"#utility.yul\":3052:3058   */\n      dup3\n        /* \"#utility.yul\":3041:3050   */\n      dup8\n        /* \"#utility.yul\":3037:3059   */\n      add\n        /* \"#utility.yul\":3006:3069   */\n      tag_185\n      jump\t// in\n    tag_218:\n        /* \"#utility.yul\":2996:3069   */\n      swap3\n      pop\n        /* \"#utility.yul\":2791:3079   */\n      pop\n        /* \"#utility.yul\":3146:3148   */\n      0x40\n        /* \"#utility.yul\":3135:3144   */\n      dup5\n        /* \"#utility.yul\":3131:3149   */\n      add\n        /* \"#utility.yul\":3118:3150   */\n      calldataload\n        /* \"#utility.yul\":3177:3195   */\n      0xffffffffffffffff\n        /* \"#utility.yul\":3169:3175   */\n      dup2\n        /* \"#utility.yul\":3166:3196   */\n      gt\n        /* \"#utility.yul\":3163:3280   */\n      iszero\n      tag_219\n      jumpi\n        /* \"#utility.yul\":3199:3278   */\n      tag_220\n      tag_206\n      jump\t// in\n    tag_220:\n        /* \"#utility.yul\":3163:3280   */\n    tag_219:\n        /* \"#utility.yul\":3304:3367   */\n      tag_221\n        /* \"#utility.yul\":3359:3366   */\n      dup7\n        /* \"#utility.yul\":3350:3356   */\n      dup3\n        /* \"#utility.yul\":3339:3348   */\n      dup8\n        /* \"#utility.yul\":3335:3357   */\n      add\n        /* \"#utility.yul\":3304:3367   */\n      tag_185\n      jump\t// in\n    tag_221:\n        /* \"#utility.yul\":3294:3367   */\n      swap2\n      pop\n        /* \"#utility.yul\":3089:3377   */\n      pop\n        /* \"#utility.yul\":2405:3384   */\n      swap3\n      pop\n      swap3\n      pop\n      swap3\n      jump\t// out\n        /* \"#utility.yul\":3390:3864   */\n    tag_93:\n        /* \"#utility.yul\":3458:3464   */\n      0x00\n        /* \"#utility.yul\":3466:3472   */\n      dup1\n        /* \"#utility.yul\":3515:3517   */\n      0x40\n        /* \"#utility.yul\":3503:3512   */\n      dup4\n        /* \"#utility.yul\":3494:3501   */\n      dup6\n        /* \"#utility.yul\":3490:3513   */\n      sub\n        /* \"#utility.yul\":3486:3518   */\n      slt\n        /* \"#utility.yul\":3483:3602   */\n      iszero\n      tag_223\n      jumpi\n        /* \"#utility.yul\":3521:3600   */\n      tag_224\n      tag_198\n      jump\t// in\n    tag_224:\n        /* \"#utility.yul\":3483:3602   */\n    tag_223:\n        /* \"#utility.yul\":3641:3642   */\n      0x00\n        /* \"#utility.yul\":3666:3719   */\n      tag_225\n        /* \"#utility.yul\":3711:3718   */\n      dup6\n        /* \"#utility.yul\":3702:3708   */\n      dup3\n        /* \"#utility.yul\":3691:3700   */\n      dup7\n        /* \"#utility.yul\":3687:3709   */\n      add\n        /* \"#utility.yul\":3666:3719   */\n      tag_191\n      jump\t// in\n    tag_225:\n        /* \"#utility.yul\":3656:3719   */\n      swap3\n      pop\n        /* \"#utility.yul\":3612:3729   */\n      pop\n        /* \"#utility.yul\":3768:3770   */\n      0x20\n        /* \"#utility.yul\":3794:3847   */\n      tag_226\n        /* \"#utility.yul\":3839:3846   */\n      dup6\n        /* \"#utility.yul\":3830:3836   */\n      dup3\n        /* \"#utility.yul\":3819:3828   */\n      dup7\n        /* \"#utility.yul\":3815:3837   */\n      add\n        /* \"#utility.yul\":3794:3847   */\n      tag_191\n      jump\t// in\n    tag_226:\n        /* \"#utility.yul\":3784:3847   */\n      swap2\n      pop\n        /* \"#utility.yul\":3739:3857   */\n      pop\n        /* \"#utility.yul\":3390:3864   */\n      swap3\n      pop\n      swap3\n      swap1\n      pop\n      jump\t// out\n        /* \"#utility.yul\":3870:3988   */\n    tag_227:\n        /* \"#utility.yul\":3957:3981   */\n      tag_229\n        /* \"#utility.yul\":3975:3980   */\n      dup2\n        /* \"#utility.yul\":3957:3981   */\n      tag_230\n      jump\t// in\n    tag_229:\n        /* \"#utility.yul\":3952:3955   */\n      dup3\n        /* \"#utility.yul\":3945:3982   */\n      mstore\n        /* \"#utility.yul\":3870:3988   */\n      pop\n      pop\n      jump\t// out\n        /* \"#utility.yul\":3994:4112   */\n    tag_231:\n        /* \"#utility.yul\":4081:4105   */\n      tag_233\n        /* \"#utility.yul\":4099:4104   */\n      dup2\n        /* \"#utility.yul\":4081:4105   */\n      tag_234\n      jump\t// in\n    tag_233:\n        /* \"#utility.yul\":4076:4079   */\n      dup3\n        /* \"#utility.yul\":4069:4106   */\n      mstore\n        /* \"#utility.yul\":3994:4112   */\n      pop\n      pop\n      jump\t// out\n        /* \"#utility.yul\":4118:4233   */\n    tag_235:\n        /* \"#utility.yul\":4203:4226   */\n      tag_237\n        /* \"#utility.yul\":4220:4225   */\n      dup2\n        /* \"#utility.yul\":4203:4226   */\n      tag_238\n      jump\t// in\n    tag_237:\n        /* \"#utility.yul\":4198:4201   */\n      dup3\n        /* \"#utility.yul\":4191:4227   */\n      mstore\n        /* \"#utility.yul\":4118:4233   */\n      pop\n      pop\n      jump\t// out\n        /* \"#utility.yul\":4239:4603   */\n    tag_239:\n        /* \"#utility.yul\":4327:4330   */\n      0x00\n        /* \"#utility.yul\":4355:4394   */\n      tag_241\n        /* \"#utility.yul\":4388:4393   */\n      dup3\n        /* \"#utility.yul\":4355:4394   */\n      tag_242\n      jump\t// in\n    tag_241:\n        /* \"#utility.yul\":4410:4481   */\n      tag_243\n        /* \"#utility.yul\":4474:4480   */\n      dup2\n        /* \"#utility.yul\":4469:4472   */\n      dup6\n        /* \"#utility.yul\":4410:4481   */\n      tag_244\n      jump\t// in\n    tag_243:\n        /* \"#utility.yul\":4403:4481   */\n      swap4\n      pop\n        /* \"#utility.yul\":4490:4542   */\n      tag_245\n        /* \"#utility.yul\":4535:4541   */\n      dup2\n        /* \"#utility.yul\":4530:4533   */\n      dup6\n        /* \"#utility.yul\":4523:4527   */\n      0x20\n        /* \"#utility.yul\":4516:4521   */\n      dup7\n        /* \"#utility.yul\":4512:4528   */\n      add\n        /* \"#utility.yul\":4490:4542   */\n      tag_246\n      jump\t// in\n    tag_245:\n        /* \"#utility.yul\":4567:4596   */\n      tag_247\n        /* \"#utility.yul\":4589:4595   */\n      dup2\n        /* \"#utility.yul\":4567:4596   */\n      tag_248\n      jump\t// in\n    tag_247:\n        /* \"#utility.yul\":4562:4565   */\n      dup5\n        /* \"#utility.yul\":4558:4597   */\n      add\n        /* \"#utility.yul\":4551:4597   */\n      swap2\n      pop\n        /* \"#utility.yul\":4331:4603   */\n      pop\n        /* \"#utility.yul\":4239:4603   */\n      swap3\n      swap2\n      pop\n      pop\n      jump\t// out\n        /* \"#utility.yul\":4609:4727   */\n    tag_249:\n        /* \"#utility.yul\":4696:4720   */\n      tag_251\n        /* \"#utility.yul\":4714:4719   */\n      dup2\n        /* \"#utility.yul\":4696:4720   */\n      tag_252\n      jump\t// in\n    tag_251:\n        /* \"#utility.yul\":4691:4694   */\n      dup3\n        /* \"#utility.yul\":4684:4721   */\n      mstore\n        /* \"#utility.yul\":4609:4727   */\n      pop\n      pop\n      jump\t// out\n        /* \"#utility.yul\":4733:4955   */\n    tag_38:\n        /* \"#utility.yul\":4826:4830   */\n      0x00\n        /* \"#utility.yul\":4864:4866   */\n      0x20\n        /* \"#utility.yul\":4853:4862   */\n      dup3\n        /* \"#utility.yul\":4849:4867   */\n      add\n        /* \"#utility.yul\":4841:4867   */\n      swap1\n      pop\n        /* \"#utility.yul\":4877:4948   */\n      tag_254\n        /* \"#utility.yul\":4945:4946   */\n      0x00\n        /* \"#utility.yul\":4934:4943   */\n      dup4\n        /* \"#utility.yul\":4930:4947   */\n      add\n        /* \"#utility.yul\":4921:4927   */\n      dup5\n        /* \"#utility.yul\":4877:4948   */\n      tag_227\n      jump\t// in\n    tag_254:\n        /* \"#utility.yul\":4733:4955   */\n      swap3\n      swap2\n      pop\n      pop\n      jump\t// out\n        /* \"#utility.yul\":4961:5183   */\n    tag_66:\n        /* \"#utility.yul\":5054:5058   */\n      0x00\n        /* \"#utility.yul\":5092:5094   */\n      0x20\n        /* \"#utility.yul\":5081:5090   */\n      dup3\n        /* \"#utility.yul\":5077:5095   */\n      add\n        /* \"#utility.yul\":5069:5095   */\n      swap1\n      pop\n        /* \"#utility.yul\":5105:5176   */\n      tag_256\n        /* \"#utility.yul\":5173:5174   */\n      0x00\n        /* \"#utility.yul\":5162:5171   */\n      dup4\n        /* \"#utility.yul\":5158:5175   */\n      add\n        /* \"#utility.yul\":5149:5155   */\n      dup5\n        /* \"#utility.yul\":5105:5176   */\n      tag_231\n      jump\t// in\n    tag_256:\n        /* \"#utility.yul\":4961:5183   */\n      swap3\n      swap2\n      pop\n      pop\n      jump\t// out\n        /* \"#utility.yul\":5189:5407   */\n    tag_51:\n        /* \"#utility.yul\":5280:5284   */\n      0x00\n        /* \"#utility.yul\":5318:5320   */\n      0x20\n        /* \"#utility.yul\":5307:5316   */\n      dup3\n        /* \"#utility.yul\":5303:5321   */\n      add\n        /* \"#utility.yul\":5295:5321   */\n      swap1\n      pop\n        /* \"#utility.yul\":5331:5400   */\n      tag_258\n        /* \"#utility.yul\":5397:5398   */\n      0x00\n        /* \"#utility.yul\":5386:5395   */\n      dup4\n        /* \"#utility.yul\":5382:5399   */\n      add\n        /* \"#utility.yul\":5373:5379   */\n      dup5\n        /* \"#utility.yul\":5331:5400   */\n      tag_235\n      jump\t// in\n    tag_258:\n        /* \"#utility.yul\":5189:5407   */\n      swap3\n      swap2\n      pop\n      pop\n      jump\t// out\n        /* \"#utility.yul\":5413:5726   */\n    tag_59:\n        /* \"#utility.yul\":5526:5530   */\n      0x00\n        /* \"#utility.yul\":5564:5566   */\n      0x20\n        /* \"#utility.yul\":5553:5562   */\n      dup3\n        /* \"#utility.yul\":5549:5567   */\n      add\n        /* \"#utility.yul\":5541:5567   */\n      swap1\n      pop\n        /* \"#utility.yul\":5613:5622   */\n      dup2\n        /* \"#utility.yul\":5607:5611   */\n      dup2\n        /* \"#utility.yul\":5603:5623   */\n      sub\n        /* \"#utility.yul\":5599:5600   */\n      0x00\n        /* \"#utility.yul\":5588:5597   */\n      dup4\n        /* \"#utility.yul\":5584:5601   */\n      add\n        /* \"#utility.yul\":5577:5624   */\n      mstore\n        /* \"#utility.yul\":5641:5719   */\n      tag_260\n        /* \"#utility.yul\":5714:5718   */\n      dup2\n        /* \"#utility.yul\":5705:5711   */\n      dup5\n        /* \"#utility.yul\":5641:5719   */\n      tag_239\n      jump\t// in\n    tag_260:\n        /* \"#utility.yul\":5633:5719   */\n      swap1\n      pop\n        /* \"#utility.yul\":5413:5726   */\n      swap3\n      swap2\n      pop\n      pop\n      jump\t// out\n        /* \"#utility.yul\":5732:6246   */\n    tag_47:\n        /* \"#utility.yul\":5893:5897   */\n      0x00\n        /* \"#utility.yul\":5931:5933   */\n      0x40\n        /* \"#utility.yul\":5920:5929   */\n      dup3\n        /* \"#utility.yul\":5916:5934   */\n      add\n        /* \"#utility.yul\":5908:5934   */\n      swap1\n      pop\n        /* \"#utility.yul\":5980:5989   */\n      dup2\n        /* \"#utility.yul\":5974:5978   */\n      dup2\n        /* \"#utility.yul\":5970:5990   */\n      sub\n        /* \"#utility.yul\":5966:5967   */\n      0x00\n        /* \"#utility.yul\":5955:5964   */\n      dup4\n        /* \"#utility.yul\":5951:5968   */\n      add\n        /* \"#utility.yul\":5944:5991   */\n      mstore\n        /* \"#utility.yul\":6008:6086   */\n      tag_262\n        /* \"#utility.yul\":6081:6085   */\n      dup2\n        /* \"#utility.yul\":6072:6078   */\n      dup6\n        /* \"#utility.yul\":6008:6086   */\n      tag_239\n      jump\t// in\n    tag_262:\n        /* \"#utility.yul\":6000:6086   */\n      swap1\n      pop\n        /* \"#utility.yul\":6133:6142   */\n      dup2\n        /* \"#utility.yul\":6127:6131   */\n      dup2\n        /* \"#utility.yul\":6123:6143   */\n      sub\n        /* \"#utility.yul\":6118:6120   */\n      0x20\n        /* \"#utility.yul\":6107:6116   */\n      dup4\n        /* \"#utility.yul\":6103:6121   */\n      add\n        /* \"#utility.yul\":6096:6144   */\n      mstore\n        /* \"#utility.yul\":6161:6239   */\n      tag_263\n        /* \"#utility.yul\":6234:6238   */\n      dup2\n        /* \"#utility.yul\":6225:6231   */\n      dup5\n        /* \"#utility.yul\":6161:6239   */\n      tag_239\n      jump\t// in\n    tag_263:\n        /* \"#utility.yul\":6153:6239   */\n      swap1\n      pop\n        /* \"#utility.yul\":5732:6246   */\n      swap4\n      swap3\n      pop\n      pop\n      pop\n      jump\t// out\n        /* \"#utility.yul\":6252:6474   */\n    tag_31:\n        /* \"#utility.yul\":6345:6349   */\n      0x00\n        /* \"#utility.yul\":6383:6385   */\n      0x20\n        /* \"#utility.yul\":6372:6381   */\n      dup3\n        /* \"#utility.yul\":6368:6386   */\n      add\n        /* \"#utility.yul\":6360:6386   */\n      swap1\n      pop\n        /* \"#utility.yul\":6396:6467   */\n      tag_265\n        /* \"#utility.yul\":6464:6465   */\n      0x00\n        /* \"#utility.yul\":6453:6462   */\n      dup4\n        /* \"#utility.yul\":6449:6466   */\n      add\n        /* \"#utility.yul\":6440:6446   */\n      dup5\n        /* \"#utility.yul\":6396:6467   */\n      tag_249\n      jump\t// in\n    tag_265:\n        /* \"#utility.yul\":6252:6474   */\n      swap3\n      swap2\n      pop\n      pop\n      jump\t// out\n        /* \"#utility.yul\":6480:6903   */\n    tag_83:\n        /* \"#utility.yul\":6621:6625   */\n      0x00\n        /* \"#utility.yul\":6659:6661   */\n      0x40\n        /* \"#utility.yul\":6648:6657   */\n      dup3\n        /* \"#utility.yul\":6644:6662   */\n      add\n        /* \"#utility.yul\":6636:6662   */\n      swap1\n      pop\n        /* \"#utility.yul\":6672:6743   */\n      tag_267\n        /* \"#utility.yul\":6740:6741   */\n      0x00\n        /* \"#utility.yul\":6729:6738   */\n      dup4\n        /* \"#utility.yul\":6725:6742   */\n      add\n        /* \"#utility.yul\":6716:6722   */\n      dup6\n        /* \"#utility.yul\":6672:6743   */\n      tag_249\n      jump\t// in\n    tag_267:\n        /* \"#utility.yul\":6790:6799   */\n      dup2\n        /* \"#utility.yul\":6784:6788   */\n      dup2\n        /* \"#utility.yul\":6780:6800   */\n      sub\n        /* \"#utility.yul\":6775:6777   */\n      0x20\n        /* \"#utility.yul\":6764:6773   */\n      dup4\n        /* \"#utility.yul\":6760:6778   */\n      add\n        /* \"#utility.yul\":6753:6801   */\n      mstore\n        /* \"#utility.yul\":6818:6896   */\n      tag_268\n        /* \"#utility.yul\":6891:6895   */\n      dup2\n        /* \"#utility.yul\":6882:6888   */\n      dup5\n        /* \"#utility.yul\":6818:6896   */\n      tag_239\n      jump\t// in\n    tag_268:\n        /* \"#utility.yul\":6810:6896   */\n      swap1\n      pop\n        /* \"#utility.yul\":6480:6903   */\n      swap4\n      swap3\n      pop\n      pop\n      pop\n      jump\t// out\n        /* \"#utility.yul\":6909:7038   */\n    tag_175:\n        /* \"#utility.yul\":6943:6949   */\n      0x00\n        /* \"#utility.yul\":6970:6990   */\n      tag_270\n      tag_271\n      jump\t// in\n    tag_270:\n        /* \"#utility.yul\":6960:6990   */\n      swap1\n      pop\n        /* \"#utility.yul\":6999:7032   */\n      tag_272\n        /* \"#utility.yul\":7027:7031   */\n      dup3\n        /* \"#utility.yul\":7019:7025   */\n      dup3\n        /* \"#utility.yul\":6999:7032   */\n      tag_273\n      jump\t// in\n    tag_272:\n        /* \"#utility.yul\":6909:7038   */\n      swap2\n      swap1\n      pop\n      jump\t// out\n        /* \"#utility.yul\":7044:7119   */\n    tag_271:\n        /* \"#utility.yul\":7077:7083   */\n      0x00\n        /* \"#utility.yul\":7110:7112   */\n      0x40\n        /* \"#utility.yul\":7104:7113   */\n      mload\n        /* \"#utility.yul\":7094:7113   */\n      swap1\n      pop\n        /* \"#utility.yul\":7044:7119   */\n      swap1\n      jump\t// out\n        /* \"#utility.yul\":7125:7433   */\n    tag_174:\n        /* \"#utility.yul\":7187:7191   */\n      0x00\n        /* \"#utility.yul\":7277:7295   */\n      0xffffffffffffffff\n        /* \"#utility.yul\":7269:7275   */\n      dup3\n        /* \"#utility.yul\":7266:7296   */\n      gt\n        /* \"#utility.yul\":7263:7319   */\n      iszero\n      tag_276\n      jumpi\n        /* \"#utility.yul\":7299:7317   */\n      tag_277\n      tag_278\n      jump\t// in\n    tag_277:\n        /* \"#utility.yul\":7263:7319   */\n    tag_276:\n        /* \"#utility.yul\":7337:7366   */\n      tag_279\n        /* \"#utility.yul\":7359:7365   */\n      dup3\n        /* \"#utility.yul\":7337:7366   */\n      tag_248\n      jump\t// in\n    tag_279:\n        /* \"#utility.yul\":7329:7366   */\n      swap1\n      pop\n        /* \"#utility.yul\":7421:7425   */\n      0x20\n        /* \"#utility.yul\":7415:7419   */\n      dup2\n        /* \"#utility.yul\":7411:7426   */\n      add\n        /* \"#utility.yul\":7403:7426   */\n      swap1\n      pop\n        /* \"#utility.yul\":7125:7433   */\n      swap2\n      swap1\n      pop\n      jump\t// out\n        /* \"#utility.yul\":7439:7538   */\n    tag_242:\n        /* \"#utility.yul\":7491:7497   */\n      0x00\n        /* \"#utility.yul\":7525:7530   */\n      dup2\n        /* \"#utility.yul\":7519:7531   */\n      mload\n        /* \"#utility.yul\":7509:7531   */\n      swap1\n      pop\n        /* \"#utility.yul\":7439:7538   */\n      swap2\n      swap1\n      pop\n      jump\t// out\n        /* \"#utility.yul\":7544:7713   */\n    tag_244:\n        /* \"#utility.yul\":7628:7639   */\n      0x00\n        /* \"#utility.yul\":7662:7668   */\n      dup3\n        /* \"#utility.yul\":7657:7660   */\n      dup3\n        /* \"#utility.yul\":7650:7669   */\n      mstore\n        /* \"#utility.yul\":7702:7706   */\n      0x20\n        /* \"#utility.yul\":7697:7700   */\n      dup3\n        /* \"#utility.yul\":7693:7707   */\n      add\n        /* \"#utility.yul\":7678:7707   */\n      swap1\n      pop\n        /* \"#utility.yul\":7544:7713   */\n      swap3\n      swap2\n      pop\n      pop\n      jump\t// out\n        /* \"#utility.yul\":7719:7815   */\n    tag_230:\n        /* \"#utility.yul\":7756:7763   */\n      0x00\n        /* \"#utility.yul\":7785:7809   */\n      tag_283\n        /* \"#utility.yul\":7803:7808   */\n      dup3\n        /* \"#utility.yul\":7785:7809   */\n      tag_284\n      jump\t// in\n    tag_283:\n        /* \"#utility.yul\":7774:7809   */\n      swap1\n      pop\n        /* \"#utility.yul\":7719:7815   */\n      swap2\n      swap1\n      pop\n      jump\t// out\n        /* \"#utility.yul\":7821:7898   */\n    tag_234:\n        /* \"#utility.yul\":7858:7865   */\n      0x00\n        /* \"#utility.yul\":7887:7892   */\n      dup2\n        /* \"#utility.yul\":7876:7892   */\n      swap1\n      pop\n        /* \"#utility.yul\":7821:7898   */\n      swap2\n      swap1\n      pop\n      jump\t// out\n        /* \"#utility.yul\":7904:7980   */\n    tag_238:\n        /* \"#utility.yul\":7940:7947   */\n      0x00\n        /* \"#utility.yul\":7969:7974   */\n      dup2\n        /* \"#utility.yul\":7958:7974   */\n      swap1\n      pop\n        /* \"#utility.yul\":7904:7980   */\n      swap2\n      swap1\n      pop\n      jump\t// out\n        /* \"#utility.yul\":7986:8112   */\n    tag_284:\n        /* \"#utility.yul\":8023:8030   */\n      0x00\n        /* \"#utility.yul\":8063:8105   */\n      0xffffffffffffffffffffffffffffffffffffffff\n        /* \"#utility.yul\":8056:8061   */\n      dup3\n        /* \"#utility.yul\":8052:8106   */\n      and\n        /* \"#utility.yul\":8041:8106   */\n      swap1\n      pop\n        /* \"#utility.yul\":7986:8112   */\n      swap2\n      swap1\n      pop\n      jump\t// out\n        /* \"#utility.yul\":8118:8195   */\n    tag_252:\n        /* \"#utility.yul\":8155:8162   */\n      0x00\n        /* \"#utility.yul\":8184:8189   */\n      dup2\n        /* \"#utility.yul\":8173:8189   */\n      swap1\n      pop\n        /* \"#utility.yul\":8118:8195   */\n      swap2\n      swap1\n      pop\n      jump\t// out\n        /* \"#utility.yul\":8201:8355   */\n    tag_180:\n        /* \"#utility.yul\":8285:8291   */\n      dup3\n        /* \"#utility.yul\":8280:8283   */\n      dup2\n        /* \"#utility.yul\":8275:8278   */\n      dup4\n        /* \"#utility.yul\":8262:8292   */\n      calldatacopy\n        /* \"#utility.yul\":8347:8348   */\n      0x00\n        /* \"#utility.yul\":8338:8344   */\n      dup4\n        /* \"#utility.yul\":8333:8336   */\n      dup4\n        /* \"#utility.yul\":8329:8345   */\n      add\n        /* \"#utility.yul\":8322:8349   */\n      mstore\n        /* \"#utility.yul\":8201:8355   */\n      pop\n      pop\n      pop\n      jump\t// out\n        /* \"#utility.yul\":8361:8668   */\n    tag_246:\n        /* \"#utility.yul\":8429:8430   */\n      0x00\n        /* \"#utility.yul\":8439:8552   */\n    tag_291:\n        /* \"#utility.yul\":8453:8459   */\n      dup4\n        /* \"#utility.yul\":8450:8451   */\n      dup2\n        /* \"#utility.yul\":8447:8460   */\n      lt\n        /* \"#utility.yul\":8439:8552   */\n      iszero\n      tag_293\n      jumpi\n        /* \"#utility.yul\":8538:8539   */\n      dup1\n        /* \"#utility.yul\":8533:8536   */\n      dup3\n        /* \"#utility.yul\":8529:8540   */\n      add\n        /* \"#utility.yul\":8523:8541   */\n      mload\n        /* \"#utility.yul\":8519:8520   */\n      dup2\n        /* \"#utility.yul\":8514:8517   */\n      dup5\n        /* \"#utility.yul\":8510:8521   */\n      add\n        /* \"#utility.yul\":8503:8542   */\n      mstore\n        /* \"#utility.yul\":8475:8477   */\n      0x20\n        /* \"#utility.yul\":8472:8473   */\n      dup2\n        /* \"#utility.yul\":8468:8478   */\n      add\n        /* \"#utility.yul\":8463:8478   */\n      swap1\n      pop\n        /* \"#utility.yul\":8439:8552   */\n      jump(tag_291)\n    tag_293:\n        /* \"#utility.yul\":8570:8576   */\n      dup4\n        /* \"#utility.yul\":8567:8568   */\n      dup2\n        /* \"#utility.yul\":8564:8577   */\n      gt\n        /* \"#utility.yul\":8561:8662   */\n      iszero\n      tag_294\n      jumpi\n        /* \"#utility.yul\":8650:8651   */\n      0x00\n        /* \"#utility.yul\":8641:8647   */\n      dup5\n        /* \"#utility.yul\":8636:8639   */\n      dup5\n        /* \"#utility.yul\":8632:8648   */\n      add\n        /* \"#utility.yul\":8625:8652   */\n      mstore\n        /* \"#utility.yul\":8561:8662   */\n    tag_294:\n        /* \"#utility.yul\":8410:8668   */\n      pop\n        /* \"#utility.yul\":8361:8668   */\n      pop\n      pop\n      pop\n      jump\t// out\n        /* \"#utility.yul\":8674:8994   */\n    tag_103:\n        /* \"#utility.yul\":8718:8724   */\n      0x00\n        /* \"#utility.yul\":8755:8756   */\n      0x02\n        /* \"#utility.yul\":8749:8753   */\n      dup3\n        /* \"#utility.yul\":8745:8757   */\n      div\n        /* \"#utility.yul\":8735:8757   */\n      swap1\n      pop\n        /* \"#utility.yul\":8802:8803   */\n      0x01\n        /* \"#utility.yul\":8796:8800   */\n      dup3\n        /* \"#utility.yul\":8792:8804   */\n      and\n        /* \"#utility.yul\":8823:8841   */\n      dup1\n        /* \"#utility.yul\":8813:8894   */\n      tag_296\n      jumpi\n        /* \"#utility.yul\":8879:8883   */\n      0x7f\n        /* \"#utility.yul\":8871:8877   */\n      dup3\n        /* \"#utility.yul\":8867:8884   */\n      and\n        /* \"#utility.yul\":8857:8884   */\n      swap2\n      pop\n        /* \"#utility.yul\":8813:8894   */\n    tag_296:\n        /* \"#utility.yul\":8941:8943   */\n      0x20\n        /* \"#utility.yul\":8933:8939   */\n      dup3\n        /* \"#utility.yul\":8930:8944   */\n      lt\n        /* \"#utility.yul\":8910:8928   */\n      dup2\n        /* \"#utility.yul\":8907:8945   */\n      eq\n        /* \"#utility.yul\":8904:8988   */\n      iszero\n      tag_297\n      jumpi\n        /* \"#utility.yul\":8960:8978   */\n      tag_298\n      tag_299\n      jump\t// in\n    tag_298:\n        /* \"#utility.yul\":8904:8988   */\n    tag_297:\n        /* \"#utility.yul\":8725:8994   */\n      pop\n        /* \"#utility.yul\":8674:8994   */\n      swap2\n      swap1\n      pop\n      jump\t// out\n        /* \"#utility.yul\":9000:9281   */\n    tag_273:\n        /* \"#utility.yul\":9083:9110   */\n      tag_301\n        /* \"#utility.yul\":9105:9109   */\n      dup3\n        /* \"#utility.yul\":9083:9110   */\n      tag_248\n      jump\t// in\n    tag_301:\n        /* \"#utility.yul\":9075:9081   */\n      dup2\n        /* \"#utility.yul\":9071:9111   */\n      add\n        /* \"#utility.yul\":9213:9219   */\n      dup2\n        /* \"#utility.yul\":9201:9211   */\n      dup2\n        /* \"#utility.yul\":9198:9220   */\n      lt\n        /* \"#utility.yul\":9177:9195   */\n      0xffffffffffffffff\n        /* \"#utility.yul\":9165:9175   */\n      dup3\n        /* \"#utility.yul\":9162:9196   */\n      gt\n        /* \"#utility.yul\":9159:9221   */\n      or\n        /* \"#utility.yul\":9156:9244   */\n      iszero\n      tag_302\n      jumpi\n        /* \"#utility.yul\":9224:9242   */\n      tag_303\n      tag_278\n      jump\t// in\n    tag_303:\n        /* \"#utility.yul\":9156:9244   */\n    tag_302:\n        /* \"#utility.yul\":9264:9274   */\n      dup1\n        /* \"#utility.yul\":9260:9262   */\n      0x40\n        /* \"#utility.yul\":9253:9275   */\n      mstore\n        /* \"#utility.yul\":9043:9281   */\n      pop\n        /* \"#utility.yul\":9000:9281   */\n      pop\n      pop\n      jump\t// out\n        /* \"#utility.yul\":9287:9467   */\n    tag_299:\n        /* \"#utility.yul\":9335:9412   */\n      0x4e487b7100000000000000000000000000000000000000000000000000000000\n        /* \"#utility.yul\":9332:9333   */\n      0x00\n        /* \"#utility.yul\":9325:9413   */\n      mstore\n        /* \"#utility.yul\":9432:9436   */\n      0x22\n        /* \"#utility.yul\":9429:9430   */\n      0x04\n        /* \"#utility.yul\":9422:9437   */\n      mstore\n        /* \"#utility.yul\":9456:9460   */\n      0x24\n        /* \"#utility.yul\":9453:9454   */\n      0x00\n        /* \"#utility.yul\":9446:9461   */\n      revert\n        /* \"#utility.yul\":9473:9653   */\n    tag_278:\n        /* \"#utility.yul\":9521:9598   */\n      0x4e487b7100000000000000000000000000000000000000000000000000000000\n        /* \"#utility.yul\":9518:9519   */\n      0x00\n        /* \"#utility.yul\":9511:9599   */\n      mstore\n        /* \"#utility.yul\":9618:9622   */\n      0x41\n        /* \"#utility.yul\":9615:9616   */\n      0x04\n        /* \"#utility.yul\":9608:9623   */\n      mstore\n        /* \"#utility.yul\":9642:9646   */\n      0x24\n        /* \"#utility.yul\":9639:9640   */\n      0x00\n        /* \"#utility.yul\":9632:9647   */\n      revert\n        /* \"#utility.yul\":9659:9776   */\n    tag_189:\n        /* \"#utility.yul\":9768:9769   */\n      0x00\n        /* \"#utility.yul\":9765:9766   */\n      dup1\n        /* \"#utility.yul\":9758:9770   */\n      revert\n        /* \"#utility.yul\":9782:9899   */\n    tag_178:\n        /* \"#utility.yul\":9891:9892   */\n      0x00\n        /* \"#utility.yul\":9888:9889   */\n      dup1\n        /* \"#utility.yul\":9881:9893   */\n      revert\n        /* \"#utility.yul\":9905:10022   */\n    tag_206:\n        /* \"#utility.yul\":10014:10015   */\n      0x00\n        /* \"#utility.yul\":10011:10012   */\n      dup1\n        /* \"#utility.yul\":10004:10016   */\n      revert\n        /* \"#utility.yul\":10028:10145   */\n    tag_198:\n        /* \"#utility.yul\":10137:10138   */\n      0x00\n        /* \"#utility.yul\":10134:10135   */\n      dup1\n        /* \"#utility.yul\":10127:10139   */\n      revert\n        /* \"#utility.yul\":10151:10253   */\n    tag_248:\n        /* \"#utility.yul\":10192:10198   */\n      0x00\n        /* \"#utility.yul\":10243:10245   */\n      0x1f\n        /* \"#utility.yul\":10239:10246   */\n      not\n        /* \"#utility.yul\":10234:10236   */\n      0x1f\n        /* \"#utility.yul\":10227:10232   */\n      dup4\n        /* \"#utility.yul\":10223:10237   */\n      add\n        /* \"#utility.yul\":10219:10247   */\n      and\n        /* \"#utility.yul\":10209:10247   */\n      swap1\n      pop\n        /* \"#utility.yul\":10151:10253   */\n      swap2\n      swap1\n      pop\n      jump\t// out\n        /* \"#utility.yul\":10259:10381   */\n    tag_184:\n        /* \"#utility.yul\":10332:10356   */\n      tag_312\n        /* \"#utility.yul\":10350:10355   */\n      dup2\n        /* \"#utility.yul\":10332:10356   */\n      tag_230\n      jump\t// in\n    tag_312:\n        /* \"#utility.yul\":10325:10330   */\n      dup2\n        /* \"#utility.yul\":10322:10357   */\n      eq\n        /* \"#utility.yul\":10312:10375   */\n      tag_313\n      jumpi\n        /* \"#utility.yul\":10371:10372   */\n      0x00\n        /* \"#utility.yul\":10368:10369   */\n      dup1\n        /* \"#utility.yul\":10361:10373   */\n      revert\n        /* \"#utility.yul\":10312:10375   */\n    tag_313:\n        /* \"#utility.yul\":10259:10381   */\n      pop\n      jump\t// out\n        /* \"#utility.yul\":10387:10509   */\n    tag_194:\n        /* \"#utility.yul\":10460:10484   */\n      tag_315\n        /* \"#utility.yul\":10478:10483   */\n      dup2\n        /* \"#utility.yul\":10460:10484   */\n      tag_252\n      jump\t// in\n    tag_315:\n        /* \"#utility.yul\":10453:10458   */\n      dup2\n        /* \"#utility.yul\":10450:10485   */\n      eq\n        /* \"#utility.yul\":10440:10503   */\n      tag_316\n      jumpi\n        /* \"#utility.yul\":10499:10500   */\n      0x00\n        /* \"#utility.yul\":10496:10497   */\n      dup1\n        /* \"#utility.yul\":10489:10501   */\n      revert\n        /* \"#utility.yul\":10440:10503   */\n    tag_316:\n        /* \"#utility.yul\":10387:10509   */\n      pop\n      jump\t// out\n\n    auxdata: 0xa264697066735822122018e3a760656d980532d56b6f5fdb6ebf7fac051d383af4d571188819e397e08564736f6c63430008070033\n}\n",
				"bytecode": {
					"linkReferences": {},
					"object": "60806040526040518060600160405280600160ff168152602001600260ff168152602001600360ff1681525060009060036200003d9291906200040c565b5060405180606001604052806040518060400160405280600581526020017f6170706c6500000000000000000000000000000000000000000000000000000081525081526020016040518060400160405280600681526020017f62616e616e61000000000000000000000000000000000000000000000000000081525081526020016040518060400160405280600681526020017f636172726f74000000000000000000000000000000000000000000000000000081525081525060019060036200010a92919062000463565b5060405180604001604052806040518060600160405280600160ff168152602001600260ff168152602001600360ff1681525081526020016040518060600160405280600460ff168152602001600560ff168152602001600660ff1681525081525060039060026200017e929190620004ca565b50600160045560016005557fffffffffffffffffffffffffffffffffffffffffffffffffffffffffffffffff6006556040518060400160405280600b81526020017f48656c6c6f20576f726c6400000000000000000000000000000000000000000081525060079080519060200190620001fa9291906200052c565b507f486920576f726c6400000000000000000000000000000000000000000000000060085533600960006101000a81548173ffffffffffffffffffffffffffffffffffffffff021916908373ffffffffffffffffffffffffffffffffffffffff1602179055506040518060400160405280600181526020016040518060400160405280600a81526020017f4f6c61204d756e646f2100000000000000000000000000000000000000000000815250815250600a600082015181600001556020820151816001019080519060200190620002d59291906200052c565b505050348015620002e557600080fd5b506040518060400160405280600481526020017f4164616d00000000000000000000000000000000000000000000000000000000815250600c6000600181526020019081526020016000209080519060200190620003459291906200052c565b506040518060400160405280600581526020017f4272756365000000000000000000000000000000000000000000000000000000815250600c6000600281526020019081526020016000209080519060200190620003a59291906200052c565b506040518060400160405280600481526020017f4361726c00000000000000000000000000000000000000000000000000000000815250600c6000600381526020019081526020016000209080519060200190620004059291906200052c565b50620006fa565b82805482825590600052602060002090810192821562000450579160200282015b828111156200044f578251829060ff169055916020019190600101906200042d565b5b5090506200045f9190620005bd565b5090565b828054828255906000526020600020908101928215620004b7579160200282015b82811115620004b6578251829080519060200190620004a59291906200052c565b509160200191906001019062000484565b5b509050620004c69190620005dc565b5090565b82805482825590600052602060002090810192821562000519579160200282015b828111156200051857825182906003620005079291906200040c565b5091602001919060010190620004eb565b5b50905062000528919062000604565b5090565b8280546200053a9062000695565b90600052602060002090601f0160209004810192826200055e5760008555620005aa565b82601f106200057957805160ff1916838001178555620005aa565b82800160010185558215620005aa579182015b82811115620005a95782518255916020019190600101906200058c565b5b509050620005b99190620005bd565b5090565b5b80821115620005d8576000816000905550600101620005be565b5090565b5b80821115620006005760008181620005f691906200062c565b50600101620005dd565b5090565b5b808211156200062857600081816200061e919062000672565b5060010162000605565b5090565b5080546200063a9062000695565b6000825580601f106200064e57506200066f565b601f0160209004906000526020600020908101906200066e9190620005bd565b5b50565b5080546000825590600052602060002090810190620006929190620005bd565b50565b60006002820490506001821680620006ae57607f821691505b60208210811415620006c557620006c4620006cb565b5b50919050565b7f4e487b7100000000000000000000000000000000000000000000000000000000600052602260045260246000fd5b611115806200070a6000396000f3fe608060405234801561001057600080fd5b50600436106101165760003560e01c8063493ec707116100a2578063687440461161007157806368744046146102d25780638bc9fe6c146103035780639ae918c714610322578063a7dbce1c14610352578063d3268fc11461037057610116565b8063493ec707146102385780634b3e7e0c146102545780635e383d21146102725780636422c4c8146102a257610116565b806326eb4dbb116100e957806326eb4dbb1461019157806327d3553f146101af5780632cb777a6146101e05780633a5fbaaa146101fe578063492bfa181461021a57610116565b8063028414f21461011b57806306540f7e14610137578063209652551461015557806326b85ee114610173575b600080fd5b61013560048036038101906101309190610c92565b6103a0565b005b61013f61040a565b60405161014c9190610e7c565b60405180910390f35b61015d610410565b60405161016a9190610e7c565b60405180910390f35b61017b61041e565b6040516101889190610dd2565b60405180910390f35b610199610444565b6040516101a69190610e7c565b60405180910390f35b6101c960048036038101906101c49190610bdc565b610451565b6040516101d7929190610e45565b60405180910390f35b6101e8610592565b6040516101f59190610e08565b60405180910390f35b61021860048036038101906102139190610c1c565b610598565b005b6102226105d7565b60405161022f9190610e23565b60405180910390f35b610252600480360381019061024d9190610c92565b610665565b005b61025c61070c565b6040516102699190610ded565b60405180910390f35b61028c60048036038101906102879190610c65565b610712565b6040516102999190610e23565b60405180910390f35b6102bc60048036038101906102b79190610c65565b6107be565b6040516102c99190610e23565b60405180910390f35b6102ec60048036038101906102e79190610c65565b61086a565b6040516102fa929190610e45565b60405180910390f35b61030b61099e565b604051610319929190610e97565b60405180910390f35b61033c60048036038101906103379190610c65565b610a38565b6040516103499190610e7c565b60405180910390f35b61035a610a5c565b6040516103679190610e7c565b60405180910390f35b61038a60048036038101906103859190610d1d565b610a62565b6040516103979190610e7c565b60405180910390f35b604051806040016040528083815260200182815250600d600085815260200190815260200160002060008201518160000190805190602001906103e4929190610a9f565b506020820151816001019080519060200190610401929190610a9f565b50905050505050565b60045481565b600080600190508091505090565b600960009054906101000a900473ffffffffffffffffffffffffffffffffffffffff1681565b6000600280549050905090565b600e6020528160005260406000206020528060005260406000206000915091505080600001805461048190610fcb565b80601f01602080910402602001604051908101604052809291908181526020018280546104ad90610fcb565b80156104fa5780601f106104cf576101008083540402835291602001916104fa565b820191906000526020600020905b8154815290600101906020018083116104dd57829003601f168201915b50505050509080600101805461050f90610fcb565b80601f016020809104026020016040519081016040528092919081815260200182805461053b90610fcb565b80156105885780601f1061055d57610100808354040283529160200191610588565b820191906000526020600020905b81548152906001019060200180831161056b57829003601f168201915b5050505050905082565b60065481565b6002819080600181540180825580915050600190039060005260206000200160009091909190915090805190602001906105d3929190610a9f565b5050565b600780546105e490610fcb565b80601f016020809104026020016040519081016040528092919081815260200182805461061090610fcb565b801561065d5780601f106106325761010080835404028352916020019161065d565b820191906000526020600020905b81548152906001019060200180831161064057829003601f168201915b505050505081565b604051806040016040528083815260200182815250600e60003373ffffffffffffffffffffffffffffffffffffffff1673ffffffffffffffffffffffffffffffffffffffff168152602001908152602001600020600085815260200190815260200160002060008201518160000190805190602001906106e6929190610a9f565b506020820151816001019080519060200190610703929190610a9f565b50905050505050565b60085481565b6002818154811061072257600080fd5b90600052602060002001600091509050805461073d90610fcb565b80601f016020809104026020016040519081016040528092919081815260200182805461076990610fcb565b80156107b65780601f1061078b576101008083540402835291602001916107b6565b820191906000526020600020905b81548152906001019060200180831161079957829003601f168201915b505050505081565b600181815481106107ce57600080fd5b9060005260206000200160009150905080546107e990610fcb565b80601f016020809104026020016040519081016040528092919081815260200182805461081590610fcb565b80156108625780601f1061083757610100808354040283529160200191610862565b820191906000526020600020905b81548152906001019060200180831161084557829003601f168201915b505050505081565b600d60205280600052604060002060009150905080600001805461088d90610fcb565b80601f01602080910402602001604051908101604052809291908181526020018280546108b990610fcb565b80156109065780601f106108db57610100808354040283529160200191610906565b820191906000526020600020905b8154815290600101906020018083116108e957829003601f168201915b50505050509080600101805461091b90610fcb565b80601f016020809104026020016040519081016040528092919081815260200182805461094790610fcb565b80156109945780601f1061096957610100808354040283529160200191610994565b820191906000526020600020905b81548152906001019060200180831161097757829003601f168201915b5050505050905082565b600a8060000154908060010180546109b590610fcb565b80601f01602080910402602001604051908101604052809291908181526020018280546109e190610fcb565b8015610a2e5780601f10610a0357610100808354040283529160200191610a2e565b820191906000526020600020905b815481529060010190602001808311610a1157829003601f168201915b5050505050905082565b60008181548110610a4857600080fd5b906000526020600020016000915090505481565b60055481565b60038281548110610a7257600080fd5b906000526020600020018181548110610a8a57600080fd5b90600052602060002001600091509150505481565b828054610aab90610fcb565b90600052602060002090601f016020900481019282610acd5760008555610b14565b82601f10610ae657805160ff1916838001178555610b14565b82800160010185558215610b14579182015b82811115610b13578251825591602001919060010190610af8565b5b509050610b219190610b25565b5090565b5b80821115610b3e576000816000905550600101610b26565b5090565b6000610b55610b5084610eec565b610ec7565b905082815260208101848484011115610b7157610b70611091565b5b610b7c848285610f89565b509392505050565b600081359050610b93816110b1565b92915050565b600082601f830112610bae57610bad61108c565b5b8135610bbe848260208601610b42565b91505092915050565b600081359050610bd6816110c8565b92915050565b60008060408385031215610bf357610bf261109b565b5b6000610c0185828601610b84565b9250506020610c1285828601610bc7565b9150509250929050565b600060208284031215610c3257610c3161109b565b5b600082013567ffffffffffffffff811115610c5057610c4f611096565b5b610c5c84828501610b99565b91505092915050565b600060208284031215610c7b57610c7a61109b565b5b6000610c8984828501610bc7565b91505092915050565b600080600060608486031215610cab57610caa61109b565b5b6000610cb986828701610bc7565b935050602084013567ffffffffffffffff811115610cda57610cd9611096565b5b610ce686828701610b99565b925050604084013567ffffffffffffffff811115610d0757610d06611096565b5b610d1386828701610b99565b9150509250925092565b60008060408385031215610d3457610d3361109b565b5b6000610d4285828601610bc7565b9250506020610d5385828601610bc7565b9150509250929050565b610d6681610f39565b82525050565b610d7581610f4b565b82525050565b610d8481610f55565b82525050565b6000610d9582610f1d565b610d9f8185610f28565b9350610daf818560208601610f98565b610db8816110a0565b840191505092915050565b610dcc81610f7f565b82525050565b6000602082019050610de76000830184610d5d565b92915050565b6000602082019050610e026000830184610d6c565b92915050565b6000602082019050610e1d6000830184610d7b565b92915050565b60006020820190508181036000830152610e3d8184610d8a565b905092915050565b60006040820190508181036000830152610e5f8185610d8a565b90508181036020830152610e738184610d8a565b90509392505050565b6000602082019050610e916000830184610dc3565b92915050565b6000604082019050610eac6000830185610dc3565b8181036020830152610ebe8184610d8a565b90509392505050565b6000610ed1610ee2565b9050610edd8282610ffd565b919050565b6000604051905090565b600067ffffffffffffffff821115610f0757610f0661105d565b5b610f10826110a0565b9050602081019050919050565b600081519050919050565b600082825260208201905092915050565b6000610f4482610f5f565b9050919050565b6000819050919050565b6000819050919050565b600073ffffffffffffffffffffffffffffffffffffffff82169050919050565b6000819050919050565b82818337600083830152505050565b60005b83811015610fb6578082015181840152602081019050610f9b565b83811115610fc5576000848401525b50505050565b60006002820490506001821680610fe357607f821691505b60208210811415610ff757610ff661102e565b5b50919050565b611006826110a0565b810181811067ffffffffffffffff821117156110255761102461105d565b5b80604052505050565b7f4e487b7100000000000000000000000000000000000000000000000000000000600052602260045260246000fd5b7f4e487b7100000000000000000000000000000000000000000000000000000000600052604160045260246000fd5b600080fd5b600080fd5b600080fd5b600080fd5b6000601f19601f8301169050919050565b6110ba81610f39565b81146110c557600080fd5b50565b6110d181610f7f565b81146110dc57600080fd5b5056fea264697066735822122018e3a760656d980532d56b6f5fdb6ebf7fac051d383af4d571188819e397e08564736f6c63430008070033",
					"opcodes": "PUSH1 0x80 PUSH1 0x40 MSTORE PUSH1 0x40 MLOAD DUP1 PUSH1 0x60 ADD PUSH1 0x40 MSTORE DUP1 PUSH1 0x1 PUSH1 0xFF AND DUP2 MSTORE PUSH1 0x20 ADD PUSH1 0x2 PUSH1 0xFF AND DUP2 MSTORE PUSH1 0x20 ADD PUSH1 0x3 PUSH1 0xFF AND DUP2 MSTORE POP PUSH1 0x0 SWAP1 PUSH1 0x3 PUSH3 0x3D SWAP3 SWAP2 SWAP1 PUSH3 0x40C JUMP JUMPDEST POP PUSH1 0x40 MLOAD DUP1 PUSH1 0x60 ADD PUSH1 0x40 MSTORE DUP1 PUSH1 0x40 MLOAD DUP1 PUSH1 0x40 ADD PUSH1 0x40 MSTORE DUP1 PUSH1 0x5 DUP2 MSTORE PUSH1 0x20 ADD PUSH32 0x6170706C65000000000000000000000000000000000000000000000000000000 DUP2 MSTORE POP DUP2 MSTORE PUSH1 0x20 ADD PUSH1 0x40 MLOAD DUP1 PUSH1 0x40 ADD PUSH1 0x40 MSTORE DUP1 PUSH1 0x6 DUP2 MSTORE PUSH1 0x20 ADD PUSH32 0x62616E616E610000000000000000000000000000000000000000000000000000 DUP2 MSTORE POP DUP2 MSTORE PUSH1 0x20 ADD PUSH1 0x40 MLOAD DUP1 PUSH1 0x40 ADD PUSH1 0x40 MSTORE DUP1 PUSH1 0x6 DUP2 MSTORE PUSH1 0x20 ADD PUSH32 0x636172726F740000000000000000000000000000000000000000000000000000 DUP2 MSTORE POP DUP2 MSTORE POP PUSH1 0x1 SWAP1 PUSH1 0x3 PUSH3 0x10A SWAP3 SWAP2 SWAP1 PUSH3 0x463 JUMP JUMPDEST POP PUSH1 0x40 MLOAD DUP1 PUSH1 0x40 ADD PUSH1 0x40 MSTORE DUP1 PUSH1 0x40 MLOAD DUP1 PUSH1 0x60 ADD PUSH1 0x40 MSTORE DUP1 PUSH1 0x1 PUSH1 0xFF AND DUP2 MSTORE PUSH1 0x20 ADD PUSH1 0x2 PUSH1 0xFF AND DUP2 MSTORE PUSH1 0x20 ADD PUSH1 0x3 PUSH1 0xFF AND DUP2 MSTORE POP DUP2 MSTORE PUSH1 0x20 ADD PUSH1 0x40 MLOAD DUP1 PUSH1 0x60 ADD PUSH1 0x40 MSTORE DUP1 PUSH1 0x4 PUSH1 0xFF AND DUP2 MSTORE PUSH1 0x20 ADD PUSH1 0x5 PUSH1 0xFF AND DUP2 MSTORE PUSH1 0x20 ADD PUSH1 0x6 PUSH1 0xFF AND DUP2 MSTORE POP DUP2 MSTORE POP PUSH1 0x3 SWAP1 PUSH1 0x2 PUSH3 0x17E SWAP3 SWAP2 SWAP1 PUSH3 0x4CA JUMP JUMPDEST POP PUSH1 0x1 PUSH1 0x4 SSTORE PUSH1 0x1 PUSH1 0x5 SSTORE PUSH32 0xFFFFFFFFFFFFFFFFFFFFFFFFFFFFFFFFFFFFFFFFFFFFFFFFFFFFFFFFFFFFFFFF PUSH1 0x6 SSTORE PUSH1 0x40 MLOAD DUP1 PUSH1 0x40 ADD PUSH1 0x40 MSTORE DUP1 PUSH1 0xB DUP2 MSTORE PUSH1 0x20 ADD PUSH32 0x48656C6C6F20576F726C64000000000000000000000000000000000000000000 DUP2 MSTORE POP PUSH1 0x7 SWAP1 DUP1 MLOAD SWAP1 PUSH1 0x20 ADD SWAP1 PUSH3 0x1FA SWAP3 SWAP2 SWAP1 PUSH3 0x52C JUMP JUMPDEST POP PUSH32 0x486920576F726C64000000000000000000000000000000000000000000000000 PUSH1 0x8 SSTORE CALLER PUSH1 0x9 PUSH1 0x0 PUSH2 0x100 EXP DUP2 SLOAD DUP2 PUSH20 0xFFFFFFFFFFFFFFFFFFFFFFFFFFFFFFFFFFFFFFFF MUL NOT AND SWAP1 DUP4 PUSH20 0xFFFFFFFFFFFFFFFFFFFFFFFFFFFFFFFFFFFFFFFF AND MUL OR SWAP1 SSTORE POP PUSH1 0x40 MLOAD DUP1 PUSH1 0x40 ADD PUSH1 0x40 MSTORE DUP1 PUSH1 0x1 DUP2 MSTORE PUSH1 0x20 ADD PUSH1 0x40 MLOAD DUP1 PUSH1 0x40 ADD PUSH1 0x40 MSTORE DUP1 PUSH1 0xA DUP2 MSTORE PUSH1 0x20 ADD PUSH32 0x4F6C61204D756E646F2100000000000000000000000000000000000000000000 DUP2 MSTORE POP DUP2 MSTORE POP PUSH1 0xA PUSH1 0x0 DUP3 ADD MLOAD DUP2 PUSH1 0x0 ADD SSTORE PUSH1 0x20 DUP3 ADD MLOAD DUP2 PUSH1 0x1 ADD SWAP1 DUP1 MLOAD SWAP1 PUSH1 0x20 ADD SWAP1 PUSH3 0x2D5 SWAP3 SWAP2 SWAP1 PUSH3 0x52C JUMP JUMPDEST POP POP POP CALLVALUE DUP1 ISZERO PUSH3 0x2E5 JUMPI PUSH1 0x0 DUP1 REVERT JUMPDEST POP PUSH1 0x40 MLOAD DUP1 PUSH1 0x40 ADD PUSH1 0x40 MSTORE DUP1 PUSH1 0x4 DUP2 MSTORE PUSH1 0x20 ADD PUSH32 0x4164616D00000000000000000000000000000000000000000000000000000000 DUP2 MSTORE POP PUSH1 0xC PUSH1 0x0 PUSH1 0x1 DUP2 MSTORE PUSH1 0x20 ADD SWAP1 DUP2 MSTORE PUSH1 0x20 ADD PUSH1 0x0 KECCAK256 SWAP1 DUP1 MLOAD SWAP1 PUSH1 0x20 ADD SWAP1 PUSH3 0x345 SWAP3 SWAP2 SWAP1 PUSH3 0x52C JUMP JUMPDEST POP PUSH1 0x40 MLOAD DUP1 PUSH1 0x40 ADD PUSH1 0x40 MSTORE DUP1 PUSH1 0x5 DUP2 MSTORE PUSH1 0x20 ADD PUSH32 0x4272756365000000000000000000000000000000000000000000000000000000 DUP2 MSTORE POP PUSH1 0xC PUSH1 0x0 PUSH1 0x2 DUP2 MSTORE PUSH1 0x20 ADD SWAP1 DUP2 MSTORE PUSH1 0x20 ADD PUSH1 0x0 KECCAK256 SWAP1 DUP1 MLOAD SWAP1 PUSH1 0x20 ADD SWAP1 PUSH3 0x3A5 SWAP3 SWAP2 SWAP1 PUSH3 0x52C JUMP JUMPDEST POP PUSH1 0x40 MLOAD DUP1 PUSH1 0x40 ADD PUSH1 0x40 MSTORE DUP1 PUSH1 0x4 DUP2 MSTORE PUSH1 0x20 ADD PUSH32 0x4361726C00000000000000000000000000000000000000000000000000000000 DUP2 MSTORE POP PUSH1 0xC PUSH1 0x0 PUSH1 0x3 DUP2 MSTORE PUSH1 0x20 ADD SWAP1 DUP2 MSTORE PUSH1 0x20 ADD PUSH1 0x0 KECCAK256 SWAP1 DUP1 MLOAD SWAP1 PUSH1 0x20 ADD SWAP1 PUSH3 0x405 SWAP3 SWAP2 SWAP1 PUSH3 0x52C JUMP JUMPDEST POP PUSH3 0x6FA JUMP JUMPDEST DUP3 DUP1 SLOAD DUP3 DUP3 SSTORE SWAP1 PUSH1 0x0 MSTORE PUSH1 0x20 PUSH1 0x0 KECCAK256 SWAP1 DUP2 ADD SWAP3 DUP3 ISZERO PUSH3 0x450 JUMPI SWAP2 PUSH1 0x20 MUL DUP3 ADD JUMPDEST DUP3 DUP2 GT ISZERO PUSH3 0x44F JUMPI DUP3 MLOAD DUP3 SWAP1 PUSH1 0xFF AND SWAP1 SSTORE SWAP2 PUSH1 0x20 ADD SWAP2 SWAP1 PUSH1 0x1 ADD SWAP1 PUSH3 0x42D JUMP JUMPDEST JUMPDEST POP SWAP1 POP PUSH3 0x45F SWAP2 SWAP1 PUSH3 0x5BD JUMP JUMPDEST POP SWAP1 JUMP JUMPDEST DUP3 DUP1 SLOAD DUP3 DUP3 SSTORE SWAP1 PUSH1 0x0 MSTORE PUSH1 0x20 PUSH1 0x0 KECCAK256 SWAP1 DUP2 ADD SWAP3 DUP3 ISZERO PUSH3 0x4B7 JUMPI SWAP2 PUSH1 0x20 MUL DUP3 ADD JUMPDEST DUP3 DUP2 GT ISZERO PUSH3 0x4B6 JUMPI DUP3 MLOAD DUP3 SWAP1 DUP1 MLOAD SWAP1 PUSH1 0x20 ADD SWAP1 PUSH3 0x4A5 SWAP3 SWAP2 SWAP1 PUSH3 0x52C JUMP JUMPDEST POP SWAP2 PUSH1 0x20 ADD SWAP2 SWAP1 PUSH1 0x1 ADD SWAP1 PUSH3 0x484 JUMP JUMPDEST JUMPDEST POP SWAP1 POP PUSH3 0x4C6 SWAP2 SWAP1 PUSH3 0x5DC JUMP JUMPDEST POP SWAP1 JUMP JUMPDEST DUP3 DUP1 SLOAD DUP3 DUP3 SSTORE SWAP1 PUSH1 0x0 MSTORE PUSH1 0x20 PUSH1 0x0 KECCAK256 SWAP1 DUP2 ADD SWAP3 DUP3 ISZERO PUSH3 0x519 JUMPI SWAP2 PUSH1 0x20 MUL DUP3 ADD JUMPDEST DUP3 DUP2 GT ISZERO PUSH3 0x518 JUMPI DUP3 MLOAD DUP3 SWAP1 PUSH1 0x3 PUSH3 0x507 SWAP3 SWAP2 SWAP1 PUSH3 0x40C JUMP JUMPDEST POP SWAP2 PUSH1 0x20 ADD SWAP2 SWAP1 PUSH1 0x1 ADD SWAP1 PUSH3 0x4EB JUMP JUMPDEST JUMPDEST POP SWAP1 POP PUSH3 0x528 SWAP2 SWAP1 PUSH3 0x604 JUMP JUMPDEST POP SWAP1 JUMP JUMPDEST DUP3 DUP1 SLOAD PUSH3 0x53A SWAP1 PUSH3 0x695 JUMP JUMPDEST SWAP1 PUSH1 0x0 MSTORE PUSH1 0x20 PUSH1 0x0 KECCAK256 SWAP1 PUSH1 0x1F ADD PUSH1 0x20 SWAP1 DIV DUP2 ADD SWAP3 DUP3 PUSH3 0x55E JUMPI PUSH1 0x0 DUP6 SSTORE PUSH3 0x5AA JUMP JUMPDEST DUP3 PUSH1 0x1F LT PUSH3 0x579 JUMPI DUP1 MLOAD PUSH1 0xFF NOT AND DUP4 DUP1 ADD OR DUP6 SSTORE PUSH3 0x5AA JUMP JUMPDEST DUP3 DUP1 ADD PUSH1 0x1 ADD DUP6 SSTORE DUP3 ISZERO PUSH3 0x5AA JUMPI SWAP2 DUP3 ADD JUMPDEST DUP3 DUP2 GT ISZERO PUSH3 0x5A9 JUMPI DUP3 MLOAD DUP3 SSTORE SWAP2 PUSH1 0x20 ADD SWAP2 SWAP1 PUSH1 0x1 ADD SWAP1 PUSH3 0x58C JUMP JUMPDEST JUMPDEST POP SWAP1 POP PUSH3 0x5B9 SWAP2 SWAP1 PUSH3 0x5BD JUMP JUMPDEST POP SWAP1 JUMP JUMPDEST JUMPDEST DUP1 DUP3 GT ISZERO PUSH3 0x5D8 JUMPI PUSH1 0x0 DUP2 PUSH1 0x0 SWAP1 SSTORE POP PUSH1 0x1 ADD PUSH3 0x5BE JUMP JUMPDEST POP SWAP1 JUMP JUMPDEST JUMPDEST DUP1 DUP3 GT ISZERO PUSH3 0x600 JUMPI PUSH1 0x0 DUP2 DUP2 PUSH3 0x5F6 SWAP2 SWAP1 PUSH3 0x62C JUMP JUMPDEST POP PUSH1 0x1 ADD PUSH3 0x5DD JUMP JUMPDEST POP SWAP1 JUMP JUMPDEST JUMPDEST DUP1 DUP3 GT ISZERO PUSH3 0x628 JUMPI PUSH1 0x0 DUP2 DUP2 PUSH3 0x61E SWAP2 SWAP1 PUSH3 0x672 JUMP JUMPDEST POP PUSH1 0x1 ADD PUSH3 0x605 JUMP JUMPDEST POP SWAP1 JUMP JUMPDEST POP DUP1 SLOAD PUSH3 0x63A SWAP1 PUSH3 0x695 JUMP JUMPDEST PUSH1 0x0 DUP3 SSTORE DUP1 PUSH1 0x1F LT PUSH3 0x64E JUMPI POP PUSH3 0x66F JUMP JUMPDEST PUSH1 0x1F ADD PUSH1 0x20 SWAP1 DIV SWAP1 PUSH1 0x0 MSTORE PUSH1 0x20 PUSH1 0x0 KECCAK256 SWAP1 DUP2 ADD SWAP1 PUSH3 0x66E SWAP2 SWAP1 PUSH3 0x5BD JUMP JUMPDEST JUMPDEST POP JUMP JUMPDEST POP DUP1 SLOAD PUSH1 0x0 DUP3 SSTORE SWAP1 PUSH1 0x0 MSTORE PUSH1 0x20 PUSH1 0x0 KECCAK256 SWAP1 DUP2 ADD SWAP1 PUSH3 0x692 SWAP2 SWAP1 PUSH3 0x5BD JUMP JUMPDEST POP JUMP JUMPDEST PUSH1 0x0 PUSH1 0x2 DUP3 DIV SWAP1 POP PUSH1 0x1 DUP3 AND DUP1 PUSH3 0x6AE JUMPI PUSH1 0x7F DUP3 AND SWAP2 POP JUMPDEST PUSH1 0x20 DUP3 LT DUP2 EQ ISZERO PUSH3 0x6C5 JUMPI PUSH3 0x6C4 PUSH3 0x6CB JUMP JUMPDEST JUMPDEST POP SWAP2 SWAP1 POP JUMP JUMPDEST PUSH32 0x4E487B7100000000000000000000000000000000000000000000000000000000 PUSH1 0x0 MSTORE PUSH1 0x22 PUSH1 0x4 MSTORE PUSH1 0x24 PUSH1 0x0 REVERT JUMPDEST PUSH2 0x1115 DUP1 PUSH3 0x70A PUSH1 0x0 CODECOPY PUSH1 0x0 RETURN INVALID PUSH1 0x80 PUSH1 0x40 MSTORE CALLVALUE DUP1 ISZERO PUSH2 0x10 JUMPI PUSH1 0x0 DUP1 REVERT JUMPDEST POP PUSH1 0x4 CALLDATASIZE LT PUSH2 0x116 JUMPI PUSH1 0x0 CALLDATALOAD PUSH1 0xE0 SHR DUP1 PUSH4 0x493EC707 GT PUSH2 0xA2 JUMPI DUP1 PUSH4 0x68744046 GT PUSH2 0x71 JUMPI DUP1 PUSH4 0x68744046 EQ PUSH2 0x2D2 JUMPI DUP1 PUSH4 0x8BC9FE6C EQ PUSH2 0x303 JUMPI DUP1 PUSH4 0x9AE918C7 EQ PUSH2 0x322 JUMPI DUP1 PUSH4 0xA7DBCE1C EQ PUSH2 0x352 JUMPI DUP1 PUSH4 0xD3268FC1 EQ PUSH2 0x370 JUMPI PUSH2 0x116 JUMP JUMPDEST DUP1 PUSH4 0x493EC707 EQ PUSH2 0x238 JUMPI DUP1 PUSH4 0x4B3E7E0C EQ PUSH2 0x254 JUMPI DUP1 PUSH4 0x5E383D21 EQ PUSH2 0x272 JUMPI DUP1 PUSH4 0x6422C4C8 EQ PUSH2 0x2A2 JUMPI PUSH2 0x116 JUMP JUMPDEST DUP1 PUSH4 0x26EB4DBB GT PUSH2 0xE9 JUMPI DUP1 PUSH4 0x26EB4DBB EQ PUSH2 0x191 JUMPI DUP1 PUSH4 0x27D3553F EQ PUSH2 0x1AF JUMPI DUP1 PUSH4 0x2CB777A6 EQ PUSH2 0x1E0 JUMPI DUP1 PUSH4 0x3A5FBAAA EQ PUSH2 0x1FE JUMPI DUP1 PUSH4 0x492BFA18 EQ PUSH2 0x21A JUMPI PUSH2 0x116 JUMP JUMPDEST DUP1 PUSH4 0x28414F2 EQ PUSH2 0x11B JUMPI DUP1 PUSH4 0x6540F7E EQ PUSH2 0x137 JUMPI DUP1 PUSH4 0x20965255 EQ PUSH2 0x155 JUMPI DUP1 PUSH4 0x26B85EE1 EQ PUSH2 0x173 JUMPI JUMPDEST PUSH1 0x0 DUP1 REVERT JUMPDEST PUSH2 0x135 PUSH1 0x4 DUP1 CALLDATASIZE SUB DUP2 ADD SWAP1 PUSH2 0x130 SWAP2 SWAP1 PUSH2 0xC92 JUMP JUMPDEST PUSH2 0x3A0 JUMP JUMPDEST STOP JUMPDEST PUSH2 0x13F PUSH2 0x40A JUMP JUMPDEST PUSH1 0x40 MLOAD PUSH2 0x14C SWAP2 SWAP1 PUSH2 0xE7C JUMP JUMPDEST PUSH1 0x40 MLOAD DUP1 SWAP2 SUB SWAP1 RETURN JUMPDEST PUSH2 0x15D PUSH2 0x410 JUMP JUMPDEST PUSH1 0x40 MLOAD PUSH2 0x16A SWAP2 SWAP1 PUSH2 0xE7C JUMP JUMPDEST PUSH1 0x40 MLOAD DUP1 SWAP2 SUB SWAP1 RETURN JUMPDEST PUSH2 0x17B PUSH2 0x41E JUMP JUMPDEST PUSH1 0x40 MLOAD PUSH2 0x188 SWAP2 SWAP1 PUSH2 0xDD2 JUMP JUMPDEST PUSH1 0x40 MLOAD DUP1 SWAP2 SUB SWAP1 RETURN JUMPDEST PUSH2 0x199 PUSH2 0x444 JUMP JUMPDEST PUSH1 0x40 MLOAD PUSH2 0x1A6 SWAP2 SWAP1 PUSH2 0xE7C JUMP JUMPDEST PUSH1 0x40 MLOAD DUP1 SWAP2 SUB SWAP1 RETURN JUMPDEST PUSH2 0x1C9 PUSH1 0x4 DUP1 CALLDATASIZE SUB DUP2 ADD SWAP1 PUSH2 0x1C4 SWAP2 SWAP1 PUSH2 0xBDC JUMP JUMPDEST PUSH2 0x451 JUMP JUMPDEST PUSH1 0x40 MLOAD PUSH2 0x1D7 SWAP3 SWAP2 SWAP1 PUSH2 0xE45 JUMP JUMPDEST PUSH1 0x40 MLOAD DUP1 SWAP2 SUB SWAP1 RETURN JUMPDEST PUSH2 0x1E8 PUSH2 0x592 JUMP JUMPDEST PUSH1 0x40 MLOAD PUSH2 0x1F5 SWAP2 SWAP1 PUSH2 0xE08 JUMP JUMPDEST PUSH1 0x40 MLOAD DUP1 SWAP2 SUB SWAP1 RETURN JUMPDEST PUSH2 0x218 PUSH1 0x4 DUP1 CALLDATASIZE SUB DUP2 ADD SWAP1 PUSH2 0x213 SWAP2 SWAP1 PUSH2 0xC1C JUMP JUMPDEST PUSH2 0x598 JUMP JUMPDEST STOP JUMPDEST PUSH2 0x222 PUSH2 0x5D7 JUMP JUMPDEST PUSH1 0x40 MLOAD PUSH2 0x22F SWAP2 SWAP1 PUSH2 0xE23 JUMP JUMPDEST PUSH1 0x40 MLOAD DUP1 SWAP2 SUB SWAP1 RETURN JUMPDEST PUSH2 0x252 PUSH1 0x4 DUP1 CALLDATASIZE SUB DUP2 ADD SWAP1 PUSH2 0x24D SWAP2 SWAP1 PUSH2 0xC92 JUMP JUMPDEST PUSH2 0x665 JUMP JUMPDEST STOP JUMPDEST PUSH2 0x25C PUSH2 0x70C JUMP JUMPDEST PUSH1 0x40 MLOAD PUSH2 0x269 SWAP2 SWAP1 PUSH2 0xDED JUMP JUMPDEST PUSH1 0x40 MLOAD DUP1 SWAP2 SUB SWAP1 RETURN JUMPDEST PUSH2 0x28C PUSH1 0x4 DUP1 CALLDATASIZE SUB DUP2 ADD SWAP1 PUSH2 0x287 SWAP2 SWAP1 PUSH2 0xC65 JUMP JUMPDEST PUSH2 0x712 JUMP JUMPDEST PUSH1 0x40 MLOAD PUSH2 0x299 SWAP2 SWAP1 PUSH2 0xE23 JUMP JUMPDEST PUSH1 0x40 MLOAD DUP1 SWAP2 SUB SWAP1 RETURN JUMPDEST PUSH2 0x2BC PUSH1 0x4 DUP1 CALLDATASIZE SUB DUP2 ADD SWAP1 PUSH2 0x2B7 SWAP2 SWAP1 PUSH2 0xC65 JUMP JUMPDEST PUSH2 0x7BE JUMP JUMPDEST PUSH1 0x40 MLOAD PUSH2 0x2C9 SWAP2 SWAP1 PUSH2 0xE23 JUMP JUMPDEST PUSH1 0x40 MLOAD DUP1 SWAP2 SUB SWAP1 RETURN JUMPDEST PUSH2 0x2EC PUSH1 0x4 DUP1 CALLDATASIZE SUB DUP2 ADD SWAP1 PUSH2 0x2E7 SWAP2 SWAP1 PUSH2 0xC65 JUMP JUMPDEST PUSH2 0x86A JUMP JUMPDEST PUSH1 0x40 MLOAD PUSH2 0x2FA SWAP3 SWAP2 SWAP1 PUSH2 0xE45 JUMP JUMPDEST PUSH1 0x40 MLOAD DUP1 SWAP2 SUB SWAP1 RETURN JUMPDEST PUSH2 0x30B PUSH2 0x99E JUMP JUMPDEST PUSH1 0x40 MLOAD PUSH2 0x319 SWAP3 SWAP2 SWAP1 PUSH2 0xE97 JUMP JUMPDEST PUSH1 0x40 MLOAD DUP1 SWAP2 SUB SWAP1 RETURN JUMPDEST PUSH2 0x33C PUSH1 0x4 DUP1 CALLDATASIZE SUB DUP2 ADD SWAP1 PUSH2 0x337 SWAP2 SWAP1 PUSH2 0xC65 JUMP JUMPDEST PUSH2 0xA38 JUMP JUMPDEST PUSH1 0x40 MLOAD PUSH2 0x349 SWAP2 SWAP1 PUSH2 0xE7C JUMP JUMPDEST PUSH1 0x40 MLOAD DUP1 SWAP2 SUB SWAP1 RETURN JUMPDEST PUSH2 0x35A PUSH2 0xA5C JUMP JUMPDEST PUSH1 0x40 MLOAD PUSH2 0x367 SWAP2 SWAP1 PUSH2 0xE7C JUMP JUMPDEST PUSH1 0x40 MLOAD DUP1 SWAP2 SUB SWAP1 RETURN JUMPDEST PUSH2 0x38A PUSH1 0x4 DUP1 CALLDATASIZE SUB DUP2 ADD SWAP1 PUSH2 0x385 SWAP2 SWAP1 PUSH2 0xD1D JUMP JUMPDEST PUSH2 0xA62 JUMP JUMPDEST PUSH1 0x40 MLOAD PUSH2 0x397 SWAP2 SWAP1 PUSH2 0xE7C JUMP JUMPDEST PUSH1 0x40 MLOAD DUP1 SWAP2 SUB SWAP1 RETURN JUMPDEST PUSH1 0x40 MLOAD DUP1 PUSH1 0x40 ADD PUSH1 0x40 MSTORE DUP1 DUP4 DUP2 MSTORE PUSH1 0x20 ADD DUP3 DUP2 MSTORE POP PUSH1 0xD PUSH1 0x0 DUP6 DUP2 MSTORE PUSH1 0x20 ADD SWAP1 DUP2 MSTORE PUSH1 0x20 ADD PUSH1 0x0 KECCAK256 PUSH1 0x0 DUP3 ADD MLOAD DUP2 PUSH1 0x0 ADD SWAP1 DUP1 MLOAD SWAP1 PUSH1 0x20 ADD SWAP1 PUSH2 0x3E4 SWAP3 SWAP2 SWAP1 PUSH2 0xA9F JUMP JUMPDEST POP PUSH1 0x20 DUP3 ADD MLOAD DUP2 PUSH1 0x1 ADD SWAP1 DUP1 MLOAD SWAP1 PUSH1 0x20 ADD SWAP1 PUSH2 0x401 SWAP3 SWAP2 SWAP1 PUSH2 0xA9F JUMP JUMPDEST POP SWAP1 POP POP POP POP POP JUMP JUMPDEST PUSH1 0x4 SLOAD DUP2 JUMP JUMPDEST PUSH1 0x0 DUP1 PUSH1 0x1 SWAP1 POP DUP1 SWAP2 POP POP SWAP1 JUMP JUMPDEST PUSH1 0x9 PUSH1 0x0 SWAP1 SLOAD SWAP1 PUSH2 0x100 EXP SWAP1 DIV PUSH20 0xFFFFFFFFFFFFFFFFFFFFFFFFFFFFFFFFFFFFFFFF AND DUP2 JUMP JUMPDEST PUSH1 0x0 PUSH1 0x2 DUP1 SLOAD SWAP1 POP SWAP1 POP SWAP1 JUMP JUMPDEST PUSH1 0xE PUSH1 0x20 MSTORE DUP2 PUSH1 0x0 MSTORE PUSH1 0x40 PUSH1 0x0 KECCAK256 PUSH1 0x20 MSTORE DUP1 PUSH1 0x0 MSTORE PUSH1 0x40 PUSH1 0x0 KECCAK256 PUSH1 0x0 SWAP2 POP SWAP2 POP POP DUP1 PUSH1 0x0 ADD DUP1 SLOAD PUSH2 0x481 SWAP1 PUSH2 0xFCB JUMP JUMPDEST DUP1 PUSH1 0x1F ADD PUSH1 0x20 DUP1 SWAP2 DIV MUL PUSH1 0x20 ADD PUSH1 0x40 MLOAD SWAP1 DUP2 ADD PUSH1 0x40 MSTORE DUP1 SWAP3 SWAP2 SWAP1 DUP2 DUP2 MSTORE PUSH1 0x20 ADD DUP3 DUP1 SLOAD PUSH2 0x4AD SWAP1 PUSH2 0xFCB JUMP JUMPDEST DUP1 ISZERO PUSH2 0x4FA JUMPI DUP1 PUSH1 0x1F LT PUSH2 0x4CF JUMPI PUSH2 0x100 DUP1 DUP4 SLOAD DIV MUL DUP4 MSTORE SWAP2 PUSH1 0x20 ADD SWAP2 PUSH2 0x4FA JUMP JUMPDEST DUP3 ADD SWAP2 SWAP1 PUSH1 0x0 MSTORE PUSH1 0x20 PUSH1 0x0 KECCAK256 SWAP1 JUMPDEST DUP2 SLOAD DUP2 MSTORE SWAP1 PUSH1 0x1 ADD SWAP1 PUSH1 0x20 ADD DUP1 DUP4 GT PUSH2 0x4DD JUMPI DUP3 SWAP1 SUB PUSH1 0x1F AND DUP3 ADD SWAP2 JUMPDEST POP POP POP POP POP SWAP1 DUP1 PUSH1 0x1 ADD DUP1 SLOAD PUSH2 0x50F SWAP1 PUSH2 0xFCB JUMP JUMPDEST DUP1 PUSH1 0x1F ADD PUSH1 0x20 DUP1 SWAP2 DIV MUL PUSH1 0x20 ADD PUSH1 0x40 MLOAD SWAP1 DUP2 ADD PUSH1 0x40 MSTORE DUP1 SWAP3 SWAP2 SWAP1 DUP2 DUP2 MSTORE PUSH1 0x20 ADD DUP3 DUP1 SLOAD PUSH2 0x53B SWAP1 PUSH2 0xFCB JUMP JUMPDEST DUP1 ISZERO PUSH2 0x588 JUMPI DUP1 PUSH1 0x1F LT PUSH2 0x55D JUMPI PUSH2 0x100 DUP1 DUP4 SLOAD DIV MUL DUP4 MSTORE SWAP2 PUSH1 0x20 ADD SWAP2 PUSH2 0x588 JUMP JUMPDEST DUP3 ADD SWAP2 SWAP1 PUSH1 0x0 MSTORE PUSH1 0x20 PUSH1 0x0 KECCAK256 SWAP1 JUMPDEST DUP2 SLOAD DUP2 MSTORE SWAP1 PUSH1 0x1 ADD SWAP1 PUSH1 0x20 ADD DUP1 DUP4 GT PUSH2 0x56B JUMPI DUP3 SWAP1 SUB PUSH1 0x1F AND DUP3 ADD SWAP2 JUMPDEST POP POP POP POP POP SWAP1 POP DUP3 JUMP JUMPDEST PUSH1 0x6 SLOAD DUP2 JUMP JUMPDEST PUSH1 0x2 DUP2 SWAP1 DUP1 PUSH1 0x1 DUP2 SLOAD ADD DUP1 DUP3 SSTORE DUP1 SWAP2 POP POP PUSH1 0x1 SWAP1 SUB SWAP1 PUSH1 0x0 MSTORE PUSH1 0x20 PUSH1 0x0 KECCAK256 ADD PUSH1 0x0 SWAP1 SWAP2 SWAP1 SWAP2 SWAP1 SWAP2 POP SWAP1 DUP1 MLOAD SWAP1 PUSH1 0x20 ADD SWAP1 PUSH2 0x5D3 SWAP3 SWAP2 SWAP1 PUSH2 0xA9F JUMP JUMPDEST POP POP JUMP JUMPDEST PUSH1 0x7 DUP1 SLOAD PUSH2 0x5E4 SWAP1 PUSH2 0xFCB JUMP JUMPDEST DUP1 PUSH1 0x1F ADD PUSH1 0x20 DUP1 SWAP2 DIV MUL PUSH1 0x20 ADD PUSH1 0x40 MLOAD SWAP1 DUP2 ADD PUSH1 0x40 MSTORE DUP1 SWAP3 SWAP2 SWAP1 DUP2 DUP2 MSTORE PUSH1 0x20 ADD DUP3 DUP1 SLOAD PUSH2 0x610 SWAP1 PUSH2 0xFCB JUMP JUMPDEST DUP1 ISZERO PUSH2 0x65D JUMPI DUP1 PUSH1 0x1F LT PUSH2 0x632 JUMPI PUSH2 0x100 DUP1 DUP4 SLOAD DIV MUL DUP4 MSTORE SWAP2 PUSH1 0x20 ADD SWAP2 PUSH2 0x65D JUMP JUMPDEST DUP3 ADD SWAP2 SWAP1 PUSH1 0x0 MSTORE PUSH1 0x20 PUSH1 0x0 KECCAK256 SWAP1 JUMPDEST DUP2 SLOAD DUP2 MSTORE SWAP1 PUSH1 0x1 ADD SWAP1 PUSH1 0x20 ADD DUP1 DUP4 GT PUSH2 0x640 JUMPI DUP3 SWAP1 SUB PUSH1 0x1F AND DUP3 ADD SWAP2 JUMPDEST POP POP POP POP POP DUP2 JUMP JUMPDEST PUSH1 0x40 MLOAD DUP1 PUSH1 0x40 ADD PUSH1 0x40 MSTORE DUP1 DUP4 DUP2 MSTORE PUSH1 0x20 ADD DUP3 DUP2 MSTORE POP PUSH1 0xE PUSH1 0x0 CALLER PUSH20 0xFFFFFFFFFFFFFFFFFFFFFFFFFFFFFFFFFFFFFFFF AND PUSH20 0xFFFFFFFFFFFFFFFFFFFFFFFFFFFFFFFFFFFFFFFF AND DUP2 MSTORE PUSH1 0x20 ADD SWAP1 DUP2 MSTORE PUSH1 0x20 ADD PUSH1 0x0 KECCAK256 PUSH1 0x0 DUP6 DUP2 MSTORE PUSH1 0x20 ADD SWAP1 DUP2 MSTORE PUSH1 0x20 ADD PUSH1 0x0 KECCAK256 PUSH1 0x0 DUP3 ADD MLOAD DUP2 PUSH1 0x0 ADD SWAP1 DUP1 MLOAD SWAP1 PUSH1 0x20 ADD SWAP1 PUSH2 0x6E6 SWAP3 SWAP2 SWAP1 PUSH2 0xA9F JUMP JUMPDEST POP PUSH1 0x20 DUP3 ADD MLOAD DUP2 PUSH1 0x1 ADD SWAP1 DUP1 MLOAD SWAP1 PUSH1 0x20 ADD SWAP1 PUSH2 0x703 SWAP3 SWAP2 SWAP1 PUSH2 0xA9F JUMP JUMPDEST POP SWAP1 POP POP POP POP POP JUMP JUMPDEST PUSH1 0x8 SLOAD DUP2 JUMP JUMPDEST PUSH1 0x2 DUP2 DUP2 SLOAD DUP2 LT PUSH2 0x722 JUMPI PUSH1 0x0 DUP1 REVERT JUMPDEST SWAP1 PUSH1 0x0 MSTORE PUSH1 0x20 PUSH1 0x0 KECCAK256 ADD PUSH1 0x0 SWAP2 POP SWAP1 POP DUP1 SLOAD PUSH2 0x73D SWAP1 PUSH2 0xFCB JUMP JUMPDEST DUP1 PUSH1 0x1F ADD PUSH1 0x20 DUP1 SWAP2 DIV MUL PUSH1 0x20 ADD PUSH1 0x40 MLOAD SWAP1 DUP2 ADD PUSH1 0x40 MSTORE DUP1 SWAP3 SWAP2 SWAP1 DUP2 DUP2 MSTORE PUSH1 0x20 ADD DUP3 DUP1 SLOAD PUSH2 0x769 SWAP1 PUSH2 0xFCB JUMP JUMPDEST DUP1 ISZERO PUSH2 0x7B6 JUMPI DUP1 PUSH1 0x1F LT PUSH2 0x78B JUMPI PUSH2 0x100 DUP1 DUP4 SLOAD DIV MUL DUP4 MSTORE SWAP2 PUSH1 0x20 ADD SWAP2 PUSH2 0x7B6 JUMP JUMPDEST DUP3 ADD SWAP2 SWAP1 PUSH1 0x0 MSTORE PUSH1 0x20 PUSH1 0x0 KECCAK256 SWAP1 JUMPDEST DUP2 SLOAD DUP2 MSTORE SWAP1 PUSH1 0x1 ADD SWAP1 PUSH1 0x20 ADD DUP1 DUP4 GT PUSH2 0x799 JUMPI DUP3 SWAP1 SUB PUSH1 0x1F AND DUP3 ADD SWAP2 JUMPDEST POP POP POP POP POP DUP2 JUMP JUMPDEST PUSH1 0x1 DUP2 DUP2 SLOAD DUP2 LT PUSH2 0x7CE JUMPI PUSH1 0x0 DUP1 REVERT JUMPDEST SWAP1 PUSH1 0x0 MSTORE PUSH1 0x20 PUSH1 0x0 KECCAK256 ADD PUSH1 0x0 SWAP2 POP SWAP1 POP DUP1 SLOAD PUSH2 0x7E9 SWAP1 PUSH2 0xFCB JUMP JUMPDEST DUP1 PUSH1 0x1F ADD PUSH1 0x20 DUP1 SWAP2 DIV MUL PUSH1 0x20 ADD PUSH1 0x40 MLOAD SWAP1 DUP2 ADD PUSH1 0x40 MSTORE DUP1 SWAP3 SWAP2 SWAP1 DUP2 DUP2 MSTORE PUSH1 0x20 ADD DUP3 DUP1 SLOAD PUSH2 0x815 SWAP1 PUSH2 0xFCB JUMP JUMPDEST DUP1 ISZERO PUSH2 0x862 JUMPI DUP1 PUSH1 0x1F LT PUSH2 0x837 JUMPI PUSH2 0x100 DUP1 DUP4 SLOAD DIV MUL DUP4 MSTORE SWAP2 PUSH1 0x20 ADD SWAP2 PUSH2 0x862 JUMP JUMPDEST DUP3 ADD SWAP2 SWAP1 PUSH1 0x0 MSTORE PUSH1 0x20 PUSH1 0x0 KECCAK256 SWAP1 JUMPDEST DUP2 SLOAD DUP2 MSTORE SWAP1 PUSH1 0x1 ADD SWAP1 PUSH1 0x20 ADD DUP1 DUP4 GT PUSH2 0x845 JUMPI DUP3 SWAP1 SUB PUSH1 0x1F AND DUP3 ADD SWAP2 JUMPDEST POP POP POP POP POP DUP2 JUMP JUMPDEST PUSH1 0xD PUSH1 0x20 MSTORE DUP1 PUSH1 0x0 MSTORE PUSH1 0x40 PUSH1 0x0 KECCAK256 PUSH1 0x0 SWAP2 POP SWAP1 POP DUP1 PUSH1 0x0 ADD DUP1 SLOAD PUSH2 0x88D SWAP1 PUSH2 0xFCB JUMP JUMPDEST DUP1 PUSH1 0x1F ADD PUSH1 0x20 DUP1 SWAP2 DIV MUL PUSH1 0x20 ADD PUSH1 0x40 MLOAD SWAP1 DUP2 ADD PUSH1 0x40 MSTORE DUP1 SWAP3 SWAP2 SWAP1 DUP2 DUP2 MSTORE PUSH1 0x20 ADD DUP3 DUP1 SLOAD PUSH2 0x8B9 SWAP1 PUSH2 0xFCB JUMP JUMPDEST DUP1 ISZERO PUSH2 0x906 JUMPI DUP1 PUSH1 0x1F LT PUSH2 0x8DB JUMPI PUSH2 0x100 DUP1 DUP4 SLOAD DIV MUL DUP4 MSTORE SWAP2 PUSH1 0x20 ADD SWAP2 PUSH2 0x906 JUMP JUMPDEST DUP3 ADD SWAP2 SWAP1 PUSH1 0x0 MSTORE PUSH1 0x20 PUSH1 0x0 KECCAK256 SWAP1 JUMPDEST DUP2 SLOAD DUP2 MSTORE SWAP1 PUSH1 0x1 ADD SWAP1 PUSH1 0x20 ADD DUP1 DUP4 GT PUSH2 0x8E9 JUMPI DUP3 SWAP1 SUB PUSH1 0x1F AND DUP3 ADD SWAP2 JUMPDEST POP POP POP POP POP SWAP1 DUP1 PUSH1 0x1 ADD DUP1 SLOAD PUSH2 0x91B SWAP1 PUSH2 0xFCB JUMP JUMPDEST DUP1 PUSH1 0x1F ADD PUSH1 0x20 DUP1 SWAP2 DIV MUL PUSH1 0x20 ADD PUSH1 0x40 MLOAD SWAP1 DUP2 ADD PUSH1 0x40 MSTORE DUP1 SWAP3 SWAP2 SWAP1 DUP2 DUP2 MSTORE PUSH1 0x20 ADD DUP3 DUP1 SLOAD PUSH2 0x947 SWAP1 PUSH2 0xFCB JUMP JUMPDEST DUP1 ISZERO PUSH2 0x994 JUMPI DUP1 PUSH1 0x1F LT PUSH2 0x969 JUMPI PUSH2 0x100 DUP1 DUP4 SLOAD DIV MUL DUP4 MSTORE SWAP2 PUSH1 0x20 ADD SWAP2 PUSH2 0x994 JUMP JUMPDEST DUP3 ADD SWAP2 SWAP1 PUSH1 0x0 MSTORE PUSH1 0x20 PUSH1 0x0 KECCAK256 SWAP1 JUMPDEST DUP2 SLOAD DUP2 MSTORE SWAP1 PUSH1 0x1 ADD SWAP1 PUSH1 0x20 ADD DUP1 DUP4 GT PUSH2 0x977 JUMPI DUP3 SWAP1 SUB PUSH1 0x1F AND DUP3 ADD SWAP2 JUMPDEST POP POP POP POP POP SWAP1 POP DUP3 JUMP JUMPDEST PUSH1 0xA DUP1 PUSH1 0x0 ADD SLOAD SWAP1 DUP1 PUSH1 0x1 ADD DUP1 SLOAD PUSH2 0x9B5 SWAP1 PUSH2 0xFCB JUMP JUMPDEST DUP1 PUSH1 0x1F ADD PUSH1 0x20 DUP1 SWAP2 DIV MUL PUSH1 0x20 ADD PUSH1 0x40 MLOAD SWAP1 DUP2 ADD PUSH1 0x40 MSTORE DUP1 SWAP3 SWAP2 SWAP1 DUP2 DUP2 MSTORE PUSH1 0x20 ADD DUP3 DUP1 SLOAD PUSH2 0x9E1 SWAP1 PUSH2 0xFCB JUMP JUMPDEST DUP1 ISZERO PUSH2 0xA2E JUMPI DUP1 PUSH1 0x1F LT PUSH2 0xA03 JUMPI PUSH2 0x100 DUP1 DUP4 SLOAD DIV MUL DUP4 MSTORE SWAP2 PUSH1 0x20 ADD SWAP2 PUSH2 0xA2E JUMP JUMPDEST DUP3 ADD SWAP2 SWAP1 PUSH1 0x0 MSTORE PUSH1 0x20 PUSH1 0x0 KECCAK256 SWAP1 JUMPDEST DUP2 SLOAD DUP2 MSTORE SWAP1 PUSH1 0x1 ADD SWAP1 PUSH1 0x20 ADD DUP1 DUP4 GT PUSH2 0xA11 JUMPI DUP3 SWAP1 SUB PUSH1 0x1F AND DUP3 ADD SWAP2 JUMPDEST POP POP POP POP POP SWAP1 POP DUP3 JUMP JUMPDEST PUSH1 0x0 DUP2 DUP2 SLOAD DUP2 LT PUSH2 0xA48 JUMPI PUSH1 0x0 DUP1 REVERT JUMPDEST SWAP1 PUSH1 0x0 MSTORE PUSH1 0x20 PUSH1 0x0 KECCAK256 ADD PUSH1 0x0 SWAP2 POP SWAP1 POP SLOAD DUP2 JUMP JUMPDEST PUSH1 0x5 SLOAD DUP2 JUMP JUMPDEST PUSH1 0x3 DUP3 DUP2 SLOAD DUP2 LT PUSH2 0xA72 JUMPI PUSH1 0x0 DUP1 REVERT JUMPDEST SWAP1 PUSH1 0x0 MSTORE PUSH1 0x20 PUSH1 0x0 KECCAK256 ADD DUP2 DUP2 SLOAD DUP2 LT PUSH2 0xA8A JUMPI PUSH1 0x0 DUP1 REVERT JUMPDEST SWAP1 PUSH1 0x0 MSTORE PUSH1 0x20 PUSH1 0x0 KECCAK256 ADD PUSH1 0x0 SWAP2 POP SWAP2 POP POP SLOAD DUP2 JUMP JUMPDEST DUP3 DUP1 SLOAD PUSH2 0xAAB SWAP1 PUSH2 0xFCB JUMP JUMPDEST SWAP1 PUSH1 0x0 MSTORE PUSH1 0x20 PUSH1 0x0 KECCAK256 SWAP1 PUSH1 0x1F ADD PUSH1 0x20 SWAP1 DIV DUP2 ADD SWAP3 DUP3 PUSH2 0xACD JUMPI PUSH1 0x0 DUP6 SSTORE PUSH2 0xB14 JUMP JUMPDEST DUP3 PUSH1 0x1F LT PUSH2 0xAE6 JUMPI DUP1 MLOAD PUSH1 0xFF NOT AND DUP4 DUP1 ADD OR DUP6 SSTORE PUSH2 0xB14 JUMP JUMPDEST DUP3 DUP1 ADD PUSH1 0x1 ADD DUP6 SSTORE DUP3 ISZERO PUSH2 0xB14 JUMPI SWAP2 DUP3 ADD JUMPDEST DUP3 DUP2 GT ISZERO PUSH2 0xB13 JUMPI DUP3 MLOAD DUP3 SSTORE SWAP2 PUSH1 0x20 ADD SWAP2 SWAP1 PUSH1 0x1 ADD SWAP1 PUSH2 0xAF8 JUMP JUMPDEST JUMPDEST POP SWAP1 POP PUSH2 0xB21 SWAP2 SWAP1 PUSH2 0xB25 JUMP JUMPDEST POP SWAP1 JUMP JUMPDEST JUMPDEST DUP1 DUP3 GT ISZERO PUSH2 0xB3E JUMPI PUSH1 0x0 DUP2 PUSH1 0x0 SWAP1 SSTORE POP PUSH1 0x1 ADD PUSH2 0xB26 JUMP JUMPDEST POP SWAP1 JUMP JUMPDEST PUSH1 0x0 PUSH2 0xB55 PUSH2 0xB50 DUP5 PUSH2 0xEEC JUMP JUMPDEST PUSH2 0xEC7 JUMP JUMPDEST SWAP1 POP DUP3 DUP2 MSTORE PUSH1 0x20 DUP2 ADD DUP5 DUP5 DUP5 ADD GT ISZERO PUSH2 0xB71 JUMPI PUSH2 0xB70 PUSH2 0x1091 JUMP JUMPDEST JUMPDEST PUSH2 0xB7C DUP5 DUP3 DUP6 PUSH2 0xF89 JUMP JUMPDEST POP SWAP4 SWAP3 POP POP POP JUMP JUMPDEST PUSH1 0x0 DUP2 CALLDATALOAD SWAP1 POP PUSH2 0xB93 DUP2 PUSH2 0x10B1 JUMP JUMPDEST SWAP3 SWAP2 POP POP JUMP JUMPDEST PUSH1 0x0 DUP3 PUSH1 0x1F DUP4 ADD SLT PUSH2 0xBAE JUMPI PUSH2 0xBAD PUSH2 0x108C JUMP JUMPDEST JUMPDEST DUP2 CALLDATALOAD PUSH2 0xBBE DUP5 DUP3 PUSH1 0x20 DUP7 ADD PUSH2 0xB42 JUMP JUMPDEST SWAP2 POP POP SWAP3 SWAP2 POP POP JUMP JUMPDEST PUSH1 0x0 DUP2 CALLDATALOAD SWAP1 POP PUSH2 0xBD6 DUP2 PUSH2 0x10C8 JUMP JUMPDEST SWAP3 SWAP2 POP POP JUMP JUMPDEST PUSH1 0x0 DUP1 PUSH1 0x40 DUP4 DUP6 SUB SLT ISZERO PUSH2 0xBF3 JUMPI PUSH2 0xBF2 PUSH2 0x109B JUMP JUMPDEST JUMPDEST PUSH1 0x0 PUSH2 0xC01 DUP6 DUP3 DUP7 ADD PUSH2 0xB84 JUMP JUMPDEST SWAP3 POP POP PUSH1 0x20 PUSH2 0xC12 DUP6 DUP3 DUP7 ADD PUSH2 0xBC7 JUMP JUMPDEST SWAP2 POP POP SWAP3 POP SWAP3 SWAP1 POP JUMP JUMPDEST PUSH1 0x0 PUSH1 0x20 DUP3 DUP5 SUB SLT ISZERO PUSH2 0xC32 JUMPI PUSH2 0xC31 PUSH2 0x109B JUMP JUMPDEST JUMPDEST PUSH1 0x0 DUP3 ADD CALLDATALOAD PUSH8 0xFFFFFFFFFFFFFFFF DUP2 GT ISZERO PUSH2 0xC50 JUMPI PUSH2 0xC4F PUSH2 0x1096 JUMP JUMPDEST JUMPDEST PUSH2 0xC5C DUP5 DUP3 DUP6 ADD PUSH2 0xB99 JUMP JUMPDEST SWAP2 POP POP SWAP3 SWAP2 POP POP JUMP JUMPDEST PUSH1 0x0 PUSH1 0x20 DUP3 DUP5 SUB SLT ISZERO PUSH2 0xC7B JUMPI PUSH2 0xC7A PUSH2 0x109B JUMP JUMPDEST JUMPDEST PUSH1 0x0 PUSH2 0xC89 DUP5 DUP3 DUP6 ADD PUSH2 0xBC7 JUMP JUMPDEST SWAP2 POP POP SWAP3 SWAP2 POP POP JUMP JUMPDEST PUSH1 0x0 DUP1 PUSH1 0x0 PUSH1 0x60 DUP5 DUP7 SUB SLT ISZERO PUSH2 0xCAB JUMPI PUSH2 0xCAA PUSH2 0x109B JUMP JUMPDEST JUMPDEST PUSH1 0x0 PUSH2 0xCB9 DUP7 DUP3 DUP8 ADD PUSH2 0xBC7 JUMP JUMPDEST SWAP4 POP POP PUSH1 0x20 DUP5 ADD CALLDATALOAD PUSH8 0xFFFFFFFFFFFFFFFF DUP2 GT ISZERO PUSH2 0xCDA JUMPI PUSH2 0xCD9 PUSH2 0x1096 JUMP JUMPDEST JUMPDEST PUSH2 0xCE6 DUP7 DUP3 DUP8 ADD PUSH2 0xB99 JUMP JUMPDEST SWAP3 POP POP PUSH1 0x40 DUP5 ADD CALLDATALOAD PUSH8 0xFFFFFFFFFFFFFFFF DUP2 GT ISZERO PUSH2 0xD07 JUMPI PUSH2 0xD06 PUSH2 0x1096 JUMP JUMPDEST JUMPDEST PUSH2 0xD13 DUP7 DUP3 DUP8 ADD PUSH2 0xB99 JUMP JUMPDEST SWAP2 POP POP SWAP3 POP SWAP3 POP SWAP3 JUMP JUMPDEST PUSH1 0x0 DUP1 PUSH1 0x40 DUP4 DUP6 SUB SLT ISZERO PUSH2 0xD34 JUMPI PUSH2 0xD33 PUSH2 0x109B JUMP JUMPDEST JUMPDEST PUSH1 0x0 PUSH2 0xD42 DUP6 DUP3 DUP7 ADD PUSH2 0xBC7 JUMP JUMPDEST SWAP3 POP POP PUSH1 0x20 PUSH2 0xD53 DUP6 DUP3 DUP7 ADD PUSH2 0xBC7 JUMP JUMPDEST SWAP2 POP POP SWAP3 POP SWAP3 SWAP1 POP JUMP JUMPDEST PUSH2 0xD66 DUP2 PUSH2 0xF39 JUMP JUMPDEST DUP3 MSTORE POP POP JUMP JUMPDEST PUSH2 0xD75 DUP2 PUSH2 0xF4B JUMP JUMPDEST DUP3 MSTORE POP POP JUMP JUMPDEST PUSH2 0xD84 DUP2 PUSH2 0xF55 JUMP JUMPDEST DUP3 MSTORE POP POP JUMP JUMPDEST PUSH1 0x0 PUSH2 0xD95 DUP3 PUSH2 0xF1D JUMP JUMPDEST PUSH2 0xD9F DUP2 DUP6 PUSH2 0xF28 JUMP JUMPDEST SWAP4 POP PUSH2 0xDAF DUP2 DUP6 PUSH1 0x20 DUP7 ADD PUSH2 0xF98 JUMP JUMPDEST PUSH2 0xDB8 DUP2 PUSH2 0x10A0 JUMP JUMPDEST DUP5 ADD SWAP2 POP POP SWAP3 SWAP2 POP POP JUMP JUMPDEST PUSH2 0xDCC DUP2 PUSH2 0xF7F JUMP JUMPDEST DUP3 MSTORE POP POP JUMP JUMPDEST PUSH1 0x0 PUSH1 0x20 DUP3 ADD SWAP1 POP PUSH2 0xDE7 PUSH1 0x0 DUP4 ADD DUP5 PUSH2 0xD5D JUMP JUMPDEST SWAP3 SWAP2 POP POP JUMP JUMPDEST PUSH1 0x0 PUSH1 0x20 DUP3 ADD SWAP1 POP PUSH2 0xE02 PUSH1 0x0 DUP4 ADD DUP5 PUSH2 0xD6C JUMP JUMPDEST SWAP3 SWAP2 POP POP JUMP JUMPDEST PUSH1 0x0 PUSH1 0x20 DUP3 ADD SWAP1 POP PUSH2 0xE1D PUSH1 0x0 DUP4 ADD DUP5 PUSH2 0xD7B JUMP JUMPDEST SWAP3 SWAP2 POP POP JUMP JUMPDEST PUSH1 0x0 PUSH1 0x20 DUP3 ADD SWAP1 POP DUP2 DUP2 SUB PUSH1 0x0 DUP4 ADD MSTORE PUSH2 0xE3D DUP2 DUP5 PUSH2 0xD8A JUMP JUMPDEST SWAP1 POP SWAP3 SWAP2 POP POP JUMP JUMPDEST PUSH1 0x0 PUSH1 0x40 DUP3 ADD SWAP1 POP DUP2 DUP2 SUB PUSH1 0x0 DUP4 ADD MSTORE PUSH2 0xE5F DUP2 DUP6 PUSH2 0xD8A JUMP JUMPDEST SWAP1 POP DUP2 DUP2 SUB PUSH1 0x20 DUP4 ADD MSTORE PUSH2 0xE73 DUP2 DUP5 PUSH2 0xD8A JUMP JUMPDEST SWAP1 POP SWAP4 SWAP3 POP POP POP JUMP JUMPDEST PUSH1 0x0 PUSH1 0x20 DUP3 ADD SWAP1 POP PUSH2 0xE91 PUSH1 0x0 DUP4 ADD DUP5 PUSH2 0xDC3 JUMP JUMPDEST SWAP3 SWAP2 POP POP JUMP JUMPDEST PUSH1 0x0 PUSH1 0x40 DUP3 ADD SWAP1 POP PUSH2 0xEAC PUSH1 0x0 DUP4 ADD DUP6 PUSH2 0xDC3 JUMP JUMPDEST DUP2 DUP2 SUB PUSH1 0x20 DUP4 ADD MSTORE PUSH2 0xEBE DUP2 DUP5 PUSH2 0xD8A JUMP JUMPDEST SWAP1 POP SWAP4 SWAP3 POP POP POP JUMP JUMPDEST PUSH1 0x0 PUSH2 0xED1 PUSH2 0xEE2 JUMP JUMPDEST SWAP1 POP PUSH2 0xEDD DUP3 DUP3 PUSH2 0xFFD JUMP JUMPDEST SWAP2 SWAP1 POP JUMP JUMPDEST PUSH1 0x0 PUSH1 0x40 MLOAD SWAP1 POP SWAP1 JUMP JUMPDEST PUSH1 0x0 PUSH8 0xFFFFFFFFFFFFFFFF DUP3 GT ISZERO PUSH2 0xF07 JUMPI PUSH2 0xF06 PUSH2 0x105D JUMP JUMPDEST JUMPDEST PUSH2 0xF10 DUP3 PUSH2 0x10A0 JUMP JUMPDEST SWAP1 POP PUSH1 0x20 DUP2 ADD SWAP1 POP SWAP2 SWAP1 POP JUMP JUMPDEST PUSH1 0x0 DUP2 MLOAD SWAP1 POP SWAP2 SWAP1 POP JUMP JUMPDEST PUSH1 0x0 DUP3 DUP3 MSTORE PUSH1 0x20 DUP3 ADD SWAP1 POP SWAP3 SWAP2 POP POP JUMP JUMPDEST PUSH1 0x0 PUSH2 0xF44 DUP3 PUSH2 0xF5F JUMP JUMPDEST SWAP1 POP SWAP2 SWAP1 POP JUMP JUMPDEST PUSH1 0x0 DUP2 SWAP1 POP SWAP2 SWAP1 POP JUMP JUMPDEST PUSH1 0x0 DUP2 SWAP1 POP SWAP2 SWAP1 POP JUMP JUMPDEST PUSH1 0x0 PUSH20 0xFFFFFFFFFFFFFFFFFFFFFFFFFFFFFFFFFFFFFFFF DUP3 AND SWAP1 POP SWAP2 SWAP1 POP JUMP JUMPDEST PUSH1 0x0 DUP2 SWAP1 POP SWAP2 SWAP1 POP JUMP JUMPDEST DUP3 DUP2 DUP4 CALLDATACOPY PUSH1 0x0 DUP4 DUP4 ADD MSTORE POP POP POP JUMP JUMPDEST PUSH1 0x0 JUMPDEST DUP4 DUP2 LT ISZERO PUSH2 0xFB6 JUMPI DUP1 DUP3 ADD MLOAD DUP2 DUP5 ADD MSTORE PUSH1 0x20 DUP2 ADD SWAP1 POP PUSH2 0xF9B JUMP JUMPDEST DUP4 DUP2 GT ISZERO PUSH2 0xFC5 JUMPI PUSH1 0x0 DUP5 DUP5 ADD MSTORE JUMPDEST POP POP POP POP JUMP JUMPDEST PUSH1 0x0 PUSH1 0x2 DUP3 DIV SWAP1 POP PUSH1 0x1 DUP3 AND DUP1 PUSH2 0xFE3 JUMPI PUSH1 0x7F DUP3 AND SWAP2 POP JUMPDEST PUSH1 0x20 DUP3 LT DUP2 EQ ISZERO PUSH2 0xFF7 JUMPI PUSH2 0xFF6 PUSH2 0x102E JUMP JUMPDEST JUMPDEST POP SWAP2 SWAP1 POP JUMP JUMPDEST PUSH2 0x1006 DUP3 PUSH2 0x10A0 JUMP JUMPDEST DUP2 ADD DUP2 DUP2 LT PUSH8 0xFFFFFFFFFFFFFFFF DUP3 GT OR ISZERO PUSH2 0x1025 JUMPI PUSH2 0x1024 PUSH2 0x105D JUMP JUMPDEST JUMPDEST DUP1 PUSH1 0x40 MSTORE POP POP POP JUMP JUMPDEST PUSH32 0x4E487B7100000000000000000000000000000000000000000000000000000000 PUSH1 0x0 MSTORE PUSH1 0x22 PUSH1 0x4 MSTORE PUSH1 0x24 PUSH1 0x0 REVERT JUMPDEST PUSH32 0x4E487B7100000000000000000000000000000000000000000000000000000000 PUSH1 0x0 MSTORE PUSH1 0x41 PUSH1 0x4 MSTORE PUSH1 0x24 PUSH1 0x0 REVERT JUMPDEST PUSH1 0x0 DUP1 REVERT JUMPDEST PUSH1 0x0 DUP1 REVERT JUMPDEST PUSH1 0x0 DUP1 REVERT JUMPDEST PUSH1 0x0 DUP1 REVERT JUMPDEST PUSH1 0x0 PUSH1 0x1F NOT PUSH1 0x1F DUP4 ADD AND SWAP1 POP SWAP2 SWAP1 POP JUMP JUMPDEST PUSH2 0x10BA DUP2 PUSH2 0xF39 JUMP JUMPDEST DUP2 EQ PUSH2 0x10C5 JUMPI PUSH1 0x0 DUP1 REVERT JUMPDEST POP JUMP JUMPDEST PUSH2 0x10D1 DUP2 PUSH2 0xF7F JUMP JUMPDEST DUP2 EQ PUSH2 0x10DC JUMPI PUSH1 0x0 DUP1 REVERT JUMPDEST POP JUMP INVALID LOG2 PUSH5 0x6970667358 0x22 SLT KECCAK256 XOR 0xE3 0xA7 PUSH1 0x65 PUSH14 0x980532D56B6F5FDB6EBF7FAC051D CODESIZE GASPRICE DELEGATECALL 0xD5 PUSH18 0x188819E397E08564736F6C63430008070033 "
				},
				"gasEstimates": {
					"creation": {
						"codeDepositCost": "874600",
						"executionCost": "infinite",
						"totalCost": "infinite"
					},
					"external": {
						"addBook(uint256,string,string)": "infinite",
						"addMyBook(uint256,string,string)": "infinite",
						"addValue(string)": "infinite",
						"array2D(uint256,uint256)": "infinite",
						"books(uint256)": "infinite",
						"getValue()": "418",
						"myAddress()": "2604",
						"myBooks(address,uint256)": "infinite",
						"myBytes32()": "2474",
						"myInt()": "2496",
						"myString()": "infinite",
						"myStruct()": "infinite",
						"myUint()": "2475",
						"myUint256()": "2517",
						"stringArray(uint256)": "infinite",
						"uintArray(uint256)": "infinite",
						"valueCount()": "2468",
						"values(uint256)": "infinite"
					}
				},
				"methodIdentifiers": {
					"addBook(uint256,string,string)": "028414f2",
					"addMyBook(uint256,string,string)": "493ec707",
					"addValue(string)": "3a5fbaaa",
					"array2D(uint256,uint256)": "d3268fc1",
					"books(uint256)": "68744046",
					"getValue()": "20965255",
					"myAddress()": "26b85ee1",
					"myBooks(address,uint256)": "27d3553f",
					"myBytes32()": "4b3e7e0c",
					"myInt()": "2cb777a6",
					"myString()": "492bfa18",
					"myStruct()": "8bc9fe6c",
					"myUint()": "06540f7e",
					"myUint256()": "a7dbce1c",
					"stringArray(uint256)": "6422c4c8",
					"uintArray(uint256)": "9ae918c7",
					"valueCount()": "26eb4dbb",
					"values(uint256)": "5e383d21"
				}
			},
			"storageLayout": {
				"storage": [
					{
						"astId": 8,
						"contract": "contracts/MyContract.sol:MyContract",
						"label": "uintArray",
						"offset": 0,
						"slot": "0",
						"type": "t_array(t_uint256)dyn_storage"
					},
					{
						"astId": 15,
						"contract": "contracts/MyContract.sol:MyContract",
						"label": "stringArray",
						"offset": 0,
						"slot": "1",
						"type": "t_array(t_string_storage)dyn_storage"
					},
					{
						"astId": 18,
						"contract": "contracts/MyContract.sol:MyContract",
						"label": "values",
						"offset": 0,
						"slot": "2",
						"type": "t_array(t_string_storage)dyn_storage"
					},
					{
						"astId": 31,
						"contract": "contracts/MyContract.sol:MyContract",
						"label": "array2D",
						"offset": 0,
						"slot": "3",
						"type": "t_array(t_array(t_uint256)dyn_storage)dyn_storage"
					},
					{
						"astId": 34,
						"contract": "contracts/MyContract.sol:MyContract",
						"label": "myUint",
						"offset": 0,
						"slot": "4",
						"type": "t_uint256"
					},
					{
						"astId": 37,
						"contract": "contracts/MyContract.sol:MyContract",
						"label": "myUint256",
						"offset": 0,
						"slot": "5",
						"type": "t_uint256"
					},
					{
						"astId": 41,
						"contract": "contracts/MyContract.sol:MyContract",
						"label": "myInt",
						"offset": 0,
						"slot": "6",
						"type": "t_int256"
					},
					{
						"astId": 44,
						"contract": "contracts/MyContract.sol:MyContract",
						"label": "myString",
						"offset": 0,
						"slot": "7",
						"type": "t_string_storage"
					},
					{
						"astId": 47,
						"contract": "contracts/MyContract.sol:MyContract",
						"label": "myBytes32",
						"offset": 0,
						"slot": "8",
						"type": "t_bytes32"
					},
					{
						"astId": 51,
						"contract": "contracts/MyContract.sol:MyContract",
						"label": "myAddress",
						"offset": 0,
						"slot": "9",
						"type": "t_address"
					},
					{
						"astId": 63,
						"contract": "contracts/MyContract.sol:MyContract",
						"label": "myStruct",
						"offset": 0,
						"slot": "10",
						"type": "t_struct(MyStruct)56_storage"
					},
					{
						"astId": 72,
						"contract": "contracts/MyContract.sol:MyContract",
						"label": "names",
						"offset": 0,
						"slot": "12",
						"type": "t_mapping(t_uint256,t_string_storage)"
					},
					{
						"astId": 77,
						"contract": "contracts/MyContract.sol:MyContract",
						"label": "books",
						"offset": 0,
						"slot": "13",
						"type": "t_mapping(t_uint256,t_struct(Book)68_storage)"
					},
					{
						"astId": 84,
						"contract": "contracts/MyContract.sol:MyContract",
						"label": "myBooks",
						"offset": 0,
						"slot": "14",
						"type": "t_mapping(t_address,t_mapping(t_uint256,t_struct(Book)68_storage))"
					}
				],
				"types": {
					"t_address": {
						"encoding": "inplace",
						"label": "address",
						"numberOfBytes": "20"
					},
					"t_array(t_array(t_uint256)dyn_storage)dyn_storage": {
						"base": "t_array(t_uint256)dyn_storage",
						"encoding": "dynamic_array",
						"label": "uint256[][]",
						"numberOfBytes": "32"
					},
					"t_array(t_string_storage)dyn_storage": {
						"base": "t_string_storage",
						"encoding": "dynamic_array",
						"label": "string[]",
						"numberOfBytes": "32"
					},
					"t_array(t_uint256)dyn_storage": {
						"base": "t_uint256",
						"encoding": "dynamic_array",
						"label": "uint256[]",
						"numberOfBytes": "32"
					},
					"t_bytes32": {
						"encoding": "inplace",
						"label": "bytes32",
						"numberOfBytes": "32"
					},
					"t_int256": {
						"encoding": "inplace",
						"label": "int256",
						"numberOfBytes": "32"
					},
					"t_mapping(t_address,t_mapping(t_uint256,t_struct(Book)68_storage))": {
						"encoding": "mapping",
						"key": "t_address",
						"label": "mapping(address => mapping(uint256 => struct MyContract.Book))",
						"numberOfBytes": "32",
						"value": "t_mapping(t_uint256,t_struct(Book)68_storage)"
					},
					"t_mapping(t_uint256,t_string_storage)": {
						"encoding": "mapping",
						"key": "t_uint256",
						"label": "mapping(uint256 => string)",
						"numberOfBytes": "32",
						"value": "t_string_storage"
					},
					"t_mapping(t_uint256,t_struct(Book)68_storage)": {
						"encoding": "mapping",
						"key": "t_uint256",
						"label": "mapping(uint256 => struct MyContract.Book)",
						"numberOfBytes": "32",
						"value": "t_struct(Book)68_storage"
					},
					"t_string_storage": {
						"encoding": "bytes",
						"label": "string",
						"numberOfBytes": "32"
					},
					"t_struct(Book)68_storage": {
						"encoding": "inplace",
						"label": "struct MyContract.Book",
						"members": [
							{
								"astId": 65,
								"contract": "contracts/MyContract.sol:MyContract",
								"label": "title",
								"offset": 0,
								"slot": "0",
								"type": "t_string_storage"
							},
							{
								"astId": 67,
								"contract": "contracts/MyContract.sol:MyContract",
								"label": "author",
								"offset": 0,
								"slot": "1",
								"type": "t_string_storage"
							}
						],
						"numberOfBytes": "64"
					},
					"t_struct(MyStruct)56_storage": {
						"encoding": "inplace",
						"label": "struct MyContract.MyStruct",
						"members": [
							{
								"astId": 53,
								"contract": "contracts/MyContract.sol:MyContract",
								"label": "myUint256",
								"offset": 0,
								"slot": "0",
								"type": "t_uint256"
							},
							{
								"astId": 55,
								"contract": "contracts/MyContract.sol:MyContract",
								"label": "myString",
								"offset": 0,
								"slot": "1",
								"type": "t_string_storage"
							}
						],
						"numberOfBytes": "64"
					},
					"t_uint256": {
						"encoding": "inplace",
						"label": "uint256",
						"numberOfBytes": "32"
					}
				}
			},
			"userdoc": {
				"kind": "user",
				"methods": {},
				"version": 1
			}
		}
	}
}