{
	"contracts/MyContract.sol": {
		"MyContract": {
			"abi": [
				{
					"inputs": [],
					"stateMutability": "nonpayable",
					"type": "constructor"
				},
				{
					"inputs": [
						{
							"internalType": "uint256",
							"name": "_id",
							"type": "uint256"
						},
						{
							"internalType": "string",
							"name": "_title",
							"type": "string"
						},
						{
							"internalType": "string",
							"name": "_author",
							"type": "string"
						}
					],
					"name": "addBook",
					"outputs": [],
					"stateMutability": "nonpayable",
					"type": "function"
				},
				{
					"inputs": [
						{
							"internalType": "string",
							"name": "_value",
							"type": "string"
						}
					],
					"name": "addValue",
					"outputs": [],
					"stateMutability": "nonpayable",
					"type": "function"
				},
				{
					"inputs": [
						{
							"internalType": "uint256",
							"name": "",
							"type": "uint256"
						},
						{
							"internalType": "uint256",
							"name": "",
							"type": "uint256"
						}
					],
					"name": "array2D",
					"outputs": [
						{
							"internalType": "uint256",
							"name": "",
							"type": "uint256"
						}
					],
					"stateMutability": "view",
					"type": "function"
				},
				{
					"inputs": [
						{
							"internalType": "uint256",
							"name": "",
							"type": "uint256"
						}
					],
					"name": "books",
					"outputs": [
						{
							"internalType": "string",
							"name": "title",
							"type": "string"
						},
						{
							"internalType": "string",
							"name": "author",
							"type": "string"
						}
					],
					"stateMutability": "view",
					"type": "function"
				},
				{
					"inputs": [],
					"name": "getValue",
					"outputs": [
						{
							"internalType": "uint256",
							"name": "",
							"type": "uint256"
						}
					],
					"stateMutability": "pure",
					"type": "function"
				},
				{
					"inputs": [],
					"name": "myAddress",
					"outputs": [
						{
							"internalType": "address",
							"name": "",
							"type": "address"
						}
					],
					"stateMutability": "view",
					"type": "function"
				},
				{
					"inputs": [],
					"name": "myBytes32",
					"outputs": [
						{
							"internalType": "bytes32",
							"name": "",
							"type": "bytes32"
						}
					],
					"stateMutability": "view",
					"type": "function"
				},
				{
					"inputs": [],
					"name": "myInt",
					"outputs": [
						{
							"internalType": "int256",
							"name": "",
							"type": "int256"
						}
					],
					"stateMutability": "view",
					"type": "function"
				},
				{
					"inputs": [],
					"name": "myString",
					"outputs": [
						{
							"internalType": "string",
							"name": "",
							"type": "string"
						}
					],
					"stateMutability": "view",
					"type": "function"
				},
				{
					"inputs": [],
					"name": "myStruct",
					"outputs": [
						{
							"internalType": "uint256",
							"name": "myUint256",
							"type": "uint256"
						},
						{
							"internalType": "string",
							"name": "myString",
							"type": "string"
						}
					],
					"stateMutability": "view",
					"type": "function"
				},
				{
					"inputs": [],
					"name": "myUint",
					"outputs": [
						{
							"internalType": "uint256",
							"name": "",
							"type": "uint256"
						}
					],
					"stateMutability": "view",
					"type": "function"
				},
				{
					"inputs": [],
					"name": "myUint256",
					"outputs": [
						{
							"internalType": "uint256",
							"name": "",
							"type": "uint256"
						}
					],
					"stateMutability": "view",
					"type": "function"
				},
				{
					"inputs": [
						{
							"internalType": "uint256",
							"name": "",
							"type": "uint256"
						}
					],
					"name": "stringArray",
					"outputs": [
						{
							"internalType": "string",
							"name": "",
							"type": "string"
						}
					],
					"stateMutability": "view",
					"type": "function"
				},
				{
					"inputs": [
						{
							"internalType": "uint256",
							"name": "",
							"type": "uint256"
						}
					],
					"name": "uintArray",
					"outputs": [
						{
							"internalType": "uint256",
							"name": "",
							"type": "uint256"
						}
					],
					"stateMutability": "view",
					"type": "function"
				},
				{
					"inputs": [],
					"name": "valueCount",
					"outputs": [
						{
							"internalType": "uint256",
							"name": "",
							"type": "uint256"
						}
					],
					"stateMutability": "view",
					"type": "function"
				},
				{
					"inputs": [
						{
							"internalType": "uint256",
							"name": "",
							"type": "uint256"
						}
					],
					"name": "values",
					"outputs": [
						{
							"internalType": "string",
							"name": "",
							"type": "string"
						}
					],
					"stateMutability": "view",
					"type": "function"
				}
			],
			"devdoc": {
				"kind": "dev",
				"methods": {},
				"version": 1
			},
			"evm": {
				"assembly": "    /* \"contracts/MyContract.sol\":60:1488  contract MyContract {\r... */\n  mstore(0x40, 0x80)\n    /* \"contracts/MyContract.sol\":101:134  uint[] public uintArray = [1,2,3] */\n  mload(0x40)\n  dup1\n  0x60\n  add\n  0x40\n  mstore\n  dup1\n    /* \"contracts/MyContract.sol\":128:129  1 */\n  0x01\n    /* \"contracts/MyContract.sol\":101:134  uint[] public uintArray = [1,2,3] */\n  0xff\n  and\n  dup2\n  mstore\n  0x20\n  add\n    /* \"contracts/MyContract.sol\":130:131  2 */\n  0x02\n    /* \"contracts/MyContract.sol\":101:134  uint[] public uintArray = [1,2,3] */\n  0xff\n  and\n  dup2\n  mstore\n  0x20\n  add\n    /* \"contracts/MyContract.sol\":132:133  3 */\n  0x03\n    /* \"contracts/MyContract.sol\":101:134  uint[] public uintArray = [1,2,3] */\n  0xff\n  and\n  dup2\n  mstore\n  pop\n  0x00\n  swap1\n  0x03\n  tag_1\n  swap3\n  swap2\n  swap1\n  tag_2\n  jump\t// in\ntag_1:\n  pop\n    /* \"contracts/MyContract.sol\":141:200  string[] public stringArray = [\"apple\", \"banana\", \"carrot\"] */\n  mload(0x40)\n  dup1\n  0x60\n  add\n  0x40\n  mstore\n  dup1\n  mload(0x40)\n  dup1\n  0x40\n  add\n  0x40\n  mstore\n  dup1\n  0x05\n  dup2\n  mstore\n  0x20\n  add\n  0x6170706c65000000000000000000000000000000000000000000000000000000\n  dup2\n  mstore\n  pop\n  dup2\n  mstore\n  0x20\n  add\n  mload(0x40)\n  dup1\n  0x40\n  add\n  0x40\n  mstore\n  dup1\n  0x06\n  dup2\n  mstore\n  0x20\n  add\n  0x62616e616e610000000000000000000000000000000000000000000000000000\n  dup2\n  mstore\n  pop\n  dup2\n  mstore\n  0x20\n  add\n  mload(0x40)\n  dup1\n  0x40\n  add\n  0x40\n  mstore\n  dup1\n  0x06\n  dup2\n  mstore\n  0x20\n  add\n  0x636172726f740000000000000000000000000000000000000000000000000000\n  dup2\n  mstore\n  pop\n  dup2\n  mstore\n  pop\n  0x01\n  swap1\n  0x03\n  tag_3\n  swap3\n  swap2\n  swap1\n  tag_4\n  jump\t// in\ntag_3:\n  pop\n    /* \"contracts/MyContract.sol\":236:287  uint256[][] public array2D = [[1, 2, 3], [4, 5, 6]] */\n  mload(0x40)\n  dup1\n  0x40\n  add\n  0x40\n  mstore\n  dup1\n  mload(0x40)\n  dup1\n  0x60\n  add\n  0x40\n  mstore\n  dup1\n    /* \"contracts/MyContract.sol\":267:268  1 */\n  0x01\n    /* \"contracts/MyContract.sol\":236:287  uint256[][] public array2D = [[1, 2, 3], [4, 5, 6]] */\n  0xff\n  and\n  dup2\n  mstore\n  0x20\n  add\n    /* \"contracts/MyContract.sol\":270:271  2 */\n  0x02\n    /* \"contracts/MyContract.sol\":236:287  uint256[][] public array2D = [[1, 2, 3], [4, 5, 6]] */\n  0xff\n  and\n  dup2\n  mstore\n  0x20\n  add\n    /* \"contracts/MyContract.sol\":273:274  3 */\n  0x03\n    /* \"contracts/MyContract.sol\":236:287  uint256[][] public array2D = [[1, 2, 3], [4, 5, 6]] */\n  0xff\n  and\n  dup2\n  mstore\n  pop\n  dup2\n  mstore\n  0x20\n  add\n  mload(0x40)\n  dup1\n  0x60\n  add\n  0x40\n  mstore\n  dup1\n    /* \"contracts/MyContract.sol\":278:279  4 */\n  0x04\n    /* \"contracts/MyContract.sol\":236:287  uint256[][] public array2D = [[1, 2, 3], [4, 5, 6]] */\n  0xff\n  and\n  dup2\n  mstore\n  0x20\n  add\n    /* \"contracts/MyContract.sol\":281:282  5 */\n  0x05\n    /* \"contracts/MyContract.sol\":236:287  uint256[][] public array2D = [[1, 2, 3], [4, 5, 6]] */\n  0xff\n  and\n  dup2\n  mstore\n  0x20\n  add\n    /* \"contracts/MyContract.sol\":284:285  6 */\n  0x06\n    /* \"contracts/MyContract.sol\":236:287  uint256[][] public array2D = [[1, 2, 3], [4, 5, 6]] */\n  0xff\n  and\n  dup2\n  mstore\n  pop\n  dup2\n  mstore\n  pop\n  0x03\n  swap1\n  0x02\n  tag_5\n  swap3\n  swap2\n  swap1\n  tag_6\n  jump\t// in\ntag_5:\n  pop\n    /* \"contracts/MyContract.sol\":351:352  1 */\n  0x01\n    /* \"contracts/MyContract.sol\":329:352  uint public myUint  = 1 */\n  0x04\n  sstore\n    /* \"contracts/MyContract.sol\":387:388  1 */\n  0x01\n    /* \"contracts/MyContract.sol\":359:388  uint256 public myUint256  = 1 */\n  0x05\n  sstore\n    /* \"contracts/MyContract.sol\":414:416  -1 */\n  0xffffffffffffffffffffffffffffffffffffffffffffffffffffffffffffffff\n    /* \"contracts/MyContract.sol\":395:416  int public myInt = -1 */\n  0x06\n  sstore\n    /* \"contracts/MyContract.sol\":423:461  string public myString = \"Hello World\" */\n  mload(0x40)\n  dup1\n  0x40\n  add\n  0x40\n  mstore\n  dup1\n  0x0b\n  dup2\n  mstore\n  0x20\n  add\n  0x48656c6c6f20576f726c64000000000000000000000000000000000000000000\n  dup2\n  mstore\n  pop\n  0x07\n  swap1\n  dup1\n  mload\n  swap1\n  0x20\n  add\n  swap1\n  tag_7\n  swap3\n  swap2\n  swap1\n  tag_8\n  jump\t// in\ntag_7:\n  pop\n    /* \"contracts/MyContract.sol\":468:505  bytes32 public myBytes32 = \"Hi World\" */\n  sstore(0x08, 0x486920576f726c64000000000000000000000000000000000000000000000000)\n    /* \"contracts/MyContract.sol\":539:549  msg.sender */\n  caller\n    /* \"contracts/MyContract.sol\":512:549  address public myAddress = msg.sender */\n  0x09\n  exp(0x0100, 0x00)\n  dup2\n  sload\n  dup2\n  0xffffffffffffffffffffffffffffffffffffffff\n  mul\n  not\n  and\n  swap1\n  dup4\n  0xffffffffffffffffffffffffffffffffffffffff\n  and\n  mul\n  or\n  swap1\n  sstore\n  pop\n    /* \"contracts/MyContract.sol\":669:694  MyStruct(1, \"Ola Mundo!\") */\n  mload(0x40)\n  dup1\n  0x40\n  add\n  0x40\n  mstore\n  dup1\n    /* \"contracts/MyContract.sol\":678:679  1 */\n  0x01\n    /* \"contracts/MyContract.sol\":669:694  MyStruct(1, \"Ola Mundo!\") */\n  dup2\n  mstore\n  0x20\n  add\n  mload(0x40)\n  dup1\n  0x40\n  add\n  0x40\n  mstore\n  dup1\n  0x0a\n  dup2\n  mstore\n  0x20\n  add\n  0x4f6c61204d756e646f2100000000000000000000000000000000000000000000\n  dup2\n  mstore\n  pop\n  dup2\n  mstore\n  pop\n    /* \"contracts/MyContract.sol\":642:694  MyStruct public myStruct = MyStruct(1, \"Ola Mundo!\") */\n  0x0a\n  0x00\n  dup3\n  add\n  mload\n  dup2\n  0x00\n  add\n  sstore\n  0x20\n  dup3\n  add\n  mload\n  dup2\n  0x01\n  add\n  swap1\n  dup1\n  mload\n  swap1\n  0x20\n  add\n  swap1\n  tag_9\n  swap3\n  swap2\n  swap1\n  tag_8\n  jump\t// in\ntag_9:\n  pop\n  pop\n  pop\n    /* \"contracts/MyContract.sol\":876:990  constructor() public {\r... */\n  callvalue\n  dup1\n  iszero\n  tag_10\n  jumpi\n  0x00\n  dup1\n  revert\ntag_10:\n  pop\n    /* \"contracts/MyContract.sol\":908:925  names[1] = \"Adam\" */\n  mload(0x40)\n  dup1\n  0x40\n  add\n  0x40\n  mstore\n  dup1\n  0x04\n  dup2\n  mstore\n  0x20\n  add\n  0x4164616d00000000000000000000000000000000000000000000000000000000\n  dup2\n  mstore\n  pop\n    /* \"contracts/MyContract.sol\":908:913  names */\n  0x0c\n    /* \"contracts/MyContract.sol\":908:916  names[1] */\n  0x00\n    /* \"contracts/MyContract.sol\":914:915  1 */\n  0x01\n    /* \"contracts/MyContract.sol\":908:916  names[1] */\n  dup2\n  mstore\n  0x20\n  add\n  swap1\n  dup2\n  mstore\n  0x20\n  add\n  0x00\n  keccak256\n    /* \"contracts/MyContract.sol\":908:925  names[1] = \"Adam\" */\n  swap1\n  dup1\n  mload\n  swap1\n  0x20\n  add\n  swap1\n  tag_13\n  swap3\n  swap2\n  swap1\n  tag_8\n  jump\t// in\ntag_13:\n  pop\n    /* \"contracts/MyContract.sol\":936:954  names[2] = \"Bruce\" */\n  mload(0x40)\n  dup1\n  0x40\n  add\n  0x40\n  mstore\n  dup1\n  0x05\n  dup2\n  mstore\n  0x20\n  add\n  0x4272756365000000000000000000000000000000000000000000000000000000\n  dup2\n  mstore\n  pop\n    /* \"contracts/MyContract.sol\":936:941  names */\n  0x0c\n    /* \"contracts/MyContract.sol\":936:944  names[2] */\n  0x00\n    /* \"contracts/MyContract.sol\":942:943  2 */\n  0x02\n    /* \"contracts/MyContract.sol\":936:944  names[2] */\n  dup2\n  mstore\n  0x20\n  add\n  swap1\n  dup2\n  mstore\n  0x20\n  add\n  0x00\n  keccak256\n    /* \"contracts/MyContract.sol\":936:954  names[2] = \"Bruce\" */\n  swap1\n  dup1\n  mload\n  swap1\n  0x20\n  add\n  swap1\n  tag_14\n  swap3\n  swap2\n  swap1\n  tag_8\n  jump\t// in\ntag_14:\n  pop\n    /* \"contracts/MyContract.sol\":965:982  names[3] = \"Carl\" */\n  mload(0x40)\n  dup1\n  0x40\n  add\n  0x40\n  mstore\n  dup1\n  0x04\n  dup2\n  mstore\n  0x20\n  add\n  0x4361726c00000000000000000000000000000000000000000000000000000000\n  dup2\n  mstore\n  pop\n    /* \"contracts/MyContract.sol\":965:970  names */\n  0x0c\n    /* \"contracts/MyContract.sol\":965:973  names[3] */\n  0x00\n    /* \"contracts/MyContract.sol\":971:972  3 */\n  0x03\n    /* \"contracts/MyContract.sol\":965:973  names[3] */\n  dup2\n  mstore\n  0x20\n  add\n  swap1\n  dup2\n  mstore\n  0x20\n  add\n  0x00\n  keccak256\n    /* \"contracts/MyContract.sol\":965:982  names[3] = \"Carl\" */\n  swap1\n  dup1\n  mload\n  swap1\n  0x20\n  add\n  swap1\n  tag_15\n  swap3\n  swap2\n  swap1\n  tag_8\n  jump\t// in\ntag_15:\n  pop\n    /* \"contracts/MyContract.sol\":60:1488  contract MyContract {\r... */\n  jump(tag_16)\ntag_2:\n  dup3\n  dup1\n  sload\n  dup3\n  dup3\n  sstore\n  swap1\n  0x00\n  mstore\n  keccak256(0x00, 0x20)\n  swap1\n  dup2\n  add\n  swap3\n  dup3\n  iszero\n  tag_17\n  jumpi\n  swap2\n  0x20\n  mul\n  dup3\n  add\ntag_18:\n  dup3\n  dup2\n  gt\n  iszero\n  tag_19\n  jumpi\n  dup3\n  mload\n  dup3\n  swap1\n  0xff\n  and\n  swap1\n  sstore\n  swap2\n  0x20\n  add\n  swap2\n  swap1\n  0x01\n  add\n  swap1\n  jump(tag_18)\ntag_19:\ntag_17:\n  pop\n  swap1\n  pop\n  tag_20\n  swap2\n  swap1\n  tag_21\n  jump\t// in\ntag_20:\n  pop\n  swap1\n  jump\t// out\ntag_4:\n  dup3\n  dup1\n  sload\n  dup3\n  dup3\n  sstore\n  swap1\n  0x00\n  mstore\n  keccak256(0x00, 0x20)\n  swap1\n  dup2\n  add\n  swap3\n  dup3\n  iszero\n  tag_22\n  jumpi\n  swap2\n  0x20\n  mul\n  dup3\n  add\ntag_23:\n  dup3\n  dup2\n  gt\n  iszero\n  tag_24\n  jumpi\n  dup3\n  mload\n  dup3\n  swap1\n  dup1\n  mload\n  swap1\n  0x20\n  add\n  swap1\n  tag_25\n  swap3\n  swap2\n  swap1\n  tag_8\n  jump\t// in\ntag_25:\n  pop\n  swap2\n  0x20\n  add\n  swap2\n  swap1\n  0x01\n  add\n  swap1\n  jump(tag_23)\ntag_24:\ntag_22:\n  pop\n  swap1\n  pop\n  tag_26\n  swap2\n  swap1\n  tag_27\n  jump\t// in\ntag_26:\n  pop\n  swap1\n  jump\t// out\ntag_6:\n  dup3\n  dup1\n  sload\n  dup3\n  dup3\n  sstore\n  swap1\n  0x00\n  mstore\n  keccak256(0x00, 0x20)\n  swap1\n  dup2\n  add\n  swap3\n  dup3\n  iszero\n  tag_28\n  jumpi\n  swap2\n  0x20\n  mul\n  dup3\n  add\ntag_29:\n  dup3\n  dup2\n  gt\n  iszero\n  tag_30\n  jumpi\n  dup3\n  mload\n  dup3\n  swap1\n  0x03\n  tag_31\n  swap3\n  swap2\n  swap1\n  tag_2\n  jump\t// in\ntag_31:\n  pop\n  swap2\n  0x20\n  add\n  swap2\n  swap1\n  0x01\n  add\n  swap1\n  jump(tag_29)\ntag_30:\ntag_28:\n  pop\n  swap1\n  pop\n  tag_32\n  swap2\n  swap1\n  tag_33\n  jump\t// in\ntag_32:\n  pop\n  swap1\n  jump\t// out\ntag_8:\n  dup3\n  dup1\n  sload\n  tag_34\n  swap1\n  tag_35\n  jump\t// in\ntag_34:\n  swap1\n  0x00\n  mstore\n  keccak256(0x00, 0x20)\n  swap1\n  0x1f\n  add\n  0x20\n  swap1\n  div\n  dup2\n  add\n  swap3\n  dup3\n  tag_37\n  jumpi\n  0x00\n  dup6\n  sstore\n  jump(tag_36)\ntag_37:\n  dup3\n  0x1f\n  lt\n  tag_38\n  jumpi\n  dup1\n  mload\n  not(0xff)\n  and\n  dup4\n  dup1\n  add\n  or\n  dup6\n  sstore\n  jump(tag_36)\ntag_38:\n  dup3\n  dup1\n  add\n  0x01\n  add\n  dup6\n  sstore\n  dup3\n  iszero\n  tag_36\n  jumpi\n  swap2\n  dup3\n  add\ntag_39:\n  dup3\n  dup2\n  gt\n  iszero\n  tag_40\n  jumpi\n  dup3\n  mload\n  dup3\n  sstore\n  swap2\n  0x20\n  add\n  swap2\n  swap1\n  0x01\n  add\n  swap1\n  jump(tag_39)\ntag_40:\ntag_36:\n  pop\n  swap1\n  pop\n  tag_41\n  swap2\n  swap1\n  tag_21\n  jump\t// in\ntag_41:\n  pop\n  swap1\n  jump\t// out\ntag_21:\ntag_42:\n  dup1\n  dup3\n  gt\n  iszero\n  tag_43\n  jumpi\n  0x00\n  dup2\n  0x00\n  swap1\n  sstore\n  pop\n  0x01\n  add\n  jump(tag_42)\ntag_43:\n  pop\n  swap1\n  jump\t// out\ntag_27:\ntag_44:\n  dup1\n  dup3\n  gt\n  iszero\n  tag_45\n  jumpi\n  0x00\n  dup2\n  dup2\n  tag_46\n  swap2\n  swap1\n  tag_47\n  jump\t// in\ntag_46:\n  pop\n  0x01\n  add\n  jump(tag_44)\ntag_45:\n  pop\n  swap1\n  jump\t// out\ntag_33:\ntag_48:\n  dup1\n  dup3\n  gt\n  iszero\n  tag_49\n  jumpi\n  0x00\n  dup2\n  dup2\n  tag_50\n  swap2\n  swap1\n  tag_51\n  jump\t// in\ntag_50:\n  pop\n  0x01\n  add\n  jump(tag_48)\ntag_49:\n  pop\n  swap1\n  jump\t// out\ntag_47:\n  pop\n  dup1\n  sload\n  tag_52\n  swap1\n  tag_35\n  jump\t// in\ntag_52:\n  0x00\n  dup3\n  sstore\n  dup1\n  0x1f\n  lt\n  tag_54\n  jumpi\n  pop\n  jump(tag_53)\ntag_54:\n  0x1f\n  add\n  0x20\n  swap1\n  div\n  swap1\n  0x00\n  mstore\n  keccak256(0x00, 0x20)\n  swap1\n  dup2\n  add\n  swap1\n  tag_55\n  swap2\n  swap1\n  tag_21\n  jump\t// in\ntag_55:\ntag_53:\n  pop\n  jump\t// out\ntag_51:\n  pop\n  dup1\n  sload\n  0x00\n  dup3\n  sstore\n  swap1\n  0x00\n  mstore\n  keccak256(0x00, 0x20)\n  swap1\n  dup2\n  add\n  swap1\n  tag_57\n  swap2\n  swap1\n  tag_21\n  jump\t// in\ntag_57:\n  pop\n  jump\t// out\n    /* \"#utility.yul\":7:327   */\ntag_35:\n    /* \"#utility.yul\":51:57   */\n  0x00\n    /* \"#utility.yul\":88:89   */\n  0x02\n    /* \"#utility.yul\":82:86   */\n  dup3\n    /* \"#utility.yul\":78:90   */\n  div\n    /* \"#utility.yul\":68:90   */\n  swap1\n  pop\n    /* \"#utility.yul\":135:136   */\n  0x01\n    /* \"#utility.yul\":129:133   */\n  dup3\n    /* \"#utility.yul\":125:137   */\n  and\n    /* \"#utility.yul\":156:174   */\n  dup1\n    /* \"#utility.yul\":146:227   */\n  tag_60\n  jumpi\n    /* \"#utility.yul\":212:216   */\n  0x7f\n    /* \"#utility.yul\":204:210   */\n  dup3\n    /* \"#utility.yul\":200:217   */\n  and\n    /* \"#utility.yul\":190:217   */\n  swap2\n  pop\n    /* \"#utility.yul\":146:227   */\ntag_60:\n    /* \"#utility.yul\":274:276   */\n  0x20\n    /* \"#utility.yul\":266:272   */\n  dup3\n    /* \"#utility.yul\":263:277   */\n  lt\n    /* \"#utility.yul\":243:261   */\n  dup2\n    /* \"#utility.yul\":240:278   */\n  eq\n    /* \"#utility.yul\":237:321   */\n  iszero\n  tag_61\n  jumpi\n    /* \"#utility.yul\":293:311   */\n  tag_62\n  tag_63\n  jump\t// in\ntag_62:\n    /* \"#utility.yul\":237:321   */\ntag_61:\n    /* \"#utility.yul\":58:327   */\n  pop\n    /* \"#utility.yul\":7:327   */\n  swap2\n  swap1\n  pop\n  jump\t// out\n    /* \"#utility.yul\":333:513   */\ntag_63:\n    /* \"#utility.yul\":381:458   */\n  0x4e487b7100000000000000000000000000000000000000000000000000000000\n    /* \"#utility.yul\":378:379   */\n  0x00\n    /* \"#utility.yul\":371:459   */\n  mstore\n    /* \"#utility.yul\":478:482   */\n  0x22\n    /* \"#utility.yul\":475:476   */\n  0x04\n    /* \"#utility.yul\":468:483   */\n  mstore\n    /* \"#utility.yul\":502:506   */\n  0x24\n    /* \"#utility.yul\":499:500   */\n  0x00\n    /* \"#utility.yul\":492:507   */\n  revert\n    /* \"contracts/MyContract.sol\":60:1488  contract MyContract {\r... */\ntag_16:\n  dataSize(sub_0)\n  dup1\n  dataOffset(sub_0)\n  0x00\n  codecopy\n  0x00\n  return\nstop\n\nsub_0: assembly {\n        /* \"contracts/MyContract.sol\":60:1488  contract MyContract {\r... */\n      mstore(0x40, 0x80)\n      callvalue\n      dup1\n      iszero\n      tag_1\n      jumpi\n      0x00\n      dup1\n      revert\n    tag_1:\n      pop\n      jumpi(tag_2, lt(calldatasize, 0x04))\n      shr(0xe0, calldataload(0x00))\n      dup1\n      0x4b3e7e0c\n      gt\n      tag_19\n      jumpi\n      dup1\n      0x8bc9fe6c\n      gt\n      tag_20\n      jumpi\n      dup1\n      0x8bc9fe6c\n      eq\n      tag_15\n      jumpi\n      dup1\n      0x9ae918c7\n      eq\n      tag_16\n      jumpi\n      dup1\n      0xa7dbce1c\n      eq\n      tag_17\n      jumpi\n      dup1\n      0xd3268fc1\n      eq\n      tag_18\n      jumpi\n      jump(tag_2)\n    tag_20:\n      dup1\n      0x4b3e7e0c\n      eq\n      tag_11\n      jumpi\n      dup1\n      0x5e383d21\n      eq\n      tag_12\n      jumpi\n      dup1\n      0x6422c4c8\n      eq\n      tag_13\n      jumpi\n      dup1\n      0x68744046\n      eq\n      tag_14\n      jumpi\n      jump(tag_2)\n    tag_19:\n      dup1\n      0x26eb4dbb\n      gt\n      tag_21\n      jumpi\n      dup1\n      0x26eb4dbb\n      eq\n      tag_7\n      jumpi\n      dup1\n      0x2cb777a6\n      eq\n      tag_8\n      jumpi\n      dup1\n      0x3a5fbaaa\n      eq\n      tag_9\n      jumpi\n      dup1\n      0x492bfa18\n      eq\n      tag_10\n      jumpi\n      jump(tag_2)\n    tag_21:\n      dup1\n      0x028414f2\n      eq\n      tag_3\n      jumpi\n      dup1\n      0x06540f7e\n      eq\n      tag_4\n      jumpi\n      dup1\n      0x20965255\n      eq\n      tag_5\n      jumpi\n      dup1\n      0x26b85ee1\n      eq\n      tag_6\n      jumpi\n    tag_2:\n      0x00\n      dup1\n      revert\n        /* \"contracts/MyContract.sol\":998:1164  function addBook(\r... */\n    tag_3:\n      tag_22\n      0x04\n      dup1\n      calldatasize\n      sub\n      dup2\n      add\n      swap1\n      tag_23\n      swap2\n      swap1\n      tag_24\n      jump\t// in\n    tag_23:\n      tag_25\n      jump\t// in\n    tag_22:\n      stop\n        /* \"contracts/MyContract.sol\":329:352  uint public myUint  = 1 */\n    tag_4:\n      tag_26\n      tag_27\n      jump\t// in\n    tag_26:\n      mload(0x40)\n      tag_28\n      swap2\n      swap1\n      tag_29\n      jump\t// in\n    tag_28:\n      mload(0x40)\n      dup1\n      swap2\n      sub\n      swap1\n      return\n        /* \"contracts/MyContract.sol\":1383:1485  function getValue() public pure returns(uint) {\r... */\n    tag_5:\n      tag_30\n      tag_31\n      jump\t// in\n    tag_30:\n      mload(0x40)\n      tag_32\n      swap2\n      swap1\n      tag_29\n      jump\t// in\n    tag_32:\n      mload(0x40)\n      dup1\n      swap2\n      sub\n      swap1\n      return\n        /* \"contracts/MyContract.sol\":512:549  address public myAddress = msg.sender */\n    tag_6:\n      tag_33\n      tag_34\n      jump\t// in\n    tag_33:\n      mload(0x40)\n      tag_35\n      swap2\n      swap1\n      tag_36\n      jump\t// in\n    tag_35:\n      mload(0x40)\n      dup1\n      swap2\n      sub\n      swap1\n      return\n        /* \"contracts/MyContract.sol\":1265:1352  function valueCount() public view returns(uint) {\r... */\n    tag_7:\n      tag_37\n      tag_38\n      jump\t// in\n    tag_37:\n      mload(0x40)\n      tag_39\n      swap2\n      swap1\n      tag_29\n      jump\t// in\n    tag_39:\n      mload(0x40)\n      dup1\n      swap2\n      sub\n      swap1\n      return\n        /* \"contracts/MyContract.sol\":395:416  int public myInt = -1 */\n    tag_8:\n      tag_40\n      tag_41\n      jump\t// in\n    tag_40:\n      mload(0x40)\n      tag_42\n      swap2\n      swap1\n      tag_43\n      jump\t// in\n    tag_42:\n      mload(0x40)\n      dup1\n      swap2\n      sub\n      swap1\n      return\n        /* \"contracts/MyContract.sol\":1172:1257  function addValue(string memory _value) public {\r... */\n    tag_9:\n      tag_44\n      0x04\n      dup1\n      calldatasize\n      sub\n      dup2\n      add\n      swap1\n      tag_45\n      swap2\n      swap1\n      tag_46\n      jump\t// in\n    tag_45:\n      tag_47\n      jump\t// in\n    tag_44:\n      stop\n        /* \"contracts/MyContract.sol\":423:461  string public myString = \"Hello World\" */\n    tag_10:\n      tag_48\n      tag_49\n      jump\t// in\n    tag_48:\n      mload(0x40)\n      tag_50\n      swap2\n      swap1\n      tag_51\n      jump\t// in\n    tag_50:\n      mload(0x40)\n      dup1\n      swap2\n      sub\n      swap1\n      return\n        /* \"contracts/MyContract.sol\":468:505  bytes32 public myBytes32 = \"Hi World\" */\n    tag_11:\n      tag_52\n      tag_53\n      jump\t// in\n    tag_52:\n      mload(0x40)\n      tag_54\n      swap2\n      swap1\n      tag_55\n      jump\t// in\n    tag_54:\n      mload(0x40)\n      dup1\n      swap2\n      sub\n      swap1\n      return\n        /* \"contracts/MyContract.sol\":207:229  string[] public values */\n    tag_12:\n      tag_56\n      0x04\n      dup1\n      calldatasize\n      sub\n      dup2\n      add\n      swap1\n      tag_57\n      swap2\n      swap1\n      tag_58\n      jump\t// in\n    tag_57:\n      tag_59\n      jump\t// in\n    tag_56:\n      mload(0x40)\n      tag_60\n      swap2\n      swap1\n      tag_51\n      jump\t// in\n    tag_60:\n      mload(0x40)\n      dup1\n      swap2\n      sub\n      swap1\n      return\n        /* \"contracts/MyContract.sol\":141:200  string[] public stringArray = [\"apple\", \"banana\", \"carrot\"] */\n    tag_13:\n      tag_61\n      0x04\n      dup1\n      calldatasize\n      sub\n      dup2\n      add\n      swap1\n      tag_62\n      swap2\n      swap1\n      tag_58\n      jump\t// in\n    tag_62:\n      tag_63\n      jump\t// in\n    tag_61:\n      mload(0x40)\n      tag_64\n      swap2\n      swap1\n      tag_51\n      jump\t// in\n    tag_64:\n      mload(0x40)\n      dup1\n      swap2\n      sub\n      swap1\n      return\n        /* \"contracts/MyContract.sol\":833:867  mapping(uint => Book) public books */\n    tag_14:\n      tag_65\n      0x04\n      dup1\n      calldatasize\n      sub\n      dup2\n      add\n      swap1\n      tag_66\n      swap2\n      swap1\n      tag_58\n      jump\t// in\n    tag_66:\n      tag_67\n      jump\t// in\n    tag_65:\n      mload(0x40)\n      tag_68\n      swap3\n      swap2\n      swap1\n      tag_69\n      jump\t// in\n    tag_68:\n      mload(0x40)\n      dup1\n      swap2\n      sub\n      swap1\n      return\n        /* \"contracts/MyContract.sol\":642:694  MyStruct public myStruct = MyStruct(1, \"Ola Mundo!\") */\n    tag_15:\n      tag_70\n      tag_71\n      jump\t// in\n    tag_70:\n      mload(0x40)\n      tag_72\n      swap3\n      swap2\n      swap1\n      tag_73\n      jump\t// in\n    tag_72:\n      mload(0x40)\n      dup1\n      swap2\n      sub\n      swap1\n      return\n        /* \"contracts/MyContract.sol\":101:134  uint[] public uintArray = [1,2,3] */\n    tag_16:\n      tag_74\n      0x04\n      dup1\n      calldatasize\n      sub\n      dup2\n      add\n      swap1\n      tag_75\n      swap2\n      swap1\n      tag_58\n      jump\t// in\n    tag_75:\n      tag_76\n      jump\t// in\n    tag_74:\n      mload(0x40)\n      tag_77\n      swap2\n      swap1\n      tag_29\n      jump\t// in\n    tag_77:\n      mload(0x40)\n      dup1\n      swap2\n      sub\n      swap1\n      return\n        /* \"contracts/MyContract.sol\":359:388  uint256 public myUint256  = 1 */\n    tag_17:\n      tag_78\n      tag_79\n      jump\t// in\n    tag_78:\n      mload(0x40)\n      tag_80\n      swap2\n      swap1\n      tag_29\n      jump\t// in\n    tag_80:\n      mload(0x40)\n      dup1\n      swap2\n      sub\n      swap1\n      return\n        /* \"contracts/MyContract.sol\":236:287  uint256[][] public array2D = [[1, 2, 3], [4, 5, 6]] */\n    tag_18:\n      tag_81\n      0x04\n      dup1\n      calldatasize\n      sub\n      dup2\n      add\n      swap1\n      tag_82\n      swap2\n      swap1\n      tag_83\n      jump\t// in\n    tag_82:\n      tag_84\n      jump\t// in\n    tag_81:\n      mload(0x40)\n      tag_85\n      swap2\n      swap1\n      tag_29\n      jump\t// in\n    tag_85:\n      mload(0x40)\n      dup1\n      swap2\n      sub\n      swap1\n      return\n        /* \"contracts/MyContract.sol\":998:1164  function addBook(\r... */\n    tag_25:\n        /* \"contracts/MyContract.sol\":1135:1156  Book(_title, _author) */\n      mload(0x40)\n      dup1\n      0x40\n      add\n      0x40\n      mstore\n      dup1\n        /* \"contracts/MyContract.sol\":1140:1146  _title */\n      dup4\n        /* \"contracts/MyContract.sol\":1135:1156  Book(_title, _author) */\n      dup2\n      mstore\n      0x20\n      add\n        /* \"contracts/MyContract.sol\":1148:1155  _author */\n      dup3\n        /* \"contracts/MyContract.sol\":1135:1156  Book(_title, _author) */\n      dup2\n      mstore\n      pop\n        /* \"contracts/MyContract.sol\":1122:1127  books */\n      0x0d\n        /* \"contracts/MyContract.sol\":1122:1132  books[_id] */\n      0x00\n        /* \"contracts/MyContract.sol\":1128:1131  _id */\n      dup6\n        /* \"contracts/MyContract.sol\":1122:1132  books[_id] */\n      dup2\n      mstore\n      0x20\n      add\n      swap1\n      dup2\n      mstore\n      0x20\n      add\n      0x00\n      keccak256\n        /* \"contracts/MyContract.sol\":1122:1156  books[_id] = Book(_title, _author) */\n      0x00\n      dup3\n      add\n      mload\n      dup2\n      0x00\n      add\n      swap1\n      dup1\n      mload\n      swap1\n      0x20\n      add\n      swap1\n      tag_87\n      swap3\n      swap2\n      swap1\n      tag_88\n      jump\t// in\n    tag_87:\n      pop\n      0x20\n      dup3\n      add\n      mload\n      dup2\n      0x01\n      add\n      swap1\n      dup1\n      mload\n      swap1\n      0x20\n      add\n      swap1\n      tag_89\n      swap3\n      swap2\n      swap1\n      tag_88\n      jump\t// in\n    tag_89:\n      pop\n      swap1\n      pop\n      pop\n        /* \"contracts/MyContract.sol\":998:1164  function addBook(\r... */\n      pop\n      pop\n      pop\n      jump\t// out\n        /* \"contracts/MyContract.sol\":329:352  uint public myUint  = 1 */\n    tag_27:\n      sload(0x04)\n      dup2\n      jump\t// out\n        /* \"contracts/MyContract.sol\":1383:1485  function getValue() public pure returns(uint) {\r... */\n    tag_31:\n        /* \"contracts/MyContract.sol\":1423:1427  uint */\n      0x00\n        /* \"contracts/MyContract.sol\":1440:1450  uint value */\n      dup1\n        /* \"contracts/MyContract.sol\":1453:1454  1 */\n      0x01\n        /* \"contracts/MyContract.sol\":1440:1454  uint value = 1 */\n      swap1\n      pop\n        /* \"contracts/MyContract.sol\":1472:1477  value */\n      dup1\n        /* \"contracts/MyContract.sol\":1465:1477  return value */\n      swap2\n      pop\n      pop\n        /* \"contracts/MyContract.sol\":1383:1485  function getValue() public pure returns(uint) {\r... */\n      swap1\n      jump\t// out\n        /* \"contracts/MyContract.sol\":512:549  address public myAddress = msg.sender */\n    tag_34:\n      0x09\n      0x00\n      swap1\n      sload\n      swap1\n      0x0100\n      exp\n      swap1\n      div\n      0xffffffffffffffffffffffffffffffffffffffff\n      and\n      dup2\n      jump\t// out\n        /* \"contracts/MyContract.sol\":1265:1352  function valueCount() public view returns(uint) {\r... */\n    tag_38:\n        /* \"contracts/MyContract.sol\":1307:1311  uint */\n      0x00\n        /* \"contracts/MyContract.sol\":1331:1337  values */\n      0x02\n        /* \"contracts/MyContract.sol\":1331:1344  values.length */\n      dup1\n      sload\n      swap1\n      pop\n        /* \"contracts/MyContract.sol\":1324:1344  return values.length */\n      swap1\n      pop\n        /* \"contracts/MyContract.sol\":1265:1352  function valueCount() public view returns(uint) {\r... */\n      swap1\n      jump\t// out\n        /* \"contracts/MyContract.sol\":395:416  int public myInt = -1 */\n    tag_41:\n      sload(0x06)\n      dup2\n      jump\t// out\n        /* \"contracts/MyContract.sol\":1172:1257  function addValue(string memory _value) public {\r... */\n    tag_47:\n        /* \"contracts/MyContract.sol\":1230:1236  values */\n      0x02\n        /* \"contracts/MyContract.sol\":1242:1248  _value */\n      dup2\n        /* \"contracts/MyContract.sol\":1230:1249  values.push(_value) */\n      swap1\n      dup1\n      0x01\n      dup2\n      sload\n      add\n      dup1\n      dup3\n      sstore\n      dup1\n      swap2\n      pop\n      pop\n      0x01\n      swap1\n      sub\n      swap1\n      0x00\n      mstore\n      keccak256(0x00, 0x20)\n      add\n      0x00\n      swap1\n      swap2\n      swap1\n      swap2\n      swap1\n      swap2\n      pop\n      swap1\n      dup1\n      mload\n      swap1\n      0x20\n      add\n      swap1\n      tag_94\n      swap3\n      swap2\n      swap1\n      tag_88\n      jump\t// in\n    tag_94:\n      pop\n        /* \"contracts/MyContract.sol\":1172:1257  function addValue(string memory _value) public {\r... */\n      pop\n      jump\t// out\n        /* \"contracts/MyContract.sol\":423:461  string public myString = \"Hello World\" */\n    tag_49:\n      0x07\n      dup1\n      sload\n      tag_95\n      swap1\n      tag_96\n      jump\t// in\n    tag_95:\n      dup1\n      0x1f\n      add\n      0x20\n      dup1\n      swap2\n      div\n      mul\n      0x20\n      add\n      mload(0x40)\n      swap1\n      dup2\n      add\n      0x40\n      mstore\n      dup1\n      swap3\n      swap2\n      swap1\n      dup2\n      dup2\n      mstore\n      0x20\n      add\n      dup3\n      dup1\n      sload\n      tag_97\n      swap1\n      tag_96\n      jump\t// in\n    tag_97:\n      dup1\n      iszero\n      tag_98\n      jumpi\n      dup1\n      0x1f\n      lt\n      tag_99\n      jumpi\n      0x0100\n      dup1\n      dup4\n      sload\n      div\n      mul\n      dup4\n      mstore\n      swap2\n      0x20\n      add\n      swap2\n      jump(tag_98)\n    tag_99:\n      dup3\n      add\n      swap2\n      swap1\n      0x00\n      mstore\n      keccak256(0x00, 0x20)\n      swap1\n    tag_100:\n      dup2\n      sload\n      dup2\n      mstore\n      swap1\n      0x01\n      add\n      swap1\n      0x20\n      add\n      dup1\n      dup4\n      gt\n      tag_100\n      jumpi\n      dup3\n      swap1\n      sub\n      0x1f\n      and\n      dup3\n      add\n      swap2\n    tag_98:\n      pop\n      pop\n      pop\n      pop\n      pop\n      dup2\n      jump\t// out\n        /* \"contracts/MyContract.sol\":468:505  bytes32 public myBytes32 = \"Hi World\" */\n    tag_53:\n      sload(0x08)\n      dup2\n      jump\t// out\n        /* \"contracts/MyContract.sol\":207:229  string[] public values */\n    tag_59:\n      0x02\n      dup2\n      dup2\n      sload\n      dup2\n      lt\n      tag_101\n      jumpi\n      0x00\n      dup1\n      revert\n    tag_101:\n      swap1\n      0x00\n      mstore\n      keccak256(0x00, 0x20)\n      add\n      0x00\n      swap2\n      pop\n      swap1\n      pop\n      dup1\n      sload\n      tag_103\n      swap1\n      tag_96\n      jump\t// in\n    tag_103:\n      dup1\n      0x1f\n      add\n      0x20\n      dup1\n      swap2\n      div\n      mul\n      0x20\n      add\n      mload(0x40)\n      swap1\n      dup2\n      add\n      0x40\n      mstore\n      dup1\n      swap3\n      swap2\n      swap1\n      dup2\n      dup2\n      mstore\n      0x20\n      add\n      dup3\n      dup1\n      sload\n      tag_104\n      swap1\n      tag_96\n      jump\t// in\n    tag_104:\n      dup1\n      iszero\n      tag_105\n      jumpi\n      dup1\n      0x1f\n      lt\n      tag_106\n      jumpi\n      0x0100\n      dup1\n      dup4\n      sload\n      div\n      mul\n      dup4\n      mstore\n      swap2\n      0x20\n      add\n      swap2\n      jump(tag_105)\n    tag_106:\n      dup3\n      add\n      swap2\n      swap1\n      0x00\n      mstore\n      keccak256(0x00, 0x20)\n      swap1\n    tag_107:\n      dup2\n      sload\n      dup2\n      mstore\n      swap1\n      0x01\n      add\n      swap1\n      0x20\n      add\n      dup1\n      dup4\n      gt\n      tag_107\n      jumpi\n      dup3\n      swap1\n      sub\n      0x1f\n      and\n      dup3\n      add\n      swap2\n    tag_105:\n      pop\n      pop\n      pop\n      pop\n      pop\n      dup2\n      jump\t// out\n        /* \"contracts/MyContract.sol\":141:200  string[] public stringArray = [\"apple\", \"banana\", \"carrot\"] */\n    tag_63:\n      0x01\n      dup2\n      dup2\n      sload\n      dup2\n      lt\n      tag_108\n      jumpi\n      0x00\n      dup1\n      revert\n    tag_108:\n      swap1\n      0x00\n      mstore\n      keccak256(0x00, 0x20)\n      add\n      0x00\n      swap2\n      pop\n      swap1\n      pop\n      dup1\n      sload\n      tag_110\n      swap1\n      tag_96\n      jump\t// in\n    tag_110:\n      dup1\n      0x1f\n      add\n      0x20\n      dup1\n      swap2\n      div\n      mul\n      0x20\n      add\n      mload(0x40)\n      swap1\n      dup2\n      add\n      0x40\n      mstore\n      dup1\n      swap3\n      swap2\n      swap1\n      dup2\n      dup2\n      mstore\n      0x20\n      add\n      dup3\n      dup1\n      sload\n      tag_111\n      swap1\n      tag_96\n      jump\t// in\n    tag_111:\n      dup1\n      iszero\n      tag_112\n      jumpi\n      dup1\n      0x1f\n      lt\n      tag_113\n      jumpi\n      0x0100\n      dup1\n      dup4\n      sload\n      div\n      mul\n      dup4\n      mstore\n      swap2\n      0x20\n      add\n      swap2\n      jump(tag_112)\n    tag_113:\n      dup3\n      add\n      swap2\n      swap1\n      0x00\n      mstore\n      keccak256(0x00, 0x20)\n      swap1\n    tag_114:\n      dup2\n      sload\n      dup2\n      mstore\n      swap1\n      0x01\n      add\n      swap1\n      0x20\n      add\n      dup1\n      dup4\n      gt\n      tag_114\n      jumpi\n      dup3\n      swap1\n      sub\n      0x1f\n      and\n      dup3\n      add\n      swap2\n    tag_112:\n      pop\n      pop\n      pop\n      pop\n      pop\n      dup2\n      jump\t// out\n        /* \"contracts/MyContract.sol\":833:867  mapping(uint => Book) public books */\n    tag_67:\n      mstore(0x20, 0x0d)\n      dup1\n      0x00\n      mstore\n      keccak256(0x00, 0x40)\n      0x00\n      swap2\n      pop\n      swap1\n      pop\n      dup1\n      0x00\n      add\n      dup1\n      sload\n      tag_115\n      swap1\n      tag_96\n      jump\t// in\n    tag_115:\n      dup1\n      0x1f\n      add\n      0x20\n      dup1\n      swap2\n      div\n      mul\n      0x20\n      add\n      mload(0x40)\n      swap1\n      dup2\n      add\n      0x40\n      mstore\n      dup1\n      swap3\n      swap2\n      swap1\n      dup2\n      dup2\n      mstore\n      0x20\n      add\n      dup3\n      dup1\n      sload\n      tag_116\n      swap1\n      tag_96\n      jump\t// in\n    tag_116:\n      dup1\n      iszero\n      tag_117\n      jumpi\n      dup1\n      0x1f\n      lt\n      tag_118\n      jumpi\n      0x0100\n      dup1\n      dup4\n      sload\n      div\n      mul\n      dup4\n      mstore\n      swap2\n      0x20\n      add\n      swap2\n      jump(tag_117)\n    tag_118:\n      dup3\n      add\n      swap2\n      swap1\n      0x00\n      mstore\n      keccak256(0x00, 0x20)\n      swap1\n    tag_119:\n      dup2\n      sload\n      dup2\n      mstore\n      swap1\n      0x01\n      add\n      swap1\n      0x20\n      add\n      dup1\n      dup4\n      gt\n      tag_119\n      jumpi\n      dup3\n      swap1\n      sub\n      0x1f\n      and\n      dup3\n      add\n      swap2\n    tag_117:\n      pop\n      pop\n      pop\n      pop\n      pop\n      swap1\n      dup1\n      0x01\n      add\n      dup1\n      sload\n      tag_120\n      swap1\n      tag_96\n      jump\t// in\n    tag_120:\n      dup1\n      0x1f\n      add\n      0x20\n      dup1\n      swap2\n      div\n      mul\n      0x20\n      add\n      mload(0x40)\n      swap1\n      dup2\n      add\n      0x40\n      mstore\n      dup1\n      swap3\n      swap2\n      swap1\n      dup2\n      dup2\n      mstore\n      0x20\n      add\n      dup3\n      dup1\n      sload\n      tag_121\n      swap1\n      tag_96\n      jump\t// in\n    tag_121:\n      dup1\n      iszero\n      tag_122\n      jumpi\n      dup1\n      0x1f\n      lt\n      tag_123\n      jumpi\n      0x0100\n      dup1\n      dup4\n      sload\n      div\n      mul\n      dup4\n      mstore\n      swap2\n      0x20\n      add\n      swap2\n      jump(tag_122)\n    tag_123:\n      dup3\n      add\n      swap2\n      swap1\n      0x00\n      mstore\n      keccak256(0x00, 0x20)\n      swap1\n    tag_124:\n      dup2\n      sload\n      dup2\n      mstore\n      swap1\n      0x01\n      add\n      swap1\n      0x20\n      add\n      dup1\n      dup4\n      gt\n      tag_124\n      jumpi\n      dup3\n      swap1\n      sub\n      0x1f\n      and\n      dup3\n      add\n      swap2\n    tag_122:\n      pop\n      pop\n      pop\n      pop\n      pop\n      swap1\n      pop\n      dup3\n      jump\t// out\n        /* \"contracts/MyContract.sol\":642:694  MyStruct public myStruct = MyStruct(1, \"Ola Mundo!\") */\n    tag_71:\n      0x0a\n      dup1\n      0x00\n      add\n      sload\n      swap1\n      dup1\n      0x01\n      add\n      dup1\n      sload\n      tag_125\n      swap1\n      tag_96\n      jump\t// in\n    tag_125:\n      dup1\n      0x1f\n      add\n      0x20\n      dup1\n      swap2\n      div\n      mul\n      0x20\n      add\n      mload(0x40)\n      swap1\n      dup2\n      add\n      0x40\n      mstore\n      dup1\n      swap3\n      swap2\n      swap1\n      dup2\n      dup2\n      mstore\n      0x20\n      add\n      dup3\n      dup1\n      sload\n      tag_126\n      swap1\n      tag_96\n      jump\t// in\n    tag_126:\n      dup1\n      iszero\n      tag_127\n      jumpi\n      dup1\n      0x1f\n      lt\n      tag_128\n      jumpi\n      0x0100\n      dup1\n      dup4\n      sload\n      div\n      mul\n      dup4\n      mstore\n      swap2\n      0x20\n      add\n      swap2\n      jump(tag_127)\n    tag_128:\n      dup3\n      add\n      swap2\n      swap1\n      0x00\n      mstore\n      keccak256(0x00, 0x20)\n      swap1\n    tag_129:\n      dup2\n      sload\n      dup2\n      mstore\n      swap1\n      0x01\n      add\n      swap1\n      0x20\n      add\n      dup1\n      dup4\n      gt\n      tag_129\n      jumpi\n      dup3\n      swap1\n      sub\n      0x1f\n      and\n      dup3\n      add\n      swap2\n    tag_127:\n      pop\n      pop\n      pop\n      pop\n      pop\n      swap1\n      pop\n      dup3\n      jump\t// out\n        /* \"contracts/MyContract.sol\":101:134  uint[] public uintArray = [1,2,3] */\n    tag_76:\n      0x00\n      dup2\n      dup2\n      sload\n      dup2\n      lt\n      tag_130\n      jumpi\n      0x00\n      dup1\n      revert\n    tag_130:\n      swap1\n      0x00\n      mstore\n      keccak256(0x00, 0x20)\n      add\n      0x00\n      swap2\n      pop\n      swap1\n      pop\n      sload\n      dup2\n      jump\t// out\n        /* \"contracts/MyContract.sol\":359:388  uint256 public myUint256  = 1 */\n    tag_79:\n      sload(0x05)\n      dup2\n      jump\t// out\n        /* \"contracts/MyContract.sol\":236:287  uint256[][] public array2D = [[1, 2, 3], [4, 5, 6]] */\n    tag_84:\n      0x03\n      dup3\n      dup2\n      sload\n      dup2\n      lt\n      tag_132\n      jumpi\n      0x00\n      dup1\n      revert\n    tag_132:\n      swap1\n      0x00\n      mstore\n      keccak256(0x00, 0x20)\n      add\n      dup2\n      dup2\n      sload\n      dup2\n      lt\n      tag_134\n      jumpi\n      0x00\n      dup1\n      revert\n    tag_134:\n      swap1\n      0x00\n      mstore\n      keccak256(0x00, 0x20)\n      add\n      0x00\n      swap2\n      pop\n      swap2\n      pop\n      pop\n      sload\n      dup2\n      jump\t// out\n    tag_88:\n      dup3\n      dup1\n      sload\n      tag_136\n      swap1\n      tag_96\n      jump\t// in\n    tag_136:\n      swap1\n      0x00\n      mstore\n      keccak256(0x00, 0x20)\n      swap1\n      0x1f\n      add\n      0x20\n      swap1\n      div\n      dup2\n      add\n      swap3\n      dup3\n      tag_138\n      jumpi\n      0x00\n      dup6\n      sstore\n      jump(tag_137)\n    tag_138:\n      dup3\n      0x1f\n      lt\n      tag_139\n      jumpi\n      dup1\n      mload\n      not(0xff)\n      and\n      dup4\n      dup1\n      add\n      or\n      dup6\n      sstore\n      jump(tag_137)\n    tag_139:\n      dup3\n      dup1\n      add\n      0x01\n      add\n      dup6\n      sstore\n      dup3\n      iszero\n      tag_137\n      jumpi\n      swap2\n      dup3\n      add\n    tag_140:\n      dup3\n      dup2\n      gt\n      iszero\n      tag_141\n      jumpi\n      dup3\n      mload\n      dup3\n      sstore\n      swap2\n      0x20\n      add\n      swap2\n      swap1\n      0x01\n      add\n      swap1\n      jump(tag_140)\n    tag_141:\n    tag_137:\n      pop\n      swap1\n      pop\n      tag_142\n      swap2\n      swap1\n      tag_143\n      jump\t// in\n    tag_142:\n      pop\n      swap1\n      jump\t// out\n    tag_143:\n    tag_144:\n      dup1\n      dup3\n      gt\n      iszero\n      tag_145\n      jumpi\n      0x00\n      dup2\n      0x00\n      swap1\n      sstore\n      pop\n      0x01\n      add\n      jump(tag_144)\n    tag_145:\n      pop\n      swap1\n      jump\t// out\n        /* \"#utility.yul\":7:419   */\n    tag_147:\n        /* \"#utility.yul\":85:90   */\n      0x00\n        /* \"#utility.yul\":110:176   */\n      tag_149\n        /* \"#utility.yul\":126:175   */\n      tag_150\n        /* \"#utility.yul\":168:174   */\n      dup5\n        /* \"#utility.yul\":126:175   */\n      tag_151\n      jump\t// in\n    tag_150:\n        /* \"#utility.yul\":110:176   */\n      tag_152\n      jump\t// in\n    tag_149:\n        /* \"#utility.yul\":101:176   */\n      swap1\n      pop\n        /* \"#utility.yul\":199:205   */\n      dup3\n        /* \"#utility.yul\":192:197   */\n      dup2\n        /* \"#utility.yul\":185:206   */\n      mstore\n        /* \"#utility.yul\":237:241   */\n      0x20\n        /* \"#utility.yul\":230:235   */\n      dup2\n        /* \"#utility.yul\":226:242   */\n      add\n        /* \"#utility.yul\":275:278   */\n      dup5\n        /* \"#utility.yul\":266:272   */\n      dup5\n        /* \"#utility.yul\":261:264   */\n      dup5\n        /* \"#utility.yul\":257:273   */\n      add\n        /* \"#utility.yul\":254:279   */\n      gt\n        /* \"#utility.yul\":251:363   */\n      iszero\n      tag_153\n      jumpi\n        /* \"#utility.yul\":282:361   */\n      tag_154\n      tag_155\n      jump\t// in\n    tag_154:\n        /* \"#utility.yul\":251:363   */\n    tag_153:\n        /* \"#utility.yul\":372:413   */\n      tag_156\n        /* \"#utility.yul\":406:412   */\n      dup5\n        /* \"#utility.yul\":401:404   */\n      dup3\n        /* \"#utility.yul\":396:399   */\n      dup6\n        /* \"#utility.yul\":372:413   */\n      tag_157\n      jump\t// in\n    tag_156:\n        /* \"#utility.yul\":91:419   */\n      pop\n        /* \"#utility.yul\":7:419   */\n      swap4\n      swap3\n      pop\n      pop\n      pop\n      jump\t// out\n        /* \"#utility.yul\":439:779   */\n    tag_158:\n        /* \"#utility.yul\":495:500   */\n      0x00\n        /* \"#utility.yul\":544:547   */\n      dup3\n        /* \"#utility.yul\":537:541   */\n      0x1f\n        /* \"#utility.yul\":529:535   */\n      dup4\n        /* \"#utility.yul\":525:542   */\n      add\n        /* \"#utility.yul\":521:548   */\n      slt\n        /* \"#utility.yul\":511:633   */\n      tag_160\n      jumpi\n        /* \"#utility.yul\":552:631   */\n      tag_161\n      tag_162\n      jump\t// in\n    tag_161:\n        /* \"#utility.yul\":511:633   */\n    tag_160:\n        /* \"#utility.yul\":669:675   */\n      dup2\n        /* \"#utility.yul\":656:676   */\n      calldataload\n        /* \"#utility.yul\":694:773   */\n      tag_163\n        /* \"#utility.yul\":769:772   */\n      dup5\n        /* \"#utility.yul\":761:767   */\n      dup3\n        /* \"#utility.yul\":754:758   */\n      0x20\n        /* \"#utility.yul\":746:752   */\n      dup7\n        /* \"#utility.yul\":742:759   */\n      add\n        /* \"#utility.yul\":694:773   */\n      tag_147\n      jump\t// in\n    tag_163:\n        /* \"#utility.yul\":685:773   */\n      swap2\n      pop\n        /* \"#utility.yul\":501:779   */\n      pop\n        /* \"#utility.yul\":439:779   */\n      swap3\n      swap2\n      pop\n      pop\n      jump\t// out\n        /* \"#utility.yul\":785:924   */\n    tag_164:\n        /* \"#utility.yul\":831:836   */\n      0x00\n        /* \"#utility.yul\":869:875   */\n      dup2\n        /* \"#utility.yul\":856:876   */\n      calldataload\n        /* \"#utility.yul\":847:876   */\n      swap1\n      pop\n        /* \"#utility.yul\":885:918   */\n      tag_166\n        /* \"#utility.yul\":912:917   */\n      dup2\n        /* \"#utility.yul\":885:918   */\n      tag_167\n      jump\t// in\n    tag_166:\n        /* \"#utility.yul\":785:924   */\n      swap3\n      swap2\n      pop\n      pop\n      jump\t// out\n        /* \"#utility.yul\":930:1439   */\n    tag_46:\n        /* \"#utility.yul\":999:1005   */\n      0x00\n        /* \"#utility.yul\":1048:1050   */\n      0x20\n        /* \"#utility.yul\":1036:1045   */\n      dup3\n        /* \"#utility.yul\":1027:1034   */\n      dup5\n        /* \"#utility.yul\":1023:1046   */\n      sub\n        /* \"#utility.yul\":1019:1051   */\n      slt\n        /* \"#utility.yul\":1016:1135   */\n      iszero\n      tag_169\n      jumpi\n        /* \"#utility.yul\":1054:1133   */\n      tag_170\n      tag_171\n      jump\t// in\n    tag_170:\n        /* \"#utility.yul\":1016:1135   */\n    tag_169:\n        /* \"#utility.yul\":1202:1203   */\n      0x00\n        /* \"#utility.yul\":1191:1200   */\n      dup3\n        /* \"#utility.yul\":1187:1204   */\n      add\n        /* \"#utility.yul\":1174:1205   */\n      calldataload\n        /* \"#utility.yul\":1232:1250   */\n      0xffffffffffffffff\n        /* \"#utility.yul\":1224:1230   */\n      dup2\n        /* \"#utility.yul\":1221:1251   */\n      gt\n        /* \"#utility.yul\":1218:1335   */\n      iszero\n      tag_172\n      jumpi\n        /* \"#utility.yul\":1254:1333   */\n      tag_173\n      tag_174\n      jump\t// in\n    tag_173:\n        /* \"#utility.yul\":1218:1335   */\n    tag_172:\n        /* \"#utility.yul\":1359:1422   */\n      tag_175\n        /* \"#utility.yul\":1414:1421   */\n      dup5\n        /* \"#utility.yul\":1405:1411   */\n      dup3\n        /* \"#utility.yul\":1394:1403   */\n      dup6\n        /* \"#utility.yul\":1390:1412   */\n      add\n        /* \"#utility.yul\":1359:1422   */\n      tag_158\n      jump\t// in\n    tag_175:\n        /* \"#utility.yul\":1349:1422   */\n      swap2\n      pop\n        /* \"#utility.yul\":1145:1432   */\n      pop\n        /* \"#utility.yul\":930:1439   */\n      swap3\n      swap2\n      pop\n      pop\n      jump\t// out\n        /* \"#utility.yul\":1445:1774   */\n    tag_58:\n        /* \"#utility.yul\":1504:1510   */\n      0x00\n        /* \"#utility.yul\":1553:1555   */\n      0x20\n        /* \"#utility.yul\":1541:1550   */\n      dup3\n        /* \"#utility.yul\":1532:1539   */\n      dup5\n        /* \"#utility.yul\":1528:1551   */\n      sub\n        /* \"#utility.yul\":1524:1556   */\n      slt\n        /* \"#utility.yul\":1521:1640   */\n      iszero\n      tag_177\n      jumpi\n        /* \"#utility.yul\":1559:1638   */\n      tag_178\n      tag_171\n      jump\t// in\n    tag_178:\n        /* \"#utility.yul\":1521:1640   */\n    tag_177:\n        /* \"#utility.yul\":1679:1680   */\n      0x00\n        /* \"#utility.yul\":1704:1757   */\n      tag_179\n        /* \"#utility.yul\":1749:1756   */\n      dup5\n        /* \"#utility.yul\":1740:1746   */\n      dup3\n        /* \"#utility.yul\":1729:1738   */\n      dup6\n        /* \"#utility.yul\":1725:1747   */\n      add\n        /* \"#utility.yul\":1704:1757   */\n      tag_164\n      jump\t// in\n    tag_179:\n        /* \"#utility.yul\":1694:1757   */\n      swap2\n      pop\n        /* \"#utility.yul\":1650:1767   */\n      pop\n        /* \"#utility.yul\":1445:1774   */\n      swap3\n      swap2\n      pop\n      pop\n      jump\t// out\n        /* \"#utility.yul\":1780:2759   */\n    tag_24:\n        /* \"#utility.yul\":1877:1883   */\n      0x00\n        /* \"#utility.yul\":1885:1891   */\n      dup1\n        /* \"#utility.yul\":1893:1899   */\n      0x00\n        /* \"#utility.yul\":1942:1944   */\n      0x60\n        /* \"#utility.yul\":1930:1939   */\n      dup5\n        /* \"#utility.yul\":1921:1928   */\n      dup7\n        /* \"#utility.yul\":1917:1940   */\n      sub\n        /* \"#utility.yul\":1913:1945   */\n      slt\n        /* \"#utility.yul\":1910:2029   */\n      iszero\n      tag_181\n      jumpi\n        /* \"#utility.yul\":1948:2027   */\n      tag_182\n      tag_171\n      jump\t// in\n    tag_182:\n        /* \"#utility.yul\":1910:2029   */\n    tag_181:\n        /* \"#utility.yul\":2068:2069   */\n      0x00\n        /* \"#utility.yul\":2093:2146   */\n      tag_183\n        /* \"#utility.yul\":2138:2145   */\n      dup7\n        /* \"#utility.yul\":2129:2135   */\n      dup3\n        /* \"#utility.yul\":2118:2127   */\n      dup8\n        /* \"#utility.yul\":2114:2136   */\n      add\n        /* \"#utility.yul\":2093:2146   */\n      tag_164\n      jump\t// in\n    tag_183:\n        /* \"#utility.yul\":2083:2146   */\n      swap4\n      pop\n        /* \"#utility.yul\":2039:2156   */\n      pop\n        /* \"#utility.yul\":2223:2225   */\n      0x20\n        /* \"#utility.yul\":2212:2221   */\n      dup5\n        /* \"#utility.yul\":2208:2226   */\n      add\n        /* \"#utility.yul\":2195:2227   */\n      calldataload\n        /* \"#utility.yul\":2254:2272   */\n      0xffffffffffffffff\n        /* \"#utility.yul\":2246:2252   */\n      dup2\n        /* \"#utility.yul\":2243:2273   */\n      gt\n        /* \"#utility.yul\":2240:2357   */\n      iszero\n      tag_184\n      jumpi\n        /* \"#utility.yul\":2276:2355   */\n      tag_185\n      tag_174\n      jump\t// in\n    tag_185:\n        /* \"#utility.yul\":2240:2357   */\n    tag_184:\n        /* \"#utility.yul\":2381:2444   */\n      tag_186\n        /* \"#utility.yul\":2436:2443   */\n      dup7\n        /* \"#utility.yul\":2427:2433   */\n      dup3\n        /* \"#utility.yul\":2416:2425   */\n      dup8\n        /* \"#utility.yul\":2412:2434   */\n      add\n        /* \"#utility.yul\":2381:2444   */\n      tag_158\n      jump\t// in\n    tag_186:\n        /* \"#utility.yul\":2371:2444   */\n      swap3\n      pop\n        /* \"#utility.yul\":2166:2454   */\n      pop\n        /* \"#utility.yul\":2521:2523   */\n      0x40\n        /* \"#utility.yul\":2510:2519   */\n      dup5\n        /* \"#utility.yul\":2506:2524   */\n      add\n        /* \"#utility.yul\":2493:2525   */\n      calldataload\n        /* \"#utility.yul\":2552:2570   */\n      0xffffffffffffffff\n        /* \"#utility.yul\":2544:2550   */\n      dup2\n        /* \"#utility.yul\":2541:2571   */\n      gt\n        /* \"#utility.yul\":2538:2655   */\n      iszero\n      tag_187\n      jumpi\n        /* \"#utility.yul\":2574:2653   */\n      tag_188\n      tag_174\n      jump\t// in\n    tag_188:\n        /* \"#utility.yul\":2538:2655   */\n    tag_187:\n        /* \"#utility.yul\":2679:2742   */\n      tag_189\n        /* \"#utility.yul\":2734:2741   */\n      dup7\n        /* \"#utility.yul\":2725:2731   */\n      dup3\n        /* \"#utility.yul\":2714:2723   */\n      dup8\n        /* \"#utility.yul\":2710:2732   */\n      add\n        /* \"#utility.yul\":2679:2742   */\n      tag_158\n      jump\t// in\n    tag_189:\n        /* \"#utility.yul\":2669:2742   */\n      swap2\n      pop\n        /* \"#utility.yul\":2464:2752   */\n      pop\n        /* \"#utility.yul\":1780:2759   */\n      swap3\n      pop\n      swap3\n      pop\n      swap3\n      jump\t// out\n        /* \"#utility.yul\":2765:3239   */\n    tag_83:\n        /* \"#utility.yul\":2833:2839   */\n      0x00\n        /* \"#utility.yul\":2841:2847   */\n      dup1\n        /* \"#utility.yul\":2890:2892   */\n      0x40\n        /* \"#utility.yul\":2878:2887   */\n      dup4\n        /* \"#utility.yul\":2869:2876   */\n      dup6\n        /* \"#utility.yul\":2865:2888   */\n      sub\n        /* \"#utility.yul\":2861:2893   */\n      slt\n        /* \"#utility.yul\":2858:2977   */\n      iszero\n      tag_191\n      jumpi\n        /* \"#utility.yul\":2896:2975   */\n      tag_192\n      tag_171\n      jump\t// in\n    tag_192:\n        /* \"#utility.yul\":2858:2977   */\n    tag_191:\n        /* \"#utility.yul\":3016:3017   */\n      0x00\n        /* \"#utility.yul\":3041:3094   */\n      tag_193\n        /* \"#utility.yul\":3086:3093   */\n      dup6\n        /* \"#utility.yul\":3077:3083   */\n      dup3\n        /* \"#utility.yul\":3066:3075   */\n      dup7\n        /* \"#utility.yul\":3062:3084   */\n      add\n        /* \"#utility.yul\":3041:3094   */\n      tag_164\n      jump\t// in\n    tag_193:\n        /* \"#utility.yul\":3031:3094   */\n      swap3\n      pop\n        /* \"#utility.yul\":2987:3104   */\n      pop\n        /* \"#utility.yul\":3143:3145   */\n      0x20\n        /* \"#utility.yul\":3169:3222   */\n      tag_194\n        /* \"#utility.yul\":3214:3221   */\n      dup6\n        /* \"#utility.yul\":3205:3211   */\n      dup3\n        /* \"#utility.yul\":3194:3203   */\n      dup7\n        /* \"#utility.yul\":3190:3212   */\n      add\n        /* \"#utility.yul\":3169:3222   */\n      tag_164\n      jump\t// in\n    tag_194:\n        /* \"#utility.yul\":3159:3222   */\n      swap2\n      pop\n        /* \"#utility.yul\":3114:3232   */\n      pop\n        /* \"#utility.yul\":2765:3239   */\n      swap3\n      pop\n      swap3\n      swap1\n      pop\n      jump\t// out\n        /* \"#utility.yul\":3245:3363   */\n    tag_195:\n        /* \"#utility.yul\":3332:3356   */\n      tag_197\n        /* \"#utility.yul\":3350:3355   */\n      dup2\n        /* \"#utility.yul\":3332:3356   */\n      tag_198\n      jump\t// in\n    tag_197:\n        /* \"#utility.yul\":3327:3330   */\n      dup3\n        /* \"#utility.yul\":3320:3357   */\n      mstore\n        /* \"#utility.yul\":3245:3363   */\n      pop\n      pop\n      jump\t// out\n        /* \"#utility.yul\":3369:3487   */\n    tag_199:\n        /* \"#utility.yul\":3456:3480   */\n      tag_201\n        /* \"#utility.yul\":3474:3479   */\n      dup2\n        /* \"#utility.yul\":3456:3480   */\n      tag_202\n      jump\t// in\n    tag_201:\n        /* \"#utility.yul\":3451:3454   */\n      dup3\n        /* \"#utility.yul\":3444:3481   */\n      mstore\n        /* \"#utility.yul\":3369:3487   */\n      pop\n      pop\n      jump\t// out\n        /* \"#utility.yul\":3493:3608   */\n    tag_203:\n        /* \"#utility.yul\":3578:3601   */\n      tag_205\n        /* \"#utility.yul\":3595:3600   */\n      dup2\n        /* \"#utility.yul\":3578:3601   */\n      tag_206\n      jump\t// in\n    tag_205:\n        /* \"#utility.yul\":3573:3576   */\n      dup3\n        /* \"#utility.yul\":3566:3602   */\n      mstore\n        /* \"#utility.yul\":3493:3608   */\n      pop\n      pop\n      jump\t// out\n        /* \"#utility.yul\":3614:3978   */\n    tag_207:\n        /* \"#utility.yul\":3702:3705   */\n      0x00\n        /* \"#utility.yul\":3730:3769   */\n      tag_209\n        /* \"#utility.yul\":3763:3768   */\n      dup3\n        /* \"#utility.yul\":3730:3769   */\n      tag_210\n      jump\t// in\n    tag_209:\n        /* \"#utility.yul\":3785:3856   */\n      tag_211\n        /* \"#utility.yul\":3849:3855   */\n      dup2\n        /* \"#utility.yul\":3844:3847   */\n      dup6\n        /* \"#utility.yul\":3785:3856   */\n      tag_212\n      jump\t// in\n    tag_211:\n        /* \"#utility.yul\":3778:3856   */\n      swap4\n      pop\n        /* \"#utility.yul\":3865:3917   */\n      tag_213\n        /* \"#utility.yul\":3910:3916   */\n      dup2\n        /* \"#utility.yul\":3905:3908   */\n      dup6\n        /* \"#utility.yul\":3898:3902   */\n      0x20\n        /* \"#utility.yul\":3891:3896   */\n      dup7\n        /* \"#utility.yul\":3887:3903   */\n      add\n        /* \"#utility.yul\":3865:3917   */\n      tag_214\n      jump\t// in\n    tag_213:\n        /* \"#utility.yul\":3942:3971   */\n      tag_215\n        /* \"#utility.yul\":3964:3970   */\n      dup2\n        /* \"#utility.yul\":3942:3971   */\n      tag_216\n      jump\t// in\n    tag_215:\n        /* \"#utility.yul\":3937:3940   */\n      dup5\n        /* \"#utility.yul\":3933:3972   */\n      add\n        /* \"#utility.yul\":3926:3972   */\n      swap2\n      pop\n        /* \"#utility.yul\":3706:3978   */\n      pop\n        /* \"#utility.yul\":3614:3978   */\n      swap3\n      swap2\n      pop\n      pop\n      jump\t// out\n        /* \"#utility.yul\":3984:4102   */\n    tag_217:\n        /* \"#utility.yul\":4071:4095   */\n      tag_219\n        /* \"#utility.yul\":4089:4094   */\n      dup2\n        /* \"#utility.yul\":4071:4095   */\n      tag_220\n      jump\t// in\n    tag_219:\n        /* \"#utility.yul\":4066:4069   */\n      dup3\n        /* \"#utility.yul\":4059:4096   */\n      mstore\n        /* \"#utility.yul\":3984:4102   */\n      pop\n      pop\n      jump\t// out\n        /* \"#utility.yul\":4108:4330   */\n    tag_36:\n        /* \"#utility.yul\":4201:4205   */\n      0x00\n        /* \"#utility.yul\":4239:4241   */\n      0x20\n        /* \"#utility.yul\":4228:4237   */\n      dup3\n        /* \"#utility.yul\":4224:4242   */\n      add\n        /* \"#utility.yul\":4216:4242   */\n      swap1\n      pop\n        /* \"#utility.yul\":4252:4323   */\n      tag_222\n        /* \"#utility.yul\":4320:4321   */\n      0x00\n        /* \"#utility.yul\":4309:4318   */\n      dup4\n        /* \"#utility.yul\":4305:4322   */\n      add\n        /* \"#utility.yul\":4296:4302   */\n      dup5\n        /* \"#utility.yul\":4252:4323   */\n      tag_195\n      jump\t// in\n    tag_222:\n        /* \"#utility.yul\":4108:4330   */\n      swap3\n      swap2\n      pop\n      pop\n      jump\t// out\n        /* \"#utility.yul\":4336:4558   */\n    tag_55:\n        /* \"#utility.yul\":4429:4433   */\n      0x00\n        /* \"#utility.yul\":4467:4469   */\n      0x20\n        /* \"#utility.yul\":4456:4465   */\n      dup3\n        /* \"#utility.yul\":4452:4470   */\n      add\n        /* \"#utility.yul\":4444:4470   */\n      swap1\n      pop\n        /* \"#utility.yul\":4480:4551   */\n      tag_224\n        /* \"#utility.yul\":4548:4549   */\n      0x00\n        /* \"#utility.yul\":4537:4546   */\n      dup4\n        /* \"#utility.yul\":4533:4550   */\n      add\n        /* \"#utility.yul\":4524:4530   */\n      dup5\n        /* \"#utility.yul\":4480:4551   */\n      tag_199\n      jump\t// in\n    tag_224:\n        /* \"#utility.yul\":4336:4558   */\n      swap3\n      swap2\n      pop\n      pop\n      jump\t// out\n        /* \"#utility.yul\":4564:4782   */\n    tag_43:\n        /* \"#utility.yul\":4655:4659   */\n      0x00\n        /* \"#utility.yul\":4693:4695   */\n      0x20\n        /* \"#utility.yul\":4682:4691   */\n      dup3\n        /* \"#utility.yul\":4678:4696   */\n      add\n        /* \"#utility.yul\":4670:4696   */\n      swap1\n      pop\n        /* \"#utility.yul\":4706:4775   */\n      tag_226\n        /* \"#utility.yul\":4772:4773   */\n      0x00\n        /* \"#utility.yul\":4761:4770   */\n      dup4\n        /* \"#utility.yul\":4757:4774   */\n      add\n        /* \"#utility.yul\":4748:4754   */\n      dup5\n        /* \"#utility.yul\":4706:4775   */\n      tag_203\n      jump\t// in\n    tag_226:\n        /* \"#utility.yul\":4564:4782   */\n      swap3\n      swap2\n      pop\n      pop\n      jump\t// out\n        /* \"#utility.yul\":4788:5101   */\n    tag_51:\n        /* \"#utility.yul\":4901:4905   */\n      0x00\n        /* \"#utility.yul\":4939:4941   */\n      0x20\n        /* \"#utility.yul\":4928:4937   */\n      dup3\n        /* \"#utility.yul\":4924:4942   */\n      add\n        /* \"#utility.yul\":4916:4942   */\n      swap1\n      pop\n        /* \"#utility.yul\":4988:4997   */\n      dup2\n        /* \"#utility.yul\":4982:4986   */\n      dup2\n        /* \"#utility.yul\":4978:4998   */\n      sub\n        /* \"#utility.yul\":4974:4975   */\n      0x00\n        /* \"#utility.yul\":4963:4972   */\n      dup4\n        /* \"#utility.yul\":4959:4976   */\n      add\n        /* \"#utility.yul\":4952:4999   */\n      mstore\n        /* \"#utility.yul\":5016:5094   */\n      tag_228\n        /* \"#utility.yul\":5089:5093   */\n      dup2\n        /* \"#utility.yul\":5080:5086   */\n      dup5\n        /* \"#utility.yul\":5016:5094   */\n      tag_207\n      jump\t// in\n    tag_228:\n        /* \"#utility.yul\":5008:5094   */\n      swap1\n      pop\n        /* \"#utility.yul\":4788:5101   */\n      swap3\n      swap2\n      pop\n      pop\n      jump\t// out\n        /* \"#utility.yul\":5107:5621   */\n    tag_69:\n        /* \"#utility.yul\":5268:5272   */\n      0x00\n        /* \"#utility.yul\":5306:5308   */\n      0x40\n        /* \"#utility.yul\":5295:5304   */\n      dup3\n        /* \"#utility.yul\":5291:5309   */\n      add\n        /* \"#utility.yul\":5283:5309   */\n      swap1\n      pop\n        /* \"#utility.yul\":5355:5364   */\n      dup2\n        /* \"#utility.yul\":5349:5353   */\n      dup2\n        /* \"#utility.yul\":5345:5365   */\n      sub\n        /* \"#utility.yul\":5341:5342   */\n      0x00\n        /* \"#utility.yul\":5330:5339   */\n      dup4\n        /* \"#utility.yul\":5326:5343   */\n      add\n        /* \"#utility.yul\":5319:5366   */\n      mstore\n        /* \"#utility.yul\":5383:5461   */\n      tag_230\n        /* \"#utility.yul\":5456:5460   */\n      dup2\n        /* \"#utility.yul\":5447:5453   */\n      dup6\n        /* \"#utility.yul\":5383:5461   */\n      tag_207\n      jump\t// in\n    tag_230:\n        /* \"#utility.yul\":5375:5461   */\n      swap1\n      pop\n        /* \"#utility.yul\":5508:5517   */\n      dup2\n        /* \"#utility.yul\":5502:5506   */\n      dup2\n        /* \"#utility.yul\":5498:5518   */\n      sub\n        /* \"#utility.yul\":5493:5495   */\n      0x20\n        /* \"#utility.yul\":5482:5491   */\n      dup4\n        /* \"#utility.yul\":5478:5496   */\n      add\n        /* \"#utility.yul\":5471:5519   */\n      mstore\n        /* \"#utility.yul\":5536:5614   */\n      tag_231\n        /* \"#utility.yul\":5609:5613   */\n      dup2\n        /* \"#utility.yul\":5600:5606   */\n      dup5\n        /* \"#utility.yul\":5536:5614   */\n      tag_207\n      jump\t// in\n    tag_231:\n        /* \"#utility.yul\":5528:5614   */\n      swap1\n      pop\n        /* \"#utility.yul\":5107:5621   */\n      swap4\n      swap3\n      pop\n      pop\n      pop\n      jump\t// out\n        /* \"#utility.yul\":5627:5849   */\n    tag_29:\n        /* \"#utility.yul\":5720:5724   */\n      0x00\n        /* \"#utility.yul\":5758:5760   */\n      0x20\n        /* \"#utility.yul\":5747:5756   */\n      dup3\n        /* \"#utility.yul\":5743:5761   */\n      add\n        /* \"#utility.yul\":5735:5761   */\n      swap1\n      pop\n        /* \"#utility.yul\":5771:5842   */\n      tag_233\n        /* \"#utility.yul\":5839:5840   */\n      0x00\n        /* \"#utility.yul\":5828:5837   */\n      dup4\n        /* \"#utility.yul\":5824:5841   */\n      add\n        /* \"#utility.yul\":5815:5821   */\n      dup5\n        /* \"#utility.yul\":5771:5842   */\n      tag_217\n      jump\t// in\n    tag_233:\n        /* \"#utility.yul\":5627:5849   */\n      swap3\n      swap2\n      pop\n      pop\n      jump\t// out\n        /* \"#utility.yul\":5855:6278   */\n    tag_73:\n        /* \"#utility.yul\":5996:6000   */\n      0x00\n        /* \"#utility.yul\":6034:6036   */\n      0x40\n        /* \"#utility.yul\":6023:6032   */\n      dup3\n        /* \"#utility.yul\":6019:6037   */\n      add\n        /* \"#utility.yul\":6011:6037   */\n      swap1\n      pop\n        /* \"#utility.yul\":6047:6118   */\n      tag_235\n        /* \"#utility.yul\":6115:6116   */\n      0x00\n        /* \"#utility.yul\":6104:6113   */\n      dup4\n        /* \"#utility.yul\":6100:6117   */\n      add\n        /* \"#utility.yul\":6091:6097   */\n      dup6\n        /* \"#utility.yul\":6047:6118   */\n      tag_217\n      jump\t// in\n    tag_235:\n        /* \"#utility.yul\":6165:6174   */\n      dup2\n        /* \"#utility.yul\":6159:6163   */\n      dup2\n        /* \"#utility.yul\":6155:6175   */\n      sub\n        /* \"#utility.yul\":6150:6152   */\n      0x20\n        /* \"#utility.yul\":6139:6148   */\n      dup4\n        /* \"#utility.yul\":6135:6153   */\n      add\n        /* \"#utility.yul\":6128:6176   */\n      mstore\n        /* \"#utility.yul\":6193:6271   */\n      tag_236\n        /* \"#utility.yul\":6266:6270   */\n      dup2\n        /* \"#utility.yul\":6257:6263   */\n      dup5\n        /* \"#utility.yul\":6193:6271   */\n      tag_207\n      jump\t// in\n    tag_236:\n        /* \"#utility.yul\":6185:6271   */\n      swap1\n      pop\n        /* \"#utility.yul\":5855:6278   */\n      swap4\n      swap3\n      pop\n      pop\n      pop\n      jump\t// out\n        /* \"#utility.yul\":6284:6413   */\n    tag_152:\n        /* \"#utility.yul\":6318:6324   */\n      0x00\n        /* \"#utility.yul\":6345:6365   */\n      tag_238\n      tag_239\n      jump\t// in\n    tag_238:\n        /* \"#utility.yul\":6335:6365   */\n      swap1\n      pop\n        /* \"#utility.yul\":6374:6407   */\n      tag_240\n        /* \"#utility.yul\":6402:6406   */\n      dup3\n        /* \"#utility.yul\":6394:6400   */\n      dup3\n        /* \"#utility.yul\":6374:6407   */\n      tag_241\n      jump\t// in\n    tag_240:\n        /* \"#utility.yul\":6284:6413   */\n      swap2\n      swap1\n      pop\n      jump\t// out\n        /* \"#utility.yul\":6419:6494   */\n    tag_239:\n        /* \"#utility.yul\":6452:6458   */\n      0x00\n        /* \"#utility.yul\":6485:6487   */\n      0x40\n        /* \"#utility.yul\":6479:6488   */\n      mload\n        /* \"#utility.yul\":6469:6488   */\n      swap1\n      pop\n        /* \"#utility.yul\":6419:6494   */\n      swap1\n      jump\t// out\n        /* \"#utility.yul\":6500:6808   */\n    tag_151:\n        /* \"#utility.yul\":6562:6566   */\n      0x00\n        /* \"#utility.yul\":6652:6670   */\n      0xffffffffffffffff\n        /* \"#utility.yul\":6644:6650   */\n      dup3\n        /* \"#utility.yul\":6641:6671   */\n      gt\n        /* \"#utility.yul\":6638:6694   */\n      iszero\n      tag_244\n      jumpi\n        /* \"#utility.yul\":6674:6692   */\n      tag_245\n      tag_246\n      jump\t// in\n    tag_245:\n        /* \"#utility.yul\":6638:6694   */\n    tag_244:\n        /* \"#utility.yul\":6712:6741   */\n      tag_247\n        /* \"#utility.yul\":6734:6740   */\n      dup3\n        /* \"#utility.yul\":6712:6741   */\n      tag_216\n      jump\t// in\n    tag_247:\n        /* \"#utility.yul\":6704:6741   */\n      swap1\n      pop\n        /* \"#utility.yul\":6796:6800   */\n      0x20\n        /* \"#utility.yul\":6790:6794   */\n      dup2\n        /* \"#utility.yul\":6786:6801   */\n      add\n        /* \"#utility.yul\":6778:6801   */\n      swap1\n      pop\n        /* \"#utility.yul\":6500:6808   */\n      swap2\n      swap1\n      pop\n      jump\t// out\n        /* \"#utility.yul\":6814:6913   */\n    tag_210:\n        /* \"#utility.yul\":6866:6872   */\n      0x00\n        /* \"#utility.yul\":6900:6905   */\n      dup2\n        /* \"#utility.yul\":6894:6906   */\n      mload\n        /* \"#utility.yul\":6884:6906   */\n      swap1\n      pop\n        /* \"#utility.yul\":6814:6913   */\n      swap2\n      swap1\n      pop\n      jump\t// out\n        /* \"#utility.yul\":6919:7088   */\n    tag_212:\n        /* \"#utility.yul\":7003:7014   */\n      0x00\n        /* \"#utility.yul\":7037:7043   */\n      dup3\n        /* \"#utility.yul\":7032:7035   */\n      dup3\n        /* \"#utility.yul\":7025:7044   */\n      mstore\n        /* \"#utility.yul\":7077:7081   */\n      0x20\n        /* \"#utility.yul\":7072:7075   */\n      dup3\n        /* \"#utility.yul\":7068:7082   */\n      add\n        /* \"#utility.yul\":7053:7082   */\n      swap1\n      pop\n        /* \"#utility.yul\":6919:7088   */\n      swap3\n      swap2\n      pop\n      pop\n      jump\t// out\n        /* \"#utility.yul\":7094:7190   */\n    tag_198:\n        /* \"#utility.yul\":7131:7138   */\n      0x00\n        /* \"#utility.yul\":7160:7184   */\n      tag_251\n        /* \"#utility.yul\":7178:7183   */\n      dup3\n        /* \"#utility.yul\":7160:7184   */\n      tag_252\n      jump\t// in\n    tag_251:\n        /* \"#utility.yul\":7149:7184   */\n      swap1\n      pop\n        /* \"#utility.yul\":7094:7190   */\n      swap2\n      swap1\n      pop\n      jump\t// out\n        /* \"#utility.yul\":7196:7273   */\n    tag_202:\n        /* \"#utility.yul\":7233:7240   */\n      0x00\n        /* \"#utility.yul\":7262:7267   */\n      dup2\n        /* \"#utility.yul\":7251:7267   */\n      swap1\n      pop\n        /* \"#utility.yul\":7196:7273   */\n      swap2\n      swap1\n      pop\n      jump\t// out\n        /* \"#utility.yul\":7279:7355   */\n    tag_206:\n        /* \"#utility.yul\":7315:7322   */\n      0x00\n        /* \"#utility.yul\":7344:7349   */\n      dup2\n        /* \"#utility.yul\":7333:7349   */\n      swap1\n      pop\n        /* \"#utility.yul\":7279:7355   */\n      swap2\n      swap1\n      pop\n      jump\t// out\n        /* \"#utility.yul\":7361:7487   */\n    tag_252:\n        /* \"#utility.yul\":7398:7405   */\n      0x00\n        /* \"#utility.yul\":7438:7480   */\n      0xffffffffffffffffffffffffffffffffffffffff\n        /* \"#utility.yul\":7431:7436   */\n      dup3\n        /* \"#utility.yul\":7427:7481   */\n      and\n        /* \"#utility.yul\":7416:7481   */\n      swap1\n      pop\n        /* \"#utility.yul\":7361:7487   */\n      swap2\n      swap1\n      pop\n      jump\t// out\n        /* \"#utility.yul\":7493:7570   */\n    tag_220:\n        /* \"#utility.yul\":7530:7537   */\n      0x00\n        /* \"#utility.yul\":7559:7564   */\n      dup2\n        /* \"#utility.yul\":7548:7564   */\n      swap1\n      pop\n        /* \"#utility.yul\":7493:7570   */\n      swap2\n      swap1\n      pop\n      jump\t// out\n        /* \"#utility.yul\":7576:7730   */\n    tag_157:\n        /* \"#utility.yul\":7660:7666   */\n      dup3\n        /* \"#utility.yul\":7655:7658   */\n      dup2\n        /* \"#utility.yul\":7650:7653   */\n      dup4\n        /* \"#utility.yul\":7637:7667   */\n      calldatacopy\n        /* \"#utility.yul\":7722:7723   */\n      0x00\n        /* \"#utility.yul\":7713:7719   */\n      dup4\n        /* \"#utility.yul\":7708:7711   */\n      dup4\n        /* \"#utility.yul\":7704:7720   */\n      add\n        /* \"#utility.yul\":7697:7724   */\n      mstore\n        /* \"#utility.yul\":7576:7730   */\n      pop\n      pop\n      pop\n      jump\t// out\n        /* \"#utility.yul\":7736:8043   */\n    tag_214:\n        /* \"#utility.yul\":7804:7805   */\n      0x00\n        /* \"#utility.yul\":7814:7927   */\n    tag_259:\n        /* \"#utility.yul\":7828:7834   */\n      dup4\n        /* \"#utility.yul\":7825:7826   */\n      dup2\n        /* \"#utility.yul\":7822:7835   */\n      lt\n        /* \"#utility.yul\":7814:7927   */\n      iszero\n      tag_261\n      jumpi\n        /* \"#utility.yul\":7913:7914   */\n      dup1\n        /* \"#utility.yul\":7908:7911   */\n      dup3\n        /* \"#utility.yul\":7904:7915   */\n      add\n        /* \"#utility.yul\":7898:7916   */\n      mload\n        /* \"#utility.yul\":7894:7895   */\n      dup2\n        /* \"#utility.yul\":7889:7892   */\n      dup5\n        /* \"#utility.yul\":7885:7896   */\n      add\n        /* \"#utility.yul\":7878:7917   */\n      mstore\n        /* \"#utility.yul\":7850:7852   */\n      0x20\n        /* \"#utility.yul\":7847:7848   */\n      dup2\n        /* \"#utility.yul\":7843:7853   */\n      add\n        /* \"#utility.yul\":7838:7853   */\n      swap1\n      pop\n        /* \"#utility.yul\":7814:7927   */\n      jump(tag_259)\n    tag_261:\n        /* \"#utility.yul\":7945:7951   */\n      dup4\n        /* \"#utility.yul\":7942:7943   */\n      dup2\n        /* \"#utility.yul\":7939:7952   */\n      gt\n        /* \"#utility.yul\":7936:8037   */\n      iszero\n      tag_262\n      jumpi\n        /* \"#utility.yul\":8025:8026   */\n      0x00\n        /* \"#utility.yul\":8016:8022   */\n      dup5\n        /* \"#utility.yul\":8011:8014   */\n      dup5\n        /* \"#utility.yul\":8007:8023   */\n      add\n        /* \"#utility.yul\":8000:8027   */\n      mstore\n        /* \"#utility.yul\":7936:8037   */\n    tag_262:\n        /* \"#utility.yul\":7785:8043   */\n      pop\n        /* \"#utility.yul\":7736:8043   */\n      pop\n      pop\n      pop\n      jump\t// out\n        /* \"#utility.yul\":8049:8369   */\n    tag_96:\n        /* \"#utility.yul\":8093:8099   */\n      0x00\n        /* \"#utility.yul\":8130:8131   */\n      0x02\n        /* \"#utility.yul\":8124:8128   */\n      dup3\n        /* \"#utility.yul\":8120:8132   */\n      div\n        /* \"#utility.yul\":8110:8132   */\n      swap1\n      pop\n        /* \"#utility.yul\":8177:8178   */\n      0x01\n        /* \"#utility.yul\":8171:8175   */\n      dup3\n        /* \"#utility.yul\":8167:8179   */\n      and\n        /* \"#utility.yul\":8198:8216   */\n      dup1\n        /* \"#utility.yul\":8188:8269   */\n      tag_264\n      jumpi\n        /* \"#utility.yul\":8254:8258   */\n      0x7f\n        /* \"#utility.yul\":8246:8252   */\n      dup3\n        /* \"#utility.yul\":8242:8259   */\n      and\n        /* \"#utility.yul\":8232:8259   */\n      swap2\n      pop\n        /* \"#utility.yul\":8188:8269   */\n    tag_264:\n        /* \"#utility.yul\":8316:8318   */\n      0x20\n        /* \"#utility.yul\":8308:8314   */\n      dup3\n        /* \"#utility.yul\":8305:8319   */\n      lt\n        /* \"#utility.yul\":8285:8303   */\n      dup2\n        /* \"#utility.yul\":8282:8320   */\n      eq\n        /* \"#utility.yul\":8279:8363   */\n      iszero\n      tag_265\n      jumpi\n        /* \"#utility.yul\":8335:8353   */\n      tag_266\n      tag_267\n      jump\t// in\n    tag_266:\n        /* \"#utility.yul\":8279:8363   */\n    tag_265:\n        /* \"#utility.yul\":8100:8369   */\n      pop\n        /* \"#utility.yul\":8049:8369   */\n      swap2\n      swap1\n      pop\n      jump\t// out\n        /* \"#utility.yul\":8375:8656   */\n    tag_241:\n        /* \"#utility.yul\":8458:8485   */\n      tag_269\n        /* \"#utility.yul\":8480:8484   */\n      dup3\n        /* \"#utility.yul\":8458:8485   */\n      tag_216\n      jump\t// in\n    tag_269:\n        /* \"#utility.yul\":8450:8456   */\n      dup2\n        /* \"#utility.yul\":8446:8486   */\n      add\n        /* \"#utility.yul\":8588:8594   */\n      dup2\n        /* \"#utility.yul\":8576:8586   */\n      dup2\n        /* \"#utility.yul\":8573:8595   */\n      lt\n        /* \"#utility.yul\":8552:8570   */\n      0xffffffffffffffff\n        /* \"#utility.yul\":8540:8550   */\n      dup3\n        /* \"#utility.yul\":8537:8571   */\n      gt\n        /* \"#utility.yul\":8534:8596   */\n      or\n        /* \"#utility.yul\":8531:8619   */\n      iszero\n      tag_270\n      jumpi\n        /* \"#utility.yul\":8599:8617   */\n      tag_271\n      tag_246\n      jump\t// in\n    tag_271:\n        /* \"#utility.yul\":8531:8619   */\n    tag_270:\n        /* \"#utility.yul\":8639:8649   */\n      dup1\n        /* \"#utility.yul\":8635:8637   */\n      0x40\n        /* \"#utility.yul\":8628:8650   */\n      mstore\n        /* \"#utility.yul\":8418:8656   */\n      pop\n        /* \"#utility.yul\":8375:8656   */\n      pop\n      pop\n      jump\t// out\n        /* \"#utility.yul\":8662:8842   */\n    tag_267:\n        /* \"#utility.yul\":8710:8787   */\n      0x4e487b7100000000000000000000000000000000000000000000000000000000\n        /* \"#utility.yul\":8707:8708   */\n      0x00\n        /* \"#utility.yul\":8700:8788   */\n      mstore\n        /* \"#utility.yul\":8807:8811   */\n      0x22\n        /* \"#utility.yul\":8804:8805   */\n      0x04\n        /* \"#utility.yul\":8797:8812   */\n      mstore\n        /* \"#utility.yul\":8831:8835   */\n      0x24\n        /* \"#utility.yul\":8828:8829   */\n      0x00\n        /* \"#utility.yul\":8821:8836   */\n      revert\n        /* \"#utility.yul\":8848:9028   */\n    tag_246:\n        /* \"#utility.yul\":8896:8973   */\n      0x4e487b7100000000000000000000000000000000000000000000000000000000\n        /* \"#utility.yul\":8893:8894   */\n      0x00\n        /* \"#utility.yul\":8886:8974   */\n      mstore\n        /* \"#utility.yul\":8993:8997   */\n      0x41\n        /* \"#utility.yul\":8990:8991   */\n      0x04\n        /* \"#utility.yul\":8983:8998   */\n      mstore\n        /* \"#utility.yul\":9017:9021   */\n      0x24\n        /* \"#utility.yul\":9014:9015   */\n      0x00\n        /* \"#utility.yul\":9007:9022   */\n      revert\n        /* \"#utility.yul\":9034:9151   */\n    tag_162:\n        /* \"#utility.yul\":9143:9144   */\n      0x00\n        /* \"#utility.yul\":9140:9141   */\n      dup1\n        /* \"#utility.yul\":9133:9145   */\n      revert\n        /* \"#utility.yul\":9157:9274   */\n    tag_155:\n        /* \"#utility.yul\":9266:9267   */\n      0x00\n        /* \"#utility.yul\":9263:9264   */\n      dup1\n        /* \"#utility.yul\":9256:9268   */\n      revert\n        /* \"#utility.yul\":9280:9397   */\n    tag_174:\n        /* \"#utility.yul\":9389:9390   */\n      0x00\n        /* \"#utility.yul\":9386:9387   */\n      dup1\n        /* \"#utility.yul\":9379:9391   */\n      revert\n        /* \"#utility.yul\":9403:9520   */\n    tag_171:\n        /* \"#utility.yul\":9512:9513   */\n      0x00\n        /* \"#utility.yul\":9509:9510   */\n      dup1\n        /* \"#utility.yul\":9502:9514   */\n      revert\n        /* \"#utility.yul\":9526:9628   */\n    tag_216:\n        /* \"#utility.yul\":9567:9573   */\n      0x00\n        /* \"#utility.yul\":9618:9620   */\n      0x1f\n        /* \"#utility.yul\":9614:9621   */\n      not\n        /* \"#utility.yul\":9609:9611   */\n      0x1f\n        /* \"#utility.yul\":9602:9607   */\n      dup4\n        /* \"#utility.yul\":9598:9612   */\n      add\n        /* \"#utility.yul\":9594:9622   */\n      and\n        /* \"#utility.yul\":9584:9622   */\n      swap1\n      pop\n        /* \"#utility.yul\":9526:9628   */\n      swap2\n      swap1\n      pop\n      jump\t// out\n        /* \"#utility.yul\":9634:9756   */\n    tag_167:\n        /* \"#utility.yul\":9707:9731   */\n      tag_280\n        /* \"#utility.yul\":9725:9730   */\n      dup2\n        /* \"#utility.yul\":9707:9731   */\n      tag_220\n      jump\t// in\n    tag_280:\n        /* \"#utility.yul\":9700:9705   */\n      dup2\n        /* \"#utility.yul\":9697:9732   */\n      eq\n        /* \"#utility.yul\":9687:9750   */\n      tag_281\n      jumpi\n        /* \"#utility.yul\":9746:9747   */\n      0x00\n        /* \"#utility.yul\":9743:9744   */\n      dup1\n        /* \"#utility.yul\":9736:9748   */\n      revert\n        /* \"#utility.yul\":9687:9750   */\n    tag_281:\n        /* \"#utility.yul\":9634:9756   */\n      pop\n      jump\t// out\n\n    auxdata: 0xa2646970667358221220dd57b244fa4dc521a6d06f345446388995b3b3126ec6ede006e03492e4a744a564736f6c63430008070033\n}\n",
				"bytecode": {
					"linkReferences": {},
					"object": "60806040526040518060600160405280600160ff168152602001600260ff168152602001600360ff1681525060009060036200003d9291906200040c565b5060405180606001604052806040518060400160405280600581526020017f6170706c6500000000000000000000000000000000000000000000000000000081525081526020016040518060400160405280600681526020017f62616e616e61000000000000000000000000000000000000000000000000000081525081526020016040518060400160405280600681526020017f636172726f74000000000000000000000000000000000000000000000000000081525081525060019060036200010a92919062000463565b5060405180604001604052806040518060600160405280600160ff168152602001600260ff168152602001600360ff1681525081526020016040518060600160405280600460ff168152602001600560ff168152602001600660ff1681525081525060039060026200017e929190620004ca565b50600160045560016005557fffffffffffffffffffffffffffffffffffffffffffffffffffffffffffffffff6006556040518060400160405280600b81526020017f48656c6c6f20576f726c6400000000000000000000000000000000000000000081525060079080519060200190620001fa9291906200052c565b507f486920576f726c6400000000000000000000000000000000000000000000000060085533600960006101000a81548173ffffffffffffffffffffffffffffffffffffffff021916908373ffffffffffffffffffffffffffffffffffffffff1602179055506040518060400160405280600181526020016040518060400160405280600a81526020017f4f6c61204d756e646f2100000000000000000000000000000000000000000000815250815250600a600082015181600001556020820151816001019080519060200190620002d59291906200052c565b505050348015620002e557600080fd5b506040518060400160405280600481526020017f4164616d00000000000000000000000000000000000000000000000000000000815250600c6000600181526020019081526020016000209080519060200190620003459291906200052c565b506040518060400160405280600581526020017f4272756365000000000000000000000000000000000000000000000000000000815250600c6000600281526020019081526020016000209080519060200190620003a59291906200052c565b506040518060400160405280600481526020017f4361726c00000000000000000000000000000000000000000000000000000000815250600c6000600381526020019081526020016000209080519060200190620004059291906200052c565b50620006fa565b82805482825590600052602060002090810192821562000450579160200282015b828111156200044f578251829060ff169055916020019190600101906200042d565b5b5090506200045f9190620005bd565b5090565b828054828255906000526020600020908101928215620004b7579160200282015b82811115620004b6578251829080519060200190620004a59291906200052c565b509160200191906001019062000484565b5b509050620004c69190620005dc565b5090565b82805482825590600052602060002090810192821562000519579160200282015b828111156200051857825182906003620005079291906200040c565b5091602001919060010190620004eb565b5b50905062000528919062000604565b5090565b8280546200053a9062000695565b90600052602060002090601f0160209004810192826200055e5760008555620005aa565b82601f106200057957805160ff1916838001178555620005aa565b82800160010185558215620005aa579182015b82811115620005a95782518255916020019190600101906200058c565b5b509050620005b99190620005bd565b5090565b5b80821115620005d8576000816000905550600101620005be565b5090565b5b80821115620006005760008181620005f691906200062c565b50600101620005dd565b5090565b5b808211156200062857600081816200061e919062000672565b5060010162000605565b5090565b5080546200063a9062000695565b6000825580601f106200064e57506200066f565b601f0160209004906000526020600020908101906200066e9190620005bd565b5b50565b5080546000825590600052602060002090810190620006929190620005bd565b50565b60006002820490506001821680620006ae57607f821691505b60208210811415620006c557620006c4620006cb565b5b50919050565b7f4e487b7100000000000000000000000000000000000000000000000000000000600052602260045260246000fd5b610e5e806200070a6000396000f3fe608060405234801561001057600080fd5b50600436106101005760003560e01c80634b3e7e0c116100975780638bc9fe6c116100665780638bc9fe6c146102a05780639ae918c7146102bf578063a7dbce1c146102ef578063d3268fc11461030d57610100565b80634b3e7e0c146101f15780635e383d211461020f5780636422c4c81461023f578063687440461461026f57610100565b806326eb4dbb116100d357806326eb4dbb1461017b5780632cb777a6146101995780633a5fbaaa146101b7578063492bfa18146101d357610100565b8063028414f21461010557806306540f7e14610121578063209652551461013f57806326b85ee11461015d575b600080fd5b61011f600480360381019061011a91906109f2565b61033d565b005b6101296103a7565b6040516101369190610bdc565b60405180910390f35b6101476103ad565b6040516101549190610bdc565b60405180910390f35b6101656103bb565b6040516101729190610b32565b60405180910390f35b6101836103e1565b6040516101909190610bdc565b60405180910390f35b6101a16103ee565b6040516101ae9190610b68565b60405180910390f35b6101d160048036038101906101cc919061097c565b6103f4565b005b6101db610433565b6040516101e89190610b83565b60405180910390f35b6101f96104c1565b6040516102069190610b4d565b60405180910390f35b610229600480360381019061022491906109c5565b6104c7565b6040516102369190610b83565b60405180910390f35b610259600480360381019061025491906109c5565b610573565b6040516102669190610b83565b60405180910390f35b610289600480360381019061028491906109c5565b61061f565b604051610297929190610ba5565b60405180910390f35b6102a8610753565b6040516102b6929190610bf7565b60405180910390f35b6102d960048036038101906102d491906109c5565b6107ed565b6040516102e69190610bdc565b60405180910390f35b6102f7610811565b6040516103049190610bdc565b60405180910390f35b61032760048036038101906103229190610a7d565b610817565b6040516103349190610bdc565b60405180910390f35b604051806040016040528083815260200182815250600d60008581526020019081526020016000206000820151816000019080519060200190610381929190610854565b50602082015181600101908051906020019061039e929190610854565b50905050505050565b60045481565b600080600190508091505090565b600960009054906101000a900473ffffffffffffffffffffffffffffffffffffffff1681565b6000600280549050905090565b60065481565b60028190806001815401808255809150506001900390600052602060002001600090919091909150908051906020019061042f929190610854565b5050565b6007805461044090610d2b565b80601f016020809104026020016040519081016040528092919081815260200182805461046c90610d2b565b80156104b95780601f1061048e576101008083540402835291602001916104b9565b820191906000526020600020905b81548152906001019060200180831161049c57829003601f168201915b505050505081565b60085481565b600281815481106104d757600080fd5b9060005260206000200160009150905080546104f290610d2b565b80601f016020809104026020016040519081016040528092919081815260200182805461051e90610d2b565b801561056b5780601f106105405761010080835404028352916020019161056b565b820191906000526020600020905b81548152906001019060200180831161054e57829003601f168201915b505050505081565b6001818154811061058357600080fd5b90600052602060002001600091509050805461059e90610d2b565b80601f01602080910402602001604051908101604052809291908181526020018280546105ca90610d2b565b80156106175780601f106105ec57610100808354040283529160200191610617565b820191906000526020600020905b8154815290600101906020018083116105fa57829003601f168201915b505050505081565b600d60205280600052604060002060009150905080600001805461064290610d2b565b80601f016020809104026020016040519081016040528092919081815260200182805461066e90610d2b565b80156106bb5780601f10610690576101008083540402835291602001916106bb565b820191906000526020600020905b81548152906001019060200180831161069e57829003601f168201915b5050505050908060010180546106d090610d2b565b80601f01602080910402602001604051908101604052809291908181526020018280546106fc90610d2b565b80156107495780601f1061071e57610100808354040283529160200191610749565b820191906000526020600020905b81548152906001019060200180831161072c57829003601f168201915b5050505050905082565b600a80600001549080600101805461076a90610d2b565b80601f016020809104026020016040519081016040528092919081815260200182805461079690610d2b565b80156107e35780601f106107b8576101008083540402835291602001916107e3565b820191906000526020600020905b8154815290600101906020018083116107c657829003601f168201915b5050505050905082565b600081815481106107fd57600080fd5b906000526020600020016000915090505481565b60055481565b6003828154811061082757600080fd5b90600052602060002001818154811061083f57600080fd5b90600052602060002001600091509150505481565b82805461086090610d2b565b90600052602060002090601f01602090048101928261088257600085556108c9565b82601f1061089b57805160ff19168380011785556108c9565b828001600101855582156108c9579182015b828111156108c85782518255916020019190600101906108ad565b5b5090506108d691906108da565b5090565b5b808211156108f35760008160009055506001016108db565b5090565b600061090a61090584610c4c565b610c27565b90508281526020810184848401111561092657610925610df1565b5b610931848285610ce9565b509392505050565b600082601f83011261094e5761094d610dec565b5b813561095e8482602086016108f7565b91505092915050565b60008135905061097681610e11565b92915050565b60006020828403121561099257610991610dfb565b5b600082013567ffffffffffffffff8111156109b0576109af610df6565b5b6109bc84828501610939565b91505092915050565b6000602082840312156109db576109da610dfb565b5b60006109e984828501610967565b91505092915050565b600080600060608486031215610a0b57610a0a610dfb565b5b6000610a1986828701610967565b935050602084013567ffffffffffffffff811115610a3a57610a39610df6565b5b610a4686828701610939565b925050604084013567ffffffffffffffff811115610a6757610a66610df6565b5b610a7386828701610939565b9150509250925092565b60008060408385031215610a9457610a93610dfb565b5b6000610aa285828601610967565b9250506020610ab385828601610967565b9150509250929050565b610ac681610c99565b82525050565b610ad581610cab565b82525050565b610ae481610cb5565b82525050565b6000610af582610c7d565b610aff8185610c88565b9350610b0f818560208601610cf8565b610b1881610e00565b840191505092915050565b610b2c81610cdf565b82525050565b6000602082019050610b476000830184610abd565b92915050565b6000602082019050610b626000830184610acc565b92915050565b6000602082019050610b7d6000830184610adb565b92915050565b60006020820190508181036000830152610b9d8184610aea565b905092915050565b60006040820190508181036000830152610bbf8185610aea565b90508181036020830152610bd38184610aea565b90509392505050565b6000602082019050610bf16000830184610b23565b92915050565b6000604082019050610c0c6000830185610b23565b8181036020830152610c1e8184610aea565b90509392505050565b6000610c31610c42565b9050610c3d8282610d5d565b919050565b6000604051905090565b600067ffffffffffffffff821115610c6757610c66610dbd565b5b610c7082610e00565b9050602081019050919050565b600081519050919050565b600082825260208201905092915050565b6000610ca482610cbf565b9050919050565b6000819050919050565b6000819050919050565b600073ffffffffffffffffffffffffffffffffffffffff82169050919050565b6000819050919050565b82818337600083830152505050565b60005b83811015610d16578082015181840152602081019050610cfb565b83811115610d25576000848401525b50505050565b60006002820490506001821680610d4357607f821691505b60208210811415610d5757610d56610d8e565b5b50919050565b610d6682610e00565b810181811067ffffffffffffffff82111715610d8557610d84610dbd565b5b80604052505050565b7f4e487b7100000000000000000000000000000000000000000000000000000000600052602260045260246000fd5b7f4e487b7100000000000000000000000000000000000000000000000000000000600052604160045260246000fd5b600080fd5b600080fd5b600080fd5b600080fd5b6000601f19601f8301169050919050565b610e1a81610cdf565b8114610e2557600080fd5b5056fea2646970667358221220dd57b244fa4dc521a6d06f345446388995b3b3126ec6ede006e03492e4a744a564736f6c63430008070033",
					"opcodes": "PUSH1 0x80 PUSH1 0x40 MSTORE PUSH1 0x40 MLOAD DUP1 PUSH1 0x60 ADD PUSH1 0x40 MSTORE DUP1 PUSH1 0x1 PUSH1 0xFF AND DUP2 MSTORE PUSH1 0x20 ADD PUSH1 0x2 PUSH1 0xFF AND DUP2 MSTORE PUSH1 0x20 ADD PUSH1 0x3 PUSH1 0xFF AND DUP2 MSTORE POP PUSH1 0x0 SWAP1 PUSH1 0x3 PUSH3 0x3D SWAP3 SWAP2 SWAP1 PUSH3 0x40C JUMP JUMPDEST POP PUSH1 0x40 MLOAD DUP1 PUSH1 0x60 ADD PUSH1 0x40 MSTORE DUP1 PUSH1 0x40 MLOAD DUP1 PUSH1 0x40 ADD PUSH1 0x40 MSTORE DUP1 PUSH1 0x5 DUP2 MSTORE PUSH1 0x20 ADD PUSH32 0x6170706C65000000000000000000000000000000000000000000000000000000 DUP2 MSTORE POP DUP2 MSTORE PUSH1 0x20 ADD PUSH1 0x40 MLOAD DUP1 PUSH1 0x40 ADD PUSH1 0x40 MSTORE DUP1 PUSH1 0x6 DUP2 MSTORE PUSH1 0x20 ADD PUSH32 0x62616E616E610000000000000000000000000000000000000000000000000000 DUP2 MSTORE POP DUP2 MSTORE PUSH1 0x20 ADD PUSH1 0x40 MLOAD DUP1 PUSH1 0x40 ADD PUSH1 0x40 MSTORE DUP1 PUSH1 0x6 DUP2 MSTORE PUSH1 0x20 ADD PUSH32 0x636172726F740000000000000000000000000000000000000000000000000000 DUP2 MSTORE POP DUP2 MSTORE POP PUSH1 0x1 SWAP1 PUSH1 0x3 PUSH3 0x10A SWAP3 SWAP2 SWAP1 PUSH3 0x463 JUMP JUMPDEST POP PUSH1 0x40 MLOAD DUP1 PUSH1 0x40 ADD PUSH1 0x40 MSTORE DUP1 PUSH1 0x40 MLOAD DUP1 PUSH1 0x60 ADD PUSH1 0x40 MSTORE DUP1 PUSH1 0x1 PUSH1 0xFF AND DUP2 MSTORE PUSH1 0x20 ADD PUSH1 0x2 PUSH1 0xFF AND DUP2 MSTORE PUSH1 0x20 ADD PUSH1 0x3 PUSH1 0xFF AND DUP2 MSTORE POP DUP2 MSTORE PUSH1 0x20 ADD PUSH1 0x40 MLOAD DUP1 PUSH1 0x60 ADD PUSH1 0x40 MSTORE DUP1 PUSH1 0x4 PUSH1 0xFF AND DUP2 MSTORE PUSH1 0x20 ADD PUSH1 0x5 PUSH1 0xFF AND DUP2 MSTORE PUSH1 0x20 ADD PUSH1 0x6 PUSH1 0xFF AND DUP2 MSTORE POP DUP2 MSTORE POP PUSH1 0x3 SWAP1 PUSH1 0x2 PUSH3 0x17E SWAP3 SWAP2 SWAP1 PUSH3 0x4CA JUMP JUMPDEST POP PUSH1 0x1 PUSH1 0x4 SSTORE PUSH1 0x1 PUSH1 0x5 SSTORE PUSH32 0xFFFFFFFFFFFFFFFFFFFFFFFFFFFFFFFFFFFFFFFFFFFFFFFFFFFFFFFFFFFFFFFF PUSH1 0x6 SSTORE PUSH1 0x40 MLOAD DUP1 PUSH1 0x40 ADD PUSH1 0x40 MSTORE DUP1 PUSH1 0xB DUP2 MSTORE PUSH1 0x20 ADD PUSH32 0x48656C6C6F20576F726C64000000000000000000000000000000000000000000 DUP2 MSTORE POP PUSH1 0x7 SWAP1 DUP1 MLOAD SWAP1 PUSH1 0x20 ADD SWAP1 PUSH3 0x1FA SWAP3 SWAP2 SWAP1 PUSH3 0x52C JUMP JUMPDEST POP PUSH32 0x486920576F726C64000000000000000000000000000000000000000000000000 PUSH1 0x8 SSTORE CALLER PUSH1 0x9 PUSH1 0x0 PUSH2 0x100 EXP DUP2 SLOAD DUP2 PUSH20 0xFFFFFFFFFFFFFFFFFFFFFFFFFFFFFFFFFFFFFFFF MUL NOT AND SWAP1 DUP4 PUSH20 0xFFFFFFFFFFFFFFFFFFFFFFFFFFFFFFFFFFFFFFFF AND MUL OR SWAP1 SSTORE POP PUSH1 0x40 MLOAD DUP1 PUSH1 0x40 ADD PUSH1 0x40 MSTORE DUP1 PUSH1 0x1 DUP2 MSTORE PUSH1 0x20 ADD PUSH1 0x40 MLOAD DUP1 PUSH1 0x40 ADD PUSH1 0x40 MSTORE DUP1 PUSH1 0xA DUP2 MSTORE PUSH1 0x20 ADD PUSH32 0x4F6C61204D756E646F2100000000000000000000000000000000000000000000 DUP2 MSTORE POP DUP2 MSTORE POP PUSH1 0xA PUSH1 0x0 DUP3 ADD MLOAD DUP2 PUSH1 0x0 ADD SSTORE PUSH1 0x20 DUP3 ADD MLOAD DUP2 PUSH1 0x1 ADD SWAP1 DUP1 MLOAD SWAP1 PUSH1 0x20 ADD SWAP1 PUSH3 0x2D5 SWAP3 SWAP2 SWAP1 PUSH3 0x52C JUMP JUMPDEST POP POP POP CALLVALUE DUP1 ISZERO PUSH3 0x2E5 JUMPI PUSH1 0x0 DUP1 REVERT JUMPDEST POP PUSH1 0x40 MLOAD DUP1 PUSH1 0x40 ADD PUSH1 0x40 MSTORE DUP1 PUSH1 0x4 DUP2 MSTORE PUSH1 0x20 ADD PUSH32 0x4164616D00000000000000000000000000000000000000000000000000000000 DUP2 MSTORE POP PUSH1 0xC PUSH1 0x0 PUSH1 0x1 DUP2 MSTORE PUSH1 0x20 ADD SWAP1 DUP2 MSTORE PUSH1 0x20 ADD PUSH1 0x0 KECCAK256 SWAP1 DUP1 MLOAD SWAP1 PUSH1 0x20 ADD SWAP1 PUSH3 0x345 SWAP3 SWAP2 SWAP1 PUSH3 0x52C JUMP JUMPDEST POP PUSH1 0x40 MLOAD DUP1 PUSH1 0x40 ADD PUSH1 0x40 MSTORE DUP1 PUSH1 0x5 DUP2 MSTORE PUSH1 0x20 ADD PUSH32 0x4272756365000000000000000000000000000000000000000000000000000000 DUP2 MSTORE POP PUSH1 0xC PUSH1 0x0 PUSH1 0x2 DUP2 MSTORE PUSH1 0x20 ADD SWAP1 DUP2 MSTORE PUSH1 0x20 ADD PUSH1 0x0 KECCAK256 SWAP1 DUP1 MLOAD SWAP1 PUSH1 0x20 ADD SWAP1 PUSH3 0x3A5 SWAP3 SWAP2 SWAP1 PUSH3 0x52C JUMP JUMPDEST POP PUSH1 0x40 MLOAD DUP1 PUSH1 0x40 ADD PUSH1 0x40 MSTORE DUP1 PUSH1 0x4 DUP2 MSTORE PUSH1 0x20 ADD PUSH32 0x4361726C00000000000000000000000000000000000000000000000000000000 DUP2 MSTORE POP PUSH1 0xC PUSH1 0x0 PUSH1 0x3 DUP2 MSTORE PUSH1 0x20 ADD SWAP1 DUP2 MSTORE PUSH1 0x20 ADD PUSH1 0x0 KECCAK256 SWAP1 DUP1 MLOAD SWAP1 PUSH1 0x20 ADD SWAP1 PUSH3 0x405 SWAP3 SWAP2 SWAP1 PUSH3 0x52C JUMP JUMPDEST POP PUSH3 0x6FA JUMP JUMPDEST DUP3 DUP1 SLOAD DUP3 DUP3 SSTORE SWAP1 PUSH1 0x0 MSTORE PUSH1 0x20 PUSH1 0x0 KECCAK256 SWAP1 DUP2 ADD SWAP3 DUP3 ISZERO PUSH3 0x450 JUMPI SWAP2 PUSH1 0x20 MUL DUP3 ADD JUMPDEST DUP3 DUP2 GT ISZERO PUSH3 0x44F JUMPI DUP3 MLOAD DUP3 SWAP1 PUSH1 0xFF AND SWAP1 SSTORE SWAP2 PUSH1 0x20 ADD SWAP2 SWAP1 PUSH1 0x1 ADD SWAP1 PUSH3 0x42D JUMP JUMPDEST JUMPDEST POP SWAP1 POP PUSH3 0x45F SWAP2 SWAP1 PUSH3 0x5BD JUMP JUMPDEST POP SWAP1 JUMP JUMPDEST DUP3 DUP1 SLOAD DUP3 DUP3 SSTORE SWAP1 PUSH1 0x0 MSTORE PUSH1 0x20 PUSH1 0x0 KECCAK256 SWAP1 DUP2 ADD SWAP3 DUP3 ISZERO PUSH3 0x4B7 JUMPI SWAP2 PUSH1 0x20 MUL DUP3 ADD JUMPDEST DUP3 DUP2 GT ISZERO PUSH3 0x4B6 JUMPI DUP3 MLOAD DUP3 SWAP1 DUP1 MLOAD SWAP1 PUSH1 0x20 ADD SWAP1 PUSH3 0x4A5 SWAP3 SWAP2 SWAP1 PUSH3 0x52C JUMP JUMPDEST POP SWAP2 PUSH1 0x20 ADD SWAP2 SWAP1 PUSH1 0x1 ADD SWAP1 PUSH3 0x484 JUMP JUMPDEST JUMPDEST POP SWAP1 POP PUSH3 0x4C6 SWAP2 SWAP1 PUSH3 0x5DC JUMP JUMPDEST POP SWAP1 JUMP JUMPDEST DUP3 DUP1 SLOAD DUP3 DUP3 SSTORE SWAP1 PUSH1 0x0 MSTORE PUSH1 0x20 PUSH1 0x0 KECCAK256 SWAP1 DUP2 ADD SWAP3 DUP3 ISZERO PUSH3 0x519 JUMPI SWAP2 PUSH1 0x20 MUL DUP3 ADD JUMPDEST DUP3 DUP2 GT ISZERO PUSH3 0x518 JUMPI DUP3 MLOAD DUP3 SWAP1 PUSH1 0x3 PUSH3 0x507 SWAP3 SWAP2 SWAP1 PUSH3 0x40C JUMP JUMPDEST POP SWAP2 PUSH1 0x20 ADD SWAP2 SWAP1 PUSH1 0x1 ADD SWAP1 PUSH3 0x4EB JUMP JUMPDEST JUMPDEST POP SWAP1 POP PUSH3 0x528 SWAP2 SWAP1 PUSH3 0x604 JUMP JUMPDEST POP SWAP1 JUMP JUMPDEST DUP3 DUP1 SLOAD PUSH3 0x53A SWAP1 PUSH3 0x695 JUMP JUMPDEST SWAP1 PUSH1 0x0 MSTORE PUSH1 0x20 PUSH1 0x0 KECCAK256 SWAP1 PUSH1 0x1F ADD PUSH1 0x20 SWAP1 DIV DUP2 ADD SWAP3 DUP3 PUSH3 0x55E JUMPI PUSH1 0x0 DUP6 SSTORE PUSH3 0x5AA JUMP JUMPDEST DUP3 PUSH1 0x1F LT PUSH3 0x579 JUMPI DUP1 MLOAD PUSH1 0xFF NOT AND DUP4 DUP1 ADD OR DUP6 SSTORE PUSH3 0x5AA JUMP JUMPDEST DUP3 DUP1 ADD PUSH1 0x1 ADD DUP6 SSTORE DUP3 ISZERO PUSH3 0x5AA JUMPI SWAP2 DUP3 ADD JUMPDEST DUP3 DUP2 GT ISZERO PUSH3 0x5A9 JUMPI DUP3 MLOAD DUP3 SSTORE SWAP2 PUSH1 0x20 ADD SWAP2 SWAP1 PUSH1 0x1 ADD SWAP1 PUSH3 0x58C JUMP JUMPDEST JUMPDEST POP SWAP1 POP PUSH3 0x5B9 SWAP2 SWAP1 PUSH3 0x5BD JUMP JUMPDEST POP SWAP1 JUMP JUMPDEST JUMPDEST DUP1 DUP3 GT ISZERO PUSH3 0x5D8 JUMPI PUSH1 0x0 DUP2 PUSH1 0x0 SWAP1 SSTORE POP PUSH1 0x1 ADD PUSH3 0x5BE JUMP JUMPDEST POP SWAP1 JUMP JUMPDEST JUMPDEST DUP1 DUP3 GT ISZERO PUSH3 0x600 JUMPI PUSH1 0x0 DUP2 DUP2 PUSH3 0x5F6 SWAP2 SWAP1 PUSH3 0x62C JUMP JUMPDEST POP PUSH1 0x1 ADD PUSH3 0x5DD JUMP JUMPDEST POP SWAP1 JUMP JUMPDEST JUMPDEST DUP1 DUP3 GT ISZERO PUSH3 0x628 JUMPI PUSH1 0x0 DUP2 DUP2 PUSH3 0x61E SWAP2 SWAP1 PUSH3 0x672 JUMP JUMPDEST POP PUSH1 0x1 ADD PUSH3 0x605 JUMP JUMPDEST POP SWAP1 JUMP JUMPDEST POP DUP1 SLOAD PUSH3 0x63A SWAP1 PUSH3 0x695 JUMP JUMPDEST PUSH1 0x0 DUP3 SSTORE DUP1 PUSH1 0x1F LT PUSH3 0x64E JUMPI POP PUSH3 0x66F JUMP JUMPDEST PUSH1 0x1F ADD PUSH1 0x20 SWAP1 DIV SWAP1 PUSH1 0x0 MSTORE PUSH1 0x20 PUSH1 0x0 KECCAK256 SWAP1 DUP2 ADD SWAP1 PUSH3 0x66E SWAP2 SWAP1 PUSH3 0x5BD JUMP JUMPDEST JUMPDEST POP JUMP JUMPDEST POP DUP1 SLOAD PUSH1 0x0 DUP3 SSTORE SWAP1 PUSH1 0x0 MSTORE PUSH1 0x20 PUSH1 0x0 KECCAK256 SWAP1 DUP2 ADD SWAP1 PUSH3 0x692 SWAP2 SWAP1 PUSH3 0x5BD JUMP JUMPDEST POP JUMP JUMPDEST PUSH1 0x0 PUSH1 0x2 DUP3 DIV SWAP1 POP PUSH1 0x1 DUP3 AND DUP1 PUSH3 0x6AE JUMPI PUSH1 0x7F DUP3 AND SWAP2 POP JUMPDEST PUSH1 0x20 DUP3 LT DUP2 EQ ISZERO PUSH3 0x6C5 JUMPI PUSH3 0x6C4 PUSH3 0x6CB JUMP JUMPDEST JUMPDEST POP SWAP2 SWAP1 POP JUMP JUMPDEST PUSH32 0x4E487B7100000000000000000000000000000000000000000000000000000000 PUSH1 0x0 MSTORE PUSH1 0x22 PUSH1 0x4 MSTORE PUSH1 0x24 PUSH1 0x0 REVERT JUMPDEST PUSH2 0xE5E DUP1 PUSH3 0x70A PUSH1 0x0 CODECOPY PUSH1 0x0 RETURN INVALID PUSH1 0x80 PUSH1 0x40 MSTORE CALLVALUE DUP1 ISZERO PUSH2 0x10 JUMPI PUSH1 0x0 DUP1 REVERT JUMPDEST POP PUSH1 0x4 CALLDATASIZE LT PUSH2 0x100 JUMPI PUSH1 0x0 CALLDATALOAD PUSH1 0xE0 SHR DUP1 PUSH4 0x4B3E7E0C GT PUSH2 0x97 JUMPI DUP1 PUSH4 0x8BC9FE6C GT PUSH2 0x66 JUMPI DUP1 PUSH4 0x8BC9FE6C EQ PUSH2 0x2A0 JUMPI DUP1 PUSH4 0x9AE918C7 EQ PUSH2 0x2BF JUMPI DUP1 PUSH4 0xA7DBCE1C EQ PUSH2 0x2EF JUMPI DUP1 PUSH4 0xD3268FC1 EQ PUSH2 0x30D JUMPI PUSH2 0x100 JUMP JUMPDEST DUP1 PUSH4 0x4B3E7E0C EQ PUSH2 0x1F1 JUMPI DUP1 PUSH4 0x5E383D21 EQ PUSH2 0x20F JUMPI DUP1 PUSH4 0x6422C4C8 EQ PUSH2 0x23F JUMPI DUP1 PUSH4 0x68744046 EQ PUSH2 0x26F JUMPI PUSH2 0x100 JUMP JUMPDEST DUP1 PUSH4 0x26EB4DBB GT PUSH2 0xD3 JUMPI DUP1 PUSH4 0x26EB4DBB EQ PUSH2 0x17B JUMPI DUP1 PUSH4 0x2CB777A6 EQ PUSH2 0x199 JUMPI DUP1 PUSH4 0x3A5FBAAA EQ PUSH2 0x1B7 JUMPI DUP1 PUSH4 0x492BFA18 EQ PUSH2 0x1D3 JUMPI PUSH2 0x100 JUMP JUMPDEST DUP1 PUSH4 0x28414F2 EQ PUSH2 0x105 JUMPI DUP1 PUSH4 0x6540F7E EQ PUSH2 0x121 JUMPI DUP1 PUSH4 0x20965255 EQ PUSH2 0x13F JUMPI DUP1 PUSH4 0x26B85EE1 EQ PUSH2 0x15D JUMPI JUMPDEST PUSH1 0x0 DUP1 REVERT JUMPDEST PUSH2 0x11F PUSH1 0x4 DUP1 CALLDATASIZE SUB DUP2 ADD SWAP1 PUSH2 0x11A SWAP2 SWAP1 PUSH2 0x9F2 JUMP JUMPDEST PUSH2 0x33D JUMP JUMPDEST STOP JUMPDEST PUSH2 0x129 PUSH2 0x3A7 JUMP JUMPDEST PUSH1 0x40 MLOAD PUSH2 0x136 SWAP2 SWAP1 PUSH2 0xBDC JUMP JUMPDEST PUSH1 0x40 MLOAD DUP1 SWAP2 SUB SWAP1 RETURN JUMPDEST PUSH2 0x147 PUSH2 0x3AD JUMP JUMPDEST PUSH1 0x40 MLOAD PUSH2 0x154 SWAP2 SWAP1 PUSH2 0xBDC JUMP JUMPDEST PUSH1 0x40 MLOAD DUP1 SWAP2 SUB SWAP1 RETURN JUMPDEST PUSH2 0x165 PUSH2 0x3BB JUMP JUMPDEST PUSH1 0x40 MLOAD PUSH2 0x172 SWAP2 SWAP1 PUSH2 0xB32 JUMP JUMPDEST PUSH1 0x40 MLOAD DUP1 SWAP2 SUB SWAP1 RETURN JUMPDEST PUSH2 0x183 PUSH2 0x3E1 JUMP JUMPDEST PUSH1 0x40 MLOAD PUSH2 0x190 SWAP2 SWAP1 PUSH2 0xBDC JUMP JUMPDEST PUSH1 0x40 MLOAD DUP1 SWAP2 SUB SWAP1 RETURN JUMPDEST PUSH2 0x1A1 PUSH2 0x3EE JUMP JUMPDEST PUSH1 0x40 MLOAD PUSH2 0x1AE SWAP2 SWAP1 PUSH2 0xB68 JUMP JUMPDEST PUSH1 0x40 MLOAD DUP1 SWAP2 SUB SWAP1 RETURN JUMPDEST PUSH2 0x1D1 PUSH1 0x4 DUP1 CALLDATASIZE SUB DUP2 ADD SWAP1 PUSH2 0x1CC SWAP2 SWAP1 PUSH2 0x97C JUMP JUMPDEST PUSH2 0x3F4 JUMP JUMPDEST STOP JUMPDEST PUSH2 0x1DB PUSH2 0x433 JUMP JUMPDEST PUSH1 0x40 MLOAD PUSH2 0x1E8 SWAP2 SWAP1 PUSH2 0xB83 JUMP JUMPDEST PUSH1 0x40 MLOAD DUP1 SWAP2 SUB SWAP1 RETURN JUMPDEST PUSH2 0x1F9 PUSH2 0x4C1 JUMP JUMPDEST PUSH1 0x40 MLOAD PUSH2 0x206 SWAP2 SWAP1 PUSH2 0xB4D JUMP JUMPDEST PUSH1 0x40 MLOAD DUP1 SWAP2 SUB SWAP1 RETURN JUMPDEST PUSH2 0x229 PUSH1 0x4 DUP1 CALLDATASIZE SUB DUP2 ADD SWAP1 PUSH2 0x224 SWAP2 SWAP1 PUSH2 0x9C5 JUMP JUMPDEST PUSH2 0x4C7 JUMP JUMPDEST PUSH1 0x40 MLOAD PUSH2 0x236 SWAP2 SWAP1 PUSH2 0xB83 JUMP JUMPDEST PUSH1 0x40 MLOAD DUP1 SWAP2 SUB SWAP1 RETURN JUMPDEST PUSH2 0x259 PUSH1 0x4 DUP1 CALLDATASIZE SUB DUP2 ADD SWAP1 PUSH2 0x254 SWAP2 SWAP1 PUSH2 0x9C5 JUMP JUMPDEST PUSH2 0x573 JUMP JUMPDEST PUSH1 0x40 MLOAD PUSH2 0x266 SWAP2 SWAP1 PUSH2 0xB83 JUMP JUMPDEST PUSH1 0x40 MLOAD DUP1 SWAP2 SUB SWAP1 RETURN JUMPDEST PUSH2 0x289 PUSH1 0x4 DUP1 CALLDATASIZE SUB DUP2 ADD SWAP1 PUSH2 0x284 SWAP2 SWAP1 PUSH2 0x9C5 JUMP JUMPDEST PUSH2 0x61F JUMP JUMPDEST PUSH1 0x40 MLOAD PUSH2 0x297 SWAP3 SWAP2 SWAP1 PUSH2 0xBA5 JUMP JUMPDEST PUSH1 0x40 MLOAD DUP1 SWAP2 SUB SWAP1 RETURN JUMPDEST PUSH2 0x2A8 PUSH2 0x753 JUMP JUMPDEST PUSH1 0x40 MLOAD PUSH2 0x2B6 SWAP3 SWAP2 SWAP1 PUSH2 0xBF7 JUMP JUMPDEST PUSH1 0x40 MLOAD DUP1 SWAP2 SUB SWAP1 RETURN JUMPDEST PUSH2 0x2D9 PUSH1 0x4 DUP1 CALLDATASIZE SUB DUP2 ADD SWAP1 PUSH2 0x2D4 SWAP2 SWAP1 PUSH2 0x9C5 JUMP JUMPDEST PUSH2 0x7ED JUMP JUMPDEST PUSH1 0x40 MLOAD PUSH2 0x2E6 SWAP2 SWAP1 PUSH2 0xBDC JUMP JUMPDEST PUSH1 0x40 MLOAD DUP1 SWAP2 SUB SWAP1 RETURN JUMPDEST PUSH2 0x2F7 PUSH2 0x811 JUMP JUMPDEST PUSH1 0x40 MLOAD PUSH2 0x304 SWAP2 SWAP1 PUSH2 0xBDC JUMP JUMPDEST PUSH1 0x40 MLOAD DUP1 SWAP2 SUB SWAP1 RETURN JUMPDEST PUSH2 0x327 PUSH1 0x4 DUP1 CALLDATASIZE SUB DUP2 ADD SWAP1 PUSH2 0x322 SWAP2 SWAP1 PUSH2 0xA7D JUMP JUMPDEST PUSH2 0x817 JUMP JUMPDEST PUSH1 0x40 MLOAD PUSH2 0x334 SWAP2 SWAP1 PUSH2 0xBDC JUMP JUMPDEST PUSH1 0x40 MLOAD DUP1 SWAP2 SUB SWAP1 RETURN JUMPDEST PUSH1 0x40 MLOAD DUP1 PUSH1 0x40 ADD PUSH1 0x40 MSTORE DUP1 DUP4 DUP2 MSTORE PUSH1 0x20 ADD DUP3 DUP2 MSTORE POP PUSH1 0xD PUSH1 0x0 DUP6 DUP2 MSTORE PUSH1 0x20 ADD SWAP1 DUP2 MSTORE PUSH1 0x20 ADD PUSH1 0x0 KECCAK256 PUSH1 0x0 DUP3 ADD MLOAD DUP2 PUSH1 0x0 ADD SWAP1 DUP1 MLOAD SWAP1 PUSH1 0x20 ADD SWAP1 PUSH2 0x381 SWAP3 SWAP2 SWAP1 PUSH2 0x854 JUMP JUMPDEST POP PUSH1 0x20 DUP3 ADD MLOAD DUP2 PUSH1 0x1 ADD SWAP1 DUP1 MLOAD SWAP1 PUSH1 0x20 ADD SWAP1 PUSH2 0x39E SWAP3 SWAP2 SWAP1 PUSH2 0x854 JUMP JUMPDEST POP SWAP1 POP POP POP POP POP JUMP JUMPDEST PUSH1 0x4 SLOAD DUP2 JUMP JUMPDEST PUSH1 0x0 DUP1 PUSH1 0x1 SWAP1 POP DUP1 SWAP2 POP POP SWAP1 JUMP JUMPDEST PUSH1 0x9 PUSH1 0x0 SWAP1 SLOAD SWAP1 PUSH2 0x100 EXP SWAP1 DIV PUSH20 0xFFFFFFFFFFFFFFFFFFFFFFFFFFFFFFFFFFFFFFFF AND DUP2 JUMP JUMPDEST PUSH1 0x0 PUSH1 0x2 DUP1 SLOAD SWAP1 POP SWAP1 POP SWAP1 JUMP JUMPDEST PUSH1 0x6 SLOAD DUP2 JUMP JUMPDEST PUSH1 0x2 DUP2 SWAP1 DUP1 PUSH1 0x1 DUP2 SLOAD ADD DUP1 DUP3 SSTORE DUP1 SWAP2 POP POP PUSH1 0x1 SWAP1 SUB SWAP1 PUSH1 0x0 MSTORE PUSH1 0x20 PUSH1 0x0 KECCAK256 ADD PUSH1 0x0 SWAP1 SWAP2 SWAP1 SWAP2 SWAP1 SWAP2 POP SWAP1 DUP1 MLOAD SWAP1 PUSH1 0x20 ADD SWAP1 PUSH2 0x42F SWAP3 SWAP2 SWAP1 PUSH2 0x854 JUMP JUMPDEST POP POP JUMP JUMPDEST PUSH1 0x7 DUP1 SLOAD PUSH2 0x440 SWAP1 PUSH2 0xD2B JUMP JUMPDEST DUP1 PUSH1 0x1F ADD PUSH1 0x20 DUP1 SWAP2 DIV MUL PUSH1 0x20 ADD PUSH1 0x40 MLOAD SWAP1 DUP2 ADD PUSH1 0x40 MSTORE DUP1 SWAP3 SWAP2 SWAP1 DUP2 DUP2 MSTORE PUSH1 0x20 ADD DUP3 DUP1 SLOAD PUSH2 0x46C SWAP1 PUSH2 0xD2B JUMP JUMPDEST DUP1 ISZERO PUSH2 0x4B9 JUMPI DUP1 PUSH1 0x1F LT PUSH2 0x48E JUMPI PUSH2 0x100 DUP1 DUP4 SLOAD DIV MUL DUP4 MSTORE SWAP2 PUSH1 0x20 ADD SWAP2 PUSH2 0x4B9 JUMP JUMPDEST DUP3 ADD SWAP2 SWAP1 PUSH1 0x0 MSTORE PUSH1 0x20 PUSH1 0x0 KECCAK256 SWAP1 JUMPDEST DUP2 SLOAD DUP2 MSTORE SWAP1 PUSH1 0x1 ADD SWAP1 PUSH1 0x20 ADD DUP1 DUP4 GT PUSH2 0x49C JUMPI DUP3 SWAP1 SUB PUSH1 0x1F AND DUP3 ADD SWAP2 JUMPDEST POP POP POP POP POP DUP2 JUMP JUMPDEST PUSH1 0x8 SLOAD DUP2 JUMP JUMPDEST PUSH1 0x2 DUP2 DUP2 SLOAD DUP2 LT PUSH2 0x4D7 JUMPI PUSH1 0x0 DUP1 REVERT JUMPDEST SWAP1 PUSH1 0x0 MSTORE PUSH1 0x20 PUSH1 0x0 KECCAK256 ADD PUSH1 0x0 SWAP2 POP SWAP1 POP DUP1 SLOAD PUSH2 0x4F2 SWAP1 PUSH2 0xD2B JUMP JUMPDEST DUP1 PUSH1 0x1F ADD PUSH1 0x20 DUP1 SWAP2 DIV MUL PUSH1 0x20 ADD PUSH1 0x40 MLOAD SWAP1 DUP2 ADD PUSH1 0x40 MSTORE DUP1 SWAP3 SWAP2 SWAP1 DUP2 DUP2 MSTORE PUSH1 0x20 ADD DUP3 DUP1 SLOAD PUSH2 0x51E SWAP1 PUSH2 0xD2B JUMP JUMPDEST DUP1 ISZERO PUSH2 0x56B JUMPI DUP1 PUSH1 0x1F LT PUSH2 0x540 JUMPI PUSH2 0x100 DUP1 DUP4 SLOAD DIV MUL DUP4 MSTORE SWAP2 PUSH1 0x20 ADD SWAP2 PUSH2 0x56B JUMP JUMPDEST DUP3 ADD SWAP2 SWAP1 PUSH1 0x0 MSTORE PUSH1 0x20 PUSH1 0x0 KECCAK256 SWAP1 JUMPDEST DUP2 SLOAD DUP2 MSTORE SWAP1 PUSH1 0x1 ADD SWAP1 PUSH1 0x20 ADD DUP1 DUP4 GT PUSH2 0x54E JUMPI DUP3 SWAP1 SUB PUSH1 0x1F AND DUP3 ADD SWAP2 JUMPDEST POP POP POP POP POP DUP2 JUMP JUMPDEST PUSH1 0x1 DUP2 DUP2 SLOAD DUP2 LT PUSH2 0x583 JUMPI PUSH1 0x0 DUP1 REVERT JUMPDEST SWAP1 PUSH1 0x0 MSTORE PUSH1 0x20 PUSH1 0x0 KECCAK256 ADD PUSH1 0x0 SWAP2 POP SWAP1 POP DUP1 SLOAD PUSH2 0x59E SWAP1 PUSH2 0xD2B JUMP JUMPDEST DUP1 PUSH1 0x1F ADD PUSH1 0x20 DUP1 SWAP2 DIV MUL PUSH1 0x20 ADD PUSH1 0x40 MLOAD SWAP1 DUP2 ADD PUSH1 0x40 MSTORE DUP1 SWAP3 SWAP2 SWAP1 DUP2 DUP2 MSTORE PUSH1 0x20 ADD DUP3 DUP1 SLOAD PUSH2 0x5CA SWAP1 PUSH2 0xD2B JUMP JUMPDEST DUP1 ISZERO PUSH2 0x617 JUMPI DUP1 PUSH1 0x1F LT PUSH2 0x5EC JUMPI PUSH2 0x100 DUP1 DUP4 SLOAD DIV MUL DUP4 MSTORE SWAP2 PUSH1 0x20 ADD SWAP2 PUSH2 0x617 JUMP JUMPDEST DUP3 ADD SWAP2 SWAP1 PUSH1 0x0 MSTORE PUSH1 0x20 PUSH1 0x0 KECCAK256 SWAP1 JUMPDEST DUP2 SLOAD DUP2 MSTORE SWAP1 PUSH1 0x1 ADD SWAP1 PUSH1 0x20 ADD DUP1 DUP4 GT PUSH2 0x5FA JUMPI DUP3 SWAP1 SUB PUSH1 0x1F AND DUP3 ADD SWAP2 JUMPDEST POP POP POP POP POP DUP2 JUMP JUMPDEST PUSH1 0xD PUSH1 0x20 MSTORE DUP1 PUSH1 0x0 MSTORE PUSH1 0x40 PUSH1 0x0 KECCAK256 PUSH1 0x0 SWAP2 POP SWAP1 POP DUP1 PUSH1 0x0 ADD DUP1 SLOAD PUSH2 0x642 SWAP1 PUSH2 0xD2B JUMP JUMPDEST DUP1 PUSH1 0x1F ADD PUSH1 0x20 DUP1 SWAP2 DIV MUL PUSH1 0x20 ADD PUSH1 0x40 MLOAD SWAP1 DUP2 ADD PUSH1 0x40 MSTORE DUP1 SWAP3 SWAP2 SWAP1 DUP2 DUP2 MSTORE PUSH1 0x20 ADD DUP3 DUP1 SLOAD PUSH2 0x66E SWAP1 PUSH2 0xD2B JUMP JUMPDEST DUP1 ISZERO PUSH2 0x6BB JUMPI DUP1 PUSH1 0x1F LT PUSH2 0x690 JUMPI PUSH2 0x100 DUP1 DUP4 SLOAD DIV MUL DUP4 MSTORE SWAP2 PUSH1 0x20 ADD SWAP2 PUSH2 0x6BB JUMP JUMPDEST DUP3 ADD SWAP2 SWAP1 PUSH1 0x0 MSTORE PUSH1 0x20 PUSH1 0x0 KECCAK256 SWAP1 JUMPDEST DUP2 SLOAD DUP2 MSTORE SWAP1 PUSH1 0x1 ADD SWAP1 PUSH1 0x20 ADD DUP1 DUP4 GT PUSH2 0x69E JUMPI DUP3 SWAP1 SUB PUSH1 0x1F AND DUP3 ADD SWAP2 JUMPDEST POP POP POP POP POP SWAP1 DUP1 PUSH1 0x1 ADD DUP1 SLOAD PUSH2 0x6D0 SWAP1 PUSH2 0xD2B JUMP JUMPDEST DUP1 PUSH1 0x1F ADD PUSH1 0x20 DUP1 SWAP2 DIV MUL PUSH1 0x20 ADD PUSH1 0x40 MLOAD SWAP1 DUP2 ADD PUSH1 0x40 MSTORE DUP1 SWAP3 SWAP2 SWAP1 DUP2 DUP2 MSTORE PUSH1 0x20 ADD DUP3 DUP1 SLOAD PUSH2 0x6FC SWAP1 PUSH2 0xD2B JUMP JUMPDEST DUP1 ISZERO PUSH2 0x749 JUMPI DUP1 PUSH1 0x1F LT PUSH2 0x71E JUMPI PUSH2 0x100 DUP1 DUP4 SLOAD DIV MUL DUP4 MSTORE SWAP2 PUSH1 0x20 ADD SWAP2 PUSH2 0x749 JUMP JUMPDEST DUP3 ADD SWAP2 SWAP1 PUSH1 0x0 MSTORE PUSH1 0x20 PUSH1 0x0 KECCAK256 SWAP1 JUMPDEST DUP2 SLOAD DUP2 MSTORE SWAP1 PUSH1 0x1 ADD SWAP1 PUSH1 0x20 ADD DUP1 DUP4 GT PUSH2 0x72C JUMPI DUP3 SWAP1 SUB PUSH1 0x1F AND DUP3 ADD SWAP2 JUMPDEST POP POP POP POP POP SWAP1 POP DUP3 JUMP JUMPDEST PUSH1 0xA DUP1 PUSH1 0x0 ADD SLOAD SWAP1 DUP1 PUSH1 0x1 ADD DUP1 SLOAD PUSH2 0x76A SWAP1 PUSH2 0xD2B JUMP JUMPDEST DUP1 PUSH1 0x1F ADD PUSH1 0x20 DUP1 SWAP2 DIV MUL PUSH1 0x20 ADD PUSH1 0x40 MLOAD SWAP1 DUP2 ADD PUSH1 0x40 MSTORE DUP1 SWAP3 SWAP2 SWAP1 DUP2 DUP2 MSTORE PUSH1 0x20 ADD DUP3 DUP1 SLOAD PUSH2 0x796 SWAP1 PUSH2 0xD2B JUMP JUMPDEST DUP1 ISZERO PUSH2 0x7E3 JUMPI DUP1 PUSH1 0x1F LT PUSH2 0x7B8 JUMPI PUSH2 0x100 DUP1 DUP4 SLOAD DIV MUL DUP4 MSTORE SWAP2 PUSH1 0x20 ADD SWAP2 PUSH2 0x7E3 JUMP JUMPDEST DUP3 ADD SWAP2 SWAP1 PUSH1 0x0 MSTORE PUSH1 0x20 PUSH1 0x0 KECCAK256 SWAP1 JUMPDEST DUP2 SLOAD DUP2 MSTORE SWAP1 PUSH1 0x1 ADD SWAP1 PUSH1 0x20 ADD DUP1 DUP4 GT PUSH2 0x7C6 JUMPI DUP3 SWAP1 SUB PUSH1 0x1F AND DUP3 ADD SWAP2 JUMPDEST POP POP POP POP POP SWAP1 POP DUP3 JUMP JUMPDEST PUSH1 0x0 DUP2 DUP2 SLOAD DUP2 LT PUSH2 0x7FD JUMPI PUSH1 0x0 DUP1 REVERT JUMPDEST SWAP1 PUSH1 0x0 MSTORE PUSH1 0x20 PUSH1 0x0 KECCAK256 ADD PUSH1 0x0 SWAP2 POP SWAP1 POP SLOAD DUP2 JUMP JUMPDEST PUSH1 0x5 SLOAD DUP2 JUMP JUMPDEST PUSH1 0x3 DUP3 DUP2 SLOAD DUP2 LT PUSH2 0x827 JUMPI PUSH1 0x0 DUP1 REVERT JUMPDEST SWAP1 PUSH1 0x0 MSTORE PUSH1 0x20 PUSH1 0x0 KECCAK256 ADD DUP2 DUP2 SLOAD DUP2 LT PUSH2 0x83F JUMPI PUSH1 0x0 DUP1 REVERT JUMPDEST SWAP1 PUSH1 0x0 MSTORE PUSH1 0x20 PUSH1 0x0 KECCAK256 ADD PUSH1 0x0 SWAP2 POP SWAP2 POP POP SLOAD DUP2 JUMP JUMPDEST DUP3 DUP1 SLOAD PUSH2 0x860 SWAP1 PUSH2 0xD2B JUMP JUMPDEST SWAP1 PUSH1 0x0 MSTORE PUSH1 0x20 PUSH1 0x0 KECCAK256 SWAP1 PUSH1 0x1F ADD PUSH1 0x20 SWAP1 DIV DUP2 ADD SWAP3 DUP3 PUSH2 0x882 JUMPI PUSH1 0x0 DUP6 SSTORE PUSH2 0x8C9 JUMP JUMPDEST DUP3 PUSH1 0x1F LT PUSH2 0x89B JUMPI DUP1 MLOAD PUSH1 0xFF NOT AND DUP4 DUP1 ADD OR DUP6 SSTORE PUSH2 0x8C9 JUMP JUMPDEST DUP3 DUP1 ADD PUSH1 0x1 ADD DUP6 SSTORE DUP3 ISZERO PUSH2 0x8C9 JUMPI SWAP2 DUP3 ADD JUMPDEST DUP3 DUP2 GT ISZERO PUSH2 0x8C8 JUMPI DUP3 MLOAD DUP3 SSTORE SWAP2 PUSH1 0x20 ADD SWAP2 SWAP1 PUSH1 0x1 ADD SWAP1 PUSH2 0x8AD JUMP JUMPDEST JUMPDEST POP SWAP1 POP PUSH2 0x8D6 SWAP2 SWAP1 PUSH2 0x8DA JUMP JUMPDEST POP SWAP1 JUMP JUMPDEST JUMPDEST DUP1 DUP3 GT ISZERO PUSH2 0x8F3 JUMPI PUSH1 0x0 DUP2 PUSH1 0x0 SWAP1 SSTORE POP PUSH1 0x1 ADD PUSH2 0x8DB JUMP JUMPDEST POP SWAP1 JUMP JUMPDEST PUSH1 0x0 PUSH2 0x90A PUSH2 0x905 DUP5 PUSH2 0xC4C JUMP JUMPDEST PUSH2 0xC27 JUMP JUMPDEST SWAP1 POP DUP3 DUP2 MSTORE PUSH1 0x20 DUP2 ADD DUP5 DUP5 DUP5 ADD GT ISZERO PUSH2 0x926 JUMPI PUSH2 0x925 PUSH2 0xDF1 JUMP JUMPDEST JUMPDEST PUSH2 0x931 DUP5 DUP3 DUP6 PUSH2 0xCE9 JUMP JUMPDEST POP SWAP4 SWAP3 POP POP POP JUMP JUMPDEST PUSH1 0x0 DUP3 PUSH1 0x1F DUP4 ADD SLT PUSH2 0x94E JUMPI PUSH2 0x94D PUSH2 0xDEC JUMP JUMPDEST JUMPDEST DUP2 CALLDATALOAD PUSH2 0x95E DUP5 DUP3 PUSH1 0x20 DUP7 ADD PUSH2 0x8F7 JUMP JUMPDEST SWAP2 POP POP SWAP3 SWAP2 POP POP JUMP JUMPDEST PUSH1 0x0 DUP2 CALLDATALOAD SWAP1 POP PUSH2 0x976 DUP2 PUSH2 0xE11 JUMP JUMPDEST SWAP3 SWAP2 POP POP JUMP JUMPDEST PUSH1 0x0 PUSH1 0x20 DUP3 DUP5 SUB SLT ISZERO PUSH2 0x992 JUMPI PUSH2 0x991 PUSH2 0xDFB JUMP JUMPDEST JUMPDEST PUSH1 0x0 DUP3 ADD CALLDATALOAD PUSH8 0xFFFFFFFFFFFFFFFF DUP2 GT ISZERO PUSH2 0x9B0 JUMPI PUSH2 0x9AF PUSH2 0xDF6 JUMP JUMPDEST JUMPDEST PUSH2 0x9BC DUP5 DUP3 DUP6 ADD PUSH2 0x939 JUMP JUMPDEST SWAP2 POP POP SWAP3 SWAP2 POP POP JUMP JUMPDEST PUSH1 0x0 PUSH1 0x20 DUP3 DUP5 SUB SLT ISZERO PUSH2 0x9DB JUMPI PUSH2 0x9DA PUSH2 0xDFB JUMP JUMPDEST JUMPDEST PUSH1 0x0 PUSH2 0x9E9 DUP5 DUP3 DUP6 ADD PUSH2 0x967 JUMP JUMPDEST SWAP2 POP POP SWAP3 SWAP2 POP POP JUMP JUMPDEST PUSH1 0x0 DUP1 PUSH1 0x0 PUSH1 0x60 DUP5 DUP7 SUB SLT ISZERO PUSH2 0xA0B JUMPI PUSH2 0xA0A PUSH2 0xDFB JUMP JUMPDEST JUMPDEST PUSH1 0x0 PUSH2 0xA19 DUP7 DUP3 DUP8 ADD PUSH2 0x967 JUMP JUMPDEST SWAP4 POP POP PUSH1 0x20 DUP5 ADD CALLDATALOAD PUSH8 0xFFFFFFFFFFFFFFFF DUP2 GT ISZERO PUSH2 0xA3A JUMPI PUSH2 0xA39 PUSH2 0xDF6 JUMP JUMPDEST JUMPDEST PUSH2 0xA46 DUP7 DUP3 DUP8 ADD PUSH2 0x939 JUMP JUMPDEST SWAP3 POP POP PUSH1 0x40 DUP5 ADD CALLDATALOAD PUSH8 0xFFFFFFFFFFFFFFFF DUP2 GT ISZERO PUSH2 0xA67 JUMPI PUSH2 0xA66 PUSH2 0xDF6 JUMP JUMPDEST JUMPDEST PUSH2 0xA73 DUP7 DUP3 DUP8 ADD PUSH2 0x939 JUMP JUMPDEST SWAP2 POP POP SWAP3 POP SWAP3 POP SWAP3 JUMP JUMPDEST PUSH1 0x0 DUP1 PUSH1 0x40 DUP4 DUP6 SUB SLT ISZERO PUSH2 0xA94 JUMPI PUSH2 0xA93 PUSH2 0xDFB JUMP JUMPDEST JUMPDEST PUSH1 0x0 PUSH2 0xAA2 DUP6 DUP3 DUP7 ADD PUSH2 0x967 JUMP JUMPDEST SWAP3 POP POP PUSH1 0x20 PUSH2 0xAB3 DUP6 DUP3 DUP7 ADD PUSH2 0x967 JUMP JUMPDEST SWAP2 POP POP SWAP3 POP SWAP3 SWAP1 POP JUMP JUMPDEST PUSH2 0xAC6 DUP2 PUSH2 0xC99 JUMP JUMPDEST DUP3 MSTORE POP POP JUMP JUMPDEST PUSH2 0xAD5 DUP2 PUSH2 0xCAB JUMP JUMPDEST DUP3 MSTORE POP POP JUMP JUMPDEST PUSH2 0xAE4 DUP2 PUSH2 0xCB5 JUMP JUMPDEST DUP3 MSTORE POP POP JUMP JUMPDEST PUSH1 0x0 PUSH2 0xAF5 DUP3 PUSH2 0xC7D JUMP JUMPDEST PUSH2 0xAFF DUP2 DUP6 PUSH2 0xC88 JUMP JUMPDEST SWAP4 POP PUSH2 0xB0F DUP2 DUP6 PUSH1 0x20 DUP7 ADD PUSH2 0xCF8 JUMP JUMPDEST PUSH2 0xB18 DUP2 PUSH2 0xE00 JUMP JUMPDEST DUP5 ADD SWAP2 POP POP SWAP3 SWAP2 POP POP JUMP JUMPDEST PUSH2 0xB2C DUP2 PUSH2 0xCDF JUMP JUMPDEST DUP3 MSTORE POP POP JUMP JUMPDEST PUSH1 0x0 PUSH1 0x20 DUP3 ADD SWAP1 POP PUSH2 0xB47 PUSH1 0x0 DUP4 ADD DUP5 PUSH2 0xABD JUMP JUMPDEST SWAP3 SWAP2 POP POP JUMP JUMPDEST PUSH1 0x0 PUSH1 0x20 DUP3 ADD SWAP1 POP PUSH2 0xB62 PUSH1 0x0 DUP4 ADD DUP5 PUSH2 0xACC JUMP JUMPDEST SWAP3 SWAP2 POP POP JUMP JUMPDEST PUSH1 0x0 PUSH1 0x20 DUP3 ADD SWAP1 POP PUSH2 0xB7D PUSH1 0x0 DUP4 ADD DUP5 PUSH2 0xADB JUMP JUMPDEST SWAP3 SWAP2 POP POP JUMP JUMPDEST PUSH1 0x0 PUSH1 0x20 DUP3 ADD SWAP1 POP DUP2 DUP2 SUB PUSH1 0x0 DUP4 ADD MSTORE PUSH2 0xB9D DUP2 DUP5 PUSH2 0xAEA JUMP JUMPDEST SWAP1 POP SWAP3 SWAP2 POP POP JUMP JUMPDEST PUSH1 0x0 PUSH1 0x40 DUP3 ADD SWAP1 POP DUP2 DUP2 SUB PUSH1 0x0 DUP4 ADD MSTORE PUSH2 0xBBF DUP2 DUP6 PUSH2 0xAEA JUMP JUMPDEST SWAP1 POP DUP2 DUP2 SUB PUSH1 0x20 DUP4 ADD MSTORE PUSH2 0xBD3 DUP2 DUP5 PUSH2 0xAEA JUMP JUMPDEST SWAP1 POP SWAP4 SWAP3 POP POP POP JUMP JUMPDEST PUSH1 0x0 PUSH1 0x20 DUP3 ADD SWAP1 POP PUSH2 0xBF1 PUSH1 0x0 DUP4 ADD DUP5 PUSH2 0xB23 JUMP JUMPDEST SWAP3 SWAP2 POP POP JUMP JUMPDEST PUSH1 0x0 PUSH1 0x40 DUP3 ADD SWAP1 POP PUSH2 0xC0C PUSH1 0x0 DUP4 ADD DUP6 PUSH2 0xB23 JUMP JUMPDEST DUP2 DUP2 SUB PUSH1 0x20 DUP4 ADD MSTORE PUSH2 0xC1E DUP2 DUP5 PUSH2 0xAEA JUMP JUMPDEST SWAP1 POP SWAP4 SWAP3 POP POP POP JUMP JUMPDEST PUSH1 0x0 PUSH2 0xC31 PUSH2 0xC42 JUMP JUMPDEST SWAP1 POP PUSH2 0xC3D DUP3 DUP3 PUSH2 0xD5D JUMP JUMPDEST SWAP2 SWAP1 POP JUMP JUMPDEST PUSH1 0x0 PUSH1 0x40 MLOAD SWAP1 POP SWAP1 JUMP JUMPDEST PUSH1 0x0 PUSH8 0xFFFFFFFFFFFFFFFF DUP3 GT ISZERO PUSH2 0xC67 JUMPI PUSH2 0xC66 PUSH2 0xDBD JUMP JUMPDEST JUMPDEST PUSH2 0xC70 DUP3 PUSH2 0xE00 JUMP JUMPDEST SWAP1 POP PUSH1 0x20 DUP2 ADD SWAP1 POP SWAP2 SWAP1 POP JUMP JUMPDEST PUSH1 0x0 DUP2 MLOAD SWAP1 POP SWAP2 SWAP1 POP JUMP JUMPDEST PUSH1 0x0 DUP3 DUP3 MSTORE PUSH1 0x20 DUP3 ADD SWAP1 POP SWAP3 SWAP2 POP POP JUMP JUMPDEST PUSH1 0x0 PUSH2 0xCA4 DUP3 PUSH2 0xCBF JUMP JUMPDEST SWAP1 POP SWAP2 SWAP1 POP JUMP JUMPDEST PUSH1 0x0 DUP2 SWAP1 POP SWAP2 SWAP1 POP JUMP JUMPDEST PUSH1 0x0 DUP2 SWAP1 POP SWAP2 SWAP1 POP JUMP JUMPDEST PUSH1 0x0 PUSH20 0xFFFFFFFFFFFFFFFFFFFFFFFFFFFFFFFFFFFFFFFF DUP3 AND SWAP1 POP SWAP2 SWAP1 POP JUMP JUMPDEST PUSH1 0x0 DUP2 SWAP1 POP SWAP2 SWAP1 POP JUMP JUMPDEST DUP3 DUP2 DUP4 CALLDATACOPY PUSH1 0x0 DUP4 DUP4 ADD MSTORE POP POP POP JUMP JUMPDEST PUSH1 0x0 JUMPDEST DUP4 DUP2 LT ISZERO PUSH2 0xD16 JUMPI DUP1 DUP3 ADD MLOAD DUP2 DUP5 ADD MSTORE PUSH1 0x20 DUP2 ADD SWAP1 POP PUSH2 0xCFB JUMP JUMPDEST DUP4 DUP2 GT ISZERO PUSH2 0xD25 JUMPI PUSH1 0x0 DUP5 DUP5 ADD MSTORE JUMPDEST POP POP POP POP JUMP JUMPDEST PUSH1 0x0 PUSH1 0x2 DUP3 DIV SWAP1 POP PUSH1 0x1 DUP3 AND DUP1 PUSH2 0xD43 JUMPI PUSH1 0x7F DUP3 AND SWAP2 POP JUMPDEST PUSH1 0x20 DUP3 LT DUP2 EQ ISZERO PUSH2 0xD57 JUMPI PUSH2 0xD56 PUSH2 0xD8E JUMP JUMPDEST JUMPDEST POP SWAP2 SWAP1 POP JUMP JUMPDEST PUSH2 0xD66 DUP3 PUSH2 0xE00 JUMP JUMPDEST DUP2 ADD DUP2 DUP2 LT PUSH8 0xFFFFFFFFFFFFFFFF DUP3 GT OR ISZERO PUSH2 0xD85 JUMPI PUSH2 0xD84 PUSH2 0xDBD JUMP JUMPDEST JUMPDEST DUP1 PUSH1 0x40 MSTORE POP POP POP JUMP JUMPDEST PUSH32 0x4E487B7100000000000000000000000000000000000000000000000000000000 PUSH1 0x0 MSTORE PUSH1 0x22 PUSH1 0x4 MSTORE PUSH1 0x24 PUSH1 0x0 REVERT JUMPDEST PUSH32 0x4E487B7100000000000000000000000000000000000000000000000000000000 PUSH1 0x0 MSTORE PUSH1 0x41 PUSH1 0x4 MSTORE PUSH1 0x24 PUSH1 0x0 REVERT JUMPDEST PUSH1 0x0 DUP1 REVERT JUMPDEST PUSH1 0x0 DUP1 REVERT JUMPDEST PUSH1 0x0 DUP1 REVERT JUMPDEST PUSH1 0x0 DUP1 REVERT JUMPDEST PUSH1 0x0 PUSH1 0x1F NOT PUSH1 0x1F DUP4 ADD AND SWAP1 POP SWAP2 SWAP1 POP JUMP JUMPDEST PUSH2 0xE1A DUP2 PUSH2 0xCDF JUMP JUMPDEST DUP2 EQ PUSH2 0xE25 JUMPI PUSH1 0x0 DUP1 REVERT JUMPDEST POP JUMP INVALID LOG2 PUSH5 0x6970667358 0x22 SLT KECCAK256 0xDD JUMPI 0xB2 DIFFICULTY STATICCALL 0x4D 0xC5 0x21 0xA6 0xD0 PUSH16 0x345446388995B3B3126EC6EDE006E034 SWAP3 0xE4 0xA7 DIFFICULTY 0xA5 PUSH5 0x736F6C6343 STOP ADDMOD SMOD STOP CALLER "
				},
				"gasEstimates": {
					"creation": {
						"codeDepositCost": "735600",
						"executionCost": "infinite",
						"totalCost": "infinite"
					},
					"external": {
						"addBook(uint256,string,string)": "infinite",
						"addValue(string)": "infinite",
						"array2D(uint256,uint256)": "infinite",
						"books(uint256)": "infinite",
						"getValue()": "418",
						"myAddress()": "2604",
						"myBytes32()": "2452",
						"myInt()": "2474",
						"myString()": "infinite",
						"myStruct()": "infinite",
						"myUint()": "2475",
						"myUint256()": "2495",
						"stringArray(uint256)": "infinite",
						"uintArray(uint256)": "infinite",
						"valueCount()": "2468",
						"values(uint256)": "infinite"
					}
				},
				"methodIdentifiers": {
					"addBook(uint256,string,string)": "028414f2",
					"addValue(string)": "3a5fbaaa",
					"array2D(uint256,uint256)": "d3268fc1",
					"books(uint256)": "68744046",
					"getValue()": "20965255",
					"myAddress()": "26b85ee1",
					"myBytes32()": "4b3e7e0c",
					"myInt()": "2cb777a6",
					"myString()": "492bfa18",
					"myStruct()": "8bc9fe6c",
					"myUint()": "06540f7e",
					"myUint256()": "a7dbce1c",
					"stringArray(uint256)": "6422c4c8",
					"uintArray(uint256)": "9ae918c7",
					"valueCount()": "26eb4dbb",
					"values(uint256)": "5e383d21"
				}
			},
			"storageLayout": {
				"storage": [
					{
						"astId": 8,
						"contract": "contracts/MyContract.sol:MyContract",
						"label": "uintArray",
						"offset": 0,
						"slot": "0",
						"type": "t_array(t_uint256)dyn_storage"
					},
					{
						"astId": 15,
						"contract": "contracts/MyContract.sol:MyContract",
						"label": "stringArray",
						"offset": 0,
						"slot": "1",
						"type": "t_array(t_string_storage)dyn_storage"
					},
					{
						"astId": 18,
						"contract": "contracts/MyContract.sol:MyContract",
						"label": "values",
						"offset": 0,
						"slot": "2",
						"type": "t_array(t_string_storage)dyn_storage"
					},
					{
						"astId": 31,
						"contract": "contracts/MyContract.sol:MyContract",
						"label": "array2D",
						"offset": 0,
						"slot": "3",
						"type": "t_array(t_array(t_uint256)dyn_storage)dyn_storage"
					},
					{
						"astId": 34,
						"contract": "contracts/MyContract.sol:MyContract",
						"label": "myUint",
						"offset": 0,
						"slot": "4",
						"type": "t_uint256"
					},
					{
						"astId": 37,
						"contract": "contracts/MyContract.sol:MyContract",
						"label": "myUint256",
						"offset": 0,
						"slot": "5",
						"type": "t_uint256"
					},
					{
						"astId": 41,
						"contract": "contracts/MyContract.sol:MyContract",
						"label": "myInt",
						"offset": 0,
						"slot": "6",
						"type": "t_int256"
					},
					{
						"astId": 44,
						"contract": "contracts/MyContract.sol:MyContract",
						"label": "myString",
						"offset": 0,
						"slot": "7",
						"type": "t_string_storage"
					},
					{
						"astId": 47,
						"contract": "contracts/MyContract.sol:MyContract",
						"label": "myBytes32",
						"offset": 0,
						"slot": "8",
						"type": "t_bytes32"
					},
					{
						"astId": 51,
						"contract": "contracts/MyContract.sol:MyContract",
						"label": "myAddress",
						"offset": 0,
						"slot": "9",
						"type": "t_address"
					},
					{
						"astId": 63,
						"contract": "contracts/MyContract.sol:MyContract",
						"label": "myStruct",
						"offset": 0,
						"slot": "10",
						"type": "t_struct(MyStruct)56_storage"
					},
					{
						"astId": 72,
						"contract": "contracts/MyContract.sol:MyContract",
						"label": "names",
						"offset": 0,
						"slot": "12",
						"type": "t_mapping(t_uint256,t_string_storage)"
					},
					{
						"astId": 77,
						"contract": "contracts/MyContract.sol:MyContract",
						"label": "books",
						"offset": 0,
						"slot": "13",
						"type": "t_mapping(t_uint256,t_struct(Book)68_storage)"
					}
				],
				"types": {
					"t_address": {
						"encoding": "inplace",
						"label": "address",
						"numberOfBytes": "20"
					},
					"t_array(t_array(t_uint256)dyn_storage)dyn_storage": {
						"base": "t_array(t_uint256)dyn_storage",
						"encoding": "dynamic_array",
						"label": "uint256[][]",
						"numberOfBytes": "32"
					},
					"t_array(t_string_storage)dyn_storage": {
						"base": "t_string_storage",
						"encoding": "dynamic_array",
						"label": "string[]",
						"numberOfBytes": "32"
					},
					"t_array(t_uint256)dyn_storage": {
						"base": "t_uint256",
						"encoding": "dynamic_array",
						"label": "uint256[]",
						"numberOfBytes": "32"
					},
					"t_bytes32": {
						"encoding": "inplace",
						"label": "bytes32",
						"numberOfBytes": "32"
					},
					"t_int256": {
						"encoding": "inplace",
						"label": "int256",
						"numberOfBytes": "32"
					},
					"t_mapping(t_uint256,t_string_storage)": {
						"encoding": "mapping",
						"key": "t_uint256",
						"label": "mapping(uint256 => string)",
						"numberOfBytes": "32",
						"value": "t_string_storage"
					},
					"t_mapping(t_uint256,t_struct(Book)68_storage)": {
						"encoding": "mapping",
						"key": "t_uint256",
						"label": "mapping(uint256 => struct MyContract.Book)",
						"numberOfBytes": "32",
						"value": "t_struct(Book)68_storage"
					},
					"t_string_storage": {
						"encoding": "bytes",
						"label": "string",
						"numberOfBytes": "32"
					},
					"t_struct(Book)68_storage": {
						"encoding": "inplace",
						"label": "struct MyContract.Book",
						"members": [
							{
								"astId": 65,
								"contract": "contracts/MyContract.sol:MyContract",
								"label": "title",
								"offset": 0,
								"slot": "0",
								"type": "t_string_storage"
							},
							{
								"astId": 67,
								"contract": "contracts/MyContract.sol:MyContract",
								"label": "author",
								"offset": 0,
								"slot": "1",
								"type": "t_string_storage"
							}
						],
						"numberOfBytes": "64"
					},
					"t_struct(MyStruct)56_storage": {
						"encoding": "inplace",
						"label": "struct MyContract.MyStruct",
						"members": [
							{
								"astId": 53,
								"contract": "contracts/MyContract.sol:MyContract",
								"label": "myUint256",
								"offset": 0,
								"slot": "0",
								"type": "t_uint256"
							},
							{
								"astId": 55,
								"contract": "contracts/MyContract.sol:MyContract",
								"label": "myString",
								"offset": 0,
								"slot": "1",
								"type": "t_string_storage"
							}
						],
						"numberOfBytes": "64"
					},
					"t_uint256": {
						"encoding": "inplace",
						"label": "uint256",
						"numberOfBytes": "32"
					}
				}
			},
			"userdoc": {
				"kind": "user",
				"methods": {},
				"version": 1
			}
		}
	}
}