{
	"contracts/HotelRoom.sol": {
		"HotelRoom": {
			"abi": [
				{
					"inputs": [],
					"stateMutability": "nonpayable",
					"type": "constructor"
				},
				{
					"anonymous": false,
					"inputs": [
						{
							"indexed": false,
							"internalType": "address",
							"name": "_occupant",
							"type": "address"
						},
						{
							"indexed": false,
							"internalType": "uint256",
							"name": "_value",
							"type": "uint256"
						}
					],
					"name": "Occupy",
					"type": "event"
				},
				{
					"inputs": [],
					"name": "book",
					"outputs": [],
					"stateMutability": "payable",
					"type": "function"
				},
				{
					"inputs": [],
					"name": "owner",
					"outputs": [
						{
							"internalType": "address payable",
							"name": "",
							"type": "address"
						}
					],
					"stateMutability": "view",
					"type": "function"
				},
				{
					"inputs": [],
					"name": "status",
					"outputs": [
						{
							"internalType": "enum HotelRoom.Statuses",
							"name": "",
							"type": "uint8"
						}
					],
					"stateMutability": "view",
					"type": "function"
				}
			],
			"devdoc": {
				"kind": "dev",
				"methods": {},
				"version": 1
			},
			"evm": {
				"assembly": "    /* \"contracts/HotelRoom.sol\":60:971  contract HotelRoom {\r... */\n  mstore(0x40, 0x80)\n    /* \"contracts/HotelRoom.sol\":279:374  constructor() {\r... */\n  callvalue\n  dup1\n  iszero\n  tag_1\n  jumpi\n  0x00\n  dup1\n  revert\ntag_1:\n  pop\n    /* \"contracts/HotelRoom.sol\":320:330  msg.sender */\n  caller\n    /* \"contracts/HotelRoom.sol\":304:309  owner */\n  0x00\n  0x01\n    /* \"contracts/HotelRoom.sol\":304:331  owner = payable(msg.sender) */\n  0x0100\n  exp\n  dup2\n  sload\n  dup2\n  0xffffffffffffffffffffffffffffffffffffffff\n  mul\n  not\n  and\n  swap1\n  dup4\n  0xffffffffffffffffffffffffffffffffffffffff\n  and\n  mul\n  or\n  swap1\n  sstore\n  pop\n    /* \"contracts/HotelRoom.sol\":351:366  Statuses.Vacant */\n  0x00\n    /* \"contracts/HotelRoom.sol\":342:348  status */\n  dup1\n  0x00\n    /* \"contracts/HotelRoom.sol\":342:366  status = Statuses.Vacant */\n  0x0100\n  exp\n  dup2\n  sload\n  dup2\n  0xff\n  mul\n  not\n  and\n  swap1\n  dup4\n  0x01\n  dup2\n  gt\n  iszero\n  tag_4\n  jumpi\n  tag_5\n  tag_6\n  jump\t// in\ntag_5:\ntag_4:\n  mul\n  or\n  swap1\n  sstore\n  pop\n    /* \"contracts/HotelRoom.sol\":60:971  contract HotelRoom {\r... */\n  jump(tag_7)\n    /* \"#utility.yul\":7:187   */\ntag_6:\n    /* \"#utility.yul\":55:132   */\n  0x4e487b7100000000000000000000000000000000000000000000000000000000\n    /* \"#utility.yul\":52:53   */\n  0x00\n    /* \"#utility.yul\":45:133   */\n  mstore\n    /* \"#utility.yul\":152:156   */\n  0x21\n    /* \"#utility.yul\":149:150   */\n  0x04\n    /* \"#utility.yul\":142:157   */\n  mstore\n    /* \"#utility.yul\":176:180   */\n  0x24\n    /* \"#utility.yul\":173:174   */\n  0x00\n    /* \"#utility.yul\":166:181   */\n  revert\n    /* \"contracts/HotelRoom.sol\":60:971  contract HotelRoom {\r... */\ntag_7:\n  dataSize(sub_0)\n  dup1\n  dataOffset(sub_0)\n  0x00\n  codecopy\n  0x00\n  return\nstop\n\nsub_0: assembly {\n        /* \"contracts/HotelRoom.sol\":60:971  contract HotelRoom {\r... */\n      mstore(0x40, 0x80)\n      jumpi(tag_1, lt(calldatasize, 0x04))\n      shr(0xe0, calldataload(0x00))\n      dup1\n      0x05a8da72\n      eq\n      tag_2\n      jumpi\n      dup1\n      0x200d2ed2\n      eq\n      tag_3\n      jumpi\n      dup1\n      0x8da5cb5b\n      eq\n      tag_4\n      jumpi\n    tag_1:\n      0x00\n      dup1\n      revert\n        /* \"contracts/HotelRoom.sol\":679:968  function book() public  payable onlyWhileVacant costs(2 ether) {\r... */\n    tag_2:\n      tag_5\n      tag_6\n      jump\t// in\n    tag_5:\n      stop\n        /* \"contracts/HotelRoom.sol\":158:180  Statuses public status */\n    tag_3:\n      callvalue\n      dup1\n      iszero\n      tag_7\n      jumpi\n      0x00\n      dup1\n      revert\n    tag_7:\n      pop\n      tag_8\n      tag_9\n      jump\t// in\n    tag_8:\n      mload(0x40)\n      tag_10\n      swap2\n      swap1\n      tag_11\n      jump\t// in\n    tag_10:\n      mload(0x40)\n      dup1\n      swap2\n      sub\n      swap1\n      return\n        /* \"contracts/HotelRoom.sol\":242:270  address payable public owner */\n    tag_4:\n      callvalue\n      dup1\n      iszero\n      tag_12\n      jumpi\n      0x00\n      dup1\n      revert\n    tag_12:\n      pop\n      tag_13\n      tag_14\n      jump\t// in\n    tag_13:\n      mload(0x40)\n      tag_15\n      swap2\n      swap1\n      tag_16\n      jump\t// in\n    tag_15:\n      mload(0x40)\n      dup1\n      swap2\n      sub\n      swap1\n      return\n        /* \"contracts/HotelRoom.sol\":679:968  function book() public  payable onlyWhileVacant costs(2 ether) {\r... */\n    tag_6:\n        /* \"contracts/HotelRoom.sol\":461:476  Statuses.Vacant */\n      0x00\n        /* \"contracts/HotelRoom.sol\":451:476  status == Statuses.Vacant */\n      0x01\n      dup2\n      gt\n      iszero\n      tag_18\n      jumpi\n      tag_19\n      tag_20\n      jump\t// in\n    tag_19:\n    tag_18:\n        /* \"contracts/HotelRoom.sol\":451:457  status */\n      0x00\n      dup1\n      sload\n      swap1\n      0x0100\n      exp\n      swap1\n      div\n      0xff\n      and\n        /* \"contracts/HotelRoom.sol\":451:476  status == Statuses.Vacant */\n      0x01\n      dup2\n      gt\n      iszero\n      tag_21\n      jumpi\n      tag_22\n      tag_20\n      jump\t// in\n    tag_22:\n    tag_21:\n      eq\n        /* \"contracts/HotelRoom.sol\":443:500  require(status == Statuses.Vacant, \"Currently occupied.\") */\n      tag_23\n      jumpi\n      mload(0x40)\n      0x08c379a000000000000000000000000000000000000000000000000000000000\n      dup2\n      mstore\n      0x04\n      add\n      tag_24\n      swap1\n      tag_25\n      jump\t// in\n    tag_24:\n      mload(0x40)\n      dup1\n      swap2\n      sub\n      swap1\n      revert\n    tag_23:\n        /* \"contracts/HotelRoom.sol\":733:740  2 ether */\n      0x1bc16d674ec80000\n        /* \"contracts/HotelRoom.sol\":613:620  2 ether */\n      dup1\n        /* \"contracts/HotelRoom.sol\":600:609  msg.value */\n      callvalue\n        /* \"contracts/HotelRoom.sol\":600:620  msg.value >= 2 ether */\n      lt\n      iszero\n        /* \"contracts/HotelRoom.sol\":592:651  require(msg.value >= 2 ether, \"Not enough ether provided.\") */\n      tag_27\n      jumpi\n      mload(0x40)\n      0x08c379a000000000000000000000000000000000000000000000000000000000\n      dup2\n      mstore\n      0x04\n      add\n      tag_28\n      swap1\n      tag_29\n      jump\t// in\n    tag_28:\n      mload(0x40)\n      dup1\n      swap2\n      sub\n      swap1\n      revert\n    tag_27:\n        /* \"contracts/HotelRoom.sol\":762:779  Statuses.Occupied */\n      0x01\n        /* \"contracts/HotelRoom.sol\":753:759  status */\n      0x00\n      dup1\n        /* \"contracts/HotelRoom.sol\":753:779  status = Statuses.Occupied */\n      0x0100\n      exp\n      dup2\n      sload\n      dup2\n      0xff\n      mul\n      not\n      and\n      swap1\n      dup4\n      0x01\n      dup2\n      gt\n      iszero\n      tag_31\n      jumpi\n      tag_32\n      tag_20\n      jump\t// in\n    tag_32:\n    tag_31:\n      mul\n      or\n      swap1\n      sstore\n      pop\n        /* \"contracts/HotelRoom.sol\":790:795  owner */\n      0x00\n      0x01\n      swap1\n      sload\n      swap1\n      0x0100\n      exp\n      swap1\n      div\n      0xffffffffffffffffffffffffffffffffffffffff\n      and\n        /* \"contracts/HotelRoom.sol\":790:804  owner.transfer */\n      0xffffffffffffffffffffffffffffffffffffffff\n      and\n        /* \"contracts/HotelRoom.sol\":790:815  owner.transfer(msg.value) */\n      0x08fc\n        /* \"contracts/HotelRoom.sol\":805:814  msg.value */\n      callvalue\n        /* \"contracts/HotelRoom.sol\":790:815  owner.transfer(msg.value) */\n      swap1\n      dup2\n      iszero\n      mul\n      swap1\n      mload(0x40)\n      0x00\n      mload(0x40)\n      dup1\n      dup4\n      sub\n      dup2\n      dup6\n      dup9\n      dup9\n      call\n      swap4\n      pop\n      pop\n      pop\n      pop\n      iszero\n      dup1\n      iszero\n      tag_34\n      jumpi\n      returndatasize\n      0x00\n      dup1\n      returndatacopy\n      revert(0x00, returndatasize)\n    tag_34:\n      pop\n        /* \"contracts/HotelRoom.sol\":827:836  bool sent */\n      0x00\n        /* \"contracts/HotelRoom.sol\":838:855  bytes memory data */\n      dup1\n        /* \"contracts/HotelRoom.sol\":859:864  owner */\n      0x00\n      0x01\n      swap1\n      sload\n      swap1\n      0x0100\n      exp\n      swap1\n      div\n      0xffffffffffffffffffffffffffffffffffffffff\n      and\n        /* \"contracts/HotelRoom.sol\":859:869  owner.call */\n      0xffffffffffffffffffffffffffffffffffffffff\n      and\n        /* \"contracts/HotelRoom.sol\":877:886  msg.value */\n      callvalue\n        /* \"contracts/HotelRoom.sol\":859:891  owner.call{value: msg.value}(\"\") */\n      mload(0x40)\n      tag_35\n      swap1\n      tag_36\n      jump\t// in\n    tag_35:\n      0x00\n      mload(0x40)\n      dup1\n      dup4\n      sub\n      dup2\n      dup6\n      dup8\n      gas\n      call\n      swap3\n      pop\n      pop\n      pop\n      returndatasize\n      dup1\n      0x00\n      dup2\n      eq\n      tag_39\n      jumpi\n      mload(0x40)\n      swap2\n      pop\n      and(add(returndatasize, 0x3f), not(0x1f))\n      dup3\n      add\n      0x40\n      mstore\n      returndatasize\n      dup3\n      mstore\n      returndatasize\n      0x00\n      0x20\n      dup5\n      add\n      returndatacopy\n      jump(tag_38)\n    tag_39:\n      0x60\n      swap2\n      pop\n    tag_38:\n      pop\n        /* \"contracts/HotelRoom.sol\":826:891  (bool sent, bytes memory data) = owner.call{value: msg.value}(\"\") */\n      swap2\n      pop\n      swap2\n      pop\n        /* \"contracts/HotelRoom.sol\":910:914  true */\n      0x01\n        /* \"contracts/HotelRoom.sol\":902:915  require(true) */\n      tag_40\n      jumpi\n      0x00\n      dup1\n      revert\n    tag_40:\n        /* \"contracts/HotelRoom.sol\":931:960  Occupy(msg.sender, msg.value) */\n      0xba951166d42eb077151bdecb7cf6027562f04f0143b0c141b1bb0a33eef5d693\n        /* \"contracts/HotelRoom.sol\":938:948  msg.sender */\n      caller\n        /* \"contracts/HotelRoom.sol\":950:959  msg.value */\n      callvalue\n        /* \"contracts/HotelRoom.sol\":931:960  Occupy(msg.sender, msg.value) */\n      mload(0x40)\n      tag_41\n      swap3\n      swap2\n      swap1\n      tag_42\n      jump\t// in\n    tag_41:\n      mload(0x40)\n      dup1\n      swap2\n      sub\n      swap1\n      log1\n        /* \"contracts/HotelRoom.sol\":742:968  {\r... */\n      pop\n      pop\n        /* \"contracts/HotelRoom.sol\":511:512  _ */\n      pop\n        /* \"contracts/HotelRoom.sol\":679:968  function book() public  payable onlyWhileVacant costs(2 ether) {\r... */\n      jump\t// out\n        /* \"contracts/HotelRoom.sol\":158:180  Statuses public status */\n    tag_9:\n      0x00\n      dup1\n      sload\n      swap1\n      0x0100\n      exp\n      swap1\n      div\n      0xff\n      and\n      dup2\n      jump\t// out\n        /* \"contracts/HotelRoom.sol\":242:270  address payable public owner */\n    tag_14:\n      0x00\n      0x01\n      swap1\n      sload\n      swap1\n      0x0100\n      exp\n      swap1\n      div\n      0xffffffffffffffffffffffffffffffffffffffff\n      and\n      dup2\n      jump\t// out\n        /* \"#utility.yul\":7:149   */\n    tag_44:\n        /* \"#utility.yul\":110:142   */\n      tag_46\n        /* \"#utility.yul\":136:141   */\n      dup2\n        /* \"#utility.yul\":110:142   */\n      tag_47\n      jump\t// in\n    tag_46:\n        /* \"#utility.yul\":105:108   */\n      dup3\n        /* \"#utility.yul\":98:143   */\n      mstore\n        /* \"#utility.yul\":7:149   */\n      pop\n      pop\n      jump\t// out\n        /* \"#utility.yul\":155:273   */\n    tag_48:\n        /* \"#utility.yul\":242:266   */\n      tag_50\n        /* \"#utility.yul\":260:265   */\n      dup2\n        /* \"#utility.yul\":242:266   */\n      tag_51\n      jump\t// in\n    tag_50:\n        /* \"#utility.yul\":237:240   */\n      dup3\n        /* \"#utility.yul\":230:267   */\n      mstore\n        /* \"#utility.yul\":155:273   */\n      pop\n      pop\n      jump\t// out\n        /* \"#utility.yul\":279:426   */\n    tag_52:\n        /* \"#utility.yul\":374:419   */\n      tag_54\n        /* \"#utility.yul\":413:418   */\n      dup2\n        /* \"#utility.yul\":374:419   */\n      tag_55\n      jump\t// in\n    tag_54:\n        /* \"#utility.yul\":369:372   */\n      dup3\n        /* \"#utility.yul\":362:420   */\n      mstore\n        /* \"#utility.yul\":279:426   */\n      pop\n      pop\n      jump\t// out\n        /* \"#utility.yul\":432:798   */\n    tag_56:\n        /* \"#utility.yul\":574:577   */\n      0x00\n        /* \"#utility.yul\":595:662   */\n      tag_58\n        /* \"#utility.yul\":659:661   */\n      0x1a\n        /* \"#utility.yul\":654:657   */\n      dup4\n        /* \"#utility.yul\":595:662   */\n      tag_59\n      jump\t// in\n    tag_58:\n        /* \"#utility.yul\":588:662   */\n      swap2\n      pop\n        /* \"#utility.yul\":671:764   */\n      tag_60\n        /* \"#utility.yul\":760:763   */\n      dup3\n        /* \"#utility.yul\":671:764   */\n      tag_61\n      jump\t// in\n    tag_60:\n        /* \"#utility.yul\":789:791   */\n      0x20\n        /* \"#utility.yul\":784:787   */\n      dup3\n        /* \"#utility.yul\":780:792   */\n      add\n        /* \"#utility.yul\":773:792   */\n      swap1\n      pop\n        /* \"#utility.yul\":432:798   */\n      swap2\n      swap1\n      pop\n      jump\t// out\n        /* \"#utility.yul\":804:1170   */\n    tag_62:\n        /* \"#utility.yul\":946:949   */\n      0x00\n        /* \"#utility.yul\":967:1034   */\n      tag_64\n        /* \"#utility.yul\":1031:1033   */\n      0x13\n        /* \"#utility.yul\":1026:1029   */\n      dup4\n        /* \"#utility.yul\":967:1034   */\n      tag_59\n      jump\t// in\n    tag_64:\n        /* \"#utility.yul\":960:1034   */\n      swap2\n      pop\n        /* \"#utility.yul\":1043:1136   */\n      tag_65\n        /* \"#utility.yul\":1132:1135   */\n      dup3\n        /* \"#utility.yul\":1043:1136   */\n      tag_66\n      jump\t// in\n    tag_65:\n        /* \"#utility.yul\":1161:1163   */\n      0x20\n        /* \"#utility.yul\":1156:1159   */\n      dup3\n        /* \"#utility.yul\":1152:1164   */\n      add\n        /* \"#utility.yul\":1145:1164   */\n      swap1\n      pop\n        /* \"#utility.yul\":804:1170   */\n      swap2\n      swap1\n      pop\n      jump\t// out\n        /* \"#utility.yul\":1176:1574   */\n    tag_67:\n        /* \"#utility.yul\":1335:1338   */\n      0x00\n        /* \"#utility.yul\":1356:1439   */\n      tag_69\n        /* \"#utility.yul\":1437:1438   */\n      0x00\n        /* \"#utility.yul\":1432:1435   */\n      dup4\n        /* \"#utility.yul\":1356:1439   */\n      tag_70\n      jump\t// in\n    tag_69:\n        /* \"#utility.yul\":1349:1439   */\n      swap2\n      pop\n        /* \"#utility.yul\":1448:1541   */\n      tag_71\n        /* \"#utility.yul\":1537:1540   */\n      dup3\n        /* \"#utility.yul\":1448:1541   */\n      tag_72\n      jump\t// in\n    tag_71:\n        /* \"#utility.yul\":1566:1567   */\n      0x00\n        /* \"#utility.yul\":1561:1564   */\n      dup3\n        /* \"#utility.yul\":1557:1568   */\n      add\n        /* \"#utility.yul\":1550:1568   */\n      swap1\n      pop\n        /* \"#utility.yul\":1176:1574   */\n      swap2\n      swap1\n      pop\n      jump\t// out\n        /* \"#utility.yul\":1580:1698   */\n    tag_73:\n        /* \"#utility.yul\":1667:1691   */\n      tag_75\n        /* \"#utility.yul\":1685:1690   */\n      dup2\n        /* \"#utility.yul\":1667:1691   */\n      tag_76\n      jump\t// in\n    tag_75:\n        /* \"#utility.yul\":1662:1665   */\n      dup3\n        /* \"#utility.yul\":1655:1692   */\n      mstore\n        /* \"#utility.yul\":1580:1698   */\n      pop\n      pop\n      jump\t// out\n        /* \"#utility.yul\":1704:2083   */\n    tag_36:\n        /* \"#utility.yul\":1888:1891   */\n      0x00\n        /* \"#utility.yul\":1910:2057   */\n      tag_78\n        /* \"#utility.yul\":2053:2056   */\n      dup3\n        /* \"#utility.yul\":1910:2057   */\n      tag_67\n      jump\t// in\n    tag_78:\n        /* \"#utility.yul\":1903:2057   */\n      swap2\n      pop\n        /* \"#utility.yul\":2074:2077   */\n      dup2\n        /* \"#utility.yul\":2067:2077   */\n      swap1\n      pop\n        /* \"#utility.yul\":1704:2083   */\n      swap2\n      swap1\n      pop\n      jump\t// out\n        /* \"#utility.yul\":2089:2343   */\n    tag_16:\n        /* \"#utility.yul\":2198:2202   */\n      0x00\n        /* \"#utility.yul\":2236:2238   */\n      0x20\n        /* \"#utility.yul\":2225:2234   */\n      dup3\n        /* \"#utility.yul\":2221:2239   */\n      add\n        /* \"#utility.yul\":2213:2239   */\n      swap1\n      pop\n        /* \"#utility.yul\":2249:2336   */\n      tag_80\n        /* \"#utility.yul\":2333:2334   */\n      0x00\n        /* \"#utility.yul\":2322:2331   */\n      dup4\n        /* \"#utility.yul\":2318:2335   */\n      add\n        /* \"#utility.yul\":2309:2315   */\n      dup5\n        /* \"#utility.yul\":2249:2336   */\n      tag_44\n      jump\t// in\n    tag_80:\n        /* \"#utility.yul\":2089:2343   */\n      swap3\n      swap2\n      pop\n      pop\n      jump\t// out\n        /* \"#utility.yul\":2349:2681   */\n    tag_42:\n        /* \"#utility.yul\":2470:2474   */\n      0x00\n        /* \"#utility.yul\":2508:2510   */\n      0x40\n        /* \"#utility.yul\":2497:2506   */\n      dup3\n        /* \"#utility.yul\":2493:2511   */\n      add\n        /* \"#utility.yul\":2485:2511   */\n      swap1\n      pop\n        /* \"#utility.yul\":2521:2592   */\n      tag_82\n        /* \"#utility.yul\":2589:2590   */\n      0x00\n        /* \"#utility.yul\":2578:2587   */\n      dup4\n        /* \"#utility.yul\":2574:2591   */\n      add\n        /* \"#utility.yul\":2565:2571   */\n      dup6\n        /* \"#utility.yul\":2521:2592   */\n      tag_48\n      jump\t// in\n    tag_82:\n        /* \"#utility.yul\":2602:2674   */\n      tag_83\n        /* \"#utility.yul\":2670:2672   */\n      0x20\n        /* \"#utility.yul\":2659:2668   */\n      dup4\n        /* \"#utility.yul\":2655:2673   */\n      add\n        /* \"#utility.yul\":2646:2652   */\n      dup5\n        /* \"#utility.yul\":2602:2674   */\n      tag_73\n      jump\t// in\n    tag_83:\n        /* \"#utility.yul\":2349:2681   */\n      swap4\n      swap3\n      pop\n      pop\n      pop\n      jump\t// out\n        /* \"#utility.yul\":2687:2925   */\n    tag_11:\n        /* \"#utility.yul\":2788:2792   */\n      0x00\n        /* \"#utility.yul\":2826:2828   */\n      0x20\n        /* \"#utility.yul\":2815:2824   */\n      dup3\n        /* \"#utility.yul\":2811:2829   */\n      add\n        /* \"#utility.yul\":2803:2829   */\n      swap1\n      pop\n        /* \"#utility.yul\":2839:2918   */\n      tag_85\n        /* \"#utility.yul\":2915:2916   */\n      0x00\n        /* \"#utility.yul\":2904:2913   */\n      dup4\n        /* \"#utility.yul\":2900:2917   */\n      add\n        /* \"#utility.yul\":2891:2897   */\n      dup5\n        /* \"#utility.yul\":2839:2918   */\n      tag_52\n      jump\t// in\n    tag_85:\n        /* \"#utility.yul\":2687:2925   */\n      swap3\n      swap2\n      pop\n      pop\n      jump\t// out\n        /* \"#utility.yul\":2931:3350   */\n    tag_29:\n        /* \"#utility.yul\":3097:3101   */\n      0x00\n        /* \"#utility.yul\":3135:3137   */\n      0x20\n        /* \"#utility.yul\":3124:3133   */\n      dup3\n        /* \"#utility.yul\":3120:3138   */\n      add\n        /* \"#utility.yul\":3112:3138   */\n      swap1\n      pop\n        /* \"#utility.yul\":3184:3193   */\n      dup2\n        /* \"#utility.yul\":3178:3182   */\n      dup2\n        /* \"#utility.yul\":3174:3194   */\n      sub\n        /* \"#utility.yul\":3170:3171   */\n      0x00\n        /* \"#utility.yul\":3159:3168   */\n      dup4\n        /* \"#utility.yul\":3155:3172   */\n      add\n        /* \"#utility.yul\":3148:3195   */\n      mstore\n        /* \"#utility.yul\":3212:3343   */\n      tag_87\n        /* \"#utility.yul\":3338:3342   */\n      dup2\n        /* \"#utility.yul\":3212:3343   */\n      tag_56\n      jump\t// in\n    tag_87:\n        /* \"#utility.yul\":3204:3343   */\n      swap1\n      pop\n        /* \"#utility.yul\":2931:3350   */\n      swap2\n      swap1\n      pop\n      jump\t// out\n        /* \"#utility.yul\":3356:3775   */\n    tag_25:\n        /* \"#utility.yul\":3522:3526   */\n      0x00\n        /* \"#utility.yul\":3560:3562   */\n      0x20\n        /* \"#utility.yul\":3549:3558   */\n      dup3\n        /* \"#utility.yul\":3545:3563   */\n      add\n        /* \"#utility.yul\":3537:3563   */\n      swap1\n      pop\n        /* \"#utility.yul\":3609:3618   */\n      dup2\n        /* \"#utility.yul\":3603:3607   */\n      dup2\n        /* \"#utility.yul\":3599:3619   */\n      sub\n        /* \"#utility.yul\":3595:3596   */\n      0x00\n        /* \"#utility.yul\":3584:3593   */\n      dup4\n        /* \"#utility.yul\":3580:3597   */\n      add\n        /* \"#utility.yul\":3573:3620   */\n      mstore\n        /* \"#utility.yul\":3637:3768   */\n      tag_89\n        /* \"#utility.yul\":3763:3767   */\n      dup2\n        /* \"#utility.yul\":3637:3768   */\n      tag_62\n      jump\t// in\n    tag_89:\n        /* \"#utility.yul\":3629:3768   */\n      swap1\n      pop\n        /* \"#utility.yul\":3356:3775   */\n      swap2\n      swap1\n      pop\n      jump\t// out\n        /* \"#utility.yul\":3781:3928   */\n    tag_70:\n        /* \"#utility.yul\":3882:3893   */\n      0x00\n        /* \"#utility.yul\":3919:3922   */\n      dup2\n        /* \"#utility.yul\":3904:3922   */\n      swap1\n      pop\n        /* \"#utility.yul\":3781:3928   */\n      swap3\n      swap2\n      pop\n      pop\n      jump\t// out\n        /* \"#utility.yul\":3934:4103   */\n    tag_59:\n        /* \"#utility.yul\":4018:4029   */\n      0x00\n        /* \"#utility.yul\":4052:4058   */\n      dup3\n        /* \"#utility.yul\":4047:4050   */\n      dup3\n        /* \"#utility.yul\":4040:4059   */\n      mstore\n        /* \"#utility.yul\":4092:4096   */\n      0x20\n        /* \"#utility.yul\":4087:4090   */\n      dup3\n        /* \"#utility.yul\":4083:4097   */\n      add\n        /* \"#utility.yul\":4068:4097   */\n      swap1\n      pop\n        /* \"#utility.yul\":3934:4103   */\n      swap3\n      swap2\n      pop\n      pop\n      jump\t// out\n        /* \"#utility.yul\":4109:4205   */\n    tag_51:\n        /* \"#utility.yul\":4146:4153   */\n      0x00\n        /* \"#utility.yul\":4175:4199   */\n      tag_93\n        /* \"#utility.yul\":4193:4198   */\n      dup3\n        /* \"#utility.yul\":4175:4199   */\n      tag_94\n      jump\t// in\n    tag_93:\n        /* \"#utility.yul\":4164:4199   */\n      swap1\n      pop\n        /* \"#utility.yul\":4109:4205   */\n      swap2\n      swap1\n      pop\n      jump\t// out\n        /* \"#utility.yul\":4211:4315   */\n    tag_47:\n        /* \"#utility.yul\":4256:4263   */\n      0x00\n        /* \"#utility.yul\":4285:4309   */\n      tag_96\n        /* \"#utility.yul\":4303:4308   */\n      dup3\n        /* \"#utility.yul\":4285:4309   */\n      tag_94\n      jump\t// in\n    tag_96:\n        /* \"#utility.yul\":4274:4309   */\n      swap1\n      pop\n        /* \"#utility.yul\":4211:4315   */\n      swap2\n      swap1\n      pop\n      jump\t// out\n        /* \"#utility.yul\":4321:4452   */\n    tag_97:\n        /* \"#utility.yul\":4368:4375   */\n      0x00\n        /* \"#utility.yul\":4397:4402   */\n      dup2\n        /* \"#utility.yul\":4386:4402   */\n      swap1\n      pop\n        /* \"#utility.yul\":4403:4446   */\n      tag_99\n        /* \"#utility.yul\":4440:4445   */\n      dup3\n        /* \"#utility.yul\":4403:4446   */\n      tag_100\n      jump\t// in\n    tag_99:\n        /* \"#utility.yul\":4321:4452   */\n      swap2\n      swap1\n      pop\n      jump\t// out\n        /* \"#utility.yul\":4458:4584   */\n    tag_94:\n        /* \"#utility.yul\":4495:4502   */\n      0x00\n        /* \"#utility.yul\":4535:4577   */\n      0xffffffffffffffffffffffffffffffffffffffff\n        /* \"#utility.yul\":4528:4533   */\n      dup3\n        /* \"#utility.yul\":4524:4578   */\n      and\n        /* \"#utility.yul\":4513:4578   */\n      swap1\n      pop\n        /* \"#utility.yul\":4458:4584   */\n      swap2\n      swap1\n      pop\n      jump\t// out\n        /* \"#utility.yul\":4590:4667   */\n    tag_76:\n        /* \"#utility.yul\":4627:4634   */\n      0x00\n        /* \"#utility.yul\":4656:4661   */\n      dup2\n        /* \"#utility.yul\":4645:4661   */\n      swap1\n      pop\n        /* \"#utility.yul\":4590:4667   */\n      swap2\n      swap1\n      pop\n      jump\t// out\n        /* \"#utility.yul\":4673:4804   */\n    tag_55:\n        /* \"#utility.yul\":4731:4740   */\n      0x00\n        /* \"#utility.yul\":4764:4798   */\n      tag_104\n        /* \"#utility.yul\":4792:4797   */\n      dup3\n        /* \"#utility.yul\":4764:4798   */\n      tag_97\n      jump\t// in\n    tag_104:\n        /* \"#utility.yul\":4751:4798   */\n      swap1\n      pop\n        /* \"#utility.yul\":4673:4804   */\n      swap2\n      swap1\n      pop\n      jump\t// out\n        /* \"#utility.yul\":4810:4990   */\n    tag_20:\n        /* \"#utility.yul\":4858:4935   */\n      0x4e487b7100000000000000000000000000000000000000000000000000000000\n        /* \"#utility.yul\":4855:4856   */\n      0x00\n        /* \"#utility.yul\":4848:4936   */\n      mstore\n        /* \"#utility.yul\":4955:4959   */\n      0x21\n        /* \"#utility.yul\":4952:4953   */\n      0x04\n        /* \"#utility.yul\":4945:4960   */\n      mstore\n        /* \"#utility.yul\":4979:4983   */\n      0x24\n        /* \"#utility.yul\":4976:4977   */\n      0x00\n        /* \"#utility.yul\":4969:4984   */\n      revert\n        /* \"#utility.yul\":4996:5172   */\n    tag_61:\n        /* \"#utility.yul\":5136:5164   */\n      0x4e6f7420656e6f7567682065746865722070726f76696465642e000000000000\n        /* \"#utility.yul\":5132:5133   */\n      0x00\n        /* \"#utility.yul\":5124:5130   */\n      dup3\n        /* \"#utility.yul\":5120:5134   */\n      add\n        /* \"#utility.yul\":5113:5165   */\n      mstore\n        /* \"#utility.yul\":4996:5172   */\n      pop\n      jump\t// out\n        /* \"#utility.yul\":5178:5347   */\n    tag_66:\n        /* \"#utility.yul\":5318:5339   */\n      0x43757272656e746c79206f636375706965642e00000000000000000000000000\n        /* \"#utility.yul\":5314:5315   */\n      0x00\n        /* \"#utility.yul\":5306:5312   */\n      dup3\n        /* \"#utility.yul\":5302:5316   */\n      add\n        /* \"#utility.yul\":5295:5340   */\n      mstore\n        /* \"#utility.yul\":5178:5347   */\n      pop\n      jump\t// out\n        /* \"#utility.yul\":5353:5467   */\n    tag_72:\n      pop\n      jump\t// out\n        /* \"#utility.yul\":5473:5588   */\n    tag_100:\n        /* \"#utility.yul\":5556:5557   */\n      0x02\n        /* \"#utility.yul\":5549:5554   */\n      dup2\n        /* \"#utility.yul\":5546:5558   */\n      lt\n        /* \"#utility.yul\":5536:5582   */\n      tag_110\n      jumpi\n        /* \"#utility.yul\":5562:5580   */\n      tag_111\n      tag_20\n      jump\t// in\n    tag_111:\n        /* \"#utility.yul\":5536:5582   */\n    tag_110:\n        /* \"#utility.yul\":5473:5588   */\n      pop\n      jump\t// out\n\n    auxdata: 0xa2646970667358221220b26169e95a793b28540a00136c0a68d2bbd11447944a7bb631d9a74eb2afbb7f64736f6c63430008070033\n}\n",
				"bytecode": {
					"linkReferences": {},
					"object": "608060405234801561001057600080fd5b5033600060016101000a81548173ffffffffffffffffffffffffffffffffffffffff021916908373ffffffffffffffffffffffffffffffffffffffff16021790555060008060006101000a81548160ff0219169083600181111561007757610076610081565b5b02179055506100b0565b7f4e487b7100000000000000000000000000000000000000000000000000000000600052602160045260246000fd5b6105b2806100bf6000396000f3fe6080604052600436106100345760003560e01c806305a8da7214610039578063200d2ed2146100435780638da5cb5b1461006e575b600080fd5b610041610099565b005b34801561004f57600080fd5b506100586102c5565b60405161006591906103fa565b60405180910390f35b34801561007a57600080fd5b506100836102d6565b60405161009091906103b6565b60405180910390f35b600060018111156100ad576100ac6104e4565b5b60008054906101000a900460ff1660018111156100cd576100cc6104e4565b5b1461010d576040517f08c379a000000000000000000000000000000000000000000000000000000000815260040161010490610435565b60405180910390fd5b671bc16d674ec8000080341015610159576040517f08c379a000000000000000000000000000000000000000000000000000000000815260040161015090610415565b60405180910390fd5b60016000806101000a81548160ff0219169083600181111561017e5761017d6104e4565b5b0217905550600060019054906101000a900473ffffffffffffffffffffffffffffffffffffffff1673ffffffffffffffffffffffffffffffffffffffff166108fc349081150290604051600060405180830381858888f193505050501580156101eb573d6000803e3d6000fd5b50600080600060019054906101000a900473ffffffffffffffffffffffffffffffffffffffff1673ffffffffffffffffffffffffffffffffffffffff1634604051610235906103a1565b60006040518083038185875af1925050503d8060008114610272576040519150601f19603f3d011682016040523d82523d6000602084013e610277565b606091505b5091509150600161028757600080fd5b7fba951166d42eb077151bdecb7cf6027562f04f0143b0c141b1bb0a33eef5d69333346040516102b89291906103d1565b60405180910390a1505050565b60008054906101000a900460ff1681565b600060019054906101000a900473ffffffffffffffffffffffffffffffffffffffff1681565b61030581610483565b82525050565b61031481610471565b82525050565b610323816104d2565b82525050565b6000610336601a83610460565b915061034182610513565b602082019050919050565b6000610359601383610460565b91506103648261053c565b602082019050919050565b600061037c600083610455565b915061038782610565565b600082019050919050565b61039b816104c8565b82525050565b60006103ac8261036f565b9150819050919050565b60006020820190506103cb60008301846102fc565b92915050565b60006040820190506103e6600083018561030b565b6103f36020830184610392565b9392505050565b600060208201905061040f600083018461031a565b92915050565b6000602082019050818103600083015261042e81610329565b9050919050565b6000602082019050818103600083015261044e8161034c565b9050919050565b600081905092915050565b600082825260208201905092915050565b600061047c826104a8565b9050919050565b600061048e826104a8565b9050919050565b60008190506104a382610568565b919050565b600073ffffffffffffffffffffffffffffffffffffffff82169050919050565b6000819050919050565b60006104dd82610495565b9050919050565b7f4e487b7100000000000000000000000000000000000000000000000000000000600052602160045260246000fd5b7f4e6f7420656e6f7567682065746865722070726f76696465642e000000000000600082015250565b7f43757272656e746c79206f636375706965642e00000000000000000000000000600082015250565b50565b60028110610579576105786104e4565b5b5056fea2646970667358221220b26169e95a793b28540a00136c0a68d2bbd11447944a7bb631d9a74eb2afbb7f64736f6c63430008070033",
					"opcodes": "PUSH1 0x80 PUSH1 0x40 MSTORE CALLVALUE DUP1 ISZERO PUSH2 0x10 JUMPI PUSH1 0x0 DUP1 REVERT JUMPDEST POP CALLER PUSH1 0x0 PUSH1 0x1 PUSH2 0x100 EXP DUP2 SLOAD DUP2 PUSH20 0xFFFFFFFFFFFFFFFFFFFFFFFFFFFFFFFFFFFFFFFF MUL NOT AND SWAP1 DUP4 PUSH20 0xFFFFFFFFFFFFFFFFFFFFFFFFFFFFFFFFFFFFFFFF AND MUL OR SWAP1 SSTORE POP PUSH1 0x0 DUP1 PUSH1 0x0 PUSH2 0x100 EXP DUP2 SLOAD DUP2 PUSH1 0xFF MUL NOT AND SWAP1 DUP4 PUSH1 0x1 DUP2 GT ISZERO PUSH2 0x77 JUMPI PUSH2 0x76 PUSH2 0x81 JUMP JUMPDEST JUMPDEST MUL OR SWAP1 SSTORE POP PUSH2 0xB0 JUMP JUMPDEST PUSH32 0x4E487B7100000000000000000000000000000000000000000000000000000000 PUSH1 0x0 MSTORE PUSH1 0x21 PUSH1 0x4 MSTORE PUSH1 0x24 PUSH1 0x0 REVERT JUMPDEST PUSH2 0x5B2 DUP1 PUSH2 0xBF PUSH1 0x0 CODECOPY PUSH1 0x0 RETURN INVALID PUSH1 0x80 PUSH1 0x40 MSTORE PUSH1 0x4 CALLDATASIZE LT PUSH2 0x34 JUMPI PUSH1 0x0 CALLDATALOAD PUSH1 0xE0 SHR DUP1 PUSH4 0x5A8DA72 EQ PUSH2 0x39 JUMPI DUP1 PUSH4 0x200D2ED2 EQ PUSH2 0x43 JUMPI DUP1 PUSH4 0x8DA5CB5B EQ PUSH2 0x6E JUMPI JUMPDEST PUSH1 0x0 DUP1 REVERT JUMPDEST PUSH2 0x41 PUSH2 0x99 JUMP JUMPDEST STOP JUMPDEST CALLVALUE DUP1 ISZERO PUSH2 0x4F JUMPI PUSH1 0x0 DUP1 REVERT JUMPDEST POP PUSH2 0x58 PUSH2 0x2C5 JUMP JUMPDEST PUSH1 0x40 MLOAD PUSH2 0x65 SWAP2 SWAP1 PUSH2 0x3FA JUMP JUMPDEST PUSH1 0x40 MLOAD DUP1 SWAP2 SUB SWAP1 RETURN JUMPDEST CALLVALUE DUP1 ISZERO PUSH2 0x7A JUMPI PUSH1 0x0 DUP1 REVERT JUMPDEST POP PUSH2 0x83 PUSH2 0x2D6 JUMP JUMPDEST PUSH1 0x40 MLOAD PUSH2 0x90 SWAP2 SWAP1 PUSH2 0x3B6 JUMP JUMPDEST PUSH1 0x40 MLOAD DUP1 SWAP2 SUB SWAP1 RETURN JUMPDEST PUSH1 0x0 PUSH1 0x1 DUP2 GT ISZERO PUSH2 0xAD JUMPI PUSH2 0xAC PUSH2 0x4E4 JUMP JUMPDEST JUMPDEST PUSH1 0x0 DUP1 SLOAD SWAP1 PUSH2 0x100 EXP SWAP1 DIV PUSH1 0xFF AND PUSH1 0x1 DUP2 GT ISZERO PUSH2 0xCD JUMPI PUSH2 0xCC PUSH2 0x4E4 JUMP JUMPDEST JUMPDEST EQ PUSH2 0x10D JUMPI PUSH1 0x40 MLOAD PUSH32 0x8C379A000000000000000000000000000000000000000000000000000000000 DUP2 MSTORE PUSH1 0x4 ADD PUSH2 0x104 SWAP1 PUSH2 0x435 JUMP JUMPDEST PUSH1 0x40 MLOAD DUP1 SWAP2 SUB SWAP1 REVERT JUMPDEST PUSH8 0x1BC16D674EC80000 DUP1 CALLVALUE LT ISZERO PUSH2 0x159 JUMPI PUSH1 0x40 MLOAD PUSH32 0x8C379A000000000000000000000000000000000000000000000000000000000 DUP2 MSTORE PUSH1 0x4 ADD PUSH2 0x150 SWAP1 PUSH2 0x415 JUMP JUMPDEST PUSH1 0x40 MLOAD DUP1 SWAP2 SUB SWAP1 REVERT JUMPDEST PUSH1 0x1 PUSH1 0x0 DUP1 PUSH2 0x100 EXP DUP2 SLOAD DUP2 PUSH1 0xFF MUL NOT AND SWAP1 DUP4 PUSH1 0x1 DUP2 GT ISZERO PUSH2 0x17E JUMPI PUSH2 0x17D PUSH2 0x4E4 JUMP JUMPDEST JUMPDEST MUL OR SWAP1 SSTORE POP PUSH1 0x0 PUSH1 0x1 SWAP1 SLOAD SWAP1 PUSH2 0x100 EXP SWAP1 DIV PUSH20 0xFFFFFFFFFFFFFFFFFFFFFFFFFFFFFFFFFFFFFFFF AND PUSH20 0xFFFFFFFFFFFFFFFFFFFFFFFFFFFFFFFFFFFFFFFF AND PUSH2 0x8FC CALLVALUE SWAP1 DUP2 ISZERO MUL SWAP1 PUSH1 0x40 MLOAD PUSH1 0x0 PUSH1 0x40 MLOAD DUP1 DUP4 SUB DUP2 DUP6 DUP9 DUP9 CALL SWAP4 POP POP POP POP ISZERO DUP1 ISZERO PUSH2 0x1EB JUMPI RETURNDATASIZE PUSH1 0x0 DUP1 RETURNDATACOPY RETURNDATASIZE PUSH1 0x0 REVERT JUMPDEST POP PUSH1 0x0 DUP1 PUSH1 0x0 PUSH1 0x1 SWAP1 SLOAD SWAP1 PUSH2 0x100 EXP SWAP1 DIV PUSH20 0xFFFFFFFFFFFFFFFFFFFFFFFFFFFFFFFFFFFFFFFF AND PUSH20 0xFFFFFFFFFFFFFFFFFFFFFFFFFFFFFFFFFFFFFFFF AND CALLVALUE PUSH1 0x40 MLOAD PUSH2 0x235 SWAP1 PUSH2 0x3A1 JUMP JUMPDEST PUSH1 0x0 PUSH1 0x40 MLOAD DUP1 DUP4 SUB DUP2 DUP6 DUP8 GAS CALL SWAP3 POP POP POP RETURNDATASIZE DUP1 PUSH1 0x0 DUP2 EQ PUSH2 0x272 JUMPI PUSH1 0x40 MLOAD SWAP2 POP PUSH1 0x1F NOT PUSH1 0x3F RETURNDATASIZE ADD AND DUP3 ADD PUSH1 0x40 MSTORE RETURNDATASIZE DUP3 MSTORE RETURNDATASIZE PUSH1 0x0 PUSH1 0x20 DUP5 ADD RETURNDATACOPY PUSH2 0x277 JUMP JUMPDEST PUSH1 0x60 SWAP2 POP JUMPDEST POP SWAP2 POP SWAP2 POP PUSH1 0x1 PUSH2 0x287 JUMPI PUSH1 0x0 DUP1 REVERT JUMPDEST PUSH32 0xBA951166D42EB077151BDECB7CF6027562F04F0143B0C141B1BB0A33EEF5D693 CALLER CALLVALUE PUSH1 0x40 MLOAD PUSH2 0x2B8 SWAP3 SWAP2 SWAP1 PUSH2 0x3D1 JUMP JUMPDEST PUSH1 0x40 MLOAD DUP1 SWAP2 SUB SWAP1 LOG1 POP POP POP JUMP JUMPDEST PUSH1 0x0 DUP1 SLOAD SWAP1 PUSH2 0x100 EXP SWAP1 DIV PUSH1 0xFF AND DUP2 JUMP JUMPDEST PUSH1 0x0 PUSH1 0x1 SWAP1 SLOAD SWAP1 PUSH2 0x100 EXP SWAP1 DIV PUSH20 0xFFFFFFFFFFFFFFFFFFFFFFFFFFFFFFFFFFFFFFFF AND DUP2 JUMP JUMPDEST PUSH2 0x305 DUP2 PUSH2 0x483 JUMP JUMPDEST DUP3 MSTORE POP POP JUMP JUMPDEST PUSH2 0x314 DUP2 PUSH2 0x471 JUMP JUMPDEST DUP3 MSTORE POP POP JUMP JUMPDEST PUSH2 0x323 DUP2 PUSH2 0x4D2 JUMP JUMPDEST DUP3 MSTORE POP POP JUMP JUMPDEST PUSH1 0x0 PUSH2 0x336 PUSH1 0x1A DUP4 PUSH2 0x460 JUMP JUMPDEST SWAP2 POP PUSH2 0x341 DUP3 PUSH2 0x513 JUMP JUMPDEST PUSH1 0x20 DUP3 ADD SWAP1 POP SWAP2 SWAP1 POP JUMP JUMPDEST PUSH1 0x0 PUSH2 0x359 PUSH1 0x13 DUP4 PUSH2 0x460 JUMP JUMPDEST SWAP2 POP PUSH2 0x364 DUP3 PUSH2 0x53C JUMP JUMPDEST PUSH1 0x20 DUP3 ADD SWAP1 POP SWAP2 SWAP1 POP JUMP JUMPDEST PUSH1 0x0 PUSH2 0x37C PUSH1 0x0 DUP4 PUSH2 0x455 JUMP JUMPDEST SWAP2 POP PUSH2 0x387 DUP3 PUSH2 0x565 JUMP JUMPDEST PUSH1 0x0 DUP3 ADD SWAP1 POP SWAP2 SWAP1 POP JUMP JUMPDEST PUSH2 0x39B DUP2 PUSH2 0x4C8 JUMP JUMPDEST DUP3 MSTORE POP POP JUMP JUMPDEST PUSH1 0x0 PUSH2 0x3AC DUP3 PUSH2 0x36F JUMP JUMPDEST SWAP2 POP DUP2 SWAP1 POP SWAP2 SWAP1 POP JUMP JUMPDEST PUSH1 0x0 PUSH1 0x20 DUP3 ADD SWAP1 POP PUSH2 0x3CB PUSH1 0x0 DUP4 ADD DUP5 PUSH2 0x2FC JUMP JUMPDEST SWAP3 SWAP2 POP POP JUMP JUMPDEST PUSH1 0x0 PUSH1 0x40 DUP3 ADD SWAP1 POP PUSH2 0x3E6 PUSH1 0x0 DUP4 ADD DUP6 PUSH2 0x30B JUMP JUMPDEST PUSH2 0x3F3 PUSH1 0x20 DUP4 ADD DUP5 PUSH2 0x392 JUMP JUMPDEST SWAP4 SWAP3 POP POP POP JUMP JUMPDEST PUSH1 0x0 PUSH1 0x20 DUP3 ADD SWAP1 POP PUSH2 0x40F PUSH1 0x0 DUP4 ADD DUP5 PUSH2 0x31A JUMP JUMPDEST SWAP3 SWAP2 POP POP JUMP JUMPDEST PUSH1 0x0 PUSH1 0x20 DUP3 ADD SWAP1 POP DUP2 DUP2 SUB PUSH1 0x0 DUP4 ADD MSTORE PUSH2 0x42E DUP2 PUSH2 0x329 JUMP JUMPDEST SWAP1 POP SWAP2 SWAP1 POP JUMP JUMPDEST PUSH1 0x0 PUSH1 0x20 DUP3 ADD SWAP1 POP DUP2 DUP2 SUB PUSH1 0x0 DUP4 ADD MSTORE PUSH2 0x44E DUP2 PUSH2 0x34C JUMP JUMPDEST SWAP1 POP SWAP2 SWAP1 POP JUMP JUMPDEST PUSH1 0x0 DUP2 SWAP1 POP SWAP3 SWAP2 POP POP JUMP JUMPDEST PUSH1 0x0 DUP3 DUP3 MSTORE PUSH1 0x20 DUP3 ADD SWAP1 POP SWAP3 SWAP2 POP POP JUMP JUMPDEST PUSH1 0x0 PUSH2 0x47C DUP3 PUSH2 0x4A8 JUMP JUMPDEST SWAP1 POP SWAP2 SWAP1 POP JUMP JUMPDEST PUSH1 0x0 PUSH2 0x48E DUP3 PUSH2 0x4A8 JUMP JUMPDEST SWAP1 POP SWAP2 SWAP1 POP JUMP JUMPDEST PUSH1 0x0 DUP2 SWAP1 POP PUSH2 0x4A3 DUP3 PUSH2 0x568 JUMP JUMPDEST SWAP2 SWAP1 POP JUMP JUMPDEST PUSH1 0x0 PUSH20 0xFFFFFFFFFFFFFFFFFFFFFFFFFFFFFFFFFFFFFFFF DUP3 AND SWAP1 POP SWAP2 SWAP1 POP JUMP JUMPDEST PUSH1 0x0 DUP2 SWAP1 POP SWAP2 SWAP1 POP JUMP JUMPDEST PUSH1 0x0 PUSH2 0x4DD DUP3 PUSH2 0x495 JUMP JUMPDEST SWAP1 POP SWAP2 SWAP1 POP JUMP JUMPDEST PUSH32 0x4E487B7100000000000000000000000000000000000000000000000000000000 PUSH1 0x0 MSTORE PUSH1 0x21 PUSH1 0x4 MSTORE PUSH1 0x24 PUSH1 0x0 REVERT JUMPDEST PUSH32 0x4E6F7420656E6F7567682065746865722070726F76696465642E000000000000 PUSH1 0x0 DUP3 ADD MSTORE POP JUMP JUMPDEST PUSH32 0x43757272656E746C79206F636375706965642E00000000000000000000000000 PUSH1 0x0 DUP3 ADD MSTORE POP JUMP JUMPDEST POP JUMP JUMPDEST PUSH1 0x2 DUP2 LT PUSH2 0x579 JUMPI PUSH2 0x578 PUSH2 0x4E4 JUMP JUMPDEST JUMPDEST POP JUMP INVALID LOG2 PUSH5 0x6970667358 0x22 SLT KECCAK256 0xB2 PUSH2 0x69E9 GAS PUSH26 0x3B28540A00136C0A68D2BBD11447944A7BB631D9A74EB2AFBB7F PUSH5 0x736F6C6343 STOP ADDMOD SMOD STOP CALLER "
				},
				"gasEstimates": {
					"creation": {
						"codeDepositCost": "291600",
						"executionCost": "48946",
						"totalCost": "340546"
					},
					"external": {
						"book()": "infinite",
						"owner()": "2586",
						"status()": "2557"
					}
				},
				"methodIdentifiers": {
					"book()": "05a8da72",
					"owner()": "8da5cb5b",
					"status()": "200d2ed2"
				}
			},
			"storageLayout": {
				"storage": [
					{
						"astId": 7,
						"contract": "contracts/HotelRoom.sol:HotelRoom",
						"label": "status",
						"offset": 0,
						"slot": "0",
						"type": "t_enum(Statuses)4"
					},
					{
						"astId": 15,
						"contract": "contracts/HotelRoom.sol:HotelRoom",
						"label": "owner",
						"offset": 1,
						"slot": "0",
						"type": "t_address_payable"
					}
				],
				"types": {
					"t_address_payable": {
						"encoding": "inplace",
						"label": "address payable",
						"numberOfBytes": "20"
					},
					"t_enum(Statuses)4": {
						"encoding": "inplace",
						"label": "enum HotelRoom.Statuses",
						"numberOfBytes": "1"
					}
				}
			},
			"userdoc": {
				"kind": "user",
				"methods": {},
				"version": 1
			}
		}
	}
}